{
	"Users/jamesfan/Documents/Coding/DEVote/blockchain/contracts/Election.sol": {
		"Election": {
			"abi": [
				{
					"inputs": [
						{
							"internalType": "address",
							"name": "_owner",
							"type": "address"
						},
						{
							"internalType": "string[]",
							"name": "_candidates",
							"type": "string[]"
						}
					],
					"stateMutability": "nonpayable",
					"type": "constructor"
				},
				{
					"inputs": [],
					"name": "endElection",
					"outputs": [],
					"stateMutability": "nonpayable",
					"type": "function"
				},
				{
					"inputs": [],
					"name": "getCandidates",
					"outputs": [
						{
							"internalType": "string[]",
							"name": "",
							"type": "string[]"
						}
					],
					"stateMutability": "view",
					"type": "function"
				},
				{
					"inputs": [],
					"name": "getElectionStatus",
					"outputs": [
						{
							"internalType": "bool",
							"name": "",
							"type": "bool"
						}
					],
					"stateMutability": "view",
					"type": "function"
				},
				{
					"inputs": [],
					"name": "getOwner",
					"outputs": [
						{
							"internalType": "address",
							"name": "",
							"type": "address"
						}
					],
					"stateMutability": "view",
					"type": "function"
				},
				{
					"inputs": [],
					"name": "getVoteCount",
					"outputs": [
						{
							"internalType": "string[]",
							"name": "candidateNames",
							"type": "string[]"
						},
						{
							"internalType": "uint256[]",
							"name": "numVotes",
							"type": "uint256[]"
						}
					],
					"stateMutability": "view",
					"type": "function"
				}
			],
			"devdoc": {
				"kind": "dev",
				"methods": {},
				"version": 1
			},
			"evm": {
				"assembly": "    /* \"Users/jamesfan/Documents/Coding/DEVote/blockchain/contracts/Election.sol\":151:2263  contract Election {... */\n  mstore(0x40, 0x80)\n    /* \"Users/jamesfan/Documents/Coding/DEVote/blockchain/contracts/Election.sol\":571:872  constructor(address _owner, string[] memory _candidates) {... */\n  callvalue\n  dup1\n  iszero\n  tag_1\n  jumpi\n  0x00\n  dup1\n  revert\ntag_1:\n  pop\n  mload(0x40)\n  sub(codesize, bytecodeSize)\n  dup1\n  bytecodeSize\n  dup4\n  codecopy\n  dup2\n  dup2\n  add\n  0x40\n  mstore\n  dup2\n  add\n  swap1\n  tag_2\n  swap2\n  swap1\n  tag_3\n  jump\t// in\ntag_2:\n    /* \"Users/jamesfan/Documents/Coding/DEVote/blockchain/contracts/Election.sol\":646:652  _owner */\n  dup2\n    /* \"Users/jamesfan/Documents/Coding/DEVote/blockchain/contracts/Election.sol\":638:643  owner */\n  0x00\n  dup1\n    /* \"Users/jamesfan/Documents/Coding/DEVote/blockchain/contracts/Election.sol\":638:652  owner = _owner */\n  0x0100\n  exp\n  dup2\n  sload\n  dup2\n  0xffffffffffffffffffffffffffffffffffffffff\n  mul\n  not\n  and\n  swap1\n  dup4\n  0xffffffffffffffffffffffffffffffffffffffff\n  and\n  mul\n  or\n  swap1\n  sstore\n  pop\n    /* \"Users/jamesfan/Documents/Coding/DEVote/blockchain/contracts/Election.sol\":674:689  block.timestamp */\n  timestamp\n    /* \"Users/jamesfan/Documents/Coding/DEVote/blockchain/contracts/Election.sol\":662:671  timestamp */\n  0x01\n    /* \"Users/jamesfan/Documents/Coding/DEVote/blockchain/contracts/Election.sol\":662:689  timestamp = block.timestamp */\n  dup2\n  swap1\n  sstore\n  pop\n    /* \"Users/jamesfan/Documents/Coding/DEVote/blockchain/contracts/Election.sol\":712:723  _candidates */\n  dup1\n    /* \"Users/jamesfan/Documents/Coding/DEVote/blockchain/contracts/Election.sol\":699:709  candidates */\n  0x02\n    /* \"Users/jamesfan/Documents/Coding/DEVote/blockchain/contracts/Election.sol\":699:723  candidates = _candidates */\n  swap1\n  dup1\n  mload\n  swap1\n  0x20\n  add\n  swap1\n  tag_6\n  swap3\n  swap2\n  swap1\n  tag_7\n  jump\t// in\ntag_6:\n  pop\n    /* \"Users/jamesfan/Documents/Coding/DEVote/blockchain/contracts/Election.sol\":744:749  false */\n  0x00\n    /* \"Users/jamesfan/Documents/Coding/DEVote/blockchain/contracts/Election.sol\":733:741  hasEnded */\n  0x06\n  0x00\n    /* \"Users/jamesfan/Documents/Coding/DEVote/blockchain/contracts/Election.sol\":733:749  hasEnded = false */\n  0x0100\n  exp\n  dup2\n  sload\n  dup2\n  0xff\n  mul\n  not\n  and\n  swap1\n  dup4\n  iszero\n  iszero\n  mul\n  or\n  swap1\n  sstore\n  pop\n    /* \"Users/jamesfan/Documents/Coding/DEVote/blockchain/contracts/Election.sol\":765:774  uint256 i */\n  0x00\n    /* \"Users/jamesfan/Documents/Coding/DEVote/blockchain/contracts/Election.sol\":760:866  for (uint256 i = 0; i < candidates.length; i++) {... */\ntag_8:\n    /* \"Users/jamesfan/Documents/Coding/DEVote/blockchain/contracts/Election.sol\":784:794  candidates */\n  0x02\n    /* \"Users/jamesfan/Documents/Coding/DEVote/blockchain/contracts/Election.sol\":784:801  candidates.length */\n  dup1\n  sload\n  swap1\n  pop\n    /* \"Users/jamesfan/Documents/Coding/DEVote/blockchain/contracts/Election.sol\":780:781  i */\n  dup2\n    /* \"Users/jamesfan/Documents/Coding/DEVote/blockchain/contracts/Election.sol\":780:801  i < candidates.length */\n  lt\n    /* \"Users/jamesfan/Documents/Coding/DEVote/blockchain/contracts/Election.sol\":760:866  for (uint256 i = 0; i < candidates.length; i++) {... */\n  iszero\n  tag_9\n  jumpi\n    /* \"Users/jamesfan/Documents/Coding/DEVote/blockchain/contracts/Election.sol\":854:855  0 */\n  0x00\n    /* \"Users/jamesfan/Documents/Coding/DEVote/blockchain/contracts/Election.sol\":822:836  candidateVotes */\n  0x04\n    /* \"Users/jamesfan/Documents/Coding/DEVote/blockchain/contracts/Election.sol\":837:847  candidates */\n  0x02\n    /* \"Users/jamesfan/Documents/Coding/DEVote/blockchain/contracts/Election.sol\":848:849  i */\n  dup4\n    /* \"Users/jamesfan/Documents/Coding/DEVote/blockchain/contracts/Election.sol\":837:850  candidates[i] */\n  dup2\n  sload\n  dup2\n  lt\n  tag_11\n  jumpi\n  tag_12\n  tag_13\n  jump\t// in\ntag_12:\ntag_11:\n  swap1\n  0x00\n  mstore\n  keccak256(0x00, 0x20)\n  add\n    /* \"Users/jamesfan/Documents/Coding/DEVote/blockchain/contracts/Election.sol\":822:851  candidateVotes[candidates[i]] */\n  mload(0x40)\n  tag_15\n  swap2\n  swap1\n  tag_16\n  jump\t// in\ntag_15:\n  swap1\n  dup2\n  mstore\n  0x20\n  add\n  mload(0x40)\n  dup1\n  swap2\n  sub\n  swap1\n  keccak256\n    /* \"Users/jamesfan/Documents/Coding/DEVote/blockchain/contracts/Election.sol\":822:855  candidateVotes[candidates[i]] = 0 */\n  dup2\n  swap1\n  sstore\n  pop\n    /* \"Users/jamesfan/Documents/Coding/DEVote/blockchain/contracts/Election.sol\":803:806  i++ */\n  dup1\n  dup1\n  0x01\n  add\n  swap2\n  pop\n  pop\n    /* \"Users/jamesfan/Documents/Coding/DEVote/blockchain/contracts/Election.sol\":760:866  for (uint256 i = 0; i < candidates.length; i++) {... */\n  jump(tag_8)\ntag_9:\n  pop\n    /* \"Users/jamesfan/Documents/Coding/DEVote/blockchain/contracts/Election.sol\":571:872  constructor(address _owner, string[] memory _candidates) {... */\n  pop\n  pop\n    /* \"Users/jamesfan/Documents/Coding/DEVote/blockchain/contracts/Election.sol\":151:2263  contract Election {... */\n  jump(tag_17)\ntag_7:\n  dup3\n  dup1\n  sload\n  dup3\n  dup3\n  sstore\n  swap1\n  0x00\n  mstore\n  keccak256(0x00, 0x20)\n  swap1\n  dup2\n  add\n  swap3\n  dup3\n  iszero\n  tag_18\n  jumpi\n  swap2\n  0x20\n  mul\n  dup3\n  add\ntag_19:\n  dup3\n  dup2\n  gt\n  iszero\n  tag_20\n  jumpi\n  dup3\n  mload\n  dup3\n  swap1\n  dup2\n  tag_21\n  swap2\n  swap1\n  tag_22\n  jump\t// in\ntag_21:\n  pop\n  swap2\n  0x20\n  add\n  swap2\n  swap1\n  0x01\n  add\n  swap1\n  jump(tag_19)\ntag_20:\ntag_18:\n  pop\n  swap1\n  pop\n  tag_23\n  swap2\n  swap1\n  tag_24\n  jump\t// in\ntag_23:\n  pop\n  swap1\n  jump\t// out\ntag_24:\ntag_25:\n  dup1\n  dup3\n  gt\n  iszero\n  tag_26\n  jumpi\n  0x00\n  dup2\n  dup2\n  tag_27\n  swap2\n  swap1\n  tag_28\n  jump\t// in\ntag_27:\n  pop\n  0x01\n  add\n  jump(tag_25)\ntag_26:\n  pop\n  swap1\n  jump\t// out\ntag_28:\n  pop\n  dup1\n  sload\n  tag_29\n  swap1\n  tag_30\n  jump\t// in\ntag_29:\n  0x00\n  dup3\n  sstore\n  dup1\n  0x1f\n  lt\n  tag_32\n  jumpi\n  pop\n  jump(tag_31)\ntag_32:\n  0x1f\n  add\n  0x20\n  swap1\n  div\n  swap1\n  0x00\n  mstore\n  keccak256(0x00, 0x20)\n  swap1\n  dup2\n  add\n  swap1\n  tag_33\n  swap2\n  swap1\n  tag_34\n  jump\t// in\ntag_33:\ntag_31:\n  pop\n  jump\t// out\ntag_34:\ntag_35:\n  dup1\n  dup3\n  gt\n  iszero\n  tag_36\n  jumpi\n  0x00\n  dup2\n  0x00\n  swap1\n  sstore\n  pop\n  0x01\n  add\n  jump(tag_35)\ntag_36:\n  pop\n  swap1\n  jump\t// out\n    /* \"#utility.yul\":7:82   */\ntag_37:\n    /* \"#utility.yul\":40:46   */\n  0x00\n    /* \"#utility.yul\":73:75   */\n  0x40\n    /* \"#utility.yul\":67:76   */\n  mload\n    /* \"#utility.yul\":57:76   */\n  swap1\n  pop\n    /* \"#utility.yul\":7:82   */\n  swap1\n  jump\t// out\n    /* \"#utility.yul\":88:205   */\ntag_38:\n    /* \"#utility.yul\":197:198   */\n  0x00\n    /* \"#utility.yul\":194:195   */\n  dup1\n    /* \"#utility.yul\":187:199   */\n  revert\n    /* \"#utility.yul\":211:328   */\ntag_39:\n    /* \"#utility.yul\":320:321   */\n  0x00\n    /* \"#utility.yul\":317:318   */\n  dup1\n    /* \"#utility.yul\":310:322   */\n  revert\n    /* \"#utility.yul\":334:460   */\ntag_40:\n    /* \"#utility.yul\":371:378   */\n  0x00\n    /* \"#utility.yul\":411:453   */\n  0xffffffffffffffffffffffffffffffffffffffff\n    /* \"#utility.yul\":404:409   */\n  dup3\n    /* \"#utility.yul\":400:454   */\n  and\n    /* \"#utility.yul\":389:454   */\n  swap1\n  pop\n    /* \"#utility.yul\":334:460   */\n  swap2\n  swap1\n  pop\n  jump\t// out\n    /* \"#utility.yul\":466:562   */\ntag_41:\n    /* \"#utility.yul\":503:510   */\n  0x00\n    /* \"#utility.yul\":532:556   */\n  tag_84\n    /* \"#utility.yul\":550:555   */\n  dup3\n    /* \"#utility.yul\":532:556   */\n  tag_40\n  jump\t// in\ntag_84:\n    /* \"#utility.yul\":521:556   */\n  swap1\n  pop\n    /* \"#utility.yul\":466:562   */\n  swap2\n  swap1\n  pop\n  jump\t// out\n    /* \"#utility.yul\":568:690   */\ntag_42:\n    /* \"#utility.yul\":641:665   */\n  tag_86\n    /* \"#utility.yul\":659:664   */\n  dup2\n    /* \"#utility.yul\":641:665   */\n  tag_41\n  jump\t// in\ntag_86:\n    /* \"#utility.yul\":634:639   */\n  dup2\n    /* \"#utility.yul\":631:666   */\n  eq\n    /* \"#utility.yul\":621:684   */\n  tag_87\n  jumpi\n    /* \"#utility.yul\":680:681   */\n  0x00\n    /* \"#utility.yul\":677:678   */\n  dup1\n    /* \"#utility.yul\":670:682   */\n  revert\n    /* \"#utility.yul\":621:684   */\ntag_87:\n    /* \"#utility.yul\":568:690   */\n  pop\n  jump\t// out\n    /* \"#utility.yul\":696:839   */\ntag_43:\n    /* \"#utility.yul\":753:758   */\n  0x00\n    /* \"#utility.yul\":784:790   */\n  dup2\n    /* \"#utility.yul\":778:791   */\n  mload\n    /* \"#utility.yul\":769:791   */\n  swap1\n  pop\n    /* \"#utility.yul\":800:833   */\n  tag_89\n    /* \"#utility.yul\":827:832   */\n  dup2\n    /* \"#utility.yul\":800:833   */\n  tag_42\n  jump\t// in\ntag_89:\n    /* \"#utility.yul\":696:839   */\n  swap3\n  swap2\n  pop\n  pop\n  jump\t// out\n    /* \"#utility.yul\":845:962   */\ntag_44:\n    /* \"#utility.yul\":954:955   */\n  0x00\n    /* \"#utility.yul\":951:952   */\n  dup1\n    /* \"#utility.yul\":944:956   */\n  revert\n    /* \"#utility.yul\":968:1070   */\ntag_45:\n    /* \"#utility.yul\":1009:1015   */\n  0x00\n    /* \"#utility.yul\":1060:1062   */\n  0x1f\n    /* \"#utility.yul\":1056:1063   */\n  not\n    /* \"#utility.yul\":1051:1053   */\n  0x1f\n    /* \"#utility.yul\":1044:1049   */\n  dup4\n    /* \"#utility.yul\":1040:1054   */\n  add\n    /* \"#utility.yul\":1036:1064   */\n  and\n    /* \"#utility.yul\":1026:1064   */\n  swap1\n  pop\n    /* \"#utility.yul\":968:1070   */\n  swap2\n  swap1\n  pop\n  jump\t// out\n    /* \"#utility.yul\":1076:1256   */\ntag_46:\n    /* \"#utility.yul\":1124:1201   */\n  0x4e487b7100000000000000000000000000000000000000000000000000000000\n    /* \"#utility.yul\":1121:1122   */\n  0x00\n    /* \"#utility.yul\":1114:1202   */\n  mstore\n    /* \"#utility.yul\":1221:1225   */\n  0x41\n    /* \"#utility.yul\":1218:1219   */\n  0x04\n    /* \"#utility.yul\":1211:1226   */\n  mstore\n    /* \"#utility.yul\":1245:1249   */\n  0x24\n    /* \"#utility.yul\":1242:1243   */\n  0x00\n    /* \"#utility.yul\":1235:1250   */\n  revert\n    /* \"#utility.yul\":1262:1543   */\ntag_47:\n    /* \"#utility.yul\":1345:1372   */\n  tag_94\n    /* \"#utility.yul\":1367:1371   */\n  dup3\n    /* \"#utility.yul\":1345:1372   */\n  tag_45\n  jump\t// in\ntag_94:\n    /* \"#utility.yul\":1337:1343   */\n  dup2\n    /* \"#utility.yul\":1333:1373   */\n  add\n    /* \"#utility.yul\":1475:1481   */\n  dup2\n    /* \"#utility.yul\":1463:1473   */\n  dup2\n    /* \"#utility.yul\":1460:1482   */\n  lt\n    /* \"#utility.yul\":1439:1457   */\n  0xffffffffffffffff\n    /* \"#utility.yul\":1427:1437   */\n  dup3\n    /* \"#utility.yul\":1424:1458   */\n  gt\n    /* \"#utility.yul\":1421:1483   */\n  or\n    /* \"#utility.yul\":1418:1506   */\n  iszero\n  tag_95\n  jumpi\n    /* \"#utility.yul\":1486:1504   */\n  tag_96\n  tag_46\n  jump\t// in\ntag_96:\n    /* \"#utility.yul\":1418:1506   */\ntag_95:\n    /* \"#utility.yul\":1526:1536   */\n  dup1\n    /* \"#utility.yul\":1522:1524   */\n  0x40\n    /* \"#utility.yul\":1515:1537   */\n  mstore\n    /* \"#utility.yul\":1305:1543   */\n  pop\n    /* \"#utility.yul\":1262:1543   */\n  pop\n  pop\n  jump\t// out\n    /* \"#utility.yul\":1549:1678   */\ntag_48:\n    /* \"#utility.yul\":1583:1589   */\n  0x00\n    /* \"#utility.yul\":1610:1630   */\n  tag_98\n  tag_37\n  jump\t// in\ntag_98:\n    /* \"#utility.yul\":1600:1630   */\n  swap1\n  pop\n    /* \"#utility.yul\":1639:1672   */\n  tag_99\n    /* \"#utility.yul\":1667:1671   */\n  dup3\n    /* \"#utility.yul\":1659:1665   */\n  dup3\n    /* \"#utility.yul\":1639:1672   */\n  tag_47\n  jump\t// in\ntag_99:\n    /* \"#utility.yul\":1549:1678   */\n  swap2\n  swap1\n  pop\n  jump\t// out\n    /* \"#utility.yul\":1684:2005   */\ntag_49:\n    /* \"#utility.yul\":1771:1775   */\n  0x00\n    /* \"#utility.yul\":1861:1879   */\n  0xffffffffffffffff\n    /* \"#utility.yul\":1853:1859   */\n  dup3\n    /* \"#utility.yul\":1850:1880   */\n  gt\n    /* \"#utility.yul\":1847:1903   */\n  iszero\n  tag_101\n  jumpi\n    /* \"#utility.yul\":1883:1901   */\n  tag_102\n  tag_46\n  jump\t// in\ntag_102:\n    /* \"#utility.yul\":1847:1903   */\ntag_101:\n    /* \"#utility.yul\":1933:1937   */\n  0x20\n    /* \"#utility.yul\":1925:1931   */\n  dup3\n    /* \"#utility.yul\":1921:1938   */\n  mul\n    /* \"#utility.yul\":1913:1938   */\n  swap1\n  pop\n    /* \"#utility.yul\":1993:1997   */\n  0x20\n    /* \"#utility.yul\":1987:1991   */\n  dup2\n    /* \"#utility.yul\":1983:1998   */\n  add\n    /* \"#utility.yul\":1975:1998   */\n  swap1\n  pop\n    /* \"#utility.yul\":1684:2005   */\n  swap2\n  swap1\n  pop\n  jump\t// out\n    /* \"#utility.yul\":2011:2128   */\ntag_50:\n    /* \"#utility.yul\":2120:2121   */\n  0x00\n    /* \"#utility.yul\":2117:2118   */\n  dup1\n    /* \"#utility.yul\":2110:2122   */\n  revert\n    /* \"#utility.yul\":2134:2251   */\ntag_51:\n    /* \"#utility.yul\":2243:2244   */\n  0x00\n    /* \"#utility.yul\":2240:2241   */\n  dup1\n    /* \"#utility.yul\":2233:2245   */\n  revert\n    /* \"#utility.yul\":2257:2565   */\ntag_52:\n    /* \"#utility.yul\":2319:2323   */\n  0x00\n    /* \"#utility.yul\":2409:2427   */\n  0xffffffffffffffff\n    /* \"#utility.yul\":2401:2407   */\n  dup3\n    /* \"#utility.yul\":2398:2428   */\n  gt\n    /* \"#utility.yul\":2395:2451   */\n  iszero\n  tag_106\n  jumpi\n    /* \"#utility.yul\":2431:2449   */\n  tag_107\n  tag_46\n  jump\t// in\ntag_107:\n    /* \"#utility.yul\":2395:2451   */\ntag_106:\n    /* \"#utility.yul\":2469:2498   */\n  tag_108\n    /* \"#utility.yul\":2491:2497   */\n  dup3\n    /* \"#utility.yul\":2469:2498   */\n  tag_45\n  jump\t// in\ntag_108:\n    /* \"#utility.yul\":2461:2498   */\n  swap1\n  pop\n    /* \"#utility.yul\":2553:2557   */\n  0x20\n    /* \"#utility.yul\":2547:2551   */\n  dup2\n    /* \"#utility.yul\":2543:2558   */\n  add\n    /* \"#utility.yul\":2535:2558   */\n  swap1\n  pop\n    /* \"#utility.yul\":2257:2565   */\n  swap2\n  swap1\n  pop\n  jump\t// out\n    /* \"#utility.yul\":2571:2817   */\ntag_53:\n    /* \"#utility.yul\":2652:2653   */\n  0x00\n    /* \"#utility.yul\":2662:2775   */\ntag_110:\n    /* \"#utility.yul\":2676:2682   */\n  dup4\n    /* \"#utility.yul\":2673:2674   */\n  dup2\n    /* \"#utility.yul\":2670:2683   */\n  lt\n    /* \"#utility.yul\":2662:2775   */\n  iszero\n  tag_112\n  jumpi\n    /* \"#utility.yul\":2761:2762   */\n  dup1\n    /* \"#utility.yul\":2756:2759   */\n  dup3\n    /* \"#utility.yul\":2752:2763   */\n  add\n    /* \"#utility.yul\":2746:2764   */\n  mload\n    /* \"#utility.yul\":2742:2743   */\n  dup2\n    /* \"#utility.yul\":2737:2740   */\n  dup5\n    /* \"#utility.yul\":2733:2744   */\n  add\n    /* \"#utility.yul\":2726:2765   */\n  mstore\n    /* \"#utility.yul\":2698:2700   */\n  0x20\n    /* \"#utility.yul\":2695:2696   */\n  dup2\n    /* \"#utility.yul\":2691:2701   */\n  add\n    /* \"#utility.yul\":2686:2701   */\n  swap1\n  pop\n    /* \"#utility.yul\":2662:2775   */\n  jump(tag_110)\ntag_112:\n    /* \"#utility.yul\":2809:2810   */\n  0x00\n    /* \"#utility.yul\":2800:2806   */\n  dup5\n    /* \"#utility.yul\":2795:2798   */\n  dup5\n    /* \"#utility.yul\":2791:2807   */\n  add\n    /* \"#utility.yul\":2784:2811   */\n  mstore\n    /* \"#utility.yul\":2633:2817   */\n  pop\n    /* \"#utility.yul\":2571:2817   */\n  pop\n  pop\n  pop\n  jump\t// out\n    /* \"#utility.yul\":2823:3257   */\ntag_54:\n    /* \"#utility.yul\":2912:2917   */\n  0x00\n    /* \"#utility.yul\":2937:3003   */\n  tag_114\n    /* \"#utility.yul\":2953:3002   */\n  tag_115\n    /* \"#utility.yul\":2995:3001   */\n  dup5\n    /* \"#utility.yul\":2953:3002   */\n  tag_52\n  jump\t// in\ntag_115:\n    /* \"#utility.yul\":2937:3003   */\n  tag_48\n  jump\t// in\ntag_114:\n    /* \"#utility.yul\":2928:3003   */\n  swap1\n  pop\n    /* \"#utility.yul\":3026:3032   */\n  dup3\n    /* \"#utility.yul\":3019:3024   */\n  dup2\n    /* \"#utility.yul\":3012:3033   */\n  mstore\n    /* \"#utility.yul\":3064:3068   */\n  0x20\n    /* \"#utility.yul\":3057:3062   */\n  dup2\n    /* \"#utility.yul\":3053:3069   */\n  add\n    /* \"#utility.yul\":3102:3105   */\n  dup5\n    /* \"#utility.yul\":3093:3099   */\n  dup5\n    /* \"#utility.yul\":3088:3091   */\n  dup5\n    /* \"#utility.yul\":3084:3100   */\n  add\n    /* \"#utility.yul\":3081:3106   */\n  gt\n    /* \"#utility.yul\":3078:3190   */\n  iszero\n  tag_116\n  jumpi\n    /* \"#utility.yul\":3109:3188   */\n  tag_117\n  tag_51\n  jump\t// in\ntag_117:\n    /* \"#utility.yul\":3078:3190   */\ntag_116:\n    /* \"#utility.yul\":3199:3251   */\n  tag_118\n    /* \"#utility.yul\":3244:3250   */\n  dup5\n    /* \"#utility.yul\":3239:3242   */\n  dup3\n    /* \"#utility.yul\":3234:3237   */\n  dup6\n    /* \"#utility.yul\":3199:3251   */\n  tag_53\n  jump\t// in\ntag_118:\n    /* \"#utility.yul\":2918:3257   */\n  pop\n    /* \"#utility.yul\":2823:3257   */\n  swap4\n  swap3\n  pop\n  pop\n  pop\n  jump\t// out\n    /* \"#utility.yul\":3277:3632   */\ntag_55:\n    /* \"#utility.yul\":3344:3349   */\n  0x00\n    /* \"#utility.yul\":3393:3396   */\n  dup3\n    /* \"#utility.yul\":3386:3390   */\n  0x1f\n    /* \"#utility.yul\":3378:3384   */\n  dup4\n    /* \"#utility.yul\":3374:3391   */\n  add\n    /* \"#utility.yul\":3370:3397   */\n  slt\n    /* \"#utility.yul\":3360:3482   */\n  tag_120\n  jumpi\n    /* \"#utility.yul\":3401:3480   */\n  tag_121\n  tag_44\n  jump\t// in\ntag_121:\n    /* \"#utility.yul\":3360:3482   */\ntag_120:\n    /* \"#utility.yul\":3511:3517   */\n  dup2\n    /* \"#utility.yul\":3505:3518   */\n  mload\n    /* \"#utility.yul\":3536:3626   */\n  tag_122\n    /* \"#utility.yul\":3622:3625   */\n  dup5\n    /* \"#utility.yul\":3614:3620   */\n  dup3\n    /* \"#utility.yul\":3607:3611   */\n  0x20\n    /* \"#utility.yul\":3599:3605   */\n  dup7\n    /* \"#utility.yul\":3595:3612   */\n  add\n    /* \"#utility.yul\":3536:3626   */\n  tag_54\n  jump\t// in\ntag_122:\n    /* \"#utility.yul\":3527:3626   */\n  swap2\n  pop\n    /* \"#utility.yul\":3350:3632   */\n  pop\n    /* \"#utility.yul\":3277:3632   */\n  swap3\n  swap2\n  pop\n  pop\n  jump\t// out\n    /* \"#utility.yul\":3654:4614   */\ntag_56:\n    /* \"#utility.yul\":3771:3776   */\n  0x00\n    /* \"#utility.yul\":3796:3887   */\n  tag_124\n    /* \"#utility.yul\":3812:3886   */\n  tag_125\n    /* \"#utility.yul\":3879:3885   */\n  dup5\n    /* \"#utility.yul\":3812:3886   */\n  tag_49\n  jump\t// in\ntag_125:\n    /* \"#utility.yul\":3796:3887   */\n  tag_48\n  jump\t// in\ntag_124:\n    /* \"#utility.yul\":3787:3887   */\n  swap1\n  pop\n    /* \"#utility.yul\":3907:3912   */\n  dup1\n    /* \"#utility.yul\":3936:3942   */\n  dup4\n    /* \"#utility.yul\":3929:3934   */\n  dup3\n    /* \"#utility.yul\":3922:3943   */\n  mstore\n    /* \"#utility.yul\":3970:3974   */\n  0x20\n    /* \"#utility.yul\":3963:3968   */\n  dup3\n    /* \"#utility.yul\":3959:3975   */\n  add\n    /* \"#utility.yul\":3952:3975   */\n  swap1\n  pop\n    /* \"#utility.yul\":4023:4027   */\n  0x20\n    /* \"#utility.yul\":4015:4021   */\n  dup5\n    /* \"#utility.yul\":4011:4028   */\n  mul\n    /* \"#utility.yul\":4003:4009   */\n  dup4\n    /* \"#utility.yul\":3999:4029   */\n  add\n    /* \"#utility.yul\":4052:4055   */\n  dup6\n    /* \"#utility.yul\":4044:4050   */\n  dup2\n    /* \"#utility.yul\":4041:4056   */\n  gt\n    /* \"#utility.yul\":4038:4160   */\n  iszero\n  tag_126\n  jumpi\n    /* \"#utility.yul\":4071:4150   */\n  tag_127\n  tag_50\n  jump\t// in\ntag_127:\n    /* \"#utility.yul\":4038:4160   */\ntag_126:\n    /* \"#utility.yul\":4186:4192   */\n  dup4\n    /* \"#utility.yul\":4169:4608   */\ntag_128:\n    /* \"#utility.yul\":4203:4209   */\n  dup2\n    /* \"#utility.yul\":4198:4201   */\n  dup2\n    /* \"#utility.yul\":4195:4210   */\n  lt\n    /* \"#utility.yul\":4169:4608   */\n  iszero\n  tag_130\n  jumpi\n    /* \"#utility.yul\":4285:4288   */\n  dup1\n    /* \"#utility.yul\":4279:4289   */\n  mload\n    /* \"#utility.yul\":4321:4339   */\n  0xffffffffffffffff\n    /* \"#utility.yul\":4308:4319   */\n  dup2\n    /* \"#utility.yul\":4305:4340   */\n  gt\n    /* \"#utility.yul\":4302:4424   */\n  iszero\n  tag_131\n  jumpi\n    /* \"#utility.yul\":4343:4422   */\n  tag_132\n  tag_44\n  jump\t// in\ntag_132:\n    /* \"#utility.yul\":4302:4424   */\ntag_131:\n    /* \"#utility.yul\":4467:4478   */\n  dup1\n    /* \"#utility.yul\":4459:4465   */\n  dup7\n    /* \"#utility.yul\":4455:4479   */\n  add\n    /* \"#utility.yul\":4505:4563   */\n  tag_133\n    /* \"#utility.yul\":4559:4562   */\n  dup10\n    /* \"#utility.yul\":4547:4557   */\n  dup3\n    /* \"#utility.yul\":4505:4563   */\n  tag_55\n  jump\t// in\ntag_133:\n    /* \"#utility.yul\":4500:4503   */\n  dup6\n    /* \"#utility.yul\":4493:4564   */\n  mstore\n    /* \"#utility.yul\":4593:4597   */\n  0x20\n    /* \"#utility.yul\":4588:4591   */\n  dup6\n    /* \"#utility.yul\":4584:4598   */\n  add\n    /* \"#utility.yul\":4577:4598   */\n  swap5\n  pop\n    /* \"#utility.yul\":4245:4608   */\n  pop\n  pop\n    /* \"#utility.yul\":4229:4233   */\n  0x20\n    /* \"#utility.yul\":4224:4227   */\n  dup2\n    /* \"#utility.yul\":4220:4234   */\n  add\n    /* \"#utility.yul\":4213:4234   */\n  swap1\n  pop\n    /* \"#utility.yul\":4169:4608   */\n  jump(tag_128)\ntag_130:\n    /* \"#utility.yul\":4173:4194   */\n  pop\n    /* \"#utility.yul\":3777:4614   */\n  pop\n  pop\n    /* \"#utility.yul\":3654:4614   */\n  swap4\n  swap3\n  pop\n  pop\n  pop\n  jump\t// out\n    /* \"#utility.yul\":4636:5041   */\ntag_57:\n    /* \"#utility.yul\":4728:4733   */\n  0x00\n    /* \"#utility.yul\":4777:4780   */\n  dup3\n    /* \"#utility.yul\":4770:4774   */\n  0x1f\n    /* \"#utility.yul\":4762:4768   */\n  dup4\n    /* \"#utility.yul\":4758:4775   */\n  add\n    /* \"#utility.yul\":4754:4781   */\n  slt\n    /* \"#utility.yul\":4744:4866   */\n  tag_135\n  jumpi\n    /* \"#utility.yul\":4785:4864   */\n  tag_136\n  tag_44\n  jump\t// in\ntag_136:\n    /* \"#utility.yul\":4744:4866   */\ntag_135:\n    /* \"#utility.yul\":4895:4901   */\n  dup2\n    /* \"#utility.yul\":4889:4902   */\n  mload\n    /* \"#utility.yul\":4920:5035   */\n  tag_137\n    /* \"#utility.yul\":5031:5034   */\n  dup5\n    /* \"#utility.yul\":5023:5029   */\n  dup3\n    /* \"#utility.yul\":5016:5020   */\n  0x20\n    /* \"#utility.yul\":5008:5014   */\n  dup7\n    /* \"#utility.yul\":5004:5021   */\n  add\n    /* \"#utility.yul\":4920:5035   */\n  tag_56\n  jump\t// in\ntag_137:\n    /* \"#utility.yul\":4911:5035   */\n  swap2\n  pop\n    /* \"#utility.yul\":4734:5041   */\n  pop\n    /* \"#utility.yul\":4636:5041   */\n  swap3\n  swap2\n  pop\n  pop\n  jump\t// out\n    /* \"#utility.yul\":5047:5777   */\ntag_3:\n    /* \"#utility.yul\":5161:5167   */\n  0x00\n    /* \"#utility.yul\":5169:5175   */\n  dup1\n    /* \"#utility.yul\":5218:5220   */\n  0x40\n    /* \"#utility.yul\":5206:5215   */\n  dup4\n    /* \"#utility.yul\":5197:5204   */\n  dup6\n    /* \"#utility.yul\":5193:5216   */\n  sub\n    /* \"#utility.yul\":5189:5221   */\n  slt\n    /* \"#utility.yul\":5186:5305   */\n  iszero\n  tag_139\n  jumpi\n    /* \"#utility.yul\":5224:5303   */\n  tag_140\n  tag_38\n  jump\t// in\ntag_140:\n    /* \"#utility.yul\":5186:5305   */\ntag_139:\n    /* \"#utility.yul\":5344:5345   */\n  0x00\n    /* \"#utility.yul\":5369:5433   */\n  tag_141\n    /* \"#utility.yul\":5425:5432   */\n  dup6\n    /* \"#utility.yul\":5416:5422   */\n  dup3\n    /* \"#utility.yul\":5405:5414   */\n  dup7\n    /* \"#utility.yul\":5401:5423   */\n  add\n    /* \"#utility.yul\":5369:5433   */\n  tag_43\n  jump\t// in\ntag_141:\n    /* \"#utility.yul\":5359:5433   */\n  swap3\n  pop\n    /* \"#utility.yul\":5315:5443   */\n  pop\n    /* \"#utility.yul\":5503:5505   */\n  0x20\n    /* \"#utility.yul\":5492:5501   */\n  dup4\n    /* \"#utility.yul\":5488:5506   */\n  add\n    /* \"#utility.yul\":5482:5507   */\n  mload\n    /* \"#utility.yul\":5534:5552   */\n  0xffffffffffffffff\n    /* \"#utility.yul\":5526:5532   */\n  dup2\n    /* \"#utility.yul\":5523:5553   */\n  gt\n    /* \"#utility.yul\":5520:5637   */\n  iszero\n  tag_142\n  jumpi\n    /* \"#utility.yul\":5556:5635   */\n  tag_143\n  tag_39\n  jump\t// in\ntag_143:\n    /* \"#utility.yul\":5520:5637   */\ntag_142:\n    /* \"#utility.yul\":5661:5760   */\n  tag_144\n    /* \"#utility.yul\":5752:5759   */\n  dup6\n    /* \"#utility.yul\":5743:5749   */\n  dup3\n    /* \"#utility.yul\":5732:5741   */\n  dup7\n    /* \"#utility.yul\":5728:5750   */\n  add\n    /* \"#utility.yul\":5661:5760   */\n  tag_57\n  jump\t// in\ntag_144:\n    /* \"#utility.yul\":5651:5760   */\n  swap2\n  pop\n    /* \"#utility.yul\":5453:5770   */\n  pop\n    /* \"#utility.yul\":5047:5777   */\n  swap3\n  pop\n  swap3\n  swap1\n  pop\n  jump\t// out\n    /* \"#utility.yul\":5783:5963   */\ntag_13:\n    /* \"#utility.yul\":5831:5908   */\n  0x4e487b7100000000000000000000000000000000000000000000000000000000\n    /* \"#utility.yul\":5828:5829   */\n  0x00\n    /* \"#utility.yul\":5821:5909   */\n  mstore\n    /* \"#utility.yul\":5928:5932   */\n  0x32\n    /* \"#utility.yul\":5925:5926   */\n  0x04\n    /* \"#utility.yul\":5918:5933   */\n  mstore\n    /* \"#utility.yul\":5952:5956   */\n  0x24\n    /* \"#utility.yul\":5949:5950   */\n  0x00\n    /* \"#utility.yul\":5942:5957   */\n  revert\n    /* \"#utility.yul\":5969:6149   */\ntag_58:\n    /* \"#utility.yul\":6017:6094   */\n  0x4e487b7100000000000000000000000000000000000000000000000000000000\n    /* \"#utility.yul\":6014:6015   */\n  0x00\n    /* \"#utility.yul\":6007:6095   */\n  mstore\n    /* \"#utility.yul\":6114:6118   */\n  0x22\n    /* \"#utility.yul\":6111:6112   */\n  0x04\n    /* \"#utility.yul\":6104:6119   */\n  mstore\n    /* \"#utility.yul\":6138:6142   */\n  0x24\n    /* \"#utility.yul\":6135:6136   */\n  0x00\n    /* \"#utility.yul\":6128:6143   */\n  revert\n    /* \"#utility.yul\":6155:6475   */\ntag_30:\n    /* \"#utility.yul\":6199:6205   */\n  0x00\n    /* \"#utility.yul\":6236:6237   */\n  0x02\n    /* \"#utility.yul\":6230:6234   */\n  dup3\n    /* \"#utility.yul\":6226:6238   */\n  div\n    /* \"#utility.yul\":6216:6238   */\n  swap1\n  pop\n    /* \"#utility.yul\":6283:6284   */\n  0x01\n    /* \"#utility.yul\":6277:6281   */\n  dup3\n    /* \"#utility.yul\":6273:6285   */\n  and\n    /* \"#utility.yul\":6304:6322   */\n  dup1\n    /* \"#utility.yul\":6294:6375   */\n  tag_148\n  jumpi\n    /* \"#utility.yul\":6360:6364   */\n  0x7f\n    /* \"#utility.yul\":6352:6358   */\n  dup3\n    /* \"#utility.yul\":6348:6365   */\n  and\n    /* \"#utility.yul\":6338:6365   */\n  swap2\n  pop\n    /* \"#utility.yul\":6294:6375   */\ntag_148:\n    /* \"#utility.yul\":6422:6424   */\n  0x20\n    /* \"#utility.yul\":6414:6420   */\n  dup3\n    /* \"#utility.yul\":6411:6425   */\n  lt\n    /* \"#utility.yul\":6391:6409   */\n  dup2\n    /* \"#utility.yul\":6388:6426   */\n  sub\n    /* \"#utility.yul\":6385:6469   */\n  tag_149\n  jumpi\n    /* \"#utility.yul\":6441:6459   */\n  tag_150\n  tag_58\n  jump\t// in\ntag_150:\n    /* \"#utility.yul\":6385:6469   */\ntag_149:\n    /* \"#utility.yul\":6206:6475   */\n  pop\n    /* \"#utility.yul\":6155:6475   */\n  swap2\n  swap1\n  pop\n  jump\t// out\n    /* \"#utility.yul\":6481:6629   */\ntag_59:\n    /* \"#utility.yul\":6583:6594   */\n  0x00\n    /* \"#utility.yul\":6620:6623   */\n  dup2\n    /* \"#utility.yul\":6605:6623   */\n  swap1\n  pop\n    /* \"#utility.yul\":6481:6629   */\n  swap3\n  swap2\n  pop\n  pop\n  jump\t// out\n    /* \"#utility.yul\":6635:6776   */\ntag_60:\n    /* \"#utility.yul\":6684:6688   */\n  0x00\n    /* \"#utility.yul\":6707:6710   */\n  dup2\n    /* \"#utility.yul\":6699:6710   */\n  swap1\n  pop\n    /* \"#utility.yul\":6730:6733   */\n  dup2\n    /* \"#utility.yul\":6727:6728   */\n  0x00\n    /* \"#utility.yul\":6720:6734   */\n  mstore\n    /* \"#utility.yul\":6764:6768   */\n  0x20\n    /* \"#utility.yul\":6761:6762   */\n  0x00\n    /* \"#utility.yul\":6751:6769   */\n  keccak256\n    /* \"#utility.yul\":6743:6769   */\n  swap1\n  pop\n    /* \"#utility.yul\":6635:6776   */\n  swap2\n  swap1\n  pop\n  jump\t// out\n    /* \"#utility.yul\":6806:7680   */\ntag_61:\n    /* \"#utility.yul\":6909:6912   */\n  0x00\n    /* \"#utility.yul\":6946:6951   */\n  dup2\n    /* \"#utility.yul\":6940:6952   */\n  sload\n    /* \"#utility.yul\":6975:7011   */\n  tag_154\n    /* \"#utility.yul\":7001:7010   */\n  dup2\n    /* \"#utility.yul\":6975:7011   */\n  tag_30\n  jump\t// in\ntag_154:\n    /* \"#utility.yul\":7027:7116   */\n  tag_155\n    /* \"#utility.yul\":7109:7115   */\n  dup2\n    /* \"#utility.yul\":7104:7107   */\n  dup7\n    /* \"#utility.yul\":7027:7116   */\n  tag_59\n  jump\t// in\ntag_155:\n    /* \"#utility.yul\":7020:7116   */\n  swap5\n  pop\n    /* \"#utility.yul\":7147:7148   */\n  0x01\n    /* \"#utility.yul\":7136:7145   */\n  dup3\n    /* \"#utility.yul\":7132:7149   */\n  and\n    /* \"#utility.yul\":7163:7164   */\n  0x00\n    /* \"#utility.yul\":7158:7324   */\n  dup2\n  eq\n  tag_157\n  jumpi\n    /* \"#utility.yul\":7338:7339   */\n  0x01\n    /* \"#utility.yul\":7333:7674   */\n  dup2\n  eq\n  tag_158\n  jumpi\n    /* \"#utility.yul\":7125:7674   */\n  jump(tag_156)\n    /* \"#utility.yul\":7158:7324   */\ntag_157:\n    /* \"#utility.yul\":7242:7246   */\n  0xff\n    /* \"#utility.yul\":7238:7247   */\n  not\n    /* \"#utility.yul\":7227:7236   */\n  dup4\n    /* \"#utility.yul\":7223:7248   */\n  and\n    /* \"#utility.yul\":7218:7221   */\n  dup7\n    /* \"#utility.yul\":7211:7249   */\n  mstore\n    /* \"#utility.yul\":7304:7310   */\n  dup2\n    /* \"#utility.yul\":7297:7311   */\n  iszero\n    /* \"#utility.yul\":7290:7312   */\n  iszero\n    /* \"#utility.yul\":7282:7288   */\n  dup3\n    /* \"#utility.yul\":7278:7313   */\n  mul\n    /* \"#utility.yul\":7273:7276   */\n  dup7\n    /* \"#utility.yul\":7269:7314   */\n  add\n    /* \"#utility.yul\":7262:7314   */\n  swap4\n  pop\n    /* \"#utility.yul\":7158:7324   */\n  jump(tag_156)\n    /* \"#utility.yul\":7333:7674   */\ntag_158:\n    /* \"#utility.yul\":7400:7438   */\n  tag_159\n    /* \"#utility.yul\":7432:7437   */\n  dup6\n    /* \"#utility.yul\":7400:7438   */\n  tag_60\n  jump\t// in\ntag_159:\n    /* \"#utility.yul\":7460:7461   */\n  0x00\n    /* \"#utility.yul\":7474:7628   */\ntag_160:\n    /* \"#utility.yul\":7488:7494   */\n  dup4\n    /* \"#utility.yul\":7485:7486   */\n  dup2\n    /* \"#utility.yul\":7482:7495   */\n  lt\n    /* \"#utility.yul\":7474:7628   */\n  iszero\n  tag_162\n  jumpi\n    /* \"#utility.yul\":7562:7569   */\n  dup2\n    /* \"#utility.yul\":7556:7570   */\n  sload\n    /* \"#utility.yul\":7552:7553   */\n  dup2\n    /* \"#utility.yul\":7547:7550   */\n  dup10\n    /* \"#utility.yul\":7543:7554   */\n  add\n    /* \"#utility.yul\":7536:7571   */\n  mstore\n    /* \"#utility.yul\":7612:7613   */\n  0x01\n    /* \"#utility.yul\":7603:7610   */\n  dup3\n    /* \"#utility.yul\":7599:7614   */\n  add\n    /* \"#utility.yul\":7588:7614   */\n  swap2\n  pop\n    /* \"#utility.yul\":7510:7514   */\n  0x20\n    /* \"#utility.yul\":7507:7508   */\n  dup2\n    /* \"#utility.yul\":7503:7515   */\n  add\n    /* \"#utility.yul\":7498:7515   */\n  swap1\n  pop\n    /* \"#utility.yul\":7474:7628   */\n  jump(tag_160)\ntag_162:\n    /* \"#utility.yul\":7657:7663   */\n  dup4\n    /* \"#utility.yul\":7652:7655   */\n  dup9\n    /* \"#utility.yul\":7648:7664   */\n  add\n    /* \"#utility.yul\":7641:7664   */\n  swap6\n  pop\n    /* \"#utility.yul\":7340:7674   */\n  pop\n  pop\n    /* \"#utility.yul\":7125:7674   */\ntag_156:\n  pop\n    /* \"#utility.yul\":6913:7680   */\n  pop\n  pop\n    /* \"#utility.yul\":6806:7680   */\n  swap3\n  swap2\n  pop\n  pop\n  jump\t// out\n    /* \"#utility.yul\":7686:7955   */\ntag_16:\n    /* \"#utility.yul\":7815:7818   */\n  0x00\n    /* \"#utility.yul\":7837:7929   */\n  tag_164\n    /* \"#utility.yul\":7925:7928   */\n  dup3\n    /* \"#utility.yul\":7916:7922   */\n  dup5\n    /* \"#utility.yul\":7837:7929   */\n  tag_61\n  jump\t// in\ntag_164:\n    /* \"#utility.yul\":7830:7929   */\n  swap2\n  pop\n    /* \"#utility.yul\":7946:7949   */\n  dup2\n    /* \"#utility.yul\":7939:7949   */\n  swap1\n  pop\n    /* \"#utility.yul\":7686:7955   */\n  swap3\n  swap2\n  pop\n  pop\n  jump\t// out\n    /* \"#utility.yul\":7961:8060   */\ntag_62:\n    /* \"#utility.yul\":8013:8019   */\n  0x00\n    /* \"#utility.yul\":8047:8052   */\n  dup2\n    /* \"#utility.yul\":8041:8053   */\n  mload\n    /* \"#utility.yul\":8031:8053   */\n  swap1\n  pop\n    /* \"#utility.yul\":7961:8060   */\n  swap2\n  swap1\n  pop\n  jump\t// out\n    /* \"#utility.yul\":8066:8159   */\ntag_63:\n    /* \"#utility.yul\":8103:8109   */\n  0x00\n    /* \"#utility.yul\":8150:8152   */\n  0x20\n    /* \"#utility.yul\":8145:8147   */\n  0x1f\n    /* \"#utility.yul\":8138:8143   */\n  dup4\n    /* \"#utility.yul\":8134:8148   */\n  add\n    /* \"#utility.yul\":8130:8153   */\n  div\n    /* \"#utility.yul\":8120:8153   */\n  swap1\n  pop\n    /* \"#utility.yul\":8066:8159   */\n  swap2\n  swap1\n  pop\n  jump\t// out\n    /* \"#utility.yul\":8165:8272   */\ntag_64:\n    /* \"#utility.yul\":8209:8217   */\n  0x00\n    /* \"#utility.yul\":8259:8264   */\n  dup3\n    /* \"#utility.yul\":8253:8257   */\n  dup3\n    /* \"#utility.yul\":8249:8265   */\n  shl\n    /* \"#utility.yul\":8228:8265   */\n  swap1\n  pop\n    /* \"#utility.yul\":8165:8272   */\n  swap3\n  swap2\n  pop\n  pop\n  jump\t// out\n    /* \"#utility.yul\":8278:8671   */\ntag_65:\n    /* \"#utility.yul\":8347:8353   */\n  0x00\n    /* \"#utility.yul\":8397:8398   */\n  0x08\n    /* \"#utility.yul\":8385:8395   */\n  dup4\n    /* \"#utility.yul\":8381:8399   */\n  mul\n    /* \"#utility.yul\":8420:8517   */\n  tag_169\n    /* \"#utility.yul\":8450:8516   */\n  0xffffffffffffffffffffffffffffffffffffffffffffffffffffffffffffffff\n    /* \"#utility.yul\":8439:8448   */\n  dup3\n    /* \"#utility.yul\":8420:8517   */\n  tag_64\n  jump\t// in\ntag_169:\n    /* \"#utility.yul\":8538:8577   */\n  tag_170\n    /* \"#utility.yul\":8568:8576   */\n  dup7\n    /* \"#utility.yul\":8557:8566   */\n  dup4\n    /* \"#utility.yul\":8538:8577   */\n  tag_64\n  jump\t// in\ntag_170:\n    /* \"#utility.yul\":8526:8577   */\n  swap6\n  pop\n    /* \"#utility.yul\":8610:8614   */\n  dup1\n    /* \"#utility.yul\":8606:8615   */\n  not\n    /* \"#utility.yul\":8599:8604   */\n  dup5\n    /* \"#utility.yul\":8595:8616   */\n  and\n    /* \"#utility.yul\":8586:8616   */\n  swap4\n  pop\n    /* \"#utility.yul\":8659:8663   */\n  dup1\n    /* \"#utility.yul\":8649:8657   */\n  dup7\n    /* \"#utility.yul\":8645:8664   */\n  and\n    /* \"#utility.yul\":8638:8643   */\n  dup5\n    /* \"#utility.yul\":8635:8665   */\n  or\n    /* \"#utility.yul\":8625:8665   */\n  swap3\n  pop\n    /* \"#utility.yul\":8354:8671   */\n  pop\n  pop\n    /* \"#utility.yul\":8278:8671   */\n  swap4\n  swap3\n  pop\n  pop\n  pop\n  jump\t// out\n    /* \"#utility.yul\":8677:8754   */\ntag_66:\n    /* \"#utility.yul\":8714:8721   */\n  0x00\n    /* \"#utility.yul\":8743:8748   */\n  dup2\n    /* \"#utility.yul\":8732:8748   */\n  swap1\n  pop\n    /* \"#utility.yul\":8677:8754   */\n  swap2\n  swap1\n  pop\n  jump\t// out\n    /* \"#utility.yul\":8760:8820   */\ntag_67:\n    /* \"#utility.yul\":8788:8791   */\n  0x00\n    /* \"#utility.yul\":8809:8814   */\n  dup2\n    /* \"#utility.yul\":8802:8814   */\n  swap1\n  pop\n    /* \"#utility.yul\":8760:8820   */\n  swap2\n  swap1\n  pop\n  jump\t// out\n    /* \"#utility.yul\":8826:8968   */\ntag_68:\n    /* \"#utility.yul\":8876:8885   */\n  0x00\n    /* \"#utility.yul\":8909:8962   */\n  tag_174\n    /* \"#utility.yul\":8927:8961   */\n  tag_175\n    /* \"#utility.yul\":8936:8960   */\n  tag_176\n    /* \"#utility.yul\":8954:8959   */\n  dup5\n    /* \"#utility.yul\":8936:8960   */\n  tag_66\n  jump\t// in\ntag_176:\n    /* \"#utility.yul\":8927:8961   */\n  tag_67\n  jump\t// in\ntag_175:\n    /* \"#utility.yul\":8909:8962   */\n  tag_66\n  jump\t// in\ntag_174:\n    /* \"#utility.yul\":8896:8962   */\n  swap1\n  pop\n    /* \"#utility.yul\":8826:8968   */\n  swap2\n  swap1\n  pop\n  jump\t// out\n    /* \"#utility.yul\":8974:9049   */\ntag_69:\n    /* \"#utility.yul\":9017:9020   */\n  0x00\n    /* \"#utility.yul\":9038:9043   */\n  dup2\n    /* \"#utility.yul\":9031:9043   */\n  swap1\n  pop\n    /* \"#utility.yul\":8974:9049   */\n  swap2\n  swap1\n  pop\n  jump\t// out\n    /* \"#utility.yul\":9055:9324   */\ntag_70:\n    /* \"#utility.yul\":9165:9204   */\n  tag_179\n    /* \"#utility.yul\":9196:9203   */\n  dup4\n    /* \"#utility.yul\":9165:9204   */\n  tag_68\n  jump\t// in\ntag_179:\n    /* \"#utility.yul\":9226:9317   */\n  tag_180\n    /* \"#utility.yul\":9275:9316   */\n  tag_181\n    /* \"#utility.yul\":9299:9315   */\n  dup3\n    /* \"#utility.yul\":9275:9316   */\n  tag_69\n  jump\t// in\ntag_181:\n    /* \"#utility.yul\":9267:9273   */\n  dup5\n    /* \"#utility.yul\":9260:9264   */\n  dup5\n    /* \"#utility.yul\":9254:9265   */\n  sload\n    /* \"#utility.yul\":9226:9317   */\n  tag_65\n  jump\t// in\ntag_180:\n    /* \"#utility.yul\":9220:9224   */\n  dup3\n    /* \"#utility.yul\":9213:9318   */\n  sstore\n    /* \"#utility.yul\":9131:9324   */\n  pop\n    /* \"#utility.yul\":9055:9324   */\n  pop\n  pop\n  pop\n  jump\t// out\n    /* \"#utility.yul\":9330:9403   */\ntag_71:\n    /* \"#utility.yul\":9375:9378   */\n  0x00\n    /* \"#utility.yul\":9330:9403   */\n  swap1\n  jump\t// out\n    /* \"#utility.yul\":9409:9598   */\ntag_72:\n    /* \"#utility.yul\":9486:9518   */\n  tag_184\n  tag_71\n  jump\t// in\ntag_184:\n    /* \"#utility.yul\":9527:9592   */\n  tag_185\n    /* \"#utility.yul\":9585:9591   */\n  dup2\n    /* \"#utility.yul\":9577:9583   */\n  dup5\n    /* \"#utility.yul\":9571:9575   */\n  dup5\n    /* \"#utility.yul\":9527:9592   */\n  tag_70\n  jump\t// in\ntag_185:\n    /* \"#utility.yul\":9462:9598   */\n  pop\n    /* \"#utility.yul\":9409:9598   */\n  pop\n  pop\n  jump\t// out\n    /* \"#utility.yul\":9604:9790   */\ntag_73:\n    /* \"#utility.yul\":9664:9784   */\ntag_187:\n    /* \"#utility.yul\":9681:9684   */\n  dup2\n    /* \"#utility.yul\":9674:9679   */\n  dup2\n    /* \"#utility.yul\":9671:9685   */\n  lt\n    /* \"#utility.yul\":9664:9784   */\n  iszero\n  tag_189\n  jumpi\n    /* \"#utility.yul\":9735:9774   */\n  tag_190\n    /* \"#utility.yul\":9772:9773   */\n  0x00\n    /* \"#utility.yul\":9765:9770   */\n  dup3\n    /* \"#utility.yul\":9735:9774   */\n  tag_72\n  jump\t// in\ntag_190:\n    /* \"#utility.yul\":9708:9709   */\n  0x01\n    /* \"#utility.yul\":9701:9706   */\n  dup2\n    /* \"#utility.yul\":9697:9710   */\n  add\n    /* \"#utility.yul\":9688:9710   */\n  swap1\n  pop\n    /* \"#utility.yul\":9664:9784   */\n  jump(tag_187)\ntag_189:\n    /* \"#utility.yul\":9604:9790   */\n  pop\n  pop\n  jump\t// out\n    /* \"#utility.yul\":9796:10339   */\ntag_74:\n    /* \"#utility.yul\":9897:9899   */\n  0x1f\n    /* \"#utility.yul\":9892:9895   */\n  dup3\n    /* \"#utility.yul\":9889:9900   */\n  gt\n    /* \"#utility.yul\":9886:10332   */\n  iszero\n  tag_192\n  jumpi\n    /* \"#utility.yul\":9931:9969   */\n  tag_193\n    /* \"#utility.yul\":9963:9968   */\n  dup2\n    /* \"#utility.yul\":9931:9969   */\n  tag_60\n  jump\t// in\ntag_193:\n    /* \"#utility.yul\":10015:10044   */\n  tag_194\n    /* \"#utility.yul\":10033:10043   */\n  dup5\n    /* \"#utility.yul\":10015:10044   */\n  tag_63\n  jump\t// in\ntag_194:\n    /* \"#utility.yul\":10005:10013   */\n  dup2\n    /* \"#utility.yul\":10001:10045   */\n  add\n    /* \"#utility.yul\":10198:10200   */\n  0x20\n    /* \"#utility.yul\":10186:10196   */\n  dup6\n    /* \"#utility.yul\":10183:10201   */\n  lt\n    /* \"#utility.yul\":10180:10229   */\n  iszero\n  tag_195\n  jumpi\n    /* \"#utility.yul\":10219:10227   */\n  dup2\n    /* \"#utility.yul\":10204:10227   */\n  swap1\n  pop\n    /* \"#utility.yul\":10180:10229   */\ntag_195:\n    /* \"#utility.yul\":10242:10322   */\n  tag_196\n    /* \"#utility.yul\":10298:10320   */\n  tag_197\n    /* \"#utility.yul\":10316:10319   */\n  dup6\n    /* \"#utility.yul\":10298:10320   */\n  tag_63\n  jump\t// in\ntag_197:\n    /* \"#utility.yul\":10288:10296   */\n  dup4\n    /* \"#utility.yul\":10284:10321   */\n  add\n    /* \"#utility.yul\":10271:10282   */\n  dup3\n    /* \"#utility.yul\":10242:10322   */\n  tag_73\n  jump\t// in\ntag_196:\n    /* \"#utility.yul\":9901:10332   */\n  pop\n  pop\n    /* \"#utility.yul\":9886:10332   */\ntag_192:\n    /* \"#utility.yul\":9796:10339   */\n  pop\n  pop\n  pop\n  jump\t// out\n    /* \"#utility.yul\":10345:10462   */\ntag_75:\n    /* \"#utility.yul\":10399:10407   */\n  0x00\n    /* \"#utility.yul\":10449:10454   */\n  dup3\n    /* \"#utility.yul\":10443:10447   */\n  dup3\n    /* \"#utility.yul\":10439:10455   */\n  shr\n    /* \"#utility.yul\":10418:10455   */\n  swap1\n  pop\n    /* \"#utility.yul\":10345:10462   */\n  swap3\n  swap2\n  pop\n  pop\n  jump\t// out\n    /* \"#utility.yul\":10468:10637   */\ntag_76:\n    /* \"#utility.yul\":10512:10518   */\n  0x00\n    /* \"#utility.yul\":10545:10596   */\n  tag_200\n    /* \"#utility.yul\":10593:10594   */\n  0x00\n    /* \"#utility.yul\":10589:10595   */\n  not\n    /* \"#utility.yul\":10581:10586   */\n  dup5\n    /* \"#utility.yul\":10578:10579   */\n  0x08\n    /* \"#utility.yul\":10574:10587   */\n  mul\n    /* \"#utility.yul\":10545:10596   */\n  tag_75\n  jump\t// in\ntag_200:\n    /* \"#utility.yul\":10541:10597   */\n  not\n    /* \"#utility.yul\":10626:10630   */\n  dup1\n    /* \"#utility.yul\":10620:10624   */\n  dup4\n    /* \"#utility.yul\":10616:10631   */\n  and\n    /* \"#utility.yul\":10606:10631   */\n  swap2\n  pop\n    /* \"#utility.yul\":10519:10637   */\n  pop\n    /* \"#utility.yul\":10468:10637   */\n  swap3\n  swap2\n  pop\n  pop\n  jump\t// out\n    /* \"#utility.yul\":10642:10937   */\ntag_77:\n    /* \"#utility.yul\":10718:10722   */\n  0x00\n    /* \"#utility.yul\":10864:10893   */\n  tag_202\n    /* \"#utility.yul\":10889:10892   */\n  dup4\n    /* \"#utility.yul\":10883:10887   */\n  dup4\n    /* \"#utility.yul\":10864:10893   */\n  tag_76\n  jump\t// in\ntag_202:\n    /* \"#utility.yul\":10856:10893   */\n  swap2\n  pop\n    /* \"#utility.yul\":10926:10929   */\n  dup3\n    /* \"#utility.yul\":10923:10924   */\n  0x02\n    /* \"#utility.yul\":10919:10930   */\n  mul\n    /* \"#utility.yul\":10913:10917   */\n  dup3\n    /* \"#utility.yul\":10910:10931   */\n  or\n    /* \"#utility.yul\":10902:10931   */\n  swap1\n  pop\n    /* \"#utility.yul\":10642:10937   */\n  swap3\n  swap2\n  pop\n  pop\n  jump\t// out\n    /* \"#utility.yul\":10942:12337   */\ntag_22:\n    /* \"#utility.yul\":11059:11096   */\n  tag_204\n    /* \"#utility.yul\":11092:11095   */\n  dup3\n    /* \"#utility.yul\":11059:11096   */\n  tag_62\n  jump\t// in\ntag_204:\n    /* \"#utility.yul\":11161:11179   */\n  0xffffffffffffffff\n    /* \"#utility.yul\":11153:11159   */\n  dup2\n    /* \"#utility.yul\":11150:11180   */\n  gt\n    /* \"#utility.yul\":11147:11203   */\n  iszero\n  tag_205\n  jumpi\n    /* \"#utility.yul\":11183:11201   */\n  tag_206\n  tag_46\n  jump\t// in\ntag_206:\n    /* \"#utility.yul\":11147:11203   */\ntag_205:\n    /* \"#utility.yul\":11227:11265   */\n  tag_207\n    /* \"#utility.yul\":11259:11263   */\n  dup3\n    /* \"#utility.yul\":11253:11264   */\n  sload\n    /* \"#utility.yul\":11227:11265   */\n  tag_30\n  jump\t// in\ntag_207:\n    /* \"#utility.yul\":11312:11379   */\n  tag_208\n    /* \"#utility.yul\":11372:11378   */\n  dup3\n    /* \"#utility.yul\":11364:11370   */\n  dup3\n    /* \"#utility.yul\":11358:11362   */\n  dup6\n    /* \"#utility.yul\":11312:11379   */\n  tag_74\n  jump\t// in\ntag_208:\n    /* \"#utility.yul\":11406:11407   */\n  0x00\n    /* \"#utility.yul\":11430:11434   */\n  0x20\n    /* \"#utility.yul\":11417:11434   */\n  swap1\n  pop\n    /* \"#utility.yul\":11462:11464   */\n  0x1f\n    /* \"#utility.yul\":11454:11460   */\n  dup4\n    /* \"#utility.yul\":11451:11465   */\n  gt\n    /* \"#utility.yul\":11479:11480   */\n  0x01\n    /* \"#utility.yul\":11474:12092   */\n  dup2\n  eq\n  tag_210\n  jumpi\n    /* \"#utility.yul\":12136:12137   */\n  0x00\n    /* \"#utility.yul\":12153:12159   */\n  dup5\n    /* \"#utility.yul\":12150:12227   */\n  iszero\n  tag_211\n  jumpi\n    /* \"#utility.yul\":12202:12211   */\n  dup3\n    /* \"#utility.yul\":12197:12200   */\n  dup8\n    /* \"#utility.yul\":12193:12212   */\n  add\n    /* \"#utility.yul\":12187:12213   */\n  mload\n    /* \"#utility.yul\":12178:12213   */\n  swap1\n  pop\n    /* \"#utility.yul\":12150:12227   */\ntag_211:\n    /* \"#utility.yul\":12253:12320   */\n  tag_212\n    /* \"#utility.yul\":12313:12319   */\n  dup6\n    /* \"#utility.yul\":12306:12311   */\n  dup3\n    /* \"#utility.yul\":12253:12320   */\n  tag_77\n  jump\t// in\ntag_212:\n    /* \"#utility.yul\":12247:12251   */\n  dup7\n    /* \"#utility.yul\":12240:12321   */\n  sstore\n    /* \"#utility.yul\":12109:12331   */\n  pop\n    /* \"#utility.yul\":11444:12331   */\n  jump(tag_209)\n    /* \"#utility.yul\":11474:12092   */\ntag_210:\n    /* \"#utility.yul\":11526:11530   */\n  0x1f\n    /* \"#utility.yul\":11522:11531   */\n  not\n    /* \"#utility.yul\":11514:11520   */\n  dup5\n    /* \"#utility.yul\":11510:11532   */\n  and\n    /* \"#utility.yul\":11560:11597   */\n  tag_213\n    /* \"#utility.yul\":11592:11596   */\n  dup7\n    /* \"#utility.yul\":11560:11597   */\n  tag_60\n  jump\t// in\ntag_213:\n    /* \"#utility.yul\":11619:11620   */\n  0x00\n    /* \"#utility.yul\":11633:11841   */\ntag_214:\n    /* \"#utility.yul\":11647:11654   */\n  dup3\n    /* \"#utility.yul\":11644:11645   */\n  dup2\n    /* \"#utility.yul\":11641:11655   */\n  lt\n    /* \"#utility.yul\":11633:11841   */\n  iszero\n  tag_216\n  jumpi\n    /* \"#utility.yul\":11726:11735   */\n  dup5\n    /* \"#utility.yul\":11721:11724   */\n  dup10\n    /* \"#utility.yul\":11717:11736   */\n  add\n    /* \"#utility.yul\":11711:11737   */\n  mload\n    /* \"#utility.yul\":11703:11709   */\n  dup3\n    /* \"#utility.yul\":11696:11738   */\n  sstore\n    /* \"#utility.yul\":11777:11778   */\n  0x01\n    /* \"#utility.yul\":11769:11775   */\n  dup3\n    /* \"#utility.yul\":11765:11779   */\n  add\n    /* \"#utility.yul\":11755:11779   */\n  swap2\n  pop\n    /* \"#utility.yul\":11824:11826   */\n  0x20\n    /* \"#utility.yul\":11813:11822   */\n  dup6\n    /* \"#utility.yul\":11809:11827   */\n  add\n    /* \"#utility.yul\":11796:11827   */\n  swap5\n  pop\n    /* \"#utility.yul\":11670:11674   */\n  0x20\n    /* \"#utility.yul\":11667:11668   */\n  dup2\n    /* \"#utility.yul\":11663:11675   */\n  add\n    /* \"#utility.yul\":11658:11675   */\n  swap1\n  pop\n    /* \"#utility.yul\":11633:11841   */\n  jump(tag_214)\ntag_216:\n    /* \"#utility.yul\":11869:11875   */\n  dup7\n    /* \"#utility.yul\":11860:11867   */\n  dup4\n    /* \"#utility.yul\":11857:11876   */\n  lt\n    /* \"#utility.yul\":11854:12033   */\n  iszero\n  tag_217\n  jumpi\n    /* \"#utility.yul\":11927:11936   */\n  dup5\n    /* \"#utility.yul\":11922:11925   */\n  dup10\n    /* \"#utility.yul\":11918:11937   */\n  add\n    /* \"#utility.yul\":11912:11938   */\n  mload\n    /* \"#utility.yul\":11970:12018   */\n  tag_218\n    /* \"#utility.yul\":12012:12016   */\n  0x1f\n    /* \"#utility.yul\":12004:12010   */\n  dup10\n    /* \"#utility.yul\":12000:12017   */\n  and\n    /* \"#utility.yul\":11989:11998   */\n  dup3\n    /* \"#utility.yul\":11970:12018   */\n  tag_76\n  jump\t// in\ntag_218:\n    /* \"#utility.yul\":11962:11968   */\n  dup4\n    /* \"#utility.yul\":11955:12019   */\n  sstore\n    /* \"#utility.yul\":11877:12033   */\n  pop\n    /* \"#utility.yul\":11854:12033   */\ntag_217:\n    /* \"#utility.yul\":12079:12080   */\n  0x01\n    /* \"#utility.yul\":12075:12076   */\n  0x02\n    /* \"#utility.yul\":12067:12073   */\n  dup9\n    /* \"#utility.yul\":12063:12077   */\n  mul\n    /* \"#utility.yul\":12059:12081   */\n  add\n    /* \"#utility.yul\":12053:12057   */\n  dup9\n    /* \"#utility.yul\":12046:12082   */\n  sstore\n    /* \"#utility.yul\":11481:12092   */\n  pop\n  pop\n  pop\n    /* \"#utility.yul\":11444:12331   */\ntag_209:\n  pop\n    /* \"#utility.yul\":11034:12337   */\n  pop\n  pop\n  pop\n    /* \"#utility.yul\":10942:12337   */\n  pop\n  pop\n  jump\t// out\n    /* \"Users/jamesfan/Documents/Coding/DEVote/blockchain/contracts/Election.sol\":151:2263  contract Election {... */\ntag_17:\n  dataSize(sub_0)\n  dup1\n  dataOffset(sub_0)\n  0x00\n  codecopy\n  0x00\n  return\nstop\n\nsub_0: assembly {\n        /* \"Users/jamesfan/Documents/Coding/DEVote/blockchain/contracts/Election.sol\":151:2263  contract Election {... */\n      mstore(0x40, 0x80)\n      callvalue\n      dup1\n      iszero\n      tag_1\n      jumpi\n      0x00\n      dup1\n      revert\n    tag_1:\n      pop\n      jumpi(tag_2, lt(calldatasize, 0x04))\n      shr(0xe0, calldataload(0x00))\n      dup1\n      0x06a49fce\n      eq\n      tag_3\n      jumpi\n      dup1\n      0x122902a6\n      eq\n      tag_4\n      jumpi\n      dup1\n      0x59f78468\n      eq\n      tag_5\n      jumpi\n      dup1\n      0x893d20e8\n      eq\n      tag_6\n      jumpi\n      dup1\n      0xe7b3387c\n      eq\n      tag_7\n      jumpi\n    tag_2:\n      0x00\n      dup1\n      revert\n        /* \"Users/jamesfan/Documents/Coding/DEVote/blockchain/contracts/Election.sol\":1260:1357  function getCandidates() public view returns (string[] memory) {... */\n    tag_3:\n      tag_8\n      tag_9\n      jump\t// in\n    tag_8:\n      mload(0x40)\n      tag_10\n      swap2\n      swap1\n      tag_11\n      jump\t// in\n    tag_10:\n      mload(0x40)\n      dup1\n      swap2\n      sub\n      swap1\n      return\n        /* \"Users/jamesfan/Documents/Coding/DEVote/blockchain/contracts/Election.sol\":1027:1115  function getElectionStatus() public view returns (bool) {... */\n    tag_4:\n      tag_12\n      tag_13\n      jump\t// in\n    tag_12:\n      mload(0x40)\n      tag_14\n      swap2\n      swap1\n      tag_15\n      jump\t// in\n    tag_14:\n      mload(0x40)\n      dup1\n      swap2\n      sub\n      swap1\n      return\n        /* \"Users/jamesfan/Documents/Coding/DEVote/blockchain/contracts/Election.sol\":2199:2261  function endElection() public {... */\n    tag_5:\n      tag_16\n      tag_17\n      jump\t// in\n    tag_16:\n      stop\n        /* \"Users/jamesfan/Documents/Coding/DEVote/blockchain/contracts/Election.sol\":2062:2141  function getOwner() public view returns (address) {... */\n    tag_6:\n      tag_18\n      tag_19\n      jump\t// in\n    tag_18:\n      mload(0x40)\n      tag_20\n      swap2\n      swap1\n      tag_21\n      jump\t// in\n    tag_20:\n      mload(0x40)\n      dup1\n      swap2\n      sub\n      swap1\n      return\n        /* \"Users/jamesfan/Documents/Coding/DEVote/blockchain/contracts/Election.sol\":1550:1928  function getVoteCount()... */\n    tag_7:\n      tag_22\n      tag_23\n      jump\t// in\n    tag_22:\n      mload(0x40)\n      tag_24\n      swap3\n      swap2\n      swap1\n      tag_25\n      jump\t// in\n    tag_24:\n      mload(0x40)\n      dup1\n      swap2\n      sub\n      swap1\n      return\n        /* \"Users/jamesfan/Documents/Coding/DEVote/blockchain/contracts/Election.sol\":1260:1357  function getCandidates() public view returns (string[] memory) {... */\n    tag_9:\n        /* \"Users/jamesfan/Documents/Coding/DEVote/blockchain/contracts/Election.sol\":1306:1321  string[] memory */\n      0x60\n        /* \"Users/jamesfan/Documents/Coding/DEVote/blockchain/contracts/Election.sol\":1340:1350  candidates */\n      0x02\n        /* \"Users/jamesfan/Documents/Coding/DEVote/blockchain/contracts/Election.sol\":1333:1350  return candidates */\n      dup1\n      sload\n      dup1\n      0x20\n      mul\n      0x20\n      add\n      mload(0x40)\n      swap1\n      dup2\n      add\n      0x40\n      mstore\n      dup1\n      swap3\n      swap2\n      swap1\n      dup2\n      dup2\n      mstore\n      0x20\n      add\n      0x00\n      swap1\n    tag_27:\n      dup3\n      dup3\n      lt\n      iszero\n      tag_28\n      jumpi\n      dup4\n      dup3\n      swap1\n      0x00\n      mstore\n      keccak256(0x00, 0x20)\n      add\n      dup1\n      sload\n      tag_30\n      swap1\n      tag_31\n      jump\t// in\n    tag_30:\n      dup1\n      0x1f\n      add\n      0x20\n      dup1\n      swap2\n      div\n      mul\n      0x20\n      add\n      mload(0x40)\n      swap1\n      dup2\n      add\n      0x40\n      mstore\n      dup1\n      swap3\n      swap2\n      swap1\n      dup2\n      dup2\n      mstore\n      0x20\n      add\n      dup3\n      dup1\n      sload\n      tag_32\n      swap1\n      tag_31\n      jump\t// in\n    tag_32:\n      dup1\n      iszero\n      tag_33\n      jumpi\n      dup1\n      0x1f\n      lt\n      tag_34\n      jumpi\n      0x0100\n      dup1\n      dup4\n      sload\n      div\n      mul\n      dup4\n      mstore\n      swap2\n      0x20\n      add\n      swap2\n      jump(tag_33)\n    tag_34:\n      dup3\n      add\n      swap2\n      swap1\n      0x00\n      mstore\n      keccak256(0x00, 0x20)\n      swap1\n    tag_35:\n      dup2\n      sload\n      dup2\n      mstore\n      swap1\n      0x01\n      add\n      swap1\n      0x20\n      add\n      dup1\n      dup4\n      gt\n      tag_35\n      jumpi\n      dup3\n      swap1\n      sub\n      0x1f\n      and\n      dup3\n      add\n      swap2\n    tag_33:\n      pop\n      pop\n      pop\n      pop\n      pop\n      dup2\n      mstore\n      0x20\n      add\n      swap1\n      0x01\n      add\n      swap1\n      jump(tag_27)\n    tag_28:\n      pop\n      pop\n      pop\n      pop\n      swap1\n      pop\n        /* \"Users/jamesfan/Documents/Coding/DEVote/blockchain/contracts/Election.sol\":1260:1357  function getCandidates() public view returns (string[] memory) {... */\n      swap1\n      jump\t// out\n        /* \"Users/jamesfan/Documents/Coding/DEVote/blockchain/contracts/Election.sol\":1027:1115  function getElectionStatus() public view returns (bool) {... */\n    tag_13:\n        /* \"Users/jamesfan/Documents/Coding/DEVote/blockchain/contracts/Election.sol\":1077:1081  bool */\n      0x00\n        /* \"Users/jamesfan/Documents/Coding/DEVote/blockchain/contracts/Election.sol\":1100:1108  hasEnded */\n      0x06\n      0x00\n      swap1\n      sload\n      swap1\n      0x0100\n      exp\n      swap1\n      div\n      0xff\n      and\n        /* \"Users/jamesfan/Documents/Coding/DEVote/blockchain/contracts/Election.sol\":1093:1108  return hasEnded */\n      swap1\n      pop\n        /* \"Users/jamesfan/Documents/Coding/DEVote/blockchain/contracts/Election.sol\":1027:1115  function getElectionStatus() public view returns (bool) {... */\n      swap1\n      jump\t// out\n        /* \"Users/jamesfan/Documents/Coding/DEVote/blockchain/contracts/Election.sol\":2199:2261  function endElection() public {... */\n    tag_17:\n        /* \"Users/jamesfan/Documents/Coding/DEVote/blockchain/contracts/Election.sol\":2250:2254  true */\n      0x01\n        /* \"Users/jamesfan/Documents/Coding/DEVote/blockchain/contracts/Election.sol\":2239:2247  hasEnded */\n      0x06\n      0x00\n        /* \"Users/jamesfan/Documents/Coding/DEVote/blockchain/contracts/Election.sol\":2239:2254  hasEnded = true */\n      0x0100\n      exp\n      dup2\n      sload\n      dup2\n      0xff\n      mul\n      not\n      and\n      swap1\n      dup4\n      iszero\n      iszero\n      mul\n      or\n      swap1\n      sstore\n      pop\n        /* \"Users/jamesfan/Documents/Coding/DEVote/blockchain/contracts/Election.sol\":2199:2261  function endElection() public {... */\n      jump\t// out\n        /* \"Users/jamesfan/Documents/Coding/DEVote/blockchain/contracts/Election.sol\":2062:2141  function getOwner() public view returns (address) {... */\n    tag_19:\n        /* \"Users/jamesfan/Documents/Coding/DEVote/blockchain/contracts/Election.sol\":2103:2110  address */\n      0x00\n        /* \"Users/jamesfan/Documents/Coding/DEVote/blockchain/contracts/Election.sol\":2129:2134  owner */\n      dup1\n      0x00\n      swap1\n      sload\n      swap1\n      0x0100\n      exp\n      swap1\n      div\n      0xffffffffffffffffffffffffffffffffffffffff\n      and\n        /* \"Users/jamesfan/Documents/Coding/DEVote/blockchain/contracts/Election.sol\":2122:2134  return owner */\n      swap1\n      pop\n        /* \"Users/jamesfan/Documents/Coding/DEVote/blockchain/contracts/Election.sol\":2062:2141  function getOwner() public view returns (address) {... */\n      swap1\n      jump\t// out\n        /* \"Users/jamesfan/Documents/Coding/DEVote/blockchain/contracts/Election.sol\":1550:1928  function getVoteCount()... */\n    tag_23:\n        /* \"Users/jamesfan/Documents/Coding/DEVote/blockchain/contracts/Election.sol\":1619:1649  string[] memory candidateNames */\n      0x60\n        /* \"Users/jamesfan/Documents/Coding/DEVote/blockchain/contracts/Election.sol\":1651:1676  uint256[] memory numVotes */\n      dup1\n        /* \"Users/jamesfan/Documents/Coding/DEVote/blockchain/contracts/Election.sol\":1692:1718  uint256[] memory _numVotes */\n      0x00\n        /* \"Users/jamesfan/Documents/Coding/DEVote/blockchain/contracts/Election.sol\":1735:1745  candidates */\n      0x02\n        /* \"Users/jamesfan/Documents/Coding/DEVote/blockchain/contracts/Election.sol\":1735:1752  candidates.length */\n      dup1\n      sload\n      swap1\n      pop\n        /* \"Users/jamesfan/Documents/Coding/DEVote/blockchain/contracts/Election.sol\":1721:1753  new uint256[](candidates.length) */\n      0xffffffffffffffff\n      dup2\n      gt\n      iszero\n      tag_40\n      jumpi\n      tag_41\n      tag_42\n      jump\t// in\n    tag_41:\n    tag_40:\n      mload(0x40)\n      swap1\n      dup1\n      dup3\n      mstore\n      dup1\n      0x20\n      mul\n      0x20\n      add\n      dup3\n      add\n      0x40\n      mstore\n      dup1\n      iszero\n      tag_43\n      jumpi\n      dup2\n      0x20\n      add\n      0x20\n      dup3\n      mul\n      dup1\n      calldatasize\n      dup4\n      calldatacopy\n      dup1\n      dup3\n      add\n      swap2\n      pop\n      pop\n      swap1\n      pop\n    tag_43:\n      pop\n        /* \"Users/jamesfan/Documents/Coding/DEVote/blockchain/contracts/Election.sol\":1692:1753  uint256[] memory _numVotes = new uint256[](candidates.length) */\n      swap1\n      pop\n        /* \"Users/jamesfan/Documents/Coding/DEVote/blockchain/contracts/Election.sol\":1769:1778  uint256 i */\n      0x00\n        /* \"Users/jamesfan/Documents/Coding/DEVote/blockchain/contracts/Election.sol\":1764:1881  for (uint256 i = 0; i < candidates.length; i++) {... */\n    tag_44:\n        /* \"Users/jamesfan/Documents/Coding/DEVote/blockchain/contracts/Election.sol\":1788:1798  candidates */\n      0x02\n        /* \"Users/jamesfan/Documents/Coding/DEVote/blockchain/contracts/Election.sol\":1788:1805  candidates.length */\n      dup1\n      sload\n      swap1\n      pop\n        /* \"Users/jamesfan/Documents/Coding/DEVote/blockchain/contracts/Election.sol\":1784:1785  i */\n      dup2\n        /* \"Users/jamesfan/Documents/Coding/DEVote/blockchain/contracts/Election.sol\":1784:1805  i < candidates.length */\n      lt\n        /* \"Users/jamesfan/Documents/Coding/DEVote/blockchain/contracts/Election.sol\":1764:1881  for (uint256 i = 0; i < candidates.length; i++) {... */\n      iszero\n      tag_45\n      jumpi\n        /* \"Users/jamesfan/Documents/Coding/DEVote/blockchain/contracts/Election.sol\":1841:1855  candidateVotes */\n      0x04\n        /* \"Users/jamesfan/Documents/Coding/DEVote/blockchain/contracts/Election.sol\":1856:1866  candidates */\n      0x02\n        /* \"Users/jamesfan/Documents/Coding/DEVote/blockchain/contracts/Election.sol\":1867:1868  i */\n      dup3\n        /* \"Users/jamesfan/Documents/Coding/DEVote/blockchain/contracts/Election.sol\":1856:1869  candidates[i] */\n      dup2\n      sload\n      dup2\n      lt\n      tag_47\n      jumpi\n      tag_48\n      tag_49\n      jump\t// in\n    tag_48:\n    tag_47:\n      swap1\n      0x00\n      mstore\n      keccak256(0x00, 0x20)\n      add\n        /* \"Users/jamesfan/Documents/Coding/DEVote/blockchain/contracts/Election.sol\":1841:1870  candidateVotes[candidates[i]] */\n      mload(0x40)\n      tag_51\n      swap2\n      swap1\n      tag_52\n      jump\t// in\n    tag_51:\n      swap1\n      dup2\n      mstore\n      0x20\n      add\n      mload(0x40)\n      dup1\n      swap2\n      sub\n      swap1\n      keccak256\n      sload\n        /* \"Users/jamesfan/Documents/Coding/DEVote/blockchain/contracts/Election.sol\":1826:1835  _numVotes */\n      dup3\n        /* \"Users/jamesfan/Documents/Coding/DEVote/blockchain/contracts/Election.sol\":1836:1837  i */\n      dup3\n        /* \"Users/jamesfan/Documents/Coding/DEVote/blockchain/contracts/Election.sol\":1826:1838  _numVotes[i] */\n      dup2\n      mload\n      dup2\n      lt\n      tag_53\n      jumpi\n      tag_54\n      tag_49\n      jump\t// in\n    tag_54:\n    tag_53:\n      0x20\n      mul\n      0x20\n      add\n      add\n        /* \"Users/jamesfan/Documents/Coding/DEVote/blockchain/contracts/Election.sol\":1826:1870  _numVotes[i] = candidateVotes[candidates[i]] */\n      dup2\n      dup2\n      mstore\n      pop\n      pop\n        /* \"Users/jamesfan/Documents/Coding/DEVote/blockchain/contracts/Election.sol\":1807:1810  i++ */\n      dup1\n      dup1\n      0x01\n      add\n      swap2\n      pop\n      pop\n        /* \"Users/jamesfan/Documents/Coding/DEVote/blockchain/contracts/Election.sol\":1764:1881  for (uint256 i = 0; i < candidates.length; i++) {... */\n      jump(tag_44)\n    tag_45:\n      pop\n        /* \"Users/jamesfan/Documents/Coding/DEVote/blockchain/contracts/Election.sol\":1899:1909  candidates */\n      0x02\n        /* \"Users/jamesfan/Documents/Coding/DEVote/blockchain/contracts/Election.sol\":1911:1920  _numVotes */\n      dup2\n        /* \"Users/jamesfan/Documents/Coding/DEVote/blockchain/contracts/Election.sol\":1891:1921  return (candidates, _numVotes) */\n      dup2\n      dup1\n      sload\n      dup1\n      0x20\n      mul\n      0x20\n      add\n      mload(0x40)\n      swap1\n      dup2\n      add\n      0x40\n      mstore\n      dup1\n      swap3\n      swap2\n      swap1\n      dup2\n      dup2\n      mstore\n      0x20\n      add\n      0x00\n      swap1\n    tag_55:\n      dup3\n      dup3\n      lt\n      iszero\n      tag_56\n      jumpi\n      dup4\n      dup3\n      swap1\n      0x00\n      mstore\n      keccak256(0x00, 0x20)\n      add\n      dup1\n      sload\n      tag_58\n      swap1\n      tag_31\n      jump\t// in\n    tag_58:\n      dup1\n      0x1f\n      add\n      0x20\n      dup1\n      swap2\n      div\n      mul\n      0x20\n      add\n      mload(0x40)\n      swap1\n      dup2\n      add\n      0x40\n      mstore\n      dup1\n      swap3\n      swap2\n      swap1\n      dup2\n      dup2\n      mstore\n      0x20\n      add\n      dup3\n      dup1\n      sload\n      tag_59\n      swap1\n      tag_31\n      jump\t// in\n    tag_59:\n      dup1\n      iszero\n      tag_60\n      jumpi\n      dup1\n      0x1f\n      lt\n      tag_61\n      jumpi\n      0x0100\n      dup1\n      dup4\n      sload\n      div\n      mul\n      dup4\n      mstore\n      swap2\n      0x20\n      add\n      swap2\n      jump(tag_60)\n    tag_61:\n      dup3\n      add\n      swap2\n      swap1\n      0x00\n      mstore\n      keccak256(0x00, 0x20)\n      swap1\n    tag_62:\n      dup2\n      sload\n      dup2\n      mstore\n      swap1\n      0x01\n      add\n      swap1\n      0x20\n      add\n      dup1\n      dup4\n      gt\n      tag_62\n      jumpi\n      dup3\n      swap1\n      sub\n      0x1f\n      and\n      dup3\n      add\n      swap2\n    tag_60:\n      pop\n      pop\n      pop\n      pop\n      pop\n      dup2\n      mstore\n      0x20\n      add\n      swap1\n      0x01\n      add\n      swap1\n      jump(tag_55)\n    tag_56:\n      pop\n      pop\n      pop\n      pop\n      swap2\n      pop\n      swap3\n      pop\n      swap3\n      pop\n      pop\n        /* \"Users/jamesfan/Documents/Coding/DEVote/blockchain/contracts/Election.sol\":1550:1928  function getVoteCount()... */\n      swap1\n      swap2\n      jump\t// out\n        /* \"#utility.yul\":7:131   */\n    tag_63:\n        /* \"#utility.yul\":84:90   */\n      0x00\n        /* \"#utility.yul\":118:123   */\n      dup2\n        /* \"#utility.yul\":112:124   */\n      mload\n        /* \"#utility.yul\":102:124   */\n      swap1\n      pop\n        /* \"#utility.yul\":7:131   */\n      swap2\n      swap1\n      pop\n      jump\t// out\n        /* \"#utility.yul\":137:331   */\n    tag_64:\n        /* \"#utility.yul\":246:257   */\n      0x00\n        /* \"#utility.yul\":280:286   */\n      dup3\n        /* \"#utility.yul\":275:278   */\n      dup3\n        /* \"#utility.yul\":268:287   */\n      mstore\n        /* \"#utility.yul\":320:324   */\n      0x20\n        /* \"#utility.yul\":315:318   */\n      dup3\n        /* \"#utility.yul\":311:325   */\n      add\n        /* \"#utility.yul\":296:325   */\n      swap1\n      pop\n        /* \"#utility.yul\":137:331   */\n      swap3\n      swap2\n      pop\n      pop\n      jump\t// out\n        /* \"#utility.yul\":337:479   */\n    tag_65:\n        /* \"#utility.yul\":414:418   */\n      0x00\n        /* \"#utility.yul\":437:440   */\n      dup2\n        /* \"#utility.yul\":429:440   */\n      swap1\n      pop\n        /* \"#utility.yul\":467:471   */\n      0x20\n        /* \"#utility.yul\":462:465   */\n      dup3\n        /* \"#utility.yul\":458:472   */\n      add\n        /* \"#utility.yul\":450:472   */\n      swap1\n      pop\n        /* \"#utility.yul\":337:479   */\n      swap2\n      swap1\n      pop\n      jump\t// out\n        /* \"#utility.yul\":485:584   */\n    tag_66:\n        /* \"#utility.yul\":537:543   */\n      0x00\n        /* \"#utility.yul\":571:576   */\n      dup2\n        /* \"#utility.yul\":565:577   */\n      mload\n        /* \"#utility.yul\":555:577   */\n      swap1\n      pop\n        /* \"#utility.yul\":485:584   */\n      swap2\n      swap1\n      pop\n      jump\t// out\n        /* \"#utility.yul\":590:749   */\n    tag_67:\n        /* \"#utility.yul\":664:675   */\n      0x00\n        /* \"#utility.yul\":698:704   */\n      dup3\n        /* \"#utility.yul\":693:696   */\n      dup3\n        /* \"#utility.yul\":686:705   */\n      mstore\n        /* \"#utility.yul\":738:742   */\n      0x20\n        /* \"#utility.yul\":733:736   */\n      dup3\n        /* \"#utility.yul\":729:743   */\n      add\n        /* \"#utility.yul\":714:743   */\n      swap1\n      pop\n        /* \"#utility.yul\":590:749   */\n      swap3\n      swap2\n      pop\n      pop\n      jump\t// out\n        /* \"#utility.yul\":755:1001   */\n    tag_68:\n        /* \"#utility.yul\":836:837   */\n      0x00\n        /* \"#utility.yul\":846:959   */\n    tag_98:\n        /* \"#utility.yul\":860:866   */\n      dup4\n        /* \"#utility.yul\":857:858   */\n      dup2\n        /* \"#utility.yul\":854:867   */\n      lt\n        /* \"#utility.yul\":846:959   */\n      iszero\n      tag_100\n      jumpi\n        /* \"#utility.yul\":945:946   */\n      dup1\n        /* \"#utility.yul\":940:943   */\n      dup3\n        /* \"#utility.yul\":936:947   */\n      add\n        /* \"#utility.yul\":930:948   */\n      mload\n        /* \"#utility.yul\":926:927   */\n      dup2\n        /* \"#utility.yul\":921:924   */\n      dup5\n        /* \"#utility.yul\":917:928   */\n      add\n        /* \"#utility.yul\":910:949   */\n      mstore\n        /* \"#utility.yul\":882:884   */\n      0x20\n        /* \"#utility.yul\":879:880   */\n      dup2\n        /* \"#utility.yul\":875:885   */\n      add\n        /* \"#utility.yul\":870:885   */\n      swap1\n      pop\n        /* \"#utility.yul\":846:959   */\n      jump(tag_98)\n    tag_100:\n        /* \"#utility.yul\":993:994   */\n      0x00\n        /* \"#utility.yul\":984:990   */\n      dup5\n        /* \"#utility.yul\":979:982   */\n      dup5\n        /* \"#utility.yul\":975:991   */\n      add\n        /* \"#utility.yul\":968:995   */\n      mstore\n        /* \"#utility.yul\":817:1001   */\n      pop\n        /* \"#utility.yul\":755:1001   */\n      pop\n      pop\n      pop\n      jump\t// out\n        /* \"#utility.yul\":1007:1109   */\n    tag_69:\n        /* \"#utility.yul\":1048:1054   */\n      0x00\n        /* \"#utility.yul\":1099:1101   */\n      0x1f\n        /* \"#utility.yul\":1095:1102   */\n      not\n        /* \"#utility.yul\":1090:1092   */\n      0x1f\n        /* \"#utility.yul\":1083:1088   */\n      dup4\n        /* \"#utility.yul\":1079:1093   */\n      add\n        /* \"#utility.yul\":1075:1103   */\n      and\n        /* \"#utility.yul\":1065:1103   */\n      swap1\n      pop\n        /* \"#utility.yul\":1007:1109   */\n      swap2\n      swap1\n      pop\n      jump\t// out\n        /* \"#utility.yul\":1115:1472   */\n    tag_70:\n        /* \"#utility.yul\":1193:1196   */\n      0x00\n        /* \"#utility.yul\":1221:1260   */\n      tag_103\n        /* \"#utility.yul\":1254:1259   */\n      dup3\n        /* \"#utility.yul\":1221:1260   */\n      tag_66\n      jump\t// in\n    tag_103:\n        /* \"#utility.yul\":1276:1337   */\n      tag_104\n        /* \"#utility.yul\":1330:1336   */\n      dup2\n        /* \"#utility.yul\":1325:1328   */\n      dup6\n        /* \"#utility.yul\":1276:1337   */\n      tag_67\n      jump\t// in\n    tag_104:\n        /* \"#utility.yul\":1269:1337   */\n      swap4\n      pop\n        /* \"#utility.yul\":1346:1411   */\n      tag_105\n        /* \"#utility.yul\":1404:1410   */\n      dup2\n        /* \"#utility.yul\":1399:1402   */\n      dup6\n        /* \"#utility.yul\":1392:1396   */\n      0x20\n        /* \"#utility.yul\":1385:1390   */\n      dup7\n        /* \"#utility.yul\":1381:1397   */\n      add\n        /* \"#utility.yul\":1346:1411   */\n      tag_68\n      jump\t// in\n    tag_105:\n        /* \"#utility.yul\":1436:1465   */\n      tag_106\n        /* \"#utility.yul\":1458:1464   */\n      dup2\n        /* \"#utility.yul\":1436:1465   */\n      tag_69\n      jump\t// in\n    tag_106:\n        /* \"#utility.yul\":1431:1434   */\n      dup5\n        /* \"#utility.yul\":1427:1466   */\n      add\n        /* \"#utility.yul\":1420:1466   */\n      swap2\n      pop\n        /* \"#utility.yul\":1197:1472   */\n      pop\n        /* \"#utility.yul\":1115:1472   */\n      swap3\n      swap2\n      pop\n      pop\n      jump\t// out\n        /* \"#utility.yul\":1478:1674   */\n    tag_71:\n        /* \"#utility.yul\":1567:1577   */\n      0x00\n        /* \"#utility.yul\":1602:1668   */\n      tag_108\n        /* \"#utility.yul\":1664:1667   */\n      dup4\n        /* \"#utility.yul\":1656:1662   */\n      dup4\n        /* \"#utility.yul\":1602:1668   */\n      tag_70\n      jump\t// in\n    tag_108:\n        /* \"#utility.yul\":1588:1668   */\n      swap1\n      pop\n        /* \"#utility.yul\":1478:1674   */\n      swap3\n      swap2\n      pop\n      pop\n      jump\t// out\n        /* \"#utility.yul\":1680:1803   */\n    tag_72:\n        /* \"#utility.yul\":1760:1764   */\n      0x00\n        /* \"#utility.yul\":1792:1796   */\n      0x20\n        /* \"#utility.yul\":1787:1790   */\n      dup3\n        /* \"#utility.yul\":1783:1797   */\n      add\n        /* \"#utility.yul\":1775:1797   */\n      swap1\n      pop\n        /* \"#utility.yul\":1680:1803   */\n      swap2\n      swap1\n      pop\n      jump\t// out\n        /* \"#utility.yul\":1837:2828   */\n    tag_73:\n        /* \"#utility.yul\":1976:1979   */\n      0x00\n        /* \"#utility.yul\":2005:2069   */\n      tag_111\n        /* \"#utility.yul\":2063:2068   */\n      dup3\n        /* \"#utility.yul\":2005:2069   */\n      tag_63\n      jump\t// in\n    tag_111:\n        /* \"#utility.yul\":2085:2181   */\n      tag_112\n        /* \"#utility.yul\":2174:2180   */\n      dup2\n        /* \"#utility.yul\":2169:2172   */\n      dup6\n        /* \"#utility.yul\":2085:2181   */\n      tag_64\n      jump\t// in\n    tag_112:\n        /* \"#utility.yul\":2078:2181   */\n      swap4\n      pop\n        /* \"#utility.yul\":2207:2210   */\n      dup4\n        /* \"#utility.yul\":2252:2256   */\n      0x20\n        /* \"#utility.yul\":2244:2250   */\n      dup3\n        /* \"#utility.yul\":2240:2257   */\n      mul\n        /* \"#utility.yul\":2235:2238   */\n      dup6\n        /* \"#utility.yul\":2231:2258   */\n      add\n        /* \"#utility.yul\":2282:2348   */\n      tag_113\n        /* \"#utility.yul\":2342:2347   */\n      dup6\n        /* \"#utility.yul\":2282:2348   */\n      tag_65\n      jump\t// in\n    tag_113:\n        /* \"#utility.yul\":2371:2378   */\n      dup1\n        /* \"#utility.yul\":2402:2403   */\n      0x00\n        /* \"#utility.yul\":2387:2783   */\n    tag_114:\n        /* \"#utility.yul\":2412:2418   */\n      dup6\n        /* \"#utility.yul\":2409:2410   */\n      dup2\n        /* \"#utility.yul\":2406:2419   */\n      lt\n        /* \"#utility.yul\":2387:2783   */\n      iszero\n      tag_116\n      jumpi\n        /* \"#utility.yul\":2483:2492   */\n      dup5\n        /* \"#utility.yul\":2477:2481   */\n      dup5\n        /* \"#utility.yul\":2473:2493   */\n      sub\n        /* \"#utility.yul\":2468:2471   */\n      dup10\n        /* \"#utility.yul\":2461:2494   */\n      mstore\n        /* \"#utility.yul\":2534:2540   */\n      dup2\n        /* \"#utility.yul\":2528:2541   */\n      mload\n        /* \"#utility.yul\":2562:2646   */\n      tag_117\n        /* \"#utility.yul\":2641:2645   */\n      dup6\n        /* \"#utility.yul\":2626:2639   */\n      dup3\n        /* \"#utility.yul\":2562:2646   */\n      tag_71\n      jump\t// in\n    tag_117:\n        /* \"#utility.yul\":2554:2646   */\n      swap5\n      pop\n        /* \"#utility.yul\":2669:2739   */\n      tag_118\n        /* \"#utility.yul\":2732:2738   */\n      dup4\n        /* \"#utility.yul\":2669:2739   */\n      tag_72\n      jump\t// in\n    tag_118:\n        /* \"#utility.yul\":2659:2739   */\n      swap3\n      pop\n        /* \"#utility.yul\":2768:2772   */\n      0x20\n        /* \"#utility.yul\":2763:2766   */\n      dup11\n        /* \"#utility.yul\":2759:2773   */\n      add\n        /* \"#utility.yul\":2752:2773   */\n      swap10\n      pop\n        /* \"#utility.yul\":2447:2783   */\n      pop\n        /* \"#utility.yul\":2434:2435   */\n      0x01\n        /* \"#utility.yul\":2431:2432   */\n      dup2\n        /* \"#utility.yul\":2427:2436   */\n      add\n        /* \"#utility.yul\":2422:2436   */\n      swap1\n      pop\n        /* \"#utility.yul\":2387:2783   */\n      jump(tag_114)\n    tag_116:\n        /* \"#utility.yul\":2391:2405   */\n      pop\n        /* \"#utility.yul\":2799:2803   */\n      dup3\n        /* \"#utility.yul\":2792:2803   */\n      swap8\n      pop\n        /* \"#utility.yul\":2819:2822   */\n      dup8\n        /* \"#utility.yul\":2812:2822   */\n      swap6\n      pop\n        /* \"#utility.yul\":1981:2828   */\n      pop\n      pop\n      pop\n      pop\n      pop\n        /* \"#utility.yul\":1837:2828   */\n      swap3\n      swap2\n      pop\n      pop\n      jump\t// out\n        /* \"#utility.yul\":2834:3247   */\n    tag_11:\n        /* \"#utility.yul\":2997:3001   */\n      0x00\n        /* \"#utility.yul\":3035:3037   */\n      0x20\n        /* \"#utility.yul\":3024:3033   */\n      dup3\n        /* \"#utility.yul\":3020:3038   */\n      add\n        /* \"#utility.yul\":3012:3038   */\n      swap1\n      pop\n        /* \"#utility.yul\":3084:3093   */\n      dup2\n        /* \"#utility.yul\":3078:3082   */\n      dup2\n        /* \"#utility.yul\":3074:3094   */\n      sub\n        /* \"#utility.yul\":3070:3071   */\n      0x00\n        /* \"#utility.yul\":3059:3068   */\n      dup4\n        /* \"#utility.yul\":3055:3072   */\n      add\n        /* \"#utility.yul\":3048:3095   */\n      mstore\n        /* \"#utility.yul\":3112:3240   */\n      tag_120\n        /* \"#utility.yul\":3235:3239   */\n      dup2\n        /* \"#utility.yul\":3226:3232   */\n      dup5\n        /* \"#utility.yul\":3112:3240   */\n      tag_73\n      jump\t// in\n    tag_120:\n        /* \"#utility.yul\":3104:3240   */\n      swap1\n      pop\n        /* \"#utility.yul\":2834:3247   */\n      swap3\n      swap2\n      pop\n      pop\n      jump\t// out\n        /* \"#utility.yul\":3253:3343   */\n    tag_74:\n        /* \"#utility.yul\":3287:3294   */\n      0x00\n        /* \"#utility.yul\":3330:3335   */\n      dup2\n        /* \"#utility.yul\":3323:3336   */\n      iszero\n        /* \"#utility.yul\":3316:3337   */\n      iszero\n        /* \"#utility.yul\":3305:3337   */\n      swap1\n      pop\n        /* \"#utility.yul\":3253:3343   */\n      swap2\n      swap1\n      pop\n      jump\t// out\n        /* \"#utility.yul\":3349:3458   */\n    tag_75:\n        /* \"#utility.yul\":3430:3451   */\n      tag_123\n        /* \"#utility.yul\":3445:3450   */\n      dup2\n        /* \"#utility.yul\":3430:3451   */\n      tag_74\n      jump\t// in\n    tag_123:\n        /* \"#utility.yul\":3425:3428   */\n      dup3\n        /* \"#utility.yul\":3418:3452   */\n      mstore\n        /* \"#utility.yul\":3349:3458   */\n      pop\n      pop\n      jump\t// out\n        /* \"#utility.yul\":3464:3674   */\n    tag_15:\n        /* \"#utility.yul\":3551:3555   */\n      0x00\n        /* \"#utility.yul\":3589:3591   */\n      0x20\n        /* \"#utility.yul\":3578:3587   */\n      dup3\n        /* \"#utility.yul\":3574:3592   */\n      add\n        /* \"#utility.yul\":3566:3592   */\n      swap1\n      pop\n        /* \"#utility.yul\":3602:3667   */\n      tag_125\n        /* \"#utility.yul\":3664:3665   */\n      0x00\n        /* \"#utility.yul\":3653:3662   */\n      dup4\n        /* \"#utility.yul\":3649:3666   */\n      add\n        /* \"#utility.yul\":3640:3646   */\n      dup5\n        /* \"#utility.yul\":3602:3667   */\n      tag_75\n      jump\t// in\n    tag_125:\n        /* \"#utility.yul\":3464:3674   */\n      swap3\n      swap2\n      pop\n      pop\n      jump\t// out\n        /* \"#utility.yul\":3680:3806   */\n    tag_76:\n        /* \"#utility.yul\":3717:3724   */\n      0x00\n        /* \"#utility.yul\":3757:3799   */\n      0xffffffffffffffffffffffffffffffffffffffff\n        /* \"#utility.yul\":3750:3755   */\n      dup3\n        /* \"#utility.yul\":3746:3800   */\n      and\n        /* \"#utility.yul\":3735:3800   */\n      swap1\n      pop\n        /* \"#utility.yul\":3680:3806   */\n      swap2\n      swap1\n      pop\n      jump\t// out\n        /* \"#utility.yul\":3812:3908   */\n    tag_77:\n        /* \"#utility.yul\":3849:3856   */\n      0x00\n        /* \"#utility.yul\":3878:3902   */\n      tag_128\n        /* \"#utility.yul\":3896:3901   */\n      dup3\n        /* \"#utility.yul\":3878:3902   */\n      tag_76\n      jump\t// in\n    tag_128:\n        /* \"#utility.yul\":3867:3902   */\n      swap1\n      pop\n        /* \"#utility.yul\":3812:3908   */\n      swap2\n      swap1\n      pop\n      jump\t// out\n        /* \"#utility.yul\":3914:4032   */\n    tag_78:\n        /* \"#utility.yul\":4001:4025   */\n      tag_130\n        /* \"#utility.yul\":4019:4024   */\n      dup2\n        /* \"#utility.yul\":4001:4025   */\n      tag_77\n      jump\t// in\n    tag_130:\n        /* \"#utility.yul\":3996:3999   */\n      dup3\n        /* \"#utility.yul\":3989:4026   */\n      mstore\n        /* \"#utility.yul\":3914:4032   */\n      pop\n      pop\n      jump\t// out\n        /* \"#utility.yul\":4038:4260   */\n    tag_21:\n        /* \"#utility.yul\":4131:4135   */\n      0x00\n        /* \"#utility.yul\":4169:4171   */\n      0x20\n        /* \"#utility.yul\":4158:4167   */\n      dup3\n        /* \"#utility.yul\":4154:4172   */\n      add\n        /* \"#utility.yul\":4146:4172   */\n      swap1\n      pop\n        /* \"#utility.yul\":4182:4253   */\n      tag_132\n        /* \"#utility.yul\":4250:4251   */\n      0x00\n        /* \"#utility.yul\":4239:4248   */\n      dup4\n        /* \"#utility.yul\":4235:4252   */\n      add\n        /* \"#utility.yul\":4226:4232   */\n      dup5\n        /* \"#utility.yul\":4182:4253   */\n      tag_78\n      jump\t// in\n    tag_132:\n        /* \"#utility.yul\":4038:4260   */\n      swap3\n      swap2\n      pop\n      pop\n      jump\t// out\n        /* \"#utility.yul\":4266:4380   */\n    tag_79:\n        /* \"#utility.yul\":4333:4339   */\n      0x00\n        /* \"#utility.yul\":4367:4372   */\n      dup2\n        /* \"#utility.yul\":4361:4373   */\n      mload\n        /* \"#utility.yul\":4351:4373   */\n      swap1\n      pop\n        /* \"#utility.yul\":4266:4380   */\n      swap2\n      swap1\n      pop\n      jump\t// out\n        /* \"#utility.yul\":4386:4570   */\n    tag_80:\n        /* \"#utility.yul\":4485:4496   */\n      0x00\n        /* \"#utility.yul\":4519:4525   */\n      dup3\n        /* \"#utility.yul\":4514:4517   */\n      dup3\n        /* \"#utility.yul\":4507:4526   */\n      mstore\n        /* \"#utility.yul\":4559:4563   */\n      0x20\n        /* \"#utility.yul\":4554:4557   */\n      dup3\n        /* \"#utility.yul\":4550:4564   */\n      add\n        /* \"#utility.yul\":4535:4564   */\n      swap1\n      pop\n        /* \"#utility.yul\":4386:4570   */\n      swap3\n      swap2\n      pop\n      pop\n      jump\t// out\n        /* \"#utility.yul\":4576:4708   */\n    tag_81:\n        /* \"#utility.yul\":4643:4647   */\n      0x00\n        /* \"#utility.yul\":4666:4669   */\n      dup2\n        /* \"#utility.yul\":4658:4669   */\n      swap1\n      pop\n        /* \"#utility.yul\":4696:4700   */\n      0x20\n        /* \"#utility.yul\":4691:4694   */\n      dup3\n        /* \"#utility.yul\":4687:4701   */\n      add\n        /* \"#utility.yul\":4679:4701   */\n      swap1\n      pop\n        /* \"#utility.yul\":4576:4708   */\n      swap2\n      swap1\n      pop\n      jump\t// out\n        /* \"#utility.yul\":4714:4791   */\n    tag_82:\n        /* \"#utility.yul\":4751:4758   */\n      0x00\n        /* \"#utility.yul\":4780:4785   */\n      dup2\n        /* \"#utility.yul\":4769:4785   */\n      swap1\n      pop\n        /* \"#utility.yul\":4714:4791   */\n      swap2\n      swap1\n      pop\n      jump\t// out\n        /* \"#utility.yul\":4797:4905   */\n    tag_83:\n        /* \"#utility.yul\":4874:4898   */\n      tag_138\n        /* \"#utility.yul\":4892:4897   */\n      dup2\n        /* \"#utility.yul\":4874:4898   */\n      tag_82\n      jump\t// in\n    tag_138:\n        /* \"#utility.yul\":4869:4872   */\n      dup3\n        /* \"#utility.yul\":4862:4899   */\n      mstore\n        /* \"#utility.yul\":4797:4905   */\n      pop\n      pop\n      jump\t// out\n        /* \"#utility.yul\":4911:5090   */\n    tag_84:\n        /* \"#utility.yul\":4980:4990   */\n      0x00\n        /* \"#utility.yul\":5001:5047   */\n      tag_140\n        /* \"#utility.yul\":5043:5046   */\n      dup4\n        /* \"#utility.yul\":5035:5041   */\n      dup4\n        /* \"#utility.yul\":5001:5047   */\n      tag_83\n      jump\t// in\n    tag_140:\n        /* \"#utility.yul\":5079:5083   */\n      0x20\n        /* \"#utility.yul\":5074:5077   */\n      dup4\n        /* \"#utility.yul\":5070:5084   */\n      add\n        /* \"#utility.yul\":5056:5084   */\n      swap1\n      pop\n        /* \"#utility.yul\":4911:5090   */\n      swap3\n      swap2\n      pop\n      pop\n      jump\t// out\n        /* \"#utility.yul\":5096:5209   */\n    tag_85:\n        /* \"#utility.yul\":5166:5170   */\n      0x00\n        /* \"#utility.yul\":5198:5202   */\n      0x20\n        /* \"#utility.yul\":5193:5196   */\n      dup3\n        /* \"#utility.yul\":5189:5203   */\n      add\n        /* \"#utility.yul\":5181:5203   */\n      swap1\n      pop\n        /* \"#utility.yul\":5096:5209   */\n      swap2\n      swap1\n      pop\n      jump\t// out\n        /* \"#utility.yul\":5245:5977   */\n    tag_86:\n        /* \"#utility.yul\":5364:5367   */\n      0x00\n        /* \"#utility.yul\":5393:5447   */\n      tag_143\n        /* \"#utility.yul\":5441:5446   */\n      dup3\n        /* \"#utility.yul\":5393:5447   */\n      tag_79\n      jump\t// in\n    tag_143:\n        /* \"#utility.yul\":5463:5549   */\n      tag_144\n        /* \"#utility.yul\":5542:5548   */\n      dup2\n        /* \"#utility.yul\":5537:5540   */\n      dup6\n        /* \"#utility.yul\":5463:5549   */\n      tag_80\n      jump\t// in\n    tag_144:\n        /* \"#utility.yul\":5456:5549   */\n      swap4\n      pop\n        /* \"#utility.yul\":5573:5629   */\n      tag_145\n        /* \"#utility.yul\":5623:5628   */\n      dup4\n        /* \"#utility.yul\":5573:5629   */\n      tag_81\n      jump\t// in\n    tag_145:\n        /* \"#utility.yul\":5652:5659   */\n      dup1\n        /* \"#utility.yul\":5683:5684   */\n      0x00\n        /* \"#utility.yul\":5668:5952   */\n    tag_146:\n        /* \"#utility.yul\":5693:5699   */\n      dup4\n        /* \"#utility.yul\":5690:5691   */\n      dup2\n        /* \"#utility.yul\":5687:5700   */\n      lt\n        /* \"#utility.yul\":5668:5952   */\n      iszero\n      tag_148\n      jumpi\n        /* \"#utility.yul\":5769:5775   */\n      dup2\n        /* \"#utility.yul\":5763:5776   */\n      mload\n        /* \"#utility.yul\":5796:5859   */\n      tag_149\n        /* \"#utility.yul\":5855:5858   */\n      dup9\n        /* \"#utility.yul\":5840:5853   */\n      dup3\n        /* \"#utility.yul\":5796:5859   */\n      tag_84\n      jump\t// in\n    tag_149:\n        /* \"#utility.yul\":5789:5859   */\n      swap8\n      pop\n        /* \"#utility.yul\":5882:5942   */\n      tag_150\n        /* \"#utility.yul\":5935:5941   */\n      dup4\n        /* \"#utility.yul\":5882:5942   */\n      tag_85\n      jump\t// in\n    tag_150:\n        /* \"#utility.yul\":5872:5942   */\n      swap3\n      pop\n        /* \"#utility.yul\":5728:5952   */\n      pop\n        /* \"#utility.yul\":5715:5716   */\n      0x01\n        /* \"#utility.yul\":5712:5713   */\n      dup2\n        /* \"#utility.yul\":5708:5717   */\n      add\n        /* \"#utility.yul\":5703:5717   */\n      swap1\n      pop\n        /* \"#utility.yul\":5668:5952   */\n      jump(tag_146)\n    tag_148:\n        /* \"#utility.yul\":5672:5686   */\n      pop\n        /* \"#utility.yul\":5968:5971   */\n      dup6\n        /* \"#utility.yul\":5961:5971   */\n      swap4\n      pop\n        /* \"#utility.yul\":5369:5977   */\n      pop\n      pop\n      pop\n        /* \"#utility.yul\":5245:5977   */\n      swap3\n      swap2\n      pop\n      pop\n      jump\t// out\n        /* \"#utility.yul\":5983:6657   */\n    tag_25:\n        /* \"#utility.yul\":6224:6228   */\n      0x00\n        /* \"#utility.yul\":6262:6264   */\n      0x40\n        /* \"#utility.yul\":6251:6260   */\n      dup3\n        /* \"#utility.yul\":6247:6265   */\n      add\n        /* \"#utility.yul\":6239:6265   */\n      swap1\n      pop\n        /* \"#utility.yul\":6311:6320   */\n      dup2\n        /* \"#utility.yul\":6305:6309   */\n      dup2\n        /* \"#utility.yul\":6301:6321   */\n      sub\n        /* \"#utility.yul\":6297:6298   */\n      0x00\n        /* \"#utility.yul\":6286:6295   */\n      dup4\n        /* \"#utility.yul\":6282:6299   */\n      add\n        /* \"#utility.yul\":6275:6322   */\n      mstore\n        /* \"#utility.yul\":6339:6467   */\n      tag_152\n        /* \"#utility.yul\":6462:6466   */\n      dup2\n        /* \"#utility.yul\":6453:6459   */\n      dup6\n        /* \"#utility.yul\":6339:6467   */\n      tag_73\n      jump\t// in\n    tag_152:\n        /* \"#utility.yul\":6331:6467   */\n      swap1\n      pop\n        /* \"#utility.yul\":6514:6523   */\n      dup2\n        /* \"#utility.yul\":6508:6512   */\n      dup2\n        /* \"#utility.yul\":6504:6524   */\n      sub\n        /* \"#utility.yul\":6499:6501   */\n      0x20\n        /* \"#utility.yul\":6488:6497   */\n      dup4\n        /* \"#utility.yul\":6484:6502   */\n      add\n        /* \"#utility.yul\":6477:6525   */\n      mstore\n        /* \"#utility.yul\":6542:6650   */\n      tag_153\n        /* \"#utility.yul\":6645:6649   */\n      dup2\n        /* \"#utility.yul\":6636:6642   */\n      dup5\n        /* \"#utility.yul\":6542:6650   */\n      tag_86\n      jump\t// in\n    tag_153:\n        /* \"#utility.yul\":6534:6650   */\n      swap1\n      pop\n        /* \"#utility.yul\":5983:6657   */\n      swap4\n      swap3\n      pop\n      pop\n      pop\n      jump\t// out\n        /* \"#utility.yul\":6663:6843   */\n    tag_87:\n        /* \"#utility.yul\":6711:6788   */\n      0x4e487b7100000000000000000000000000000000000000000000000000000000\n        /* \"#utility.yul\":6708:6709   */\n      0x00\n        /* \"#utility.yul\":6701:6789   */\n      mstore\n        /* \"#utility.yul\":6808:6812   */\n      0x22\n        /* \"#utility.yul\":6805:6806   */\n      0x04\n        /* \"#utility.yul\":6798:6813   */\n      mstore\n        /* \"#utility.yul\":6832:6836   */\n      0x24\n        /* \"#utility.yul\":6829:6830   */\n      0x00\n        /* \"#utility.yul\":6822:6837   */\n      revert\n        /* \"#utility.yul\":6849:7169   */\n    tag_31:\n        /* \"#utility.yul\":6893:6899   */\n      0x00\n        /* \"#utility.yul\":6930:6931   */\n      0x02\n        /* \"#utility.yul\":6924:6928   */\n      dup3\n        /* \"#utility.yul\":6920:6932   */\n      div\n        /* \"#utility.yul\":6910:6932   */\n      swap1\n      pop\n        /* \"#utility.yul\":6977:6978   */\n      0x01\n        /* \"#utility.yul\":6971:6975   */\n      dup3\n        /* \"#utility.yul\":6967:6979   */\n      and\n        /* \"#utility.yul\":6998:7016   */\n      dup1\n        /* \"#utility.yul\":6988:7069   */\n      tag_156\n      jumpi\n        /* \"#utility.yul\":7054:7058   */\n      0x7f\n        /* \"#utility.yul\":7046:7052   */\n      dup3\n        /* \"#utility.yul\":7042:7059   */\n      and\n        /* \"#utility.yul\":7032:7059   */\n      swap2\n      pop\n        /* \"#utility.yul\":6988:7069   */\n    tag_156:\n        /* \"#utility.yul\":7116:7118   */\n      0x20\n        /* \"#utility.yul\":7108:7114   */\n      dup3\n        /* \"#utility.yul\":7105:7119   */\n      lt\n        /* \"#utility.yul\":7085:7103   */\n      dup2\n        /* \"#utility.yul\":7082:7120   */\n      sub\n        /* \"#utility.yul\":7079:7163   */\n      tag_157\n      jumpi\n        /* \"#utility.yul\":7135:7153   */\n      tag_158\n      tag_87\n      jump\t// in\n    tag_158:\n        /* \"#utility.yul\":7079:7163   */\n    tag_157:\n        /* \"#utility.yul\":6900:7169   */\n      pop\n        /* \"#utility.yul\":6849:7169   */\n      swap2\n      swap1\n      pop\n      jump\t// out\n        /* \"#utility.yul\":7175:7355   */\n    tag_42:\n        /* \"#utility.yul\":7223:7300   */\n      0x4e487b7100000000000000000000000000000000000000000000000000000000\n        /* \"#utility.yul\":7220:7221   */\n      0x00\n        /* \"#utility.yul\":7213:7301   */\n      mstore\n        /* \"#utility.yul\":7320:7324   */\n      0x41\n        /* \"#utility.yul\":7317:7318   */\n      0x04\n        /* \"#utility.yul\":7310:7325   */\n      mstore\n        /* \"#utility.yul\":7344:7348   */\n      0x24\n        /* \"#utility.yul\":7341:7342   */\n      0x00\n        /* \"#utility.yul\":7334:7349   */\n      revert\n        /* \"#utility.yul\":7361:7541   */\n    tag_49:\n        /* \"#utility.yul\":7409:7486   */\n      0x4e487b7100000000000000000000000000000000000000000000000000000000\n        /* \"#utility.yul\":7406:7407   */\n      0x00\n        /* \"#utility.yul\":7399:7487   */\n      mstore\n        /* \"#utility.yul\":7506:7510   */\n      0x32\n        /* \"#utility.yul\":7503:7504   */\n      0x04\n        /* \"#utility.yul\":7496:7511   */\n      mstore\n        /* \"#utility.yul\":7530:7534   */\n      0x24\n        /* \"#utility.yul\":7527:7528   */\n      0x00\n        /* \"#utility.yul\":7520:7535   */\n      revert\n        /* \"#utility.yul\":7547:7695   */\n    tag_88:\n        /* \"#utility.yul\":7649:7660   */\n      0x00\n        /* \"#utility.yul\":7686:7689   */\n      dup2\n        /* \"#utility.yul\":7671:7689   */\n      swap1\n      pop\n        /* \"#utility.yul\":7547:7695   */\n      swap3\n      swap2\n      pop\n      pop\n      jump\t// out\n        /* \"#utility.yul\":7701:7842   */\n    tag_89:\n        /* \"#utility.yul\":7750:7754   */\n      0x00\n        /* \"#utility.yul\":7773:7776   */\n      dup2\n        /* \"#utility.yul\":7765:7776   */\n      swap1\n      pop\n        /* \"#utility.yul\":7796:7799   */\n      dup2\n        /* \"#utility.yul\":7793:7794   */\n      0x00\n        /* \"#utility.yul\":7786:7800   */\n      mstore\n        /* \"#utility.yul\":7830:7834   */\n      0x20\n        /* \"#utility.yul\":7827:7828   */\n      0x00\n        /* \"#utility.yul\":7817:7835   */\n      keccak256\n        /* \"#utility.yul\":7809:7835   */\n      swap1\n      pop\n        /* \"#utility.yul\":7701:7842   */\n      swap2\n      swap1\n      pop\n      jump\t// out\n        /* \"#utility.yul\":7872:8746   */\n    tag_90:\n        /* \"#utility.yul\":7975:7978   */\n      0x00\n        /* \"#utility.yul\":8012:8017   */\n      dup2\n        /* \"#utility.yul\":8006:8018   */\n      sload\n        /* \"#utility.yul\":8041:8077   */\n      tag_164\n        /* \"#utility.yul\":8067:8076   */\n      dup2\n        /* \"#utility.yul\":8041:8077   */\n      tag_31\n      jump\t// in\n    tag_164:\n        /* \"#utility.yul\":8093:8182   */\n      tag_165\n        /* \"#utility.yul\":8175:8181   */\n      dup2\n        /* \"#utility.yul\":8170:8173   */\n      dup7\n        /* \"#utility.yul\":8093:8182   */\n      tag_88\n      jump\t// in\n    tag_165:\n        /* \"#utility.yul\":8086:8182   */\n      swap5\n      pop\n        /* \"#utility.yul\":8213:8214   */\n      0x01\n        /* \"#utility.yul\":8202:8211   */\n      dup3\n        /* \"#utility.yul\":8198:8215   */\n      and\n        /* \"#utility.yul\":8229:8230   */\n      0x00\n        /* \"#utility.yul\":8224:8390   */\n      dup2\n      eq\n      tag_167\n      jumpi\n        /* \"#utility.yul\":8404:8405   */\n      0x01\n        /* \"#utility.yul\":8399:8740   */\n      dup2\n      eq\n      tag_168\n      jumpi\n        /* \"#utility.yul\":8191:8740   */\n      jump(tag_166)\n        /* \"#utility.yul\":8224:8390   */\n    tag_167:\n        /* \"#utility.yul\":8308:8312   */\n      0xff\n        /* \"#utility.yul\":8304:8313   */\n      not\n        /* \"#utility.yul\":8293:8302   */\n      dup4\n        /* \"#utility.yul\":8289:8314   */\n      and\n        /* \"#utility.yul\":8284:8287   */\n      dup7\n        /* \"#utility.yul\":8277:8315   */\n      mstore\n        /* \"#utility.yul\":8370:8376   */\n      dup2\n        /* \"#utility.yul\":8363:8377   */\n      iszero\n        /* \"#utility.yul\":8356:8378   */\n      iszero\n        /* \"#utility.yul\":8348:8354   */\n      dup3\n        /* \"#utility.yul\":8344:8379   */\n      mul\n        /* \"#utility.yul\":8339:8342   */\n      dup7\n        /* \"#utility.yul\":8335:8380   */\n      add\n        /* \"#utility.yul\":8328:8380   */\n      swap4\n      pop\n        /* \"#utility.yul\":8224:8390   */\n      jump(tag_166)\n        /* \"#utility.yul\":8399:8740   */\n    tag_168:\n        /* \"#utility.yul\":8466:8504   */\n      tag_169\n        /* \"#utility.yul\":8498:8503   */\n      dup6\n        /* \"#utility.yul\":8466:8504   */\n      tag_89\n      jump\t// in\n    tag_169:\n        /* \"#utility.yul\":8526:8527   */\n      0x00\n        /* \"#utility.yul\":8540:8694   */\n    tag_170:\n        /* \"#utility.yul\":8554:8560   */\n      dup4\n        /* \"#utility.yul\":8551:8552   */\n      dup2\n        /* \"#utility.yul\":8548:8561   */\n      lt\n        /* \"#utility.yul\":8540:8694   */\n      iszero\n      tag_172\n      jumpi\n        /* \"#utility.yul\":8628:8635   */\n      dup2\n        /* \"#utility.yul\":8622:8636   */\n      sload\n        /* \"#utility.yul\":8618:8619   */\n      dup2\n        /* \"#utility.yul\":8613:8616   */\n      dup10\n        /* \"#utility.yul\":8609:8620   */\n      add\n        /* \"#utility.yul\":8602:8637   */\n      mstore\n        /* \"#utility.yul\":8678:8679   */\n      0x01\n        /* \"#utility.yul\":8669:8676   */\n      dup3\n        /* \"#utility.yul\":8665:8680   */\n      add\n        /* \"#utility.yul\":8654:8680   */\n      swap2\n      pop\n        /* \"#utility.yul\":8576:8580   */\n      0x20\n        /* \"#utility.yul\":8573:8574   */\n      dup2\n        /* \"#utility.yul\":8569:8581   */\n      add\n        /* \"#utility.yul\":8564:8581   */\n      swap1\n      pop\n        /* \"#utility.yul\":8540:8694   */\n      jump(tag_170)\n    tag_172:\n        /* \"#utility.yul\":8723:8729   */\n      dup4\n        /* \"#utility.yul\":8718:8721   */\n      dup9\n        /* \"#utility.yul\":8714:8730   */\n      add\n        /* \"#utility.yul\":8707:8730   */\n      swap6\n      pop\n        /* \"#utility.yul\":8406:8740   */\n      pop\n      pop\n        /* \"#utility.yul\":8191:8740   */\n    tag_166:\n      pop\n        /* \"#utility.yul\":7979:8746   */\n      pop\n      pop\n        /* \"#utility.yul\":7872:8746   */\n      swap3\n      swap2\n      pop\n      pop\n      jump\t// out\n        /* \"#utility.yul\":8752:9021   */\n    tag_52:\n        /* \"#utility.yul\":8881:8884   */\n      0x00\n        /* \"#utility.yul\":8903:8995   */\n      tag_174\n        /* \"#utility.yul\":8991:8994   */\n      dup3\n        /* \"#utility.yul\":8982:8988   */\n      dup5\n        /* \"#utility.yul\":8903:8995   */\n      tag_90\n      jump\t// in\n    tag_174:\n        /* \"#utility.yul\":8896:8995   */\n      swap2\n      pop\n        /* \"#utility.yul\":9012:9015   */\n      dup2\n        /* \"#utility.yul\":9005:9015   */\n      swap1\n      pop\n        /* \"#utility.yul\":8752:9021   */\n      swap3\n      swap2\n      pop\n      pop\n      jump\t// out\n\n    auxdata: 0xa26469706673582212205558c09cfc8bf0c5e1b75f3813d44e0a8a198caf9261d431a1683258f0aecde564736f6c63430008160033\n}\n",
				"bytecode": {
					"linkReferences": {},
					"object": "608060405234801562000010575f80fd5b5060405162001173380380620011738339818101604052810190620000369190620004db565b815f806101000a81548173ffffffffffffffffffffffffffffffffffffffff021916908373ffffffffffffffffffffffffffffffffffffffff1602179055504260018190555080600290805190602001906200009492919062000118565b505f60065f6101000a81548160ff0219169083151502179055505f5b6002805490508110156200010f575f600460028381548110620000d857620000d76200053f565b5b905f5260205f2001604051620000ef919062000675565b9081526020016040518091039020819055508080600101915050620000b0565b50505062000935565b828054828255905f5260205f2090810192821562000163579160200282015b828111156200016257825182908162000151919062000851565b509160200191906001019062000137565b5b50905062000172919062000176565b5090565b5b8082111562000199575f81816200018f91906200019d565b5060010162000177565b5090565b508054620001ab9062000599565b5f825580601f10620001be5750620001dd565b601f0160209004905f5260205f2090810190620001dc9190620001e0565b5b50565b5b80821115620001f9575f815f905550600101620001e1565b5090565b5f604051905090565b5f80fd5b5f80fd5b5f73ffffffffffffffffffffffffffffffffffffffff82169050919050565b5f62000239826200020e565b9050919050565b6200024b816200022d565b811462000256575f80fd5b50565b5f81519050620002698162000240565b92915050565b5f80fd5b5f601f19601f8301169050919050565b7f4e487b71000000000000000000000000000000000000000000000000000000005f52604160045260245ffd5b620002bb8262000273565b810181811067ffffffffffffffff82111715620002dd57620002dc62000283565b5b80604052505050565b5f620002f1620001fd565b9050620002ff8282620002b0565b919050565b5f67ffffffffffffffff82111562000321576200032062000283565b5b602082029050602081019050919050565b5f80fd5b5f80fd5b5f67ffffffffffffffff82111562000357576200035662000283565b5b620003628262000273565b9050602081019050919050565b5f5b838110156200038e57808201518184015260208101905062000371565b5f8484015250505050565b5f620003af620003a9846200033a565b620002e6565b905082815260208101848484011115620003ce57620003cd62000336565b5b620003db8482856200036f565b509392505050565b5f82601f830112620003fa57620003f96200026f565b5b81516200040c84826020860162000399565b91505092915050565b5f6200042b620004258462000304565b620002e6565b9050808382526020820190506020840283018581111562000451576200045062000332565b5b835b818110156200049f57805167ffffffffffffffff8111156200047a57620004796200026f565b5b808601620004898982620003e3565b8552602085019450505060208101905062000453565b5050509392505050565b5f82601f830112620004c057620004bf6200026f565b5b8151620004d284826020860162000415565b91505092915050565b5f8060408385031215620004f457620004f362000206565b5b5f620005038582860162000259565b925050602083015167ffffffffffffffff8111156200052757620005266200020a565b5b6200053585828601620004a9565b9150509250929050565b7f4e487b71000000000000000000000000000000000000000000000000000000005f52603260045260245ffd5b7f4e487b71000000000000000000000000000000000000000000000000000000005f52602260045260245ffd5b5f6002820490506001821680620005b157607f821691505b602082108103620005c757620005c66200056c565b5b50919050565b5f81905092915050565b5f819050815f5260205f209050919050565b5f8154620005f78162000599565b620006038186620005cd565b9450600182165f811462000620576001811462000636576200066c565b60ff19831686528115158202860193506200066c565b6200064185620005d7565b5f5b83811015620006645781548189015260018201915060208101905062000643565b838801955050505b50505092915050565b5f620006828284620005e9565b915081905092915050565b5f81519050919050565b5f6020601f8301049050919050565b5f82821b905092915050565b5f60088302620006e37fffffffffffffffffffffffffffffffffffffffffffffffffffffffffffffffff82620006a6565b620006ef8683620006a6565b95508019841693508086168417925050509392505050565b5f819050919050565b5f819050919050565b5f62000739620007336200072d8462000707565b62000710565b62000707565b9050919050565b5f819050919050565b620007548362000719565b6200076c620007638262000740565b848454620006b2565b825550505050565b5f90565b6200078262000774565b6200078f81848462000749565b505050565b5b81811015620007b657620007aa5f8262000778565b60018101905062000795565b5050565b601f8211156200080557620007cf81620005d7565b620007da8462000697565b81016020851015620007ea578190505b62000802620007f98562000697565b83018262000794565b50505b505050565b5f82821c905092915050565b5f620008275f19846008026200080a565b1980831691505092915050565b5f62000841838362000816565b9150826002028217905092915050565b6200085c826200068d565b67ffffffffffffffff81111562000878576200087762000283565b5b62000884825462000599565b62000891828285620007ba565b5f60209050601f831160018114620008c7575f8415620008b2578287015190505b620008be858262000834565b8655506200092d565b601f198416620008d786620005d7565b5f5b828110156200090057848901518255600182019150602085019450602081019050620008d9565b868310156200092057848901516200091c601f89168262000816565b8355505b6001600288020188555050505b505050505050565b61083080620009435f395ff3fe608060405234801561000f575f80fd5b5060043610610055575f3560e01c806306a49fce14610059578063122902a61461007757806359f7846814610095578063893d20e81461009f578063e7b3387c146100bd575b5f80fd5b6100616100dc565b60405161006e91906104f1565b60405180910390f35b61007f6101b0565b60405161008c919061052b565b60405180910390f35b61009d6101c5565b005b6100a76101e1565b6040516100b49190610583565b60405180910390f35b6100c5610208565b6040516100d392919061065c565b60405180910390f35b60606002805480602002602001604051908101604052809291908181526020015f905b828210156101a7578382905f5260205f2001805461011c906106be565b80601f0160208091040260200160405190810160405280929190818152602001828054610148906106be565b80156101935780601f1061016a57610100808354040283529160200191610193565b820191905f5260205f20905b81548152906001019060200180831161017657829003601f168201915b5050505050815260200190600101906100ff565b50505050905090565b5f60065f9054906101000a900460ff16905090565b600160065f6101000a81548160ff021916908315150217905550565b5f805f9054906101000a900473ffffffffffffffffffffffffffffffffffffffff16905090565b6060805f60028054905067ffffffffffffffff81111561022b5761022a6106ee565b5b6040519080825280602002602001820160405280156102595781602001602082028036833780820191505090505b5090505f5b6002805490508110156102d1576004600282815481106102815761028061071b565b5b905f5260205f200160405161029691906107e4565b9081526020016040518091039020548282815181106102b8576102b761071b565b5b602002602001018181525050808060010191505061025e565b5060028181805480602002602001604051908101604052809291908181526020015f905b8282101561039d578382905f5260205f20018054610312906106be565b80601f016020809104026020016040519081016040528092919081815260200182805461033e906106be565b80156103895780601f1061036057610100808354040283529160200191610389565b820191905f5260205f20905b81548152906001019060200180831161036c57829003601f168201915b5050505050815260200190600101906102f5565b50505050915092509250509091565b5f81519050919050565b5f82825260208201905092915050565b5f819050602082019050919050565b5f81519050919050565b5f82825260208201905092915050565b5f5b8381101561040c5780820151818401526020810190506103f1565b5f8484015250505050565b5f601f19601f8301169050919050565b5f610431826103d5565b61043b81856103df565b935061044b8185602086016103ef565b61045481610417565b840191505092915050565b5f61046a8383610427565b905092915050565b5f602082019050919050565b5f610488826103ac565b61049281856103b6565b9350836020820285016104a4856103c6565b805f5b858110156104df57848403895281516104c0858261045f565b94506104cb83610472565b925060208a019950506001810190506104a7565b50829750879550505050505092915050565b5f6020820190508181035f830152610509818461047e565b905092915050565b5f8115159050919050565b61052581610511565b82525050565b5f60208201905061053e5f83018461051c565b92915050565b5f73ffffffffffffffffffffffffffffffffffffffff82169050919050565b5f61056d82610544565b9050919050565b61057d81610563565b82525050565b5f6020820190506105965f830184610574565b92915050565b5f81519050919050565b5f82825260208201905092915050565b5f819050602082019050919050565b5f819050919050565b6105d7816105c5565b82525050565b5f6105e883836105ce565b60208301905092915050565b5f602082019050919050565b5f61060a8261059c565b61061481856105a6565b935061061f836105b6565b805f5b8381101561064f57815161063688826105dd565b9750610641836105f4565b925050600181019050610622565b5085935050505092915050565b5f6040820190508181035f830152610674818561047e565b905081810360208301526106888184610600565b90509392505050565b7f4e487b71000000000000000000000000000000000000000000000000000000005f52602260045260245ffd5b5f60028204905060018216806106d557607f821691505b6020821081036106e8576106e7610691565b5b50919050565b7f4e487b71000000000000000000000000000000000000000000000000000000005f52604160045260245ffd5b7f4e487b71000000000000000000000000000000000000000000000000000000005f52603260045260245ffd5b5f81905092915050565b5f819050815f5260205f209050919050565b5f8154610770816106be565b61077a8186610748565b9450600182165f811461079457600181146107a9576107db565b60ff19831686528115158202860193506107db565b6107b285610752565b5f5b838110156107d3578154818901526001820191506020810190506107b4565b838801955050505b50505092915050565b5f6107ef8284610764565b91508190509291505056fea26469706673582212205558c09cfc8bf0c5e1b75f3813d44e0a8a198caf9261d431a1683258f0aecde564736f6c63430008160033",
					"opcodes": "PUSH1 0x80 PUSH1 0x40 MSTORE CALLVALUE DUP1 ISZERO PUSH3 0x10 JUMPI PUSH0 DUP1 REVERT JUMPDEST POP PUSH1 0x40 MLOAD PUSH3 0x1173 CODESIZE SUB DUP1 PUSH3 0x1173 DUP4 CODECOPY DUP2 DUP2 ADD PUSH1 0x40 MSTORE DUP2 ADD SWAP1 PUSH3 0x36 SWAP2 SWAP1 PUSH3 0x4DB JUMP JUMPDEST DUP2 PUSH0 DUP1 PUSH2 0x100 EXP DUP2 SLOAD DUP2 PUSH20 0xFFFFFFFFFFFFFFFFFFFFFFFFFFFFFFFFFFFFFFFF MUL NOT AND SWAP1 DUP4 PUSH20 0xFFFFFFFFFFFFFFFFFFFFFFFFFFFFFFFFFFFFFFFF AND MUL OR SWAP1 SSTORE POP TIMESTAMP PUSH1 0x1 DUP2 SWAP1 SSTORE POP DUP1 PUSH1 0x2 SWAP1 DUP1 MLOAD SWAP1 PUSH1 0x20 ADD SWAP1 PUSH3 0x94 SWAP3 SWAP2 SWAP1 PUSH3 0x118 JUMP JUMPDEST POP PUSH0 PUSH1 0x6 PUSH0 PUSH2 0x100 EXP DUP2 SLOAD DUP2 PUSH1 0xFF MUL NOT AND SWAP1 DUP4 ISZERO ISZERO MUL OR SWAP1 SSTORE POP PUSH0 JUMPDEST PUSH1 0x2 DUP1 SLOAD SWAP1 POP DUP2 LT ISZERO PUSH3 0x10F JUMPI PUSH0 PUSH1 0x4 PUSH1 0x2 DUP4 DUP2 SLOAD DUP2 LT PUSH3 0xD8 JUMPI PUSH3 0xD7 PUSH3 0x53F JUMP JUMPDEST JUMPDEST SWAP1 PUSH0 MSTORE PUSH1 0x20 PUSH0 KECCAK256 ADD PUSH1 0x40 MLOAD PUSH3 0xEF SWAP2 SWAP1 PUSH3 0x675 JUMP JUMPDEST SWAP1 DUP2 MSTORE PUSH1 0x20 ADD PUSH1 0x40 MLOAD DUP1 SWAP2 SUB SWAP1 KECCAK256 DUP2 SWAP1 SSTORE POP DUP1 DUP1 PUSH1 0x1 ADD SWAP2 POP POP PUSH3 0xB0 JUMP JUMPDEST POP POP POP PUSH3 0x935 JUMP JUMPDEST DUP3 DUP1 SLOAD DUP3 DUP3 SSTORE SWAP1 PUSH0 MSTORE PUSH1 0x20 PUSH0 KECCAK256 SWAP1 DUP2 ADD SWAP3 DUP3 ISZERO PUSH3 0x163 JUMPI SWAP2 PUSH1 0x20 MUL DUP3 ADD JUMPDEST DUP3 DUP2 GT ISZERO PUSH3 0x162 JUMPI DUP3 MLOAD DUP3 SWAP1 DUP2 PUSH3 0x151 SWAP2 SWAP1 PUSH3 0x851 JUMP JUMPDEST POP SWAP2 PUSH1 0x20 ADD SWAP2 SWAP1 PUSH1 0x1 ADD SWAP1 PUSH3 0x137 JUMP JUMPDEST JUMPDEST POP SWAP1 POP PUSH3 0x172 SWAP2 SWAP1 PUSH3 0x176 JUMP JUMPDEST POP SWAP1 JUMP JUMPDEST JUMPDEST DUP1 DUP3 GT ISZERO PUSH3 0x199 JUMPI PUSH0 DUP2 DUP2 PUSH3 0x18F SWAP2 SWAP1 PUSH3 0x19D JUMP JUMPDEST POP PUSH1 0x1 ADD PUSH3 0x177 JUMP JUMPDEST POP SWAP1 JUMP JUMPDEST POP DUP1 SLOAD PUSH3 0x1AB SWAP1 PUSH3 0x599 JUMP JUMPDEST PUSH0 DUP3 SSTORE DUP1 PUSH1 0x1F LT PUSH3 0x1BE JUMPI POP PUSH3 0x1DD JUMP JUMPDEST PUSH1 0x1F ADD PUSH1 0x20 SWAP1 DIV SWAP1 PUSH0 MSTORE PUSH1 0x20 PUSH0 KECCAK256 SWAP1 DUP2 ADD SWAP1 PUSH3 0x1DC SWAP2 SWAP1 PUSH3 0x1E0 JUMP JUMPDEST JUMPDEST POP JUMP JUMPDEST JUMPDEST DUP1 DUP3 GT ISZERO PUSH3 0x1F9 JUMPI PUSH0 DUP2 PUSH0 SWAP1 SSTORE POP PUSH1 0x1 ADD PUSH3 0x1E1 JUMP JUMPDEST POP SWAP1 JUMP JUMPDEST PUSH0 PUSH1 0x40 MLOAD SWAP1 POP SWAP1 JUMP JUMPDEST PUSH0 DUP1 REVERT JUMPDEST PUSH0 DUP1 REVERT JUMPDEST PUSH0 PUSH20 0xFFFFFFFFFFFFFFFFFFFFFFFFFFFFFFFFFFFFFFFF DUP3 AND SWAP1 POP SWAP2 SWAP1 POP JUMP JUMPDEST PUSH0 PUSH3 0x239 DUP3 PUSH3 0x20E JUMP JUMPDEST SWAP1 POP SWAP2 SWAP1 POP JUMP JUMPDEST PUSH3 0x24B DUP2 PUSH3 0x22D JUMP JUMPDEST DUP2 EQ PUSH3 0x256 JUMPI PUSH0 DUP1 REVERT JUMPDEST POP JUMP JUMPDEST PUSH0 DUP2 MLOAD SWAP1 POP PUSH3 0x269 DUP2 PUSH3 0x240 JUMP JUMPDEST SWAP3 SWAP2 POP POP JUMP JUMPDEST PUSH0 DUP1 REVERT JUMPDEST PUSH0 PUSH1 0x1F NOT PUSH1 0x1F DUP4 ADD AND SWAP1 POP SWAP2 SWAP1 POP JUMP JUMPDEST PUSH32 0x4E487B7100000000000000000000000000000000000000000000000000000000 PUSH0 MSTORE PUSH1 0x41 PUSH1 0x4 MSTORE PUSH1 0x24 PUSH0 REVERT JUMPDEST PUSH3 0x2BB DUP3 PUSH3 0x273 JUMP JUMPDEST DUP2 ADD DUP2 DUP2 LT PUSH8 0xFFFFFFFFFFFFFFFF DUP3 GT OR ISZERO PUSH3 0x2DD JUMPI PUSH3 0x2DC PUSH3 0x283 JUMP JUMPDEST JUMPDEST DUP1 PUSH1 0x40 MSTORE POP POP POP JUMP JUMPDEST PUSH0 PUSH3 0x2F1 PUSH3 0x1FD JUMP JUMPDEST SWAP1 POP PUSH3 0x2FF DUP3 DUP3 PUSH3 0x2B0 JUMP JUMPDEST SWAP2 SWAP1 POP JUMP JUMPDEST PUSH0 PUSH8 0xFFFFFFFFFFFFFFFF DUP3 GT ISZERO PUSH3 0x321 JUMPI PUSH3 0x320 PUSH3 0x283 JUMP JUMPDEST JUMPDEST PUSH1 0x20 DUP3 MUL SWAP1 POP PUSH1 0x20 DUP2 ADD SWAP1 POP SWAP2 SWAP1 POP JUMP JUMPDEST PUSH0 DUP1 REVERT JUMPDEST PUSH0 DUP1 REVERT JUMPDEST PUSH0 PUSH8 0xFFFFFFFFFFFFFFFF DUP3 GT ISZERO PUSH3 0x357 JUMPI PUSH3 0x356 PUSH3 0x283 JUMP JUMPDEST JUMPDEST PUSH3 0x362 DUP3 PUSH3 0x273 JUMP JUMPDEST SWAP1 POP PUSH1 0x20 DUP2 ADD SWAP1 POP SWAP2 SWAP1 POP JUMP JUMPDEST PUSH0 JUMPDEST DUP4 DUP2 LT ISZERO PUSH3 0x38E JUMPI DUP1 DUP3 ADD MLOAD DUP2 DUP5 ADD MSTORE PUSH1 0x20 DUP2 ADD SWAP1 POP PUSH3 0x371 JUMP JUMPDEST PUSH0 DUP5 DUP5 ADD MSTORE POP POP POP POP JUMP JUMPDEST PUSH0 PUSH3 0x3AF PUSH3 0x3A9 DUP5 PUSH3 0x33A JUMP JUMPDEST PUSH3 0x2E6 JUMP JUMPDEST SWAP1 POP DUP3 DUP2 MSTORE PUSH1 0x20 DUP2 ADD DUP5 DUP5 DUP5 ADD GT ISZERO PUSH3 0x3CE JUMPI PUSH3 0x3CD PUSH3 0x336 JUMP JUMPDEST JUMPDEST PUSH3 0x3DB DUP5 DUP3 DUP6 PUSH3 0x36F JUMP JUMPDEST POP SWAP4 SWAP3 POP POP POP JUMP JUMPDEST PUSH0 DUP3 PUSH1 0x1F DUP4 ADD SLT PUSH3 0x3FA JUMPI PUSH3 0x3F9 PUSH3 0x26F JUMP JUMPDEST JUMPDEST DUP2 MLOAD PUSH3 0x40C DUP5 DUP3 PUSH1 0x20 DUP7 ADD PUSH3 0x399 JUMP JUMPDEST SWAP2 POP POP SWAP3 SWAP2 POP POP JUMP JUMPDEST PUSH0 PUSH3 0x42B PUSH3 0x425 DUP5 PUSH3 0x304 JUMP JUMPDEST PUSH3 0x2E6 JUMP JUMPDEST SWAP1 POP DUP1 DUP4 DUP3 MSTORE PUSH1 0x20 DUP3 ADD SWAP1 POP PUSH1 0x20 DUP5 MUL DUP4 ADD DUP6 DUP2 GT ISZERO PUSH3 0x451 JUMPI PUSH3 0x450 PUSH3 0x332 JUMP JUMPDEST JUMPDEST DUP4 JUMPDEST DUP2 DUP2 LT ISZERO PUSH3 0x49F JUMPI DUP1 MLOAD PUSH8 0xFFFFFFFFFFFFFFFF DUP2 GT ISZERO PUSH3 0x47A JUMPI PUSH3 0x479 PUSH3 0x26F JUMP JUMPDEST JUMPDEST DUP1 DUP7 ADD PUSH3 0x489 DUP10 DUP3 PUSH3 0x3E3 JUMP JUMPDEST DUP6 MSTORE PUSH1 0x20 DUP6 ADD SWAP5 POP POP POP PUSH1 0x20 DUP2 ADD SWAP1 POP PUSH3 0x453 JUMP JUMPDEST POP POP POP SWAP4 SWAP3 POP POP POP JUMP JUMPDEST PUSH0 DUP3 PUSH1 0x1F DUP4 ADD SLT PUSH3 0x4C0 JUMPI PUSH3 0x4BF PUSH3 0x26F JUMP JUMPDEST JUMPDEST DUP2 MLOAD PUSH3 0x4D2 DUP5 DUP3 PUSH1 0x20 DUP7 ADD PUSH3 0x415 JUMP JUMPDEST SWAP2 POP POP SWAP3 SWAP2 POP POP JUMP JUMPDEST PUSH0 DUP1 PUSH1 0x40 DUP4 DUP6 SUB SLT ISZERO PUSH3 0x4F4 JUMPI PUSH3 0x4F3 PUSH3 0x206 JUMP JUMPDEST JUMPDEST PUSH0 PUSH3 0x503 DUP6 DUP3 DUP7 ADD PUSH3 0x259 JUMP JUMPDEST SWAP3 POP POP PUSH1 0x20 DUP4 ADD MLOAD PUSH8 0xFFFFFFFFFFFFFFFF DUP2 GT ISZERO PUSH3 0x527 JUMPI PUSH3 0x526 PUSH3 0x20A JUMP JUMPDEST JUMPDEST PUSH3 0x535 DUP6 DUP3 DUP7 ADD PUSH3 0x4A9 JUMP JUMPDEST SWAP2 POP POP SWAP3 POP SWAP3 SWAP1 POP JUMP JUMPDEST PUSH32 0x4E487B7100000000000000000000000000000000000000000000000000000000 PUSH0 MSTORE PUSH1 0x32 PUSH1 0x4 MSTORE PUSH1 0x24 PUSH0 REVERT JUMPDEST PUSH32 0x4E487B7100000000000000000000000000000000000000000000000000000000 PUSH0 MSTORE PUSH1 0x22 PUSH1 0x4 MSTORE PUSH1 0x24 PUSH0 REVERT JUMPDEST PUSH0 PUSH1 0x2 DUP3 DIV SWAP1 POP PUSH1 0x1 DUP3 AND DUP1 PUSH3 0x5B1 JUMPI PUSH1 0x7F DUP3 AND SWAP2 POP JUMPDEST PUSH1 0x20 DUP3 LT DUP2 SUB PUSH3 0x5C7 JUMPI PUSH3 0x5C6 PUSH3 0x56C JUMP JUMPDEST JUMPDEST POP SWAP2 SWAP1 POP JUMP JUMPDEST PUSH0 DUP2 SWAP1 POP SWAP3 SWAP2 POP POP JUMP JUMPDEST PUSH0 DUP2 SWAP1 POP DUP2 PUSH0 MSTORE PUSH1 0x20 PUSH0 KECCAK256 SWAP1 POP SWAP2 SWAP1 POP JUMP JUMPDEST PUSH0 DUP2 SLOAD PUSH3 0x5F7 DUP2 PUSH3 0x599 JUMP JUMPDEST PUSH3 0x603 DUP2 DUP7 PUSH3 0x5CD JUMP JUMPDEST SWAP5 POP PUSH1 0x1 DUP3 AND PUSH0 DUP2 EQ PUSH3 0x620 JUMPI PUSH1 0x1 DUP2 EQ PUSH3 0x636 JUMPI PUSH3 0x66C JUMP JUMPDEST PUSH1 0xFF NOT DUP4 AND DUP7 MSTORE DUP2 ISZERO ISZERO DUP3 MUL DUP7 ADD SWAP4 POP PUSH3 0x66C JUMP JUMPDEST PUSH3 0x641 DUP6 PUSH3 0x5D7 JUMP JUMPDEST PUSH0 JUMPDEST DUP4 DUP2 LT ISZERO PUSH3 0x664 JUMPI DUP2 SLOAD DUP2 DUP10 ADD MSTORE PUSH1 0x1 DUP3 ADD SWAP2 POP PUSH1 0x20 DUP2 ADD SWAP1 POP PUSH3 0x643 JUMP JUMPDEST DUP4 DUP9 ADD SWAP6 POP POP POP JUMPDEST POP POP POP SWAP3 SWAP2 POP POP JUMP JUMPDEST PUSH0 PUSH3 0x682 DUP3 DUP5 PUSH3 0x5E9 JUMP JUMPDEST SWAP2 POP DUP2 SWAP1 POP SWAP3 SWAP2 POP POP JUMP JUMPDEST PUSH0 DUP2 MLOAD SWAP1 POP SWAP2 SWAP1 POP JUMP JUMPDEST PUSH0 PUSH1 0x20 PUSH1 0x1F DUP4 ADD DIV SWAP1 POP SWAP2 SWAP1 POP JUMP JUMPDEST PUSH0 DUP3 DUP3 SHL SWAP1 POP SWAP3 SWAP2 POP POP JUMP JUMPDEST PUSH0 PUSH1 0x8 DUP4 MUL PUSH3 0x6E3 PUSH32 0xFFFFFFFFFFFFFFFFFFFFFFFFFFFFFFFFFFFFFFFFFFFFFFFFFFFFFFFFFFFFFFFF DUP3 PUSH3 0x6A6 JUMP JUMPDEST PUSH3 0x6EF DUP7 DUP4 PUSH3 0x6A6 JUMP JUMPDEST SWAP6 POP DUP1 NOT DUP5 AND SWAP4 POP DUP1 DUP7 AND DUP5 OR SWAP3 POP POP POP SWAP4 SWAP3 POP POP POP JUMP JUMPDEST PUSH0 DUP2 SWAP1 POP SWAP2 SWAP1 POP JUMP JUMPDEST PUSH0 DUP2 SWAP1 POP SWAP2 SWAP1 POP JUMP JUMPDEST PUSH0 PUSH3 0x739 PUSH3 0x733 PUSH3 0x72D DUP5 PUSH3 0x707 JUMP JUMPDEST PUSH3 0x710 JUMP JUMPDEST PUSH3 0x707 JUMP JUMPDEST SWAP1 POP SWAP2 SWAP1 POP JUMP JUMPDEST PUSH0 DUP2 SWAP1 POP SWAP2 SWAP1 POP JUMP JUMPDEST PUSH3 0x754 DUP4 PUSH3 0x719 JUMP JUMPDEST PUSH3 0x76C PUSH3 0x763 DUP3 PUSH3 0x740 JUMP JUMPDEST DUP5 DUP5 SLOAD PUSH3 0x6B2 JUMP JUMPDEST DUP3 SSTORE POP POP POP POP JUMP JUMPDEST PUSH0 SWAP1 JUMP JUMPDEST PUSH3 0x782 PUSH3 0x774 JUMP JUMPDEST PUSH3 0x78F DUP2 DUP5 DUP5 PUSH3 0x749 JUMP JUMPDEST POP POP POP JUMP JUMPDEST JUMPDEST DUP2 DUP2 LT ISZERO PUSH3 0x7B6 JUMPI PUSH3 0x7AA PUSH0 DUP3 PUSH3 0x778 JUMP JUMPDEST PUSH1 0x1 DUP2 ADD SWAP1 POP PUSH3 0x795 JUMP JUMPDEST POP POP JUMP JUMPDEST PUSH1 0x1F DUP3 GT ISZERO PUSH3 0x805 JUMPI PUSH3 0x7CF DUP2 PUSH3 0x5D7 JUMP JUMPDEST PUSH3 0x7DA DUP5 PUSH3 0x697 JUMP JUMPDEST DUP2 ADD PUSH1 0x20 DUP6 LT ISZERO PUSH3 0x7EA JUMPI DUP2 SWAP1 POP JUMPDEST PUSH3 0x802 PUSH3 0x7F9 DUP6 PUSH3 0x697 JUMP JUMPDEST DUP4 ADD DUP3 PUSH3 0x794 JUMP JUMPDEST POP POP JUMPDEST POP POP POP JUMP JUMPDEST PUSH0 DUP3 DUP3 SHR SWAP1 POP SWAP3 SWAP2 POP POP JUMP JUMPDEST PUSH0 PUSH3 0x827 PUSH0 NOT DUP5 PUSH1 0x8 MUL PUSH3 0x80A JUMP JUMPDEST NOT DUP1 DUP4 AND SWAP2 POP POP SWAP3 SWAP2 POP POP JUMP JUMPDEST PUSH0 PUSH3 0x841 DUP4 DUP4 PUSH3 0x816 JUMP JUMPDEST SWAP2 POP DUP3 PUSH1 0x2 MUL DUP3 OR SWAP1 POP SWAP3 SWAP2 POP POP JUMP JUMPDEST PUSH3 0x85C DUP3 PUSH3 0x68D JUMP JUMPDEST PUSH8 0xFFFFFFFFFFFFFFFF DUP2 GT ISZERO PUSH3 0x878 JUMPI PUSH3 0x877 PUSH3 0x283 JUMP JUMPDEST JUMPDEST PUSH3 0x884 DUP3 SLOAD PUSH3 0x599 JUMP JUMPDEST PUSH3 0x891 DUP3 DUP3 DUP6 PUSH3 0x7BA JUMP JUMPDEST PUSH0 PUSH1 0x20 SWAP1 POP PUSH1 0x1F DUP4 GT PUSH1 0x1 DUP2 EQ PUSH3 0x8C7 JUMPI PUSH0 DUP5 ISZERO PUSH3 0x8B2 JUMPI DUP3 DUP8 ADD MLOAD SWAP1 POP JUMPDEST PUSH3 0x8BE DUP6 DUP3 PUSH3 0x834 JUMP JUMPDEST DUP7 SSTORE POP PUSH3 0x92D JUMP JUMPDEST PUSH1 0x1F NOT DUP5 AND PUSH3 0x8D7 DUP7 PUSH3 0x5D7 JUMP JUMPDEST PUSH0 JUMPDEST DUP3 DUP2 LT ISZERO PUSH3 0x900 JUMPI DUP5 DUP10 ADD MLOAD DUP3 SSTORE PUSH1 0x1 DUP3 ADD SWAP2 POP PUSH1 0x20 DUP6 ADD SWAP5 POP PUSH1 0x20 DUP2 ADD SWAP1 POP PUSH3 0x8D9 JUMP JUMPDEST DUP7 DUP4 LT ISZERO PUSH3 0x920 JUMPI DUP5 DUP10 ADD MLOAD PUSH3 0x91C PUSH1 0x1F DUP10 AND DUP3 PUSH3 0x816 JUMP JUMPDEST DUP4 SSTORE POP JUMPDEST PUSH1 0x1 PUSH1 0x2 DUP9 MUL ADD DUP9 SSTORE POP POP POP JUMPDEST POP POP POP POP POP POP JUMP JUMPDEST PUSH2 0x830 DUP1 PUSH3 0x943 PUSH0 CODECOPY PUSH0 RETURN INVALID PUSH1 0x80 PUSH1 0x40 MSTORE CALLVALUE DUP1 ISZERO PUSH2 0xF JUMPI PUSH0 DUP1 REVERT JUMPDEST POP PUSH1 0x4 CALLDATASIZE LT PUSH2 0x55 JUMPI PUSH0 CALLDATALOAD PUSH1 0xE0 SHR DUP1 PUSH4 0x6A49FCE EQ PUSH2 0x59 JUMPI DUP1 PUSH4 0x122902A6 EQ PUSH2 0x77 JUMPI DUP1 PUSH4 0x59F78468 EQ PUSH2 0x95 JUMPI DUP1 PUSH4 0x893D20E8 EQ PUSH2 0x9F JUMPI DUP1 PUSH4 0xE7B3387C EQ PUSH2 0xBD JUMPI JUMPDEST PUSH0 DUP1 REVERT JUMPDEST PUSH2 0x61 PUSH2 0xDC JUMP JUMPDEST PUSH1 0x40 MLOAD PUSH2 0x6E SWAP2 SWAP1 PUSH2 0x4F1 JUMP JUMPDEST PUSH1 0x40 MLOAD DUP1 SWAP2 SUB SWAP1 RETURN JUMPDEST PUSH2 0x7F PUSH2 0x1B0 JUMP JUMPDEST PUSH1 0x40 MLOAD PUSH2 0x8C SWAP2 SWAP1 PUSH2 0x52B JUMP JUMPDEST PUSH1 0x40 MLOAD DUP1 SWAP2 SUB SWAP1 RETURN JUMPDEST PUSH2 0x9D PUSH2 0x1C5 JUMP JUMPDEST STOP JUMPDEST PUSH2 0xA7 PUSH2 0x1E1 JUMP JUMPDEST PUSH1 0x40 MLOAD PUSH2 0xB4 SWAP2 SWAP1 PUSH2 0x583 JUMP JUMPDEST PUSH1 0x40 MLOAD DUP1 SWAP2 SUB SWAP1 RETURN JUMPDEST PUSH2 0xC5 PUSH2 0x208 JUMP JUMPDEST PUSH1 0x40 MLOAD PUSH2 0xD3 SWAP3 SWAP2 SWAP1 PUSH2 0x65C JUMP JUMPDEST PUSH1 0x40 MLOAD DUP1 SWAP2 SUB SWAP1 RETURN JUMPDEST PUSH1 0x60 PUSH1 0x2 DUP1 SLOAD DUP1 PUSH1 0x20 MUL PUSH1 0x20 ADD PUSH1 0x40 MLOAD SWAP1 DUP2 ADD PUSH1 0x40 MSTORE DUP1 SWAP3 SWAP2 SWAP1 DUP2 DUP2 MSTORE PUSH1 0x20 ADD PUSH0 SWAP1 JUMPDEST DUP3 DUP3 LT ISZERO PUSH2 0x1A7 JUMPI DUP4 DUP3 SWAP1 PUSH0 MSTORE PUSH1 0x20 PUSH0 KECCAK256 ADD DUP1 SLOAD PUSH2 0x11C SWAP1 PUSH2 0x6BE JUMP JUMPDEST DUP1 PUSH1 0x1F ADD PUSH1 0x20 DUP1 SWAP2 DIV MUL PUSH1 0x20 ADD PUSH1 0x40 MLOAD SWAP1 DUP2 ADD PUSH1 0x40 MSTORE DUP1 SWAP3 SWAP2 SWAP1 DUP2 DUP2 MSTORE PUSH1 0x20 ADD DUP3 DUP1 SLOAD PUSH2 0x148 SWAP1 PUSH2 0x6BE JUMP JUMPDEST DUP1 ISZERO PUSH2 0x193 JUMPI DUP1 PUSH1 0x1F LT PUSH2 0x16A JUMPI PUSH2 0x100 DUP1 DUP4 SLOAD DIV MUL DUP4 MSTORE SWAP2 PUSH1 0x20 ADD SWAP2 PUSH2 0x193 JUMP JUMPDEST DUP3 ADD SWAP2 SWAP1 PUSH0 MSTORE PUSH1 0x20 PUSH0 KECCAK256 SWAP1 JUMPDEST DUP2 SLOAD DUP2 MSTORE SWAP1 PUSH1 0x1 ADD SWAP1 PUSH1 0x20 ADD DUP1 DUP4 GT PUSH2 0x176 JUMPI DUP3 SWAP1 SUB PUSH1 0x1F AND DUP3 ADD SWAP2 JUMPDEST POP POP POP POP POP DUP2 MSTORE PUSH1 0x20 ADD SWAP1 PUSH1 0x1 ADD SWAP1 PUSH2 0xFF JUMP JUMPDEST POP POP POP POP SWAP1 POP SWAP1 JUMP JUMPDEST PUSH0 PUSH1 0x6 PUSH0 SWAP1 SLOAD SWAP1 PUSH2 0x100 EXP SWAP1 DIV PUSH1 0xFF AND SWAP1 POP SWAP1 JUMP JUMPDEST PUSH1 0x1 PUSH1 0x6 PUSH0 PUSH2 0x100 EXP DUP2 SLOAD DUP2 PUSH1 0xFF MUL NOT AND SWAP1 DUP4 ISZERO ISZERO MUL OR SWAP1 SSTORE POP JUMP JUMPDEST PUSH0 DUP1 PUSH0 SWAP1 SLOAD SWAP1 PUSH2 0x100 EXP SWAP1 DIV PUSH20 0xFFFFFFFFFFFFFFFFFFFFFFFFFFFFFFFFFFFFFFFF AND SWAP1 POP SWAP1 JUMP JUMPDEST PUSH1 0x60 DUP1 PUSH0 PUSH1 0x2 DUP1 SLOAD SWAP1 POP PUSH8 0xFFFFFFFFFFFFFFFF DUP2 GT ISZERO PUSH2 0x22B JUMPI PUSH2 0x22A PUSH2 0x6EE JUMP JUMPDEST JUMPDEST PUSH1 0x40 MLOAD SWAP1 DUP1 DUP3 MSTORE DUP1 PUSH1 0x20 MUL PUSH1 0x20 ADD DUP3 ADD PUSH1 0x40 MSTORE DUP1 ISZERO PUSH2 0x259 JUMPI DUP2 PUSH1 0x20 ADD PUSH1 0x20 DUP3 MUL DUP1 CALLDATASIZE DUP4 CALLDATACOPY DUP1 DUP3 ADD SWAP2 POP POP SWAP1 POP JUMPDEST POP SWAP1 POP PUSH0 JUMPDEST PUSH1 0x2 DUP1 SLOAD SWAP1 POP DUP2 LT ISZERO PUSH2 0x2D1 JUMPI PUSH1 0x4 PUSH1 0x2 DUP3 DUP2 SLOAD DUP2 LT PUSH2 0x281 JUMPI PUSH2 0x280 PUSH2 0x71B JUMP JUMPDEST JUMPDEST SWAP1 PUSH0 MSTORE PUSH1 0x20 PUSH0 KECCAK256 ADD PUSH1 0x40 MLOAD PUSH2 0x296 SWAP2 SWAP1 PUSH2 0x7E4 JUMP JUMPDEST SWAP1 DUP2 MSTORE PUSH1 0x20 ADD PUSH1 0x40 MLOAD DUP1 SWAP2 SUB SWAP1 KECCAK256 SLOAD DUP3 DUP3 DUP2 MLOAD DUP2 LT PUSH2 0x2B8 JUMPI PUSH2 0x2B7 PUSH2 0x71B JUMP JUMPDEST JUMPDEST PUSH1 0x20 MUL PUSH1 0x20 ADD ADD DUP2 DUP2 MSTORE POP POP DUP1 DUP1 PUSH1 0x1 ADD SWAP2 POP POP PUSH2 0x25E JUMP JUMPDEST POP PUSH1 0x2 DUP2 DUP2 DUP1 SLOAD DUP1 PUSH1 0x20 MUL PUSH1 0x20 ADD PUSH1 0x40 MLOAD SWAP1 DUP2 ADD PUSH1 0x40 MSTORE DUP1 SWAP3 SWAP2 SWAP1 DUP2 DUP2 MSTORE PUSH1 0x20 ADD PUSH0 SWAP1 JUMPDEST DUP3 DUP3 LT ISZERO PUSH2 0x39D JUMPI DUP4 DUP3 SWAP1 PUSH0 MSTORE PUSH1 0x20 PUSH0 KECCAK256 ADD DUP1 SLOAD PUSH2 0x312 SWAP1 PUSH2 0x6BE JUMP JUMPDEST DUP1 PUSH1 0x1F ADD PUSH1 0x20 DUP1 SWAP2 DIV MUL PUSH1 0x20 ADD PUSH1 0x40 MLOAD SWAP1 DUP2 ADD PUSH1 0x40 MSTORE DUP1 SWAP3 SWAP2 SWAP1 DUP2 DUP2 MSTORE PUSH1 0x20 ADD DUP3 DUP1 SLOAD PUSH2 0x33E SWAP1 PUSH2 0x6BE JUMP JUMPDEST DUP1 ISZERO PUSH2 0x389 JUMPI DUP1 PUSH1 0x1F LT PUSH2 0x360 JUMPI PUSH2 0x100 DUP1 DUP4 SLOAD DIV MUL DUP4 MSTORE SWAP2 PUSH1 0x20 ADD SWAP2 PUSH2 0x389 JUMP JUMPDEST DUP3 ADD SWAP2 SWAP1 PUSH0 MSTORE PUSH1 0x20 PUSH0 KECCAK256 SWAP1 JUMPDEST DUP2 SLOAD DUP2 MSTORE SWAP1 PUSH1 0x1 ADD SWAP1 PUSH1 0x20 ADD DUP1 DUP4 GT PUSH2 0x36C JUMPI DUP3 SWAP1 SUB PUSH1 0x1F AND DUP3 ADD SWAP2 JUMPDEST POP POP POP POP POP DUP2 MSTORE PUSH1 0x20 ADD SWAP1 PUSH1 0x1 ADD SWAP1 PUSH2 0x2F5 JUMP JUMPDEST POP POP POP POP SWAP2 POP SWAP3 POP SWAP3 POP POP SWAP1 SWAP2 JUMP JUMPDEST PUSH0 DUP2 MLOAD SWAP1 POP SWAP2 SWAP1 POP JUMP JUMPDEST PUSH0 DUP3 DUP3 MSTORE PUSH1 0x20 DUP3 ADD SWAP1 POP SWAP3 SWAP2 POP POP JUMP JUMPDEST PUSH0 DUP2 SWAP1 POP PUSH1 0x20 DUP3 ADD SWAP1 POP SWAP2 SWAP1 POP JUMP JUMPDEST PUSH0 DUP2 MLOAD SWAP1 POP SWAP2 SWAP1 POP JUMP JUMPDEST PUSH0 DUP3 DUP3 MSTORE PUSH1 0x20 DUP3 ADD SWAP1 POP SWAP3 SWAP2 POP POP JUMP JUMPDEST PUSH0 JUMPDEST DUP4 DUP2 LT ISZERO PUSH2 0x40C JUMPI DUP1 DUP3 ADD MLOAD DUP2 DUP5 ADD MSTORE PUSH1 0x20 DUP2 ADD SWAP1 POP PUSH2 0x3F1 JUMP JUMPDEST PUSH0 DUP5 DUP5 ADD MSTORE POP POP POP POP JUMP JUMPDEST PUSH0 PUSH1 0x1F NOT PUSH1 0x1F DUP4 ADD AND SWAP1 POP SWAP2 SWAP1 POP JUMP JUMPDEST PUSH0 PUSH2 0x431 DUP3 PUSH2 0x3D5 JUMP JUMPDEST PUSH2 0x43B DUP2 DUP6 PUSH2 0x3DF JUMP JUMPDEST SWAP4 POP PUSH2 0x44B DUP2 DUP6 PUSH1 0x20 DUP7 ADD PUSH2 0x3EF JUMP JUMPDEST PUSH2 0x454 DUP2 PUSH2 0x417 JUMP JUMPDEST DUP5 ADD SWAP2 POP POP SWAP3 SWAP2 POP POP JUMP JUMPDEST PUSH0 PUSH2 0x46A DUP4 DUP4 PUSH2 0x427 JUMP JUMPDEST SWAP1 POP SWAP3 SWAP2 POP POP JUMP JUMPDEST PUSH0 PUSH1 0x20 DUP3 ADD SWAP1 POP SWAP2 SWAP1 POP JUMP JUMPDEST PUSH0 PUSH2 0x488 DUP3 PUSH2 0x3AC JUMP JUMPDEST PUSH2 0x492 DUP2 DUP6 PUSH2 0x3B6 JUMP JUMPDEST SWAP4 POP DUP4 PUSH1 0x20 DUP3 MUL DUP6 ADD PUSH2 0x4A4 DUP6 PUSH2 0x3C6 JUMP JUMPDEST DUP1 PUSH0 JUMPDEST DUP6 DUP2 LT ISZERO PUSH2 0x4DF JUMPI DUP5 DUP5 SUB DUP10 MSTORE DUP2 MLOAD PUSH2 0x4C0 DUP6 DUP3 PUSH2 0x45F JUMP JUMPDEST SWAP5 POP PUSH2 0x4CB DUP4 PUSH2 0x472 JUMP JUMPDEST SWAP3 POP PUSH1 0x20 DUP11 ADD SWAP10 POP POP PUSH1 0x1 DUP2 ADD SWAP1 POP PUSH2 0x4A7 JUMP JUMPDEST POP DUP3 SWAP8 POP DUP8 SWAP6 POP POP POP POP POP POP SWAP3 SWAP2 POP POP JUMP JUMPDEST PUSH0 PUSH1 0x20 DUP3 ADD SWAP1 POP DUP2 DUP2 SUB PUSH0 DUP4 ADD MSTORE PUSH2 0x509 DUP2 DUP5 PUSH2 0x47E JUMP JUMPDEST SWAP1 POP SWAP3 SWAP2 POP POP JUMP JUMPDEST PUSH0 DUP2 ISZERO ISZERO SWAP1 POP SWAP2 SWAP1 POP JUMP JUMPDEST PUSH2 0x525 DUP2 PUSH2 0x511 JUMP JUMPDEST DUP3 MSTORE POP POP JUMP JUMPDEST PUSH0 PUSH1 0x20 DUP3 ADD SWAP1 POP PUSH2 0x53E PUSH0 DUP4 ADD DUP5 PUSH2 0x51C JUMP JUMPDEST SWAP3 SWAP2 POP POP JUMP JUMPDEST PUSH0 PUSH20 0xFFFFFFFFFFFFFFFFFFFFFFFFFFFFFFFFFFFFFFFF DUP3 AND SWAP1 POP SWAP2 SWAP1 POP JUMP JUMPDEST PUSH0 PUSH2 0x56D DUP3 PUSH2 0x544 JUMP JUMPDEST SWAP1 POP SWAP2 SWAP1 POP JUMP JUMPDEST PUSH2 0x57D DUP2 PUSH2 0x563 JUMP JUMPDEST DUP3 MSTORE POP POP JUMP JUMPDEST PUSH0 PUSH1 0x20 DUP3 ADD SWAP1 POP PUSH2 0x596 PUSH0 DUP4 ADD DUP5 PUSH2 0x574 JUMP JUMPDEST SWAP3 SWAP2 POP POP JUMP JUMPDEST PUSH0 DUP2 MLOAD SWAP1 POP SWAP2 SWAP1 POP JUMP JUMPDEST PUSH0 DUP3 DUP3 MSTORE PUSH1 0x20 DUP3 ADD SWAP1 POP SWAP3 SWAP2 POP POP JUMP JUMPDEST PUSH0 DUP2 SWAP1 POP PUSH1 0x20 DUP3 ADD SWAP1 POP SWAP2 SWAP1 POP JUMP JUMPDEST PUSH0 DUP2 SWAP1 POP SWAP2 SWAP1 POP JUMP JUMPDEST PUSH2 0x5D7 DUP2 PUSH2 0x5C5 JUMP JUMPDEST DUP3 MSTORE POP POP JUMP JUMPDEST PUSH0 PUSH2 0x5E8 DUP4 DUP4 PUSH2 0x5CE JUMP JUMPDEST PUSH1 0x20 DUP4 ADD SWAP1 POP SWAP3 SWAP2 POP POP JUMP JUMPDEST PUSH0 PUSH1 0x20 DUP3 ADD SWAP1 POP SWAP2 SWAP1 POP JUMP JUMPDEST PUSH0 PUSH2 0x60A DUP3 PUSH2 0x59C JUMP JUMPDEST PUSH2 0x614 DUP2 DUP6 PUSH2 0x5A6 JUMP JUMPDEST SWAP4 POP PUSH2 0x61F DUP4 PUSH2 0x5B6 JUMP JUMPDEST DUP1 PUSH0 JUMPDEST DUP4 DUP2 LT ISZERO PUSH2 0x64F JUMPI DUP2 MLOAD PUSH2 0x636 DUP9 DUP3 PUSH2 0x5DD JUMP JUMPDEST SWAP8 POP PUSH2 0x641 DUP4 PUSH2 0x5F4 JUMP JUMPDEST SWAP3 POP POP PUSH1 0x1 DUP2 ADD SWAP1 POP PUSH2 0x622 JUMP JUMPDEST POP DUP6 SWAP4 POP POP POP POP SWAP3 SWAP2 POP POP JUMP JUMPDEST PUSH0 PUSH1 0x40 DUP3 ADD SWAP1 POP DUP2 DUP2 SUB PUSH0 DUP4 ADD MSTORE PUSH2 0x674 DUP2 DUP6 PUSH2 0x47E JUMP JUMPDEST SWAP1 POP DUP2 DUP2 SUB PUSH1 0x20 DUP4 ADD MSTORE PUSH2 0x688 DUP2 DUP5 PUSH2 0x600 JUMP JUMPDEST SWAP1 POP SWAP4 SWAP3 POP POP POP JUMP JUMPDEST PUSH32 0x4E487B7100000000000000000000000000000000000000000000000000000000 PUSH0 MSTORE PUSH1 0x22 PUSH1 0x4 MSTORE PUSH1 0x24 PUSH0 REVERT JUMPDEST PUSH0 PUSH1 0x2 DUP3 DIV SWAP1 POP PUSH1 0x1 DUP3 AND DUP1 PUSH2 0x6D5 JUMPI PUSH1 0x7F DUP3 AND SWAP2 POP JUMPDEST PUSH1 0x20 DUP3 LT DUP2 SUB PUSH2 0x6E8 JUMPI PUSH2 0x6E7 PUSH2 0x691 JUMP JUMPDEST JUMPDEST POP SWAP2 SWAP1 POP JUMP JUMPDEST PUSH32 0x4E487B7100000000000000000000000000000000000000000000000000000000 PUSH0 MSTORE PUSH1 0x41 PUSH1 0x4 MSTORE PUSH1 0x24 PUSH0 REVERT JUMPDEST PUSH32 0x4E487B7100000000000000000000000000000000000000000000000000000000 PUSH0 MSTORE PUSH1 0x32 PUSH1 0x4 MSTORE PUSH1 0x24 PUSH0 REVERT JUMPDEST PUSH0 DUP2 SWAP1 POP SWAP3 SWAP2 POP POP JUMP JUMPDEST PUSH0 DUP2 SWAP1 POP DUP2 PUSH0 MSTORE PUSH1 0x20 PUSH0 KECCAK256 SWAP1 POP SWAP2 SWAP1 POP JUMP JUMPDEST PUSH0 DUP2 SLOAD PUSH2 0x770 DUP2 PUSH2 0x6BE JUMP JUMPDEST PUSH2 0x77A DUP2 DUP7 PUSH2 0x748 JUMP JUMPDEST SWAP5 POP PUSH1 0x1 DUP3 AND PUSH0 DUP2 EQ PUSH2 0x794 JUMPI PUSH1 0x1 DUP2 EQ PUSH2 0x7A9 JUMPI PUSH2 0x7DB JUMP JUMPDEST PUSH1 0xFF NOT DUP4 AND DUP7 MSTORE DUP2 ISZERO ISZERO DUP3 MUL DUP7 ADD SWAP4 POP PUSH2 0x7DB JUMP JUMPDEST PUSH2 0x7B2 DUP6 PUSH2 0x752 JUMP JUMPDEST PUSH0 JUMPDEST DUP4 DUP2 LT ISZERO PUSH2 0x7D3 JUMPI DUP2 SLOAD DUP2 DUP10 ADD MSTORE PUSH1 0x1 DUP3 ADD SWAP2 POP PUSH1 0x20 DUP2 ADD SWAP1 POP PUSH2 0x7B4 JUMP JUMPDEST DUP4 DUP9 ADD SWAP6 POP POP POP JUMPDEST POP POP POP SWAP3 SWAP2 POP POP JUMP JUMPDEST PUSH0 PUSH2 0x7EF DUP3 DUP5 PUSH2 0x764 JUMP JUMPDEST SWAP2 POP DUP2 SWAP1 POP SWAP3 SWAP2 POP POP JUMP INVALID LOG2 PUSH5 0x6970667358 0x22 SLT KECCAK256 SSTORE PC 0xC0 SWAP13 0xFC DUP12 CREATE 0xC5 0xE1 0xB7 PUSH0 CODESIZE SGT 0xD4 0x4E EXP DUP11 NOT DUP13 0xAF SWAP3 PUSH2 0xD431 LOG1 PUSH9 0x3258F0AECDE564736F PUSH13 0x63430008160033000000000000 "
				},
				"gasEstimates": {
					"creation": {
						"codeDepositCost": "419200",
						"executionCost": "infinite",
						"totalCost": "infinite"
					},
					"external": {
						"endElection()": "24431",
						"getCandidates()": "infinite",
						"getElectionStatus()": "2473",
						"getOwner()": "2559",
						"getVoteCount()": "infinite"
					}
				},
				"methodIdentifiers": {
					"endElection()": "59f78468",
					"getCandidates()": "06a49fce",
					"getElectionStatus()": "122902a6",
					"getOwner()": "893d20e8",
					"getVoteCount()": "e7b3387c"
				}
			},
			"storageLayout": {
				"storage": [
					{
						"astId": 154,
						"contract": "Users/jamesfan/Documents/Coding/DEVote/blockchain/contracts/Election.sol:Election",
						"label": "owner",
						"offset": 0,
						"slot": "0",
						"type": "t_address"
					},
					{
						"astId": 156,
						"contract": "Users/jamesfan/Documents/Coding/DEVote/blockchain/contracts/Election.sol:Election",
						"label": "timestamp",
						"offset": 0,
						"slot": "1",
						"type": "t_uint256"
					},
					{
						"astId": 159,
						"contract": "Users/jamesfan/Documents/Coding/DEVote/blockchain/contracts/Election.sol:Election",
						"label": "candidates",
						"offset": 0,
						"slot": "2",
						"type": "t_array(t_string_storage)dyn_storage"
					},
					{
						"astId": 162,
						"contract": "Users/jamesfan/Documents/Coding/DEVote/blockchain/contracts/Election.sol:Election",
						"label": "voters",
						"offset": 0,
						"slot": "3",
						"type": "t_array(t_address)dyn_storage"
					},
					{
						"astId": 166,
						"contract": "Users/jamesfan/Documents/Coding/DEVote/blockchain/contracts/Election.sol:Election",
						"label": "candidateVotes",
						"offset": 0,
						"slot": "4",
						"type": "t_mapping(t_string_memory_ptr,t_uint256)"
					},
					{
						"astId": 170,
						"contract": "Users/jamesfan/Documents/Coding/DEVote/blockchain/contracts/Election.sol:Election",
						"label": "addressVotes",
						"offset": 0,
						"slot": "5",
						"type": "t_mapping(t_address,t_string_storage)"
					},
					{
						"astId": 172,
						"contract": "Users/jamesfan/Documents/Coding/DEVote/blockchain/contracts/Election.sol:Election",
						"label": "hasEnded",
						"offset": 0,
						"slot": "6",
						"type": "t_bool"
					}
				],
				"types": {
					"t_address": {
						"encoding": "inplace",
						"label": "address",
						"numberOfBytes": "20"
					},
					"t_array(t_address)dyn_storage": {
						"base": "t_address",
						"encoding": "dynamic_array",
						"label": "address[]",
						"numberOfBytes": "32"
					},
					"t_array(t_string_storage)dyn_storage": {
						"base": "t_string_storage",
						"encoding": "dynamic_array",
						"label": "string[]",
						"numberOfBytes": "32"
					},
					"t_bool": {
						"encoding": "inplace",
						"label": "bool",
						"numberOfBytes": "1"
					},
					"t_mapping(t_address,t_string_storage)": {
						"encoding": "mapping",
						"key": "t_address",
						"label": "mapping(address => string)",
						"numberOfBytes": "32",
						"value": "t_string_storage"
					},
					"t_mapping(t_string_memory_ptr,t_uint256)": {
						"encoding": "mapping",
						"key": "t_string_memory_ptr",
						"label": "mapping(string => uint256)",
						"numberOfBytes": "32",
						"value": "t_uint256"
					},
					"t_string_memory_ptr": {
						"encoding": "bytes",
						"label": "string",
						"numberOfBytes": "32"
					},
					"t_string_storage": {
						"encoding": "bytes",
						"label": "string",
						"numberOfBytes": "32"
					},
					"t_uint256": {
						"encoding": "inplace",
						"label": "uint256",
						"numberOfBytes": "32"
					}
				}
			},
			"userdoc": {
				"kind": "user",
				"methods": {},
				"version": 1
			}
		}
	}
}