{
	"blockchain/contracts/DEVote.sol": {
		"DEVote": {
			"abi": [
				{
					"inputs": [
						{
							"internalType": "string[]",
							"name": "candidates",
							"type": "string[]"
						}
					],
					"name": "createElection",
					"outputs": [],
					"stateMutability": "nonpayable",
					"type": "function"
				},
				{
					"inputs": [],
					"name": "getElections",
					"outputs": [
						{
							"internalType": "string[]",
							"name": "",
							"type": "string[]"
						},
						{
							"internalType": "uint256[]",
							"name": "",
							"type": "uint256[]"
						}
					],
					"stateMutability": "view",
					"type": "function"
				},
				{
					"inputs": [],
					"name": "hasElectionGoing",
					"outputs": [
						{
							"internalType": "bool",
							"name": "",
							"type": "bool"
						}
					],
					"stateMutability": "nonpayable",
					"type": "function"
				}
			],
			"devdoc": {
				"kind": "dev",
				"methods": {},
				"version": 1
			},
			"evm": {
				"assembly": "    /* \"blockchain/contracts/DEVote.sol\":103:1657  contract DEVote {... */\n  mstore(0x40, 0x80)\n  callvalue\n  dup1\n  iszero\n  tag_1\n  jumpi\n  0x00\n  dup1\n  revert\ntag_1:\n  pop\n  dataSize(sub_0)\n  dup1\n  dataOffset(sub_0)\n  0x00\n  codecopy\n  0x00\n  return\nstop\n\nsub_0: assembly {\n        /* \"blockchain/contracts/DEVote.sol\":103:1657  contract DEVote {... */\n      mstore(0x40, 0x80)\n      callvalue\n      dup1\n      iszero\n      tag_1\n      jumpi\n      0x00\n      dup1\n      revert\n    tag_1:\n      pop\n      jumpi(tag_2, lt(calldatasize, 0x04))\n      shr(0xe0, calldataload(0x00))\n      dup1\n      0x9f3a7f52\n      eq\n      tag_3\n      jumpi\n      dup1\n      0xdbdcbeac\n      eq\n      tag_4\n      jumpi\n      dup1\n      0xf8c5d5e6\n      eq\n      tag_5\n      jumpi\n    tag_2:\n      0x00\n      dup1\n      revert\n        /* \"blockchain/contracts/DEVote.sol\":1525:1654  function getElections() public view returns(string[] memory, uint256[] memory) {... */\n    tag_3:\n      tag_6\n      tag_7\n      jump\t// in\n    tag_6:\n      mload(0x40)\n      tag_8\n      swap3\n      swap2\n      swap1\n      tag_9\n      jump\t// in\n    tag_8:\n      mload(0x40)\n      dup1\n      swap2\n      sub\n      swap1\n      return\n        /* \"blockchain/contracts/DEVote.sol\":818:1187  function hasElectionGoing() public returns(bool) {... */\n    tag_4:\n      tag_10\n      tag_11\n      jump\t// in\n    tag_10:\n      mload(0x40)\n      tag_12\n      swap2\n      swap1\n      tag_13\n      jump\t// in\n    tag_12:\n      mload(0x40)\n      dup1\n      swap2\n      sub\n      swap1\n      return\n        /* \"blockchain/contracts/DEVote.sol\":497:665  function createElection(string[] memory candidates) public {... */\n    tag_5:\n      tag_14\n      0x04\n      dup1\n      calldatasize\n      sub\n      dup2\n      add\n      swap1\n      tag_15\n      swap2\n      swap1\n      tag_16\n      jump\t// in\n    tag_15:\n      tag_17\n      jump\t// in\n    tag_14:\n      stop\n        /* \"blockchain/contracts/DEVote.sol\":1525:1654  function getElections() public view returns(string[] memory, uint256[] memory) {... */\n    tag_7:\n        /* \"blockchain/contracts/DEVote.sol\":1569:1584  string[] memory */\n      0x60\n        /* \"blockchain/contracts/DEVote.sol\":1586:1602  uint256[] memory */\n      dup1\n        /* \"blockchain/contracts/DEVote.sol\":1622:1630  election */\n      0x00\n      dup1\n      sload\n      swap1\n      0x0100\n      exp\n      swap1\n      div\n      0xffffffffffffffffffffffffffffffffffffffff\n      and\n        /* \"blockchain/contracts/DEVote.sol\":1622:1643  election.getVoteCount */\n      0xffffffffffffffffffffffffffffffffffffffff\n      and\n      0xe7b3387c\n        /* \"blockchain/contracts/DEVote.sol\":1622:1645  election.getVoteCount() */\n      mload(0x40)\n      dup2\n      0xffffffff\n      and\n      0xe0\n      shl\n      dup2\n      mstore\n      0x04\n      add\n      0x00\n      mload(0x40)\n      dup1\n      dup4\n      sub\n      dup2\n      dup7\n      gas\n      staticcall\n      iszero\n      dup1\n      iszero\n      tag_20\n      jumpi\n      returndatasize\n      0x00\n      dup1\n      returndatacopy\n      revert(0x00, returndatasize)\n    tag_20:\n      pop\n      pop\n      pop\n      pop\n      mload(0x40)\n      returndatasize\n      0x00\n      dup3\n      returndatacopy\n      returndatasize\n      not(0x1f)\n      0x1f\n      dup3\n      add\n      and\n      dup3\n      add\n      dup1\n      0x40\n      mstore\n      pop\n      dup2\n      add\n      swap1\n      tag_21\n      swap2\n      swap1\n      tag_22\n      jump\t// in\n    tag_21:\n        /* \"blockchain/contracts/DEVote.sol\":1615:1646  return(election.getVoteCount()) */\n      swap2\n      pop\n      swap2\n      pop\n        /* \"blockchain/contracts/DEVote.sol\":1525:1654  function getElections() public view returns(string[] memory, uint256[] memory) {... */\n      swap1\n      swap2\n      jump\t// out\n        /* \"blockchain/contracts/DEVote.sol\":818:1187  function hasElectionGoing() public returns(bool) {... */\n    tag_11:\n        /* \"blockchain/contracts/DEVote.sol\":861:865  bool */\n      0x00\n        /* \"blockchain/contracts/DEVote.sol\":889:898  elections */\n      0x01\n        /* \"blockchain/contracts/DEVote.sol\":889:910  elections[msg.sender] */\n      0x00\n        /* \"blockchain/contracts/DEVote.sol\":899:909  msg.sender */\n      caller\n        /* \"blockchain/contracts/DEVote.sol\":889:910  elections[msg.sender] */\n      0xffffffffffffffffffffffffffffffffffffffff\n      and\n      0xffffffffffffffffffffffffffffffffffffffff\n      and\n      dup2\n      mstore\n      0x20\n      add\n      swap1\n      dup2\n      mstore\n      0x20\n      add\n      0x00\n      keccak256\n      0x00\n      swap1\n      sload\n      swap1\n      0x0100\n      exp\n      swap1\n      div\n      0xffffffffffffffffffffffffffffffffffffffff\n      and\n        /* \"blockchain/contracts/DEVote.sol\":878:886  election */\n      0x00\n      dup1\n        /* \"blockchain/contracts/DEVote.sol\":878:910  election = elections[msg.sender] */\n      0x0100\n      exp\n      dup2\n      sload\n      dup2\n      0xffffffffffffffffffffffffffffffffffffffff\n      mul\n      not\n      and\n      swap1\n      dup4\n      0xffffffffffffffffffffffffffffffffffffffff\n      and\n      mul\n      or\n      swap1\n      sstore\n      pop\n        /* \"blockchain/contracts/DEVote.sol\":921:934  address owner */\n      0x00\n        /* \"blockchain/contracts/DEVote.sol\":937:945  election */\n      dup1\n      0x00\n      swap1\n      sload\n      swap1\n      0x0100\n      exp\n      swap1\n      div\n      0xffffffffffffffffffffffffffffffffffffffff\n      and\n        /* \"blockchain/contracts/DEVote.sol\":937:954  election.getOwner */\n      0xffffffffffffffffffffffffffffffffffffffff\n      and\n      0x893d20e8\n        /* \"blockchain/contracts/DEVote.sol\":937:956  election.getOwner() */\n      mload(0x40)\n      dup2\n      0xffffffff\n      and\n      0xe0\n      shl\n      dup2\n      mstore\n      0x04\n      add\n      0x20\n      mload(0x40)\n      dup1\n      dup4\n      sub\n      dup2\n      dup7\n      gas\n      staticcall\n      iszero\n      dup1\n      iszero\n      tag_25\n      jumpi\n      returndatasize\n      0x00\n      dup1\n      returndatacopy\n      revert(0x00, returndatasize)\n    tag_25:\n      pop\n      pop\n      pop\n      pop\n      mload(0x40)\n      returndatasize\n      not(0x1f)\n      0x1f\n      dup3\n      add\n      and\n      dup3\n      add\n      dup1\n      0x40\n      mstore\n      pop\n      dup2\n      add\n      swap1\n      tag_26\n      swap2\n      swap1\n      tag_27\n      jump\t// in\n    tag_26:\n        /* \"blockchain/contracts/DEVote.sol\":921:956  address owner = election.getOwner() */\n      swap1\n      pop\n        /* \"blockchain/contracts/DEVote.sol\":982:992  msg.sender */\n      caller\n        /* \"blockchain/contracts/DEVote.sol\":973:992  owner != msg.sender */\n      0xffffffffffffffffffffffffffffffffffffffff\n      and\n        /* \"blockchain/contracts/DEVote.sol\":973:978  owner */\n      dup2\n        /* \"blockchain/contracts/DEVote.sol\":973:992  owner != msg.sender */\n      0xffffffffffffffffffffffffffffffffffffffff\n      and\n      eq\n        /* \"blockchain/contracts/DEVote.sol\":969:1032  if (owner != msg.sender) {... */\n      tag_28\n      jumpi\n        /* \"blockchain/contracts/DEVote.sol\":1016:1020  true */\n      0x01\n        /* \"blockchain/contracts/DEVote.sol\":1009:1020  return true */\n      swap2\n      pop\n      pop\n      jump(tag_23)\n        /* \"blockchain/contracts/DEVote.sol\":969:1032  if (owner != msg.sender) {... */\n    tag_28:\n        /* \"blockchain/contracts/DEVote.sol\":1044:1055  bool status */\n      0x00\n        /* \"blockchain/contracts/DEVote.sol\":1058:1066  election */\n      dup1\n      0x00\n      swap1\n      sload\n      swap1\n      0x0100\n      exp\n      swap1\n      div\n      0xffffffffffffffffffffffffffffffffffffffff\n      and\n        /* \"blockchain/contracts/DEVote.sol\":1058:1084  election.getElectionStatus */\n      0xffffffffffffffffffffffffffffffffffffffff\n      and\n      0x122902a6\n        /* \"blockchain/contracts/DEVote.sol\":1058:1086  election.getElectionStatus() */\n      mload(0x40)\n      dup2\n      0xffffffff\n      and\n      0xe0\n      shl\n      dup2\n      mstore\n      0x04\n      add\n      0x20\n      mload(0x40)\n      dup1\n      dup4\n      sub\n      dup2\n      dup7\n      gas\n      staticcall\n      iszero\n      dup1\n      iszero\n      tag_30\n      jumpi\n      returndatasize\n      0x00\n      dup1\n      returndatacopy\n      revert(0x00, returndatasize)\n    tag_30:\n      pop\n      pop\n      pop\n      pop\n      mload(0x40)\n      returndatasize\n      not(0x1f)\n      0x1f\n      dup3\n      add\n      and\n      dup3\n      add\n      dup1\n      0x40\n      mstore\n      pop\n      dup2\n      add\n      swap1\n      tag_31\n      swap2\n      swap1\n      tag_32\n      jump\t// in\n    tag_31:\n        /* \"blockchain/contracts/DEVote.sol\":1044:1086  bool status = election.getElectionStatus() */\n      swap1\n      pop\n        /* \"blockchain/contracts/DEVote.sol\":1113:1117  true */\n      0x01\n        /* \"blockchain/contracts/DEVote.sol\":1103:1117  status == true */\n      iszero\n      iszero\n        /* \"blockchain/contracts/DEVote.sol\":1103:1109  status */\n      dup2\n        /* \"blockchain/contracts/DEVote.sol\":1103:1117  status == true */\n      iszero\n      iszero\n      sub\n        /* \"blockchain/contracts/DEVote.sol\":1099:1158  if (status == true) {... */\n      tag_33\n      jumpi\n        /* \"blockchain/contracts/DEVote.sol\":1141:1146  false */\n      0x00\n        /* \"blockchain/contracts/DEVote.sol\":1134:1146  return false */\n      swap3\n      pop\n      pop\n      pop\n      jump(tag_23)\n        /* \"blockchain/contracts/DEVote.sol\":1099:1158  if (status == true) {... */\n    tag_33:\n        /* \"blockchain/contracts/DEVote.sol\":1175:1179  true */\n      0x01\n        /* \"blockchain/contracts/DEVote.sol\":1168:1179  return true */\n      swap3\n      pop\n      pop\n      pop\n        /* \"blockchain/contracts/DEVote.sol\":818:1187  function hasElectionGoing() public returns(bool) {... */\n    tag_23:\n      swap1\n      jump\t// out\n        /* \"blockchain/contracts/DEVote.sol\":497:665  function createElection(string[] memory candidates) public {... */\n    tag_17:\n        /* \"blockchain/contracts/DEVote.sol\":591:601  msg.sender */\n      caller\n        /* \"blockchain/contracts/DEVote.sol\":603:613  candidates */\n      dup2\n        /* \"blockchain/contracts/DEVote.sol\":578:614  new Election(msg.sender, candidates) */\n      mload(0x40)\n      tag_35\n      swap1\n      tag_36\n      jump\t// in\n    tag_35:\n      tag_37\n      swap3\n      swap2\n      swap1\n      tag_38\n      jump\t// in\n    tag_37:\n      mload(0x40)\n      dup1\n      swap2\n      sub\n      swap1\n      0x00\n      create\n      dup1\n      iszero\n      dup1\n      iszero\n      tag_39\n      jumpi\n      returndatasize\n      0x00\n      dup1\n      returndatacopy\n      revert(0x00, returndatasize)\n    tag_39:\n      pop\n        /* \"blockchain/contracts/DEVote.sol\":567:575  election */\n      0x00\n      dup1\n        /* \"blockchain/contracts/DEVote.sol\":567:614  election = new Election(msg.sender, candidates) */\n      0x0100\n      exp\n      dup2\n      sload\n      dup2\n      0xffffffffffffffffffffffffffffffffffffffff\n      mul\n      not\n      and\n      swap1\n      dup4\n      0xffffffffffffffffffffffffffffffffffffffff\n      and\n      mul\n      or\n      swap1\n      sstore\n      pop\n        /* \"blockchain/contracts/DEVote.sol\":649:657  election */\n      0x00\n      dup1\n      sload\n      swap1\n      0x0100\n      exp\n      swap1\n      div\n      0xffffffffffffffffffffffffffffffffffffffff\n      and\n        /* \"blockchain/contracts/DEVote.sol\":625:634  elections */\n      0x01\n        /* \"blockchain/contracts/DEVote.sol\":625:646  elections[msg.sender] */\n      0x00\n        /* \"blockchain/contracts/DEVote.sol\":635:645  msg.sender */\n      caller\n        /* \"blockchain/contracts/DEVote.sol\":625:646  elections[msg.sender] */\n      0xffffffffffffffffffffffffffffffffffffffff\n      and\n      0xffffffffffffffffffffffffffffffffffffffff\n      and\n      dup2\n      mstore\n      0x20\n      add\n      swap1\n      dup2\n      mstore\n      0x20\n      add\n      0x00\n      keccak256\n      0x00\n        /* \"blockchain/contracts/DEVote.sol\":625:657  elections[msg.sender] = election */\n      0x0100\n      exp\n      dup2\n      sload\n      dup2\n      0xffffffffffffffffffffffffffffffffffffffff\n      mul\n      not\n      and\n      swap1\n      dup4\n      0xffffffffffffffffffffffffffffffffffffffff\n      and\n      mul\n      or\n      swap1\n      sstore\n      pop\n        /* \"blockchain/contracts/DEVote.sol\":497:665  function createElection(string[] memory candidates) public {... */\n      pop\n      jump\t// out\n    tag_36:\n      dataSize(sub_0)\n      dup1\n      dataOffset(sub_0)\n      dup4\n      codecopy\n      add\n      swap1\n      jump\t// out\n        /* \"#utility.yul\":7:131   */\n    tag_40:\n        /* \"#utility.yul\":84:90   */\n      0x00\n        /* \"#utility.yul\":118:123   */\n      dup2\n        /* \"#utility.yul\":112:124   */\n      mload\n        /* \"#utility.yul\":102:124   */\n      swap1\n      pop\n        /* \"#utility.yul\":7:131   */\n      swap2\n      swap1\n      pop\n      jump\t// out\n        /* \"#utility.yul\":137:331   */\n    tag_41:\n        /* \"#utility.yul\":246:257   */\n      0x00\n        /* \"#utility.yul\":280:286   */\n      dup3\n        /* \"#utility.yul\":275:278   */\n      dup3\n        /* \"#utility.yul\":268:287   */\n      mstore\n        /* \"#utility.yul\":320:324   */\n      0x20\n        /* \"#utility.yul\":315:318   */\n      dup3\n        /* \"#utility.yul\":311:325   */\n      add\n        /* \"#utility.yul\":296:325   */\n      swap1\n      pop\n        /* \"#utility.yul\":137:331   */\n      swap3\n      swap2\n      pop\n      pop\n      jump\t// out\n        /* \"#utility.yul\":337:479   */\n    tag_42:\n        /* \"#utility.yul\":414:418   */\n      0x00\n        /* \"#utility.yul\":437:440   */\n      dup2\n        /* \"#utility.yul\":429:440   */\n      swap1\n      pop\n        /* \"#utility.yul\":467:471   */\n      0x20\n        /* \"#utility.yul\":462:465   */\n      dup3\n        /* \"#utility.yul\":458:472   */\n      add\n        /* \"#utility.yul\":450:472   */\n      swap1\n      pop\n        /* \"#utility.yul\":337:479   */\n      swap2\n      swap1\n      pop\n      jump\t// out\n        /* \"#utility.yul\":485:584   */\n    tag_43:\n        /* \"#utility.yul\":537:543   */\n      0x00\n        /* \"#utility.yul\":571:576   */\n      dup2\n        /* \"#utility.yul\":565:577   */\n      mload\n        /* \"#utility.yul\":555:577   */\n      swap1\n      pop\n        /* \"#utility.yul\":485:584   */\n      swap2\n      swap1\n      pop\n      jump\t// out\n        /* \"#utility.yul\":590:749   */\n    tag_44:\n        /* \"#utility.yul\":664:675   */\n      0x00\n        /* \"#utility.yul\":698:704   */\n      dup3\n        /* \"#utility.yul\":693:696   */\n      dup3\n        /* \"#utility.yul\":686:705   */\n      mstore\n        /* \"#utility.yul\":738:742   */\n      0x20\n        /* \"#utility.yul\":733:736   */\n      dup3\n        /* \"#utility.yul\":729:743   */\n      add\n        /* \"#utility.yul\":714:743   */\n      swap1\n      pop\n        /* \"#utility.yul\":590:749   */\n      swap3\n      swap2\n      pop\n      pop\n      jump\t// out\n        /* \"#utility.yul\":755:1001   */\n    tag_45:\n        /* \"#utility.yul\":836:837   */\n      0x00\n        /* \"#utility.yul\":846:959   */\n    tag_100:\n        /* \"#utility.yul\":860:866   */\n      dup4\n        /* \"#utility.yul\":857:858   */\n      dup2\n        /* \"#utility.yul\":854:867   */\n      lt\n        /* \"#utility.yul\":846:959   */\n      iszero\n      tag_102\n      jumpi\n        /* \"#utility.yul\":945:946   */\n      dup1\n        /* \"#utility.yul\":940:943   */\n      dup3\n        /* \"#utility.yul\":936:947   */\n      add\n        /* \"#utility.yul\":930:948   */\n      mload\n        /* \"#utility.yul\":926:927   */\n      dup2\n        /* \"#utility.yul\":921:924   */\n      dup5\n        /* \"#utility.yul\":917:928   */\n      add\n        /* \"#utility.yul\":910:949   */\n      mstore\n        /* \"#utility.yul\":882:884   */\n      0x20\n        /* \"#utility.yul\":879:880   */\n      dup2\n        /* \"#utility.yul\":875:885   */\n      add\n        /* \"#utility.yul\":870:885   */\n      swap1\n      pop\n        /* \"#utility.yul\":846:959   */\n      jump(tag_100)\n    tag_102:\n        /* \"#utility.yul\":993:994   */\n      0x00\n        /* \"#utility.yul\":984:990   */\n      dup5\n        /* \"#utility.yul\":979:982   */\n      dup5\n        /* \"#utility.yul\":975:991   */\n      add\n        /* \"#utility.yul\":968:995   */\n      mstore\n        /* \"#utility.yul\":817:1001   */\n      pop\n        /* \"#utility.yul\":755:1001   */\n      pop\n      pop\n      pop\n      jump\t// out\n        /* \"#utility.yul\":1007:1109   */\n    tag_46:\n        /* \"#utility.yul\":1048:1054   */\n      0x00\n        /* \"#utility.yul\":1099:1101   */\n      0x1f\n        /* \"#utility.yul\":1095:1102   */\n      not\n        /* \"#utility.yul\":1090:1092   */\n      0x1f\n        /* \"#utility.yul\":1083:1088   */\n      dup4\n        /* \"#utility.yul\":1079:1093   */\n      add\n        /* \"#utility.yul\":1075:1103   */\n      and\n        /* \"#utility.yul\":1065:1103   */\n      swap1\n      pop\n        /* \"#utility.yul\":1007:1109   */\n      swap2\n      swap1\n      pop\n      jump\t// out\n        /* \"#utility.yul\":1115:1472   */\n    tag_47:\n        /* \"#utility.yul\":1193:1196   */\n      0x00\n        /* \"#utility.yul\":1221:1260   */\n      tag_105\n        /* \"#utility.yul\":1254:1259   */\n      dup3\n        /* \"#utility.yul\":1221:1260   */\n      tag_43\n      jump\t// in\n    tag_105:\n        /* \"#utility.yul\":1276:1337   */\n      tag_106\n        /* \"#utility.yul\":1330:1336   */\n      dup2\n        /* \"#utility.yul\":1325:1328   */\n      dup6\n        /* \"#utility.yul\":1276:1337   */\n      tag_44\n      jump\t// in\n    tag_106:\n        /* \"#utility.yul\":1269:1337   */\n      swap4\n      pop\n        /* \"#utility.yul\":1346:1411   */\n      tag_107\n        /* \"#utility.yul\":1404:1410   */\n      dup2\n        /* \"#utility.yul\":1399:1402   */\n      dup6\n        /* \"#utility.yul\":1392:1396   */\n      0x20\n        /* \"#utility.yul\":1385:1390   */\n      dup7\n        /* \"#utility.yul\":1381:1397   */\n      add\n        /* \"#utility.yul\":1346:1411   */\n      tag_45\n      jump\t// in\n    tag_107:\n        /* \"#utility.yul\":1436:1465   */\n      tag_108\n        /* \"#utility.yul\":1458:1464   */\n      dup2\n        /* \"#utility.yul\":1436:1465   */\n      tag_46\n      jump\t// in\n    tag_108:\n        /* \"#utility.yul\":1431:1434   */\n      dup5\n        /* \"#utility.yul\":1427:1466   */\n      add\n        /* \"#utility.yul\":1420:1466   */\n      swap2\n      pop\n        /* \"#utility.yul\":1197:1472   */\n      pop\n        /* \"#utility.yul\":1115:1472   */\n      swap3\n      swap2\n      pop\n      pop\n      jump\t// out\n        /* \"#utility.yul\":1478:1674   */\n    tag_48:\n        /* \"#utility.yul\":1567:1577   */\n      0x00\n        /* \"#utility.yul\":1602:1668   */\n      tag_110\n        /* \"#utility.yul\":1664:1667   */\n      dup4\n        /* \"#utility.yul\":1656:1662   */\n      dup4\n        /* \"#utility.yul\":1602:1668   */\n      tag_47\n      jump\t// in\n    tag_110:\n        /* \"#utility.yul\":1588:1668   */\n      swap1\n      pop\n        /* \"#utility.yul\":1478:1674   */\n      swap3\n      swap2\n      pop\n      pop\n      jump\t// out\n        /* \"#utility.yul\":1680:1803   */\n    tag_49:\n        /* \"#utility.yul\":1760:1764   */\n      0x00\n        /* \"#utility.yul\":1792:1796   */\n      0x20\n        /* \"#utility.yul\":1787:1790   */\n      dup3\n        /* \"#utility.yul\":1783:1797   */\n      add\n        /* \"#utility.yul\":1775:1797   */\n      swap1\n      pop\n        /* \"#utility.yul\":1680:1803   */\n      swap2\n      swap1\n      pop\n      jump\t// out\n        /* \"#utility.yul\":1837:2828   */\n    tag_50:\n        /* \"#utility.yul\":1976:1979   */\n      0x00\n        /* \"#utility.yul\":2005:2069   */\n      tag_113\n        /* \"#utility.yul\":2063:2068   */\n      dup3\n        /* \"#utility.yul\":2005:2069   */\n      tag_40\n      jump\t// in\n    tag_113:\n        /* \"#utility.yul\":2085:2181   */\n      tag_114\n        /* \"#utility.yul\":2174:2180   */\n      dup2\n        /* \"#utility.yul\":2169:2172   */\n      dup6\n        /* \"#utility.yul\":2085:2181   */\n      tag_41\n      jump\t// in\n    tag_114:\n        /* \"#utility.yul\":2078:2181   */\n      swap4\n      pop\n        /* \"#utility.yul\":2207:2210   */\n      dup4\n        /* \"#utility.yul\":2252:2256   */\n      0x20\n        /* \"#utility.yul\":2244:2250   */\n      dup3\n        /* \"#utility.yul\":2240:2257   */\n      mul\n        /* \"#utility.yul\":2235:2238   */\n      dup6\n        /* \"#utility.yul\":2231:2258   */\n      add\n        /* \"#utility.yul\":2282:2348   */\n      tag_115\n        /* \"#utility.yul\":2342:2347   */\n      dup6\n        /* \"#utility.yul\":2282:2348   */\n      tag_42\n      jump\t// in\n    tag_115:\n        /* \"#utility.yul\":2371:2378   */\n      dup1\n        /* \"#utility.yul\":2402:2403   */\n      0x00\n        /* \"#utility.yul\":2387:2783   */\n    tag_116:\n        /* \"#utility.yul\":2412:2418   */\n      dup6\n        /* \"#utility.yul\":2409:2410   */\n      dup2\n        /* \"#utility.yul\":2406:2419   */\n      lt\n        /* \"#utility.yul\":2387:2783   */\n      iszero\n      tag_118\n      jumpi\n        /* \"#utility.yul\":2483:2492   */\n      dup5\n        /* \"#utility.yul\":2477:2481   */\n      dup5\n        /* \"#utility.yul\":2473:2493   */\n      sub\n        /* \"#utility.yul\":2468:2471   */\n      dup10\n        /* \"#utility.yul\":2461:2494   */\n      mstore\n        /* \"#utility.yul\":2534:2540   */\n      dup2\n        /* \"#utility.yul\":2528:2541   */\n      mload\n        /* \"#utility.yul\":2562:2646   */\n      tag_119\n        /* \"#utility.yul\":2641:2645   */\n      dup6\n        /* \"#utility.yul\":2626:2639   */\n      dup3\n        /* \"#utility.yul\":2562:2646   */\n      tag_48\n      jump\t// in\n    tag_119:\n        /* \"#utility.yul\":2554:2646   */\n      swap5\n      pop\n        /* \"#utility.yul\":2669:2739   */\n      tag_120\n        /* \"#utility.yul\":2732:2738   */\n      dup4\n        /* \"#utility.yul\":2669:2739   */\n      tag_49\n      jump\t// in\n    tag_120:\n        /* \"#utility.yul\":2659:2739   */\n      swap3\n      pop\n        /* \"#utility.yul\":2768:2772   */\n      0x20\n        /* \"#utility.yul\":2763:2766   */\n      dup11\n        /* \"#utility.yul\":2759:2773   */\n      add\n        /* \"#utility.yul\":2752:2773   */\n      swap10\n      pop\n        /* \"#utility.yul\":2447:2783   */\n      pop\n        /* \"#utility.yul\":2434:2435   */\n      0x01\n        /* \"#utility.yul\":2431:2432   */\n      dup2\n        /* \"#utility.yul\":2427:2436   */\n      add\n        /* \"#utility.yul\":2422:2436   */\n      swap1\n      pop\n        /* \"#utility.yul\":2387:2783   */\n      jump(tag_116)\n    tag_118:\n        /* \"#utility.yul\":2391:2405   */\n      pop\n        /* \"#utility.yul\":2799:2803   */\n      dup3\n        /* \"#utility.yul\":2792:2803   */\n      swap8\n      pop\n        /* \"#utility.yul\":2819:2822   */\n      dup8\n        /* \"#utility.yul\":2812:2822   */\n      swap6\n      pop\n        /* \"#utility.yul\":1981:2828   */\n      pop\n      pop\n      pop\n      pop\n      pop\n        /* \"#utility.yul\":1837:2828   */\n      swap3\n      swap2\n      pop\n      pop\n      jump\t// out\n        /* \"#utility.yul\":2834:2948   */\n    tag_51:\n        /* \"#utility.yul\":2901:2907   */\n      0x00\n        /* \"#utility.yul\":2935:2940   */\n      dup2\n        /* \"#utility.yul\":2929:2941   */\n      mload\n        /* \"#utility.yul\":2919:2941   */\n      swap1\n      pop\n        /* \"#utility.yul\":2834:2948   */\n      swap2\n      swap1\n      pop\n      jump\t// out\n        /* \"#utility.yul\":2954:3138   */\n    tag_52:\n        /* \"#utility.yul\":3053:3064   */\n      0x00\n        /* \"#utility.yul\":3087:3093   */\n      dup3\n        /* \"#utility.yul\":3082:3085   */\n      dup3\n        /* \"#utility.yul\":3075:3094   */\n      mstore\n        /* \"#utility.yul\":3127:3131   */\n      0x20\n        /* \"#utility.yul\":3122:3125   */\n      dup3\n        /* \"#utility.yul\":3118:3132   */\n      add\n        /* \"#utility.yul\":3103:3132   */\n      swap1\n      pop\n        /* \"#utility.yul\":2954:3138   */\n      swap3\n      swap2\n      pop\n      pop\n      jump\t// out\n        /* \"#utility.yul\":3144:3276   */\n    tag_53:\n        /* \"#utility.yul\":3211:3215   */\n      0x00\n        /* \"#utility.yul\":3234:3237   */\n      dup2\n        /* \"#utility.yul\":3226:3237   */\n      swap1\n      pop\n        /* \"#utility.yul\":3264:3268   */\n      0x20\n        /* \"#utility.yul\":3259:3262   */\n      dup3\n        /* \"#utility.yul\":3255:3269   */\n      add\n        /* \"#utility.yul\":3247:3269   */\n      swap1\n      pop\n        /* \"#utility.yul\":3144:3276   */\n      swap2\n      swap1\n      pop\n      jump\t// out\n        /* \"#utility.yul\":3282:3359   */\n    tag_54:\n        /* \"#utility.yul\":3319:3326   */\n      0x00\n        /* \"#utility.yul\":3348:3353   */\n      dup2\n        /* \"#utility.yul\":3337:3353   */\n      swap1\n      pop\n        /* \"#utility.yul\":3282:3359   */\n      swap2\n      swap1\n      pop\n      jump\t// out\n        /* \"#utility.yul\":3365:3473   */\n    tag_55:\n        /* \"#utility.yul\":3442:3466   */\n      tag_126\n        /* \"#utility.yul\":3460:3465   */\n      dup2\n        /* \"#utility.yul\":3442:3466   */\n      tag_54\n      jump\t// in\n    tag_126:\n        /* \"#utility.yul\":3437:3440   */\n      dup3\n        /* \"#utility.yul\":3430:3467   */\n      mstore\n        /* \"#utility.yul\":3365:3473   */\n      pop\n      pop\n      jump\t// out\n        /* \"#utility.yul\":3479:3658   */\n    tag_56:\n        /* \"#utility.yul\":3548:3558   */\n      0x00\n        /* \"#utility.yul\":3569:3615   */\n      tag_128\n        /* \"#utility.yul\":3611:3614   */\n      dup4\n        /* \"#utility.yul\":3603:3609   */\n      dup4\n        /* \"#utility.yul\":3569:3615   */\n      tag_55\n      jump\t// in\n    tag_128:\n        /* \"#utility.yul\":3647:3651   */\n      0x20\n        /* \"#utility.yul\":3642:3645   */\n      dup4\n        /* \"#utility.yul\":3638:3652   */\n      add\n        /* \"#utility.yul\":3624:3652   */\n      swap1\n      pop\n        /* \"#utility.yul\":3479:3658   */\n      swap3\n      swap2\n      pop\n      pop\n      jump\t// out\n        /* \"#utility.yul\":3664:3777   */\n    tag_57:\n        /* \"#utility.yul\":3734:3738   */\n      0x00\n        /* \"#utility.yul\":3766:3770   */\n      0x20\n        /* \"#utility.yul\":3761:3764   */\n      dup3\n        /* \"#utility.yul\":3757:3771   */\n      add\n        /* \"#utility.yul\":3749:3771   */\n      swap1\n      pop\n        /* \"#utility.yul\":3664:3777   */\n      swap2\n      swap1\n      pop\n      jump\t// out\n        /* \"#utility.yul\":3813:4545   */\n    tag_58:\n        /* \"#utility.yul\":3932:3935   */\n      0x00\n        /* \"#utility.yul\":3961:4015   */\n      tag_131\n        /* \"#utility.yul\":4009:4014   */\n      dup3\n        /* \"#utility.yul\":3961:4015   */\n      tag_51\n      jump\t// in\n    tag_131:\n        /* \"#utility.yul\":4031:4117   */\n      tag_132\n        /* \"#utility.yul\":4110:4116   */\n      dup2\n        /* \"#utility.yul\":4105:4108   */\n      dup6\n        /* \"#utility.yul\":4031:4117   */\n      tag_52\n      jump\t// in\n    tag_132:\n        /* \"#utility.yul\":4024:4117   */\n      swap4\n      pop\n        /* \"#utility.yul\":4141:4197   */\n      tag_133\n        /* \"#utility.yul\":4191:4196   */\n      dup4\n        /* \"#utility.yul\":4141:4197   */\n      tag_53\n      jump\t// in\n    tag_133:\n        /* \"#utility.yul\":4220:4227   */\n      dup1\n        /* \"#utility.yul\":4251:4252   */\n      0x00\n        /* \"#utility.yul\":4236:4520   */\n    tag_134:\n        /* \"#utility.yul\":4261:4267   */\n      dup4\n        /* \"#utility.yul\":4258:4259   */\n      dup2\n        /* \"#utility.yul\":4255:4268   */\n      lt\n        /* \"#utility.yul\":4236:4520   */\n      iszero\n      tag_136\n      jumpi\n        /* \"#utility.yul\":4337:4343   */\n      dup2\n        /* \"#utility.yul\":4331:4344   */\n      mload\n        /* \"#utility.yul\":4364:4427   */\n      tag_137\n        /* \"#utility.yul\":4423:4426   */\n      dup9\n        /* \"#utility.yul\":4408:4421   */\n      dup3\n        /* \"#utility.yul\":4364:4427   */\n      tag_56\n      jump\t// in\n    tag_137:\n        /* \"#utility.yul\":4357:4427   */\n      swap8\n      pop\n        /* \"#utility.yul\":4450:4510   */\n      tag_138\n        /* \"#utility.yul\":4503:4509   */\n      dup4\n        /* \"#utility.yul\":4450:4510   */\n      tag_57\n      jump\t// in\n    tag_138:\n        /* \"#utility.yul\":4440:4510   */\n      swap3\n      pop\n        /* \"#utility.yul\":4296:4520   */\n      pop\n        /* \"#utility.yul\":4283:4284   */\n      0x01\n        /* \"#utility.yul\":4280:4281   */\n      dup2\n        /* \"#utility.yul\":4276:4285   */\n      add\n        /* \"#utility.yul\":4271:4285   */\n      swap1\n      pop\n        /* \"#utility.yul\":4236:4520   */\n      jump(tag_134)\n    tag_136:\n        /* \"#utility.yul\":4240:4254   */\n      pop\n        /* \"#utility.yul\":4536:4539   */\n      dup6\n        /* \"#utility.yul\":4529:4539   */\n      swap4\n      pop\n        /* \"#utility.yul\":3937:4545   */\n      pop\n      pop\n      pop\n        /* \"#utility.yul\":3813:4545   */\n      swap3\n      swap2\n      pop\n      pop\n      jump\t// out\n        /* \"#utility.yul\":4551:5225   */\n    tag_9:\n        /* \"#utility.yul\":4792:4796   */\n      0x00\n        /* \"#utility.yul\":4830:4832   */\n      0x40\n        /* \"#utility.yul\":4819:4828   */\n      dup3\n        /* \"#utility.yul\":4815:4833   */\n      add\n        /* \"#utility.yul\":4807:4833   */\n      swap1\n      pop\n        /* \"#utility.yul\":4879:4888   */\n      dup2\n        /* \"#utility.yul\":4873:4877   */\n      dup2\n        /* \"#utility.yul\":4869:4889   */\n      sub\n        /* \"#utility.yul\":4865:4866   */\n      0x00\n        /* \"#utility.yul\":4854:4863   */\n      dup4\n        /* \"#utility.yul\":4850:4867   */\n      add\n        /* \"#utility.yul\":4843:4890   */\n      mstore\n        /* \"#utility.yul\":4907:5035   */\n      tag_140\n        /* \"#utility.yul\":5030:5034   */\n      dup2\n        /* \"#utility.yul\":5021:5027   */\n      dup6\n        /* \"#utility.yul\":4907:5035   */\n      tag_50\n      jump\t// in\n    tag_140:\n        /* \"#utility.yul\":4899:5035   */\n      swap1\n      pop\n        /* \"#utility.yul\":5082:5091   */\n      dup2\n        /* \"#utility.yul\":5076:5080   */\n      dup2\n        /* \"#utility.yul\":5072:5092   */\n      sub\n        /* \"#utility.yul\":5067:5069   */\n      0x20\n        /* \"#utility.yul\":5056:5065   */\n      dup4\n        /* \"#utility.yul\":5052:5070   */\n      add\n        /* \"#utility.yul\":5045:5093   */\n      mstore\n        /* \"#utility.yul\":5110:5218   */\n      tag_141\n        /* \"#utility.yul\":5213:5217   */\n      dup2\n        /* \"#utility.yul\":5204:5210   */\n      dup5\n        /* \"#utility.yul\":5110:5218   */\n      tag_58\n      jump\t// in\n    tag_141:\n        /* \"#utility.yul\":5102:5218   */\n      swap1\n      pop\n        /* \"#utility.yul\":4551:5225   */\n      swap4\n      swap3\n      pop\n      pop\n      pop\n      jump\t// out\n        /* \"#utility.yul\":5231:5321   */\n    tag_59:\n        /* \"#utility.yul\":5265:5272   */\n      0x00\n        /* \"#utility.yul\":5308:5313   */\n      dup2\n        /* \"#utility.yul\":5301:5314   */\n      iszero\n        /* \"#utility.yul\":5294:5315   */\n      iszero\n        /* \"#utility.yul\":5283:5315   */\n      swap1\n      pop\n        /* \"#utility.yul\":5231:5321   */\n      swap2\n      swap1\n      pop\n      jump\t// out\n        /* \"#utility.yul\":5327:5436   */\n    tag_60:\n        /* \"#utility.yul\":5408:5429   */\n      tag_144\n        /* \"#utility.yul\":5423:5428   */\n      dup2\n        /* \"#utility.yul\":5408:5429   */\n      tag_59\n      jump\t// in\n    tag_144:\n        /* \"#utility.yul\":5403:5406   */\n      dup3\n        /* \"#utility.yul\":5396:5430   */\n      mstore\n        /* \"#utility.yul\":5327:5436   */\n      pop\n      pop\n      jump\t// out\n        /* \"#utility.yul\":5442:5652   */\n    tag_13:\n        /* \"#utility.yul\":5529:5533   */\n      0x00\n        /* \"#utility.yul\":5567:5569   */\n      0x20\n        /* \"#utility.yul\":5556:5565   */\n      dup3\n        /* \"#utility.yul\":5552:5570   */\n      add\n        /* \"#utility.yul\":5544:5570   */\n      swap1\n      pop\n        /* \"#utility.yul\":5580:5645   */\n      tag_146\n        /* \"#utility.yul\":5642:5643   */\n      0x00\n        /* \"#utility.yul\":5631:5640   */\n      dup4\n        /* \"#utility.yul\":5627:5644   */\n      add\n        /* \"#utility.yul\":5618:5624   */\n      dup5\n        /* \"#utility.yul\":5580:5645   */\n      tag_60\n      jump\t// in\n    tag_146:\n        /* \"#utility.yul\":5442:5652   */\n      swap3\n      swap2\n      pop\n      pop\n      jump\t// out\n        /* \"#utility.yul\":5658:5733   */\n    tag_61:\n        /* \"#utility.yul\":5691:5697   */\n      0x00\n        /* \"#utility.yul\":5724:5726   */\n      0x40\n        /* \"#utility.yul\":5718:5727   */\n      mload\n        /* \"#utility.yul\":5708:5727   */\n      swap1\n      pop\n        /* \"#utility.yul\":5658:5733   */\n      swap1\n      jump\t// out\n        /* \"#utility.yul\":5739:5856   */\n    tag_62:\n        /* \"#utility.yul\":5848:5849   */\n      0x00\n        /* \"#utility.yul\":5845:5846   */\n      dup1\n        /* \"#utility.yul\":5838:5850   */\n      revert\n        /* \"#utility.yul\":5862:5979   */\n    tag_63:\n        /* \"#utility.yul\":5971:5972   */\n      0x00\n        /* \"#utility.yul\":5968:5969   */\n      dup1\n        /* \"#utility.yul\":5961:5973   */\n      revert\n        /* \"#utility.yul\":5985:6102   */\n    tag_64:\n        /* \"#utility.yul\":6094:6095   */\n      0x00\n        /* \"#utility.yul\":6091:6092   */\n      dup1\n        /* \"#utility.yul\":6084:6096   */\n      revert\n        /* \"#utility.yul\":6108:6288   */\n    tag_65:\n        /* \"#utility.yul\":6156:6233   */\n      0x4e487b7100000000000000000000000000000000000000000000000000000000\n        /* \"#utility.yul\":6153:6154   */\n      0x00\n        /* \"#utility.yul\":6146:6234   */\n      mstore\n        /* \"#utility.yul\":6253:6257   */\n      0x41\n        /* \"#utility.yul\":6250:6251   */\n      0x04\n        /* \"#utility.yul\":6243:6258   */\n      mstore\n        /* \"#utility.yul\":6277:6281   */\n      0x24\n        /* \"#utility.yul\":6274:6275   */\n      0x00\n        /* \"#utility.yul\":6267:6282   */\n      revert\n        /* \"#utility.yul\":6294:6575   */\n    tag_66:\n        /* \"#utility.yul\":6377:6404   */\n      tag_153\n        /* \"#utility.yul\":6399:6403   */\n      dup3\n        /* \"#utility.yul\":6377:6404   */\n      tag_46\n      jump\t// in\n    tag_153:\n        /* \"#utility.yul\":6369:6375   */\n      dup2\n        /* \"#utility.yul\":6365:6405   */\n      add\n        /* \"#utility.yul\":6507:6513   */\n      dup2\n        /* \"#utility.yul\":6495:6505   */\n      dup2\n        /* \"#utility.yul\":6492:6514   */\n      lt\n        /* \"#utility.yul\":6471:6489   */\n      0xffffffffffffffff\n        /* \"#utility.yul\":6459:6469   */\n      dup3\n        /* \"#utility.yul\":6456:6490   */\n      gt\n        /* \"#utility.yul\":6453:6515   */\n      or\n        /* \"#utility.yul\":6450:6538   */\n      iszero\n      tag_154\n      jumpi\n        /* \"#utility.yul\":6518:6536   */\n      tag_155\n      tag_65\n      jump\t// in\n    tag_155:\n        /* \"#utility.yul\":6450:6538   */\n    tag_154:\n        /* \"#utility.yul\":6558:6568   */\n      dup1\n        /* \"#utility.yul\":6554:6556   */\n      0x40\n        /* \"#utility.yul\":6547:6569   */\n      mstore\n        /* \"#utility.yul\":6337:6575   */\n      pop\n        /* \"#utility.yul\":6294:6575   */\n      pop\n      pop\n      jump\t// out\n        /* \"#utility.yul\":6581:6710   */\n    tag_67:\n        /* \"#utility.yul\":6615:6621   */\n      0x00\n        /* \"#utility.yul\":6642:6662   */\n      tag_157\n      tag_61\n      jump\t// in\n    tag_157:\n        /* \"#utility.yul\":6632:6662   */\n      swap1\n      pop\n        /* \"#utility.yul\":6671:6704   */\n      tag_158\n        /* \"#utility.yul\":6699:6703   */\n      dup3\n        /* \"#utility.yul\":6691:6697   */\n      dup3\n        /* \"#utility.yul\":6671:6704   */\n      tag_66\n      jump\t// in\n    tag_158:\n        /* \"#utility.yul\":6581:6710   */\n      swap2\n      swap1\n      pop\n      jump\t// out\n        /* \"#utility.yul\":6716:7037   */\n    tag_68:\n        /* \"#utility.yul\":6803:6807   */\n      0x00\n        /* \"#utility.yul\":6893:6911   */\n      0xffffffffffffffff\n        /* \"#utility.yul\":6885:6891   */\n      dup3\n        /* \"#utility.yul\":6882:6912   */\n      gt\n        /* \"#utility.yul\":6879:6935   */\n      iszero\n      tag_160\n      jumpi\n        /* \"#utility.yul\":6915:6933   */\n      tag_161\n      tag_65\n      jump\t// in\n    tag_161:\n        /* \"#utility.yul\":6879:6935   */\n    tag_160:\n        /* \"#utility.yul\":6965:6969   */\n      0x20\n        /* \"#utility.yul\":6957:6963   */\n      dup3\n        /* \"#utility.yul\":6953:6970   */\n      mul\n        /* \"#utility.yul\":6945:6970   */\n      swap1\n      pop\n        /* \"#utility.yul\":7025:7029   */\n      0x20\n        /* \"#utility.yul\":7019:7023   */\n      dup2\n        /* \"#utility.yul\":7015:7030   */\n      add\n        /* \"#utility.yul\":7007:7030   */\n      swap1\n      pop\n        /* \"#utility.yul\":6716:7037   */\n      swap2\n      swap1\n      pop\n      jump\t// out\n        /* \"#utility.yul\":7043:7160   */\n    tag_69:\n        /* \"#utility.yul\":7152:7153   */\n      0x00\n        /* \"#utility.yul\":7149:7150   */\n      dup1\n        /* \"#utility.yul\":7142:7154   */\n      revert\n        /* \"#utility.yul\":7166:7283   */\n    tag_70:\n        /* \"#utility.yul\":7275:7276   */\n      0x00\n        /* \"#utility.yul\":7272:7273   */\n      dup1\n        /* \"#utility.yul\":7265:7277   */\n      revert\n        /* \"#utility.yul\":7289:7597   */\n    tag_71:\n        /* \"#utility.yul\":7351:7355   */\n      0x00\n        /* \"#utility.yul\":7441:7459   */\n      0xffffffffffffffff\n        /* \"#utility.yul\":7433:7439   */\n      dup3\n        /* \"#utility.yul\":7430:7460   */\n      gt\n        /* \"#utility.yul\":7427:7483   */\n      iszero\n      tag_165\n      jumpi\n        /* \"#utility.yul\":7463:7481   */\n      tag_166\n      tag_65\n      jump\t// in\n    tag_166:\n        /* \"#utility.yul\":7427:7483   */\n    tag_165:\n        /* \"#utility.yul\":7501:7530   */\n      tag_167\n        /* \"#utility.yul\":7523:7529   */\n      dup3\n        /* \"#utility.yul\":7501:7530   */\n      tag_46\n      jump\t// in\n    tag_167:\n        /* \"#utility.yul\":7493:7530   */\n      swap1\n      pop\n        /* \"#utility.yul\":7585:7589   */\n      0x20\n        /* \"#utility.yul\":7579:7583   */\n      dup2\n        /* \"#utility.yul\":7575:7590   */\n      add\n        /* \"#utility.yul\":7567:7590   */\n      swap1\n      pop\n        /* \"#utility.yul\":7289:7597   */\n      swap2\n      swap1\n      pop\n      jump\t// out\n        /* \"#utility.yul\":7603:7749   */\n    tag_72:\n        /* \"#utility.yul\":7700:7706   */\n      dup3\n        /* \"#utility.yul\":7695:7698   */\n      dup2\n        /* \"#utility.yul\":7690:7693   */\n      dup4\n        /* \"#utility.yul\":7677:7707   */\n      calldatacopy\n        /* \"#utility.yul\":7741:7742   */\n      0x00\n        /* \"#utility.yul\":7732:7738   */\n      dup4\n        /* \"#utility.yul\":7727:7730   */\n      dup4\n        /* \"#utility.yul\":7723:7739   */\n      add\n        /* \"#utility.yul\":7716:7743   */\n      mstore\n        /* \"#utility.yul\":7603:7749   */\n      pop\n      pop\n      pop\n      jump\t// out\n        /* \"#utility.yul\":7755:8180   */\n    tag_73:\n        /* \"#utility.yul\":7833:7838   */\n      0x00\n        /* \"#utility.yul\":7858:7924   */\n      tag_170\n        /* \"#utility.yul\":7874:7923   */\n      tag_171\n        /* \"#utility.yul\":7916:7922   */\n      dup5\n        /* \"#utility.yul\":7874:7923   */\n      tag_71\n      jump\t// in\n    tag_171:\n        /* \"#utility.yul\":7858:7924   */\n      tag_67\n      jump\t// in\n    tag_170:\n        /* \"#utility.yul\":7849:7924   */\n      swap1\n      pop\n        /* \"#utility.yul\":7947:7953   */\n      dup3\n        /* \"#utility.yul\":7940:7945   */\n      dup2\n        /* \"#utility.yul\":7933:7954   */\n      mstore\n        /* \"#utility.yul\":7985:7989   */\n      0x20\n        /* \"#utility.yul\":7978:7983   */\n      dup2\n        /* \"#utility.yul\":7974:7990   */\n      add\n        /* \"#utility.yul\":8023:8026   */\n      dup5\n        /* \"#utility.yul\":8014:8020   */\n      dup5\n        /* \"#utility.yul\":8009:8012   */\n      dup5\n        /* \"#utility.yul\":8005:8021   */\n      add\n        /* \"#utility.yul\":8002:8027   */\n      gt\n        /* \"#utility.yul\":7999:8111   */\n      iszero\n      tag_172\n      jumpi\n        /* \"#utility.yul\":8030:8109   */\n      tag_173\n      tag_70\n      jump\t// in\n    tag_173:\n        /* \"#utility.yul\":7999:8111   */\n    tag_172:\n        /* \"#utility.yul\":8120:8174   */\n      tag_174\n        /* \"#utility.yul\":8167:8173   */\n      dup5\n        /* \"#utility.yul\":8162:8165   */\n      dup3\n        /* \"#utility.yul\":8157:8160   */\n      dup6\n        /* \"#utility.yul\":8120:8174   */\n      tag_72\n      jump\t// in\n    tag_174:\n        /* \"#utility.yul\":7839:8180   */\n      pop\n        /* \"#utility.yul\":7755:8180   */\n      swap4\n      swap3\n      pop\n      pop\n      pop\n      jump\t// out\n        /* \"#utility.yul\":8200:8540   */\n    tag_74:\n        /* \"#utility.yul\":8256:8261   */\n      0x00\n        /* \"#utility.yul\":8305:8308   */\n      dup3\n        /* \"#utility.yul\":8298:8302   */\n      0x1f\n        /* \"#utility.yul\":8290:8296   */\n      dup4\n        /* \"#utility.yul\":8286:8303   */\n      add\n        /* \"#utility.yul\":8282:8309   */\n      slt\n        /* \"#utility.yul\":8272:8394   */\n      tag_176\n      jumpi\n        /* \"#utility.yul\":8313:8392   */\n      tag_177\n      tag_64\n      jump\t// in\n    tag_177:\n        /* \"#utility.yul\":8272:8394   */\n    tag_176:\n        /* \"#utility.yul\":8430:8436   */\n      dup2\n        /* \"#utility.yul\":8417:8437   */\n      calldataload\n        /* \"#utility.yul\":8455:8534   */\n      tag_178\n        /* \"#utility.yul\":8530:8533   */\n      dup5\n        /* \"#utility.yul\":8522:8528   */\n      dup3\n        /* \"#utility.yul\":8515:8519   */\n      0x20\n        /* \"#utility.yul\":8507:8513   */\n      dup7\n        /* \"#utility.yul\":8503:8520   */\n      add\n        /* \"#utility.yul\":8455:8534   */\n      tag_73\n      jump\t// in\n    tag_178:\n        /* \"#utility.yul\":8446:8534   */\n      swap2\n      pop\n        /* \"#utility.yul\":8262:8540   */\n      pop\n        /* \"#utility.yul\":8200:8540   */\n      swap3\n      swap2\n      pop\n      pop\n      jump\t// out\n        /* \"#utility.yul\":8562:9507   */\n    tag_75:\n        /* \"#utility.yul\":8668:8673   */\n      0x00\n        /* \"#utility.yul\":8693:8784   */\n      tag_180\n        /* \"#utility.yul\":8709:8783   */\n      tag_181\n        /* \"#utility.yul\":8776:8782   */\n      dup5\n        /* \"#utility.yul\":8709:8783   */\n      tag_68\n      jump\t// in\n    tag_181:\n        /* \"#utility.yul\":8693:8784   */\n      tag_67\n      jump\t// in\n    tag_180:\n        /* \"#utility.yul\":8684:8784   */\n      swap1\n      pop\n        /* \"#utility.yul\":8804:8809   */\n      dup1\n        /* \"#utility.yul\":8833:8839   */\n      dup4\n        /* \"#utility.yul\":8826:8831   */\n      dup3\n        /* \"#utility.yul\":8819:8840   */\n      mstore\n        /* \"#utility.yul\":8867:8871   */\n      0x20\n        /* \"#utility.yul\":8860:8865   */\n      dup3\n        /* \"#utility.yul\":8856:8872   */\n      add\n        /* \"#utility.yul\":8849:8872   */\n      swap1\n      pop\n        /* \"#utility.yul\":8920:8924   */\n      0x20\n        /* \"#utility.yul\":8912:8918   */\n      dup5\n        /* \"#utility.yul\":8908:8925   */\n      mul\n        /* \"#utility.yul\":8900:8906   */\n      dup4\n        /* \"#utility.yul\":8896:8926   */\n      add\n        /* \"#utility.yul\":8949:8952   */\n      dup6\n        /* \"#utility.yul\":8941:8947   */\n      dup2\n        /* \"#utility.yul\":8938:8953   */\n      gt\n        /* \"#utility.yul\":8935:9057   */\n      iszero\n      tag_182\n      jumpi\n        /* \"#utility.yul\":8968:9047   */\n      tag_183\n      tag_69\n      jump\t// in\n    tag_183:\n        /* \"#utility.yul\":8935:9057   */\n    tag_182:\n        /* \"#utility.yul\":9083:9089   */\n      dup4\n        /* \"#utility.yul\":9066:9501   */\n    tag_184:\n        /* \"#utility.yul\":9100:9106   */\n      dup2\n        /* \"#utility.yul\":9095:9098   */\n      dup2\n        /* \"#utility.yul\":9092:9107   */\n      lt\n        /* \"#utility.yul\":9066:9501   */\n      iszero\n      tag_186\n      jumpi\n        /* \"#utility.yul\":9189:9192   */\n      dup1\n        /* \"#utility.yul\":9176:9193   */\n      calldataload\n        /* \"#utility.yul\":9225:9243   */\n      0xffffffffffffffff\n        /* \"#utility.yul\":9212:9223   */\n      dup2\n        /* \"#utility.yul\":9209:9244   */\n      gt\n        /* \"#utility.yul\":9206:9328   */\n      iszero\n      tag_187\n      jumpi\n        /* \"#utility.yul\":9247:9326   */\n      tag_188\n      tag_64\n      jump\t// in\n    tag_188:\n        /* \"#utility.yul\":9206:9328   */\n    tag_187:\n        /* \"#utility.yul\":9371:9382   */\n      dup1\n        /* \"#utility.yul\":9363:9369   */\n      dup7\n        /* \"#utility.yul\":9359:9383   */\n      add\n        /* \"#utility.yul\":9409:9456   */\n      tag_189\n        /* \"#utility.yul\":9452:9455   */\n      dup10\n        /* \"#utility.yul\":9440:9450   */\n      dup3\n        /* \"#utility.yul\":9409:9456   */\n      tag_74\n      jump\t// in\n    tag_189:\n        /* \"#utility.yul\":9404:9407   */\n      dup6\n        /* \"#utility.yul\":9397:9457   */\n      mstore\n        /* \"#utility.yul\":9486:9490   */\n      0x20\n        /* \"#utility.yul\":9481:9484   */\n      dup6\n        /* \"#utility.yul\":9477:9491   */\n      add\n        /* \"#utility.yul\":9470:9491   */\n      swap5\n      pop\n        /* \"#utility.yul\":9142:9501   */\n      pop\n      pop\n        /* \"#utility.yul\":9126:9130   */\n      0x20\n        /* \"#utility.yul\":9121:9124   */\n      dup2\n        /* \"#utility.yul\":9117:9131   */\n      add\n        /* \"#utility.yul\":9110:9131   */\n      swap1\n      pop\n        /* \"#utility.yul\":9066:9501   */\n      jump(tag_184)\n    tag_186:\n        /* \"#utility.yul\":9070:9091   */\n      pop\n        /* \"#utility.yul\":8674:9507   */\n      pop\n      pop\n        /* \"#utility.yul\":8562:9507   */\n      swap4\n      swap3\n      pop\n      pop\n      pop\n      jump\t// out\n        /* \"#utility.yul\":9529:9919   */\n    tag_76:\n        /* \"#utility.yul\":9610:9615   */\n      0x00\n        /* \"#utility.yul\":9659:9662   */\n      dup3\n        /* \"#utility.yul\":9652:9656   */\n      0x1f\n        /* \"#utility.yul\":9644:9650   */\n      dup4\n        /* \"#utility.yul\":9640:9657   */\n      add\n        /* \"#utility.yul\":9636:9663   */\n      slt\n        /* \"#utility.yul\":9626:9748   */\n      tag_191\n      jumpi\n        /* \"#utility.yul\":9667:9746   */\n      tag_192\n      tag_64\n      jump\t// in\n    tag_192:\n        /* \"#utility.yul\":9626:9748   */\n    tag_191:\n        /* \"#utility.yul\":9784:9790   */\n      dup2\n        /* \"#utility.yul\":9771:9791   */\n      calldataload\n        /* \"#utility.yul\":9809:9913   */\n      tag_193\n        /* \"#utility.yul\":9909:9912   */\n      dup5\n        /* \"#utility.yul\":9901:9907   */\n      dup3\n        /* \"#utility.yul\":9894:9898   */\n      0x20\n        /* \"#utility.yul\":9886:9892   */\n      dup7\n        /* \"#utility.yul\":9882:9899   */\n      add\n        /* \"#utility.yul\":9809:9913   */\n      tag_75\n      jump\t// in\n    tag_193:\n        /* \"#utility.yul\":9800:9913   */\n      swap2\n      pop\n        /* \"#utility.yul\":9616:9919   */\n      pop\n        /* \"#utility.yul\":9529:9919   */\n      swap3\n      swap2\n      pop\n      pop\n      jump\t// out\n        /* \"#utility.yul\":9925:10484   */\n    tag_16:\n        /* \"#utility.yul\":10019:10025   */\n      0x00\n        /* \"#utility.yul\":10068:10070   */\n      0x20\n        /* \"#utility.yul\":10056:10065   */\n      dup3\n        /* \"#utility.yul\":10047:10054   */\n      dup5\n        /* \"#utility.yul\":10043:10066   */\n      sub\n        /* \"#utility.yul\":10039:10071   */\n      slt\n        /* \"#utility.yul\":10036:10155   */\n      iszero\n      tag_195\n      jumpi\n        /* \"#utility.yul\":10074:10153   */\n      tag_196\n      tag_62\n      jump\t// in\n    tag_196:\n        /* \"#utility.yul\":10036:10155   */\n    tag_195:\n        /* \"#utility.yul\":10222:10223   */\n      0x00\n        /* \"#utility.yul\":10211:10220   */\n      dup3\n        /* \"#utility.yul\":10207:10224   */\n      add\n        /* \"#utility.yul\":10194:10225   */\n      calldataload\n        /* \"#utility.yul\":10252:10270   */\n      0xffffffffffffffff\n        /* \"#utility.yul\":10244:10250   */\n      dup2\n        /* \"#utility.yul\":10241:10271   */\n      gt\n        /* \"#utility.yul\":10238:10355   */\n      iszero\n      tag_197\n      jumpi\n        /* \"#utility.yul\":10274:10353   */\n      tag_198\n      tag_63\n      jump\t// in\n    tag_198:\n        /* \"#utility.yul\":10238:10355   */\n    tag_197:\n        /* \"#utility.yul\":10379:10467   */\n      tag_199\n        /* \"#utility.yul\":10459:10466   */\n      dup5\n        /* \"#utility.yul\":10450:10456   */\n      dup3\n        /* \"#utility.yul\":10439:10448   */\n      dup6\n        /* \"#utility.yul\":10435:10457   */\n      add\n        /* \"#utility.yul\":10379:10467   */\n      tag_76\n      jump\t// in\n    tag_199:\n        /* \"#utility.yul\":10369:10467   */\n      swap2\n      pop\n        /* \"#utility.yul\":10165:10477   */\n      pop\n        /* \"#utility.yul\":9925:10484   */\n      swap3\n      swap2\n      pop\n      pop\n      jump\t// out\n        /* \"#utility.yul\":10490:10924   */\n    tag_77:\n        /* \"#utility.yul\":10579:10584   */\n      0x00\n        /* \"#utility.yul\":10604:10670   */\n      tag_201\n        /* \"#utility.yul\":10620:10669   */\n      tag_202\n        /* \"#utility.yul\":10662:10668   */\n      dup5\n        /* \"#utility.yul\":10620:10669   */\n      tag_71\n      jump\t// in\n    tag_202:\n        /* \"#utility.yul\":10604:10670   */\n      tag_67\n      jump\t// in\n    tag_201:\n        /* \"#utility.yul\":10595:10670   */\n      swap1\n      pop\n        /* \"#utility.yul\":10693:10699   */\n      dup3\n        /* \"#utility.yul\":10686:10691   */\n      dup2\n        /* \"#utility.yul\":10679:10700   */\n      mstore\n        /* \"#utility.yul\":10731:10735   */\n      0x20\n        /* \"#utility.yul\":10724:10729   */\n      dup2\n        /* \"#utility.yul\":10720:10736   */\n      add\n        /* \"#utility.yul\":10769:10772   */\n      dup5\n        /* \"#utility.yul\":10760:10766   */\n      dup5\n        /* \"#utility.yul\":10755:10758   */\n      dup5\n        /* \"#utility.yul\":10751:10767   */\n      add\n        /* \"#utility.yul\":10748:10773   */\n      gt\n        /* \"#utility.yul\":10745:10857   */\n      iszero\n      tag_203\n      jumpi\n        /* \"#utility.yul\":10776:10855   */\n      tag_204\n      tag_70\n      jump\t// in\n    tag_204:\n        /* \"#utility.yul\":10745:10857   */\n    tag_203:\n        /* \"#utility.yul\":10866:10918   */\n      tag_205\n        /* \"#utility.yul\":10911:10917   */\n      dup5\n        /* \"#utility.yul\":10906:10909   */\n      dup3\n        /* \"#utility.yul\":10901:10904   */\n      dup6\n        /* \"#utility.yul\":10866:10918   */\n      tag_45\n      jump\t// in\n    tag_205:\n        /* \"#utility.yul\":10585:10924   */\n      pop\n        /* \"#utility.yul\":10490:10924   */\n      swap4\n      swap3\n      pop\n      pop\n      pop\n      jump\t// out\n        /* \"#utility.yul\":10944:11299   */\n    tag_78:\n        /* \"#utility.yul\":11011:11016   */\n      0x00\n        /* \"#utility.yul\":11060:11063   */\n      dup3\n        /* \"#utility.yul\":11053:11057   */\n      0x1f\n        /* \"#utility.yul\":11045:11051   */\n      dup4\n        /* \"#utility.yul\":11041:11058   */\n      add\n        /* \"#utility.yul\":11037:11064   */\n      slt\n        /* \"#utility.yul\":11027:11149   */\n      tag_207\n      jumpi\n        /* \"#utility.yul\":11068:11147   */\n      tag_208\n      tag_64\n      jump\t// in\n    tag_208:\n        /* \"#utility.yul\":11027:11149   */\n    tag_207:\n        /* \"#utility.yul\":11178:11184   */\n      dup2\n        /* \"#utility.yul\":11172:11185   */\n      mload\n        /* \"#utility.yul\":11203:11293   */\n      tag_209\n        /* \"#utility.yul\":11289:11292   */\n      dup5\n        /* \"#utility.yul\":11281:11287   */\n      dup3\n        /* \"#utility.yul\":11274:11278   */\n      0x20\n        /* \"#utility.yul\":11266:11272   */\n      dup7\n        /* \"#utility.yul\":11262:11279   */\n      add\n        /* \"#utility.yul\":11203:11293   */\n      tag_77\n      jump\t// in\n    tag_209:\n        /* \"#utility.yul\":11194:11293   */\n      swap2\n      pop\n        /* \"#utility.yul\":11017:11299   */\n      pop\n        /* \"#utility.yul\":10944:11299   */\n      swap3\n      swap2\n      pop\n      pop\n      jump\t// out\n        /* \"#utility.yul\":11321:12281   */\n    tag_79:\n        /* \"#utility.yul\":11438:11443   */\n      0x00\n        /* \"#utility.yul\":11463:11554   */\n      tag_211\n        /* \"#utility.yul\":11479:11553   */\n      tag_212\n        /* \"#utility.yul\":11546:11552   */\n      dup5\n        /* \"#utility.yul\":11479:11553   */\n      tag_68\n      jump\t// in\n    tag_212:\n        /* \"#utility.yul\":11463:11554   */\n      tag_67\n      jump\t// in\n    tag_211:\n        /* \"#utility.yul\":11454:11554   */\n      swap1\n      pop\n        /* \"#utility.yul\":11574:11579   */\n      dup1\n        /* \"#utility.yul\":11603:11609   */\n      dup4\n        /* \"#utility.yul\":11596:11601   */\n      dup3\n        /* \"#utility.yul\":11589:11610   */\n      mstore\n        /* \"#utility.yul\":11637:11641   */\n      0x20\n        /* \"#utility.yul\":11630:11635   */\n      dup3\n        /* \"#utility.yul\":11626:11642   */\n      add\n        /* \"#utility.yul\":11619:11642   */\n      swap1\n      pop\n        /* \"#utility.yul\":11690:11694   */\n      0x20\n        /* \"#utility.yul\":11682:11688   */\n      dup5\n        /* \"#utility.yul\":11678:11695   */\n      mul\n        /* \"#utility.yul\":11670:11676   */\n      dup4\n        /* \"#utility.yul\":11666:11696   */\n      add\n        /* \"#utility.yul\":11719:11722   */\n      dup6\n        /* \"#utility.yul\":11711:11717   */\n      dup2\n        /* \"#utility.yul\":11708:11723   */\n      gt\n        /* \"#utility.yul\":11705:11827   */\n      iszero\n      tag_213\n      jumpi\n        /* \"#utility.yul\":11738:11817   */\n      tag_214\n      tag_69\n      jump\t// in\n    tag_214:\n        /* \"#utility.yul\":11705:11827   */\n    tag_213:\n        /* \"#utility.yul\":11853:11859   */\n      dup4\n        /* \"#utility.yul\":11836:12275   */\n    tag_215:\n        /* \"#utility.yul\":11870:11876   */\n      dup2\n        /* \"#utility.yul\":11865:11868   */\n      dup2\n        /* \"#utility.yul\":11862:11877   */\n      lt\n        /* \"#utility.yul\":11836:12275   */\n      iszero\n      tag_217\n      jumpi\n        /* \"#utility.yul\":11952:11955   */\n      dup1\n        /* \"#utility.yul\":11946:11956   */\n      mload\n        /* \"#utility.yul\":11988:12006   */\n      0xffffffffffffffff\n        /* \"#utility.yul\":11975:11986   */\n      dup2\n        /* \"#utility.yul\":11972:12007   */\n      gt\n        /* \"#utility.yul\":11969:12091   */\n      iszero\n      tag_218\n      jumpi\n        /* \"#utility.yul\":12010:12089   */\n      tag_219\n      tag_64\n      jump\t// in\n    tag_219:\n        /* \"#utility.yul\":11969:12091   */\n    tag_218:\n        /* \"#utility.yul\":12134:12145   */\n      dup1\n        /* \"#utility.yul\":12126:12132   */\n      dup7\n        /* \"#utility.yul\":12122:12146   */\n      add\n        /* \"#utility.yul\":12172:12230   */\n      tag_220\n        /* \"#utility.yul\":12226:12229   */\n      dup10\n        /* \"#utility.yul\":12214:12224   */\n      dup3\n        /* \"#utility.yul\":12172:12230   */\n      tag_78\n      jump\t// in\n    tag_220:\n        /* \"#utility.yul\":12167:12170   */\n      dup6\n        /* \"#utility.yul\":12160:12231   */\n      mstore\n        /* \"#utility.yul\":12260:12264   */\n      0x20\n        /* \"#utility.yul\":12255:12258   */\n      dup6\n        /* \"#utility.yul\":12251:12265   */\n      add\n        /* \"#utility.yul\":12244:12265   */\n      swap5\n      pop\n        /* \"#utility.yul\":11912:12275   */\n      pop\n      pop\n        /* \"#utility.yul\":11896:11900   */\n      0x20\n        /* \"#utility.yul\":11891:11894   */\n      dup2\n        /* \"#utility.yul\":11887:11901   */\n      add\n        /* \"#utility.yul\":11880:11901   */\n      swap1\n      pop\n        /* \"#utility.yul\":11836:12275   */\n      jump(tag_215)\n    tag_217:\n        /* \"#utility.yul\":11840:11861   */\n      pop\n        /* \"#utility.yul\":11444:12281   */\n      pop\n      pop\n        /* \"#utility.yul\":11321:12281   */\n      swap4\n      swap3\n      pop\n      pop\n      pop\n      jump\t// out\n        /* \"#utility.yul\":12303:12708   */\n    tag_80:\n        /* \"#utility.yul\":12395:12400   */\n      0x00\n        /* \"#utility.yul\":12444:12447   */\n      dup3\n        /* \"#utility.yul\":12437:12441   */\n      0x1f\n        /* \"#utility.yul\":12429:12435   */\n      dup4\n        /* \"#utility.yul\":12425:12442   */\n      add\n        /* \"#utility.yul\":12421:12448   */\n      slt\n        /* \"#utility.yul\":12411:12533   */\n      tag_222\n      jumpi\n        /* \"#utility.yul\":12452:12531   */\n      tag_223\n      tag_64\n      jump\t// in\n    tag_223:\n        /* \"#utility.yul\":12411:12533   */\n    tag_222:\n        /* \"#utility.yul\":12562:12568   */\n      dup2\n        /* \"#utility.yul\":12556:12569   */\n      mload\n        /* \"#utility.yul\":12587:12702   */\n      tag_224\n        /* \"#utility.yul\":12698:12701   */\n      dup5\n        /* \"#utility.yul\":12690:12696   */\n      dup3\n        /* \"#utility.yul\":12683:12687   */\n      0x20\n        /* \"#utility.yul\":12675:12681   */\n      dup7\n        /* \"#utility.yul\":12671:12688   */\n      add\n        /* \"#utility.yul\":12587:12702   */\n      tag_79\n      jump\t// in\n    tag_224:\n        /* \"#utility.yul\":12578:12702   */\n      swap2\n      pop\n        /* \"#utility.yul\":12401:12708   */\n      pop\n        /* \"#utility.yul\":12303:12708   */\n      swap3\n      swap2\n      pop\n      pop\n      jump\t// out\n        /* \"#utility.yul\":12714:13025   */\n    tag_81:\n        /* \"#utility.yul\":12791:12795   */\n      0x00\n        /* \"#utility.yul\":12881:12899   */\n      0xffffffffffffffff\n        /* \"#utility.yul\":12873:12879   */\n      dup3\n        /* \"#utility.yul\":12870:12900   */\n      gt\n        /* \"#utility.yul\":12867:12923   */\n      iszero\n      tag_226\n      jumpi\n        /* \"#utility.yul\":12903:12921   */\n      tag_227\n      tag_65\n      jump\t// in\n    tag_227:\n        /* \"#utility.yul\":12867:12923   */\n    tag_226:\n        /* \"#utility.yul\":12953:12957   */\n      0x20\n        /* \"#utility.yul\":12945:12951   */\n      dup3\n        /* \"#utility.yul\":12941:12958   */\n      mul\n        /* \"#utility.yul\":12933:12958   */\n      swap1\n      pop\n        /* \"#utility.yul\":13013:13017   */\n      0x20\n        /* \"#utility.yul\":13007:13011   */\n      dup2\n        /* \"#utility.yul\":13003:13018   */\n      add\n        /* \"#utility.yul\":12995:13018   */\n      swap1\n      pop\n        /* \"#utility.yul\":12714:13025   */\n      swap2\n      swap1\n      pop\n      jump\t// out\n        /* \"#utility.yul\":13031:13153   */\n    tag_82:\n        /* \"#utility.yul\":13104:13128   */\n      tag_229\n        /* \"#utility.yul\":13122:13127   */\n      dup2\n        /* \"#utility.yul\":13104:13128   */\n      tag_54\n      jump\t// in\n    tag_229:\n        /* \"#utility.yul\":13097:13102   */\n      dup2\n        /* \"#utility.yul\":13094:13129   */\n      eq\n        /* \"#utility.yul\":13084:13147   */\n      tag_230\n      jumpi\n        /* \"#utility.yul\":13143:13144   */\n      0x00\n        /* \"#utility.yul\":13140:13141   */\n      dup1\n        /* \"#utility.yul\":13133:13145   */\n      revert\n        /* \"#utility.yul\":13084:13147   */\n    tag_230:\n        /* \"#utility.yul\":13031:13153   */\n      pop\n      jump\t// out\n        /* \"#utility.yul\":13159:13302   */\n    tag_83:\n        /* \"#utility.yul\":13216:13221   */\n      0x00\n        /* \"#utility.yul\":13247:13253   */\n      dup2\n        /* \"#utility.yul\":13241:13254   */\n      mload\n        /* \"#utility.yul\":13232:13254   */\n      swap1\n      pop\n        /* \"#utility.yul\":13263:13296   */\n      tag_232\n        /* \"#utility.yul\":13290:13295   */\n      dup2\n        /* \"#utility.yul\":13263:13296   */\n      tag_82\n      jump\t// in\n    tag_232:\n        /* \"#utility.yul\":13159:13302   */\n      swap3\n      swap2\n      pop\n      pop\n      jump\t// out\n        /* \"#utility.yul\":13325:14057   */\n    tag_84:\n        /* \"#utility.yul\":13432:13437   */\n      0x00\n        /* \"#utility.yul\":13457:13538   */\n      tag_234\n        /* \"#utility.yul\":13473:13537   */\n      tag_235\n        /* \"#utility.yul\":13530:13536   */\n      dup5\n        /* \"#utility.yul\":13473:13537   */\n      tag_81\n      jump\t// in\n    tag_235:\n        /* \"#utility.yul\":13457:13538   */\n      tag_67\n      jump\t// in\n    tag_234:\n        /* \"#utility.yul\":13448:13538   */\n      swap1\n      pop\n        /* \"#utility.yul\":13558:13563   */\n      dup1\n        /* \"#utility.yul\":13587:13593   */\n      dup4\n        /* \"#utility.yul\":13580:13585   */\n      dup3\n        /* \"#utility.yul\":13573:13594   */\n      mstore\n        /* \"#utility.yul\":13621:13625   */\n      0x20\n        /* \"#utility.yul\":13614:13619   */\n      dup3\n        /* \"#utility.yul\":13610:13626   */\n      add\n        /* \"#utility.yul\":13603:13626   */\n      swap1\n      pop\n        /* \"#utility.yul\":13674:13678   */\n      0x20\n        /* \"#utility.yul\":13666:13672   */\n      dup5\n        /* \"#utility.yul\":13662:13679   */\n      mul\n        /* \"#utility.yul\":13654:13660   */\n      dup4\n        /* \"#utility.yul\":13650:13680   */\n      add\n        /* \"#utility.yul\":13703:13706   */\n      dup6\n        /* \"#utility.yul\":13695:13701   */\n      dup2\n        /* \"#utility.yul\":13692:13707   */\n      gt\n        /* \"#utility.yul\":13689:13811   */\n      iszero\n      tag_236\n      jumpi\n        /* \"#utility.yul\":13722:13801   */\n      tag_237\n      tag_69\n      jump\t// in\n    tag_237:\n        /* \"#utility.yul\":13689:13811   */\n    tag_236:\n        /* \"#utility.yul\":13837:13843   */\n      dup4\n        /* \"#utility.yul\":13820:14051   */\n    tag_238:\n        /* \"#utility.yul\":13854:13860   */\n      dup2\n        /* \"#utility.yul\":13849:13852   */\n      dup2\n        /* \"#utility.yul\":13846:13861   */\n      lt\n        /* \"#utility.yul\":13820:14051   */\n      iszero\n      tag_240\n      jumpi\n        /* \"#utility.yul\":13929:13932   */\n      dup1\n        /* \"#utility.yul\":13958:14006   */\n      tag_241\n        /* \"#utility.yul\":14002:14005   */\n      dup9\n        /* \"#utility.yul\":13990:14000   */\n      dup3\n        /* \"#utility.yul\":13958:14006   */\n      tag_83\n      jump\t// in\n    tag_241:\n        /* \"#utility.yul\":13953:13956   */\n      dup5\n        /* \"#utility.yul\":13946:14007   */\n      mstore\n        /* \"#utility.yul\":14036:14040   */\n      0x20\n        /* \"#utility.yul\":14031:14034   */\n      dup5\n        /* \"#utility.yul\":14027:14041   */\n      add\n        /* \"#utility.yul\":14020:14041   */\n      swap4\n      pop\n        /* \"#utility.yul\":13896:14051   */\n      pop\n        /* \"#utility.yul\":13880:13884   */\n      0x20\n        /* \"#utility.yul\":13875:13878   */\n      dup2\n        /* \"#utility.yul\":13871:13885   */\n      add\n        /* \"#utility.yul\":13864:13885   */\n      swap1\n      pop\n        /* \"#utility.yul\":13820:14051   */\n      jump(tag_238)\n    tag_240:\n        /* \"#utility.yul\":13824:13845   */\n      pop\n        /* \"#utility.yul\":13438:14057   */\n      pop\n      pop\n        /* \"#utility.yul\":13325:14057   */\n      swap4\n      swap3\n      pop\n      pop\n      pop\n      jump\t// out\n        /* \"#utility.yul\":14080:14465   */\n    tag_85:\n        /* \"#utility.yul\":14162:14167   */\n      0x00\n        /* \"#utility.yul\":14211:14214   */\n      dup3\n        /* \"#utility.yul\":14204:14208   */\n      0x1f\n        /* \"#utility.yul\":14196:14202   */\n      dup4\n        /* \"#utility.yul\":14192:14209   */\n      add\n        /* \"#utility.yul\":14188:14215   */\n      slt\n        /* \"#utility.yul\":14178:14300   */\n      tag_243\n      jumpi\n        /* \"#utility.yul\":14219:14298   */\n      tag_244\n      tag_64\n      jump\t// in\n    tag_244:\n        /* \"#utility.yul\":14178:14300   */\n    tag_243:\n        /* \"#utility.yul\":14329:14335   */\n      dup2\n        /* \"#utility.yul\":14323:14336   */\n      mload\n        /* \"#utility.yul\":14354:14459   */\n      tag_245\n        /* \"#utility.yul\":14455:14458   */\n      dup5\n        /* \"#utility.yul\":14447:14453   */\n      dup3\n        /* \"#utility.yul\":14440:14444   */\n      0x20\n        /* \"#utility.yul\":14432:14438   */\n      dup7\n        /* \"#utility.yul\":14428:14445   */\n      add\n        /* \"#utility.yul\":14354:14459   */\n      tag_84\n      jump\t// in\n    tag_245:\n        /* \"#utility.yul\":14345:14459   */\n      swap2\n      pop\n        /* \"#utility.yul\":14168:14465   */\n      pop\n        /* \"#utility.yul\":14080:14465   */\n      swap3\n      swap2\n      pop\n      pop\n      jump\t// out\n        /* \"#utility.yul\":14471:15404   */\n    tag_22:\n        /* \"#utility.yul\":14610:14616   */\n      0x00\n        /* \"#utility.yul\":14618:14624   */\n      dup1\n        /* \"#utility.yul\":14667:14669   */\n      0x40\n        /* \"#utility.yul\":14655:14664   */\n      dup4\n        /* \"#utility.yul\":14646:14653   */\n      dup6\n        /* \"#utility.yul\":14642:14665   */\n      sub\n        /* \"#utility.yul\":14638:14670   */\n      slt\n        /* \"#utility.yul\":14635:14754   */\n      iszero\n      tag_247\n      jumpi\n        /* \"#utility.yul\":14673:14752   */\n      tag_248\n      tag_62\n      jump\t// in\n    tag_248:\n        /* \"#utility.yul\":14635:14754   */\n    tag_247:\n        /* \"#utility.yul\":14814:14815   */\n      0x00\n        /* \"#utility.yul\":14803:14812   */\n      dup4\n        /* \"#utility.yul\":14799:14816   */\n      add\n        /* \"#utility.yul\":14793:14817   */\n      mload\n        /* \"#utility.yul\":14844:14862   */\n      0xffffffffffffffff\n        /* \"#utility.yul\":14836:14842   */\n      dup2\n        /* \"#utility.yul\":14833:14863   */\n      gt\n        /* \"#utility.yul\":14830:14947   */\n      iszero\n      tag_249\n      jumpi\n        /* \"#utility.yul\":14866:14945   */\n      tag_250\n      tag_63\n      jump\t// in\n    tag_250:\n        /* \"#utility.yul\":14830:14947   */\n    tag_249:\n        /* \"#utility.yul\":14971:15070   */\n      tag_251\n        /* \"#utility.yul\":15062:15069   */\n      dup6\n        /* \"#utility.yul\":15053:15059   */\n      dup3\n        /* \"#utility.yul\":15042:15051   */\n      dup7\n        /* \"#utility.yul\":15038:15060   */\n      add\n        /* \"#utility.yul\":14971:15070   */\n      tag_80\n      jump\t// in\n    tag_251:\n        /* \"#utility.yul\":14961:15070   */\n      swap3\n      pop\n        /* \"#utility.yul\":14764:15080   */\n      pop\n        /* \"#utility.yul\":15140:15142   */\n      0x20\n        /* \"#utility.yul\":15129:15138   */\n      dup4\n        /* \"#utility.yul\":15125:15143   */\n      add\n        /* \"#utility.yul\":15119:15144   */\n      mload\n        /* \"#utility.yul\":15171:15189   */\n      0xffffffffffffffff\n        /* \"#utility.yul\":15163:15169   */\n      dup2\n        /* \"#utility.yul\":15160:15190   */\n      gt\n        /* \"#utility.yul\":15157:15274   */\n      iszero\n      tag_252\n      jumpi\n        /* \"#utility.yul\":15193:15272   */\n      tag_253\n      tag_63\n      jump\t// in\n    tag_253:\n        /* \"#utility.yul\":15157:15274   */\n    tag_252:\n        /* \"#utility.yul\":15298:15387   */\n      tag_254\n        /* \"#utility.yul\":15379:15386   */\n      dup6\n        /* \"#utility.yul\":15370:15376   */\n      dup3\n        /* \"#utility.yul\":15359:15368   */\n      dup7\n        /* \"#utility.yul\":15355:15377   */\n      add\n        /* \"#utility.yul\":15298:15387   */\n      tag_85\n      jump\t// in\n    tag_254:\n        /* \"#utility.yul\":15288:15387   */\n      swap2\n      pop\n        /* \"#utility.yul\":15090:15397   */\n      pop\n        /* \"#utility.yul\":14471:15404   */\n      swap3\n      pop\n      swap3\n      swap1\n      pop\n      jump\t// out\n        /* \"#utility.yul\":15410:15536   */\n    tag_86:\n        /* \"#utility.yul\":15447:15454   */\n      0x00\n        /* \"#utility.yul\":15487:15529   */\n      0xffffffffffffffffffffffffffffffffffffffff\n        /* \"#utility.yul\":15480:15485   */\n      dup3\n        /* \"#utility.yul\":15476:15530   */\n      and\n        /* \"#utility.yul\":15465:15530   */\n      swap1\n      pop\n        /* \"#utility.yul\":15410:15536   */\n      swap2\n      swap1\n      pop\n      jump\t// out\n        /* \"#utility.yul\":15542:15638   */\n    tag_87:\n        /* \"#utility.yul\":15579:15586   */\n      0x00\n        /* \"#utility.yul\":15608:15632   */\n      tag_257\n        /* \"#utility.yul\":15626:15631   */\n      dup3\n        /* \"#utility.yul\":15608:15632   */\n      tag_86\n      jump\t// in\n    tag_257:\n        /* \"#utility.yul\":15597:15632   */\n      swap1\n      pop\n        /* \"#utility.yul\":15542:15638   */\n      swap2\n      swap1\n      pop\n      jump\t// out\n        /* \"#utility.yul\":15644:15766   */\n    tag_88:\n        /* \"#utility.yul\":15717:15741   */\n      tag_259\n        /* \"#utility.yul\":15735:15740   */\n      dup2\n        /* \"#utility.yul\":15717:15741   */\n      tag_87\n      jump\t// in\n    tag_259:\n        /* \"#utility.yul\":15710:15715   */\n      dup2\n        /* \"#utility.yul\":15707:15742   */\n      eq\n        /* \"#utility.yul\":15697:15760   */\n      tag_260\n      jumpi\n        /* \"#utility.yul\":15756:15757   */\n      0x00\n        /* \"#utility.yul\":15753:15754   */\n      dup1\n        /* \"#utility.yul\":15746:15758   */\n      revert\n        /* \"#utility.yul\":15697:15760   */\n    tag_260:\n        /* \"#utility.yul\":15644:15766   */\n      pop\n      jump\t// out\n        /* \"#utility.yul\":15772:15915   */\n    tag_89:\n        /* \"#utility.yul\":15829:15834   */\n      0x00\n        /* \"#utility.yul\":15860:15866   */\n      dup2\n        /* \"#utility.yul\":15854:15867   */\n      mload\n        /* \"#utility.yul\":15845:15867   */\n      swap1\n      pop\n        /* \"#utility.yul\":15876:15909   */\n      tag_262\n        /* \"#utility.yul\":15903:15908   */\n      dup2\n        /* \"#utility.yul\":15876:15909   */\n      tag_88\n      jump\t// in\n    tag_262:\n        /* \"#utility.yul\":15772:15915   */\n      swap3\n      swap2\n      pop\n      pop\n      jump\t// out\n        /* \"#utility.yul\":15921:16272   */\n    tag_27:\n        /* \"#utility.yul\":15991:15997   */\n      0x00\n        /* \"#utility.yul\":16040:16042   */\n      0x20\n        /* \"#utility.yul\":16028:16037   */\n      dup3\n        /* \"#utility.yul\":16019:16026   */\n      dup5\n        /* \"#utility.yul\":16015:16038   */\n      sub\n        /* \"#utility.yul\":16011:16043   */\n      slt\n        /* \"#utility.yul\":16008:16127   */\n      iszero\n      tag_264\n      jumpi\n        /* \"#utility.yul\":16046:16125   */\n      tag_265\n      tag_62\n      jump\t// in\n    tag_265:\n        /* \"#utility.yul\":16008:16127   */\n    tag_264:\n        /* \"#utility.yul\":16166:16167   */\n      0x00\n        /* \"#utility.yul\":16191:16255   */\n      tag_266\n        /* \"#utility.yul\":16247:16254   */\n      dup5\n        /* \"#utility.yul\":16238:16244   */\n      dup3\n        /* \"#utility.yul\":16227:16236   */\n      dup6\n        /* \"#utility.yul\":16223:16245   */\n      add\n        /* \"#utility.yul\":16191:16255   */\n      tag_89\n      jump\t// in\n    tag_266:\n        /* \"#utility.yul\":16181:16255   */\n      swap2\n      pop\n        /* \"#utility.yul\":16137:16265   */\n      pop\n        /* \"#utility.yul\":15921:16272   */\n      swap3\n      swap2\n      pop\n      pop\n      jump\t// out\n        /* \"#utility.yul\":16278:16394   */\n    tag_90:\n        /* \"#utility.yul\":16348:16369   */\n      tag_268\n        /* \"#utility.yul\":16363:16368   */\n      dup2\n        /* \"#utility.yul\":16348:16369   */\n      tag_59\n      jump\t// in\n    tag_268:\n        /* \"#utility.yul\":16341:16346   */\n      dup2\n        /* \"#utility.yul\":16338:16370   */\n      eq\n        /* \"#utility.yul\":16328:16388   */\n      tag_269\n      jumpi\n        /* \"#utility.yul\":16384:16385   */\n      0x00\n        /* \"#utility.yul\":16381:16382   */\n      dup1\n        /* \"#utility.yul\":16374:16386   */\n      revert\n        /* \"#utility.yul\":16328:16388   */\n    tag_269:\n        /* \"#utility.yul\":16278:16394   */\n      pop\n      jump\t// out\n        /* \"#utility.yul\":16400:16537   */\n    tag_91:\n        /* \"#utility.yul\":16454:16459   */\n      0x00\n        /* \"#utility.yul\":16485:16491   */\n      dup2\n        /* \"#utility.yul\":16479:16492   */\n      mload\n        /* \"#utility.yul\":16470:16492   */\n      swap1\n      pop\n        /* \"#utility.yul\":16501:16531   */\n      tag_271\n        /* \"#utility.yul\":16525:16530   */\n      dup2\n        /* \"#utility.yul\":16501:16531   */\n      tag_90\n      jump\t// in\n    tag_271:\n        /* \"#utility.yul\":16400:16537   */\n      swap3\n      swap2\n      pop\n      pop\n      jump\t// out\n        /* \"#utility.yul\":16543:16888   */\n    tag_32:\n        /* \"#utility.yul\":16610:16616   */\n      0x00\n        /* \"#utility.yul\":16659:16661   */\n      0x20\n        /* \"#utility.yul\":16647:16656   */\n      dup3\n        /* \"#utility.yul\":16638:16645   */\n      dup5\n        /* \"#utility.yul\":16634:16657   */\n      sub\n        /* \"#utility.yul\":16630:16662   */\n      slt\n        /* \"#utility.yul\":16627:16746   */\n      iszero\n      tag_273\n      jumpi\n        /* \"#utility.yul\":16665:16744   */\n      tag_274\n      tag_62\n      jump\t// in\n    tag_274:\n        /* \"#utility.yul\":16627:16746   */\n    tag_273:\n        /* \"#utility.yul\":16785:16786   */\n      0x00\n        /* \"#utility.yul\":16810:16871   */\n      tag_275\n        /* \"#utility.yul\":16863:16870   */\n      dup5\n        /* \"#utility.yul\":16854:16860   */\n      dup3\n        /* \"#utility.yul\":16843:16852   */\n      dup6\n        /* \"#utility.yul\":16839:16861   */\n      add\n        /* \"#utility.yul\":16810:16871   */\n      tag_91\n      jump\t// in\n    tag_275:\n        /* \"#utility.yul\":16800:16871   */\n      swap2\n      pop\n        /* \"#utility.yul\":16756:16881   */\n      pop\n        /* \"#utility.yul\":16543:16888   */\n      swap3\n      swap2\n      pop\n      pop\n      jump\t// out\n        /* \"#utility.yul\":16894:17012   */\n    tag_92:\n        /* \"#utility.yul\":16981:17005   */\n      tag_277\n        /* \"#utility.yul\":16999:17004   */\n      dup2\n        /* \"#utility.yul\":16981:17005   */\n      tag_87\n      jump\t// in\n    tag_277:\n        /* \"#utility.yul\":16976:16979   */\n      dup3\n        /* \"#utility.yul\":16969:17006   */\n      mstore\n        /* \"#utility.yul\":16894:17012   */\n      pop\n      pop\n      jump\t// out\n        /* \"#utility.yul\":17018:17541   */\n    tag_38:\n        /* \"#utility.yul\":17209:17213   */\n      0x00\n        /* \"#utility.yul\":17247:17249   */\n      0x40\n        /* \"#utility.yul\":17236:17245   */\n      dup3\n        /* \"#utility.yul\":17232:17250   */\n      add\n        /* \"#utility.yul\":17224:17250   */\n      swap1\n      pop\n        /* \"#utility.yul\":17260:17331   */\n      tag_279\n        /* \"#utility.yul\":17328:17329   */\n      0x00\n        /* \"#utility.yul\":17317:17326   */\n      dup4\n        /* \"#utility.yul\":17313:17330   */\n      add\n        /* \"#utility.yul\":17304:17310   */\n      dup6\n        /* \"#utility.yul\":17260:17331   */\n      tag_92\n      jump\t// in\n    tag_279:\n        /* \"#utility.yul\":17378:17387   */\n      dup2\n        /* \"#utility.yul\":17372:17376   */\n      dup2\n        /* \"#utility.yul\":17368:17388   */\n      sub\n        /* \"#utility.yul\":17363:17365   */\n      0x20\n        /* \"#utility.yul\":17352:17361   */\n      dup4\n        /* \"#utility.yul\":17348:17366   */\n      add\n        /* \"#utility.yul\":17341:17389   */\n      mstore\n        /* \"#utility.yul\":17406:17534   */\n      tag_280\n        /* \"#utility.yul\":17529:17533   */\n      dup2\n        /* \"#utility.yul\":17520:17526   */\n      dup5\n        /* \"#utility.yul\":17406:17534   */\n      tag_50\n      jump\t// in\n    tag_280:\n        /* \"#utility.yul\":17398:17534   */\n      swap1\n      pop\n        /* \"#utility.yul\":17018:17541   */\n      swap4\n      swap3\n      pop\n      pop\n      pop\n      jump\t// out\n    stop\n\n    sub_0: assembly {\n            /* \"blockchain/contracts/Election.sol\":158:2177  contract Election {... */\n          mstore(0x40, 0x80)\n            /* \"blockchain/contracts/Election.sol\":590:908  constructor(address _owner, string[] memory _candidates) {... */\n          callvalue\n          dup1\n          iszero\n          tag_1\n          jumpi\n          0x00\n          dup1\n          revert\n        tag_1:\n          pop\n          mload(0x40)\n          sub(codesize, bytecodeSize)\n          dup1\n          bytecodeSize\n          dup4\n          codecopy\n          dup2\n          dup2\n          add\n          0x40\n          mstore\n          dup2\n          add\n          swap1\n          tag_2\n          swap2\n          swap1\n          tag_3\n          jump\t// in\n        tag_2:\n            /* \"blockchain/contracts/Election.sol\":666:672  _owner */\n          dup2\n            /* \"blockchain/contracts/Election.sol\":658:663  owner */\n          0x00\n          dup1\n            /* \"blockchain/contracts/Election.sol\":658:672  owner = _owner */\n          0x0100\n          exp\n          dup2\n          sload\n          dup2\n          0xffffffffffffffffffffffffffffffffffffffff\n          mul\n          not\n          and\n          swap1\n          dup4\n          0xffffffffffffffffffffffffffffffffffffffff\n          and\n          mul\n          or\n          swap1\n          sstore\n          pop\n            /* \"blockchain/contracts/Election.sol\":695:710  block.timestamp */\n          timestamp\n            /* \"blockchain/contracts/Election.sol\":683:692  timestamp */\n          0x01\n            /* \"blockchain/contracts/Election.sol\":683:710  timestamp = block.timestamp */\n          dup2\n          swap1\n          sstore\n          pop\n            /* \"blockchain/contracts/Election.sol\":734:745  _candidates */\n          dup1\n            /* \"blockchain/contracts/Election.sol\":721:731  candidates */\n          0x02\n            /* \"blockchain/contracts/Election.sol\":721:745  candidates = _candidates */\n          swap1\n          dup1\n          mload\n          swap1\n          0x20\n          add\n          swap1\n          tag_6\n          swap3\n          swap2\n          swap1\n          tag_7\n          jump\t// in\n        tag_6:\n          pop\n            /* \"blockchain/contracts/Election.sol\":767:772  false */\n          0x00\n            /* \"blockchain/contracts/Election.sol\":756:764  hasEnded */\n          0x06\n          0x00\n            /* \"blockchain/contracts/Election.sol\":756:772  hasEnded = false */\n          0x0100\n          exp\n          dup2\n          sload\n          dup2\n          0xff\n          mul\n          not\n          and\n          swap1\n          dup4\n          iszero\n          iszero\n          mul\n          or\n          swap1\n          sstore\n          pop\n            /* \"blockchain/contracts/Election.sol\":798:807  uint256 i */\n          0x00\n            /* \"blockchain/contracts/Election.sol\":793:901  for (uint256 i = 0; i < candidates.length; i++) {... */\n        tag_8:\n            /* \"blockchain/contracts/Election.sol\":817:827  candidates */\n          0x02\n            /* \"blockchain/contracts/Election.sol\":817:834  candidates.length */\n          dup1\n          sload\n          swap1\n          pop\n            /* \"blockchain/contracts/Election.sol\":813:814  i */\n          dup2\n            /* \"blockchain/contracts/Election.sol\":813:834  i < candidates.length */\n          lt\n            /* \"blockchain/contracts/Election.sol\":793:901  for (uint256 i = 0; i < candidates.length; i++) {... */\n          iszero\n          tag_9\n          jumpi\n            /* \"blockchain/contracts/Election.sol\":888:889  0 */\n          0x00\n            /* \"blockchain/contracts/Election.sol\":856:870  candidateVotes */\n          0x04\n            /* \"blockchain/contracts/Election.sol\":871:881  candidates */\n          0x02\n            /* \"blockchain/contracts/Election.sol\":882:883  i */\n          dup4\n            /* \"blockchain/contracts/Election.sol\":871:884  candidates[i] */\n          dup2\n          sload\n          dup2\n          lt\n          tag_11\n          jumpi\n          tag_12\n          tag_13\n          jump\t// in\n        tag_12:\n        tag_11:\n          swap1\n          0x00\n          mstore\n          keccak256(0x00, 0x20)\n          add\n            /* \"blockchain/contracts/Election.sol\":856:885  candidateVotes[candidates[i]] */\n          mload(0x40)\n          tag_15\n          swap2\n          swap1\n          tag_16\n          jump\t// in\n        tag_15:\n          swap1\n          dup2\n          mstore\n          0x20\n          add\n          mload(0x40)\n          dup1\n          swap2\n          sub\n          swap1\n          keccak256\n            /* \"blockchain/contracts/Election.sol\":856:889  candidateVotes[candidates[i]] = 0 */\n          dup2\n          swap1\n          sstore\n          pop\n            /* \"blockchain/contracts/Election.sol\":836:839  i++ */\n          dup1\n          dup1\n          0x01\n          add\n          swap2\n          pop\n          pop\n            /* \"blockchain/contracts/Election.sol\":793:901  for (uint256 i = 0; i < candidates.length; i++) {... */\n          jump(tag_8)\n        tag_9:\n          pop\n            /* \"blockchain/contracts/Election.sol\":590:908  constructor(address _owner, string[] memory _candidates) {... */\n          pop\n          pop\n            /* \"blockchain/contracts/Election.sol\":158:2177  contract Election {... */\n          jump(tag_17)\n        tag_7:\n          dup3\n          dup1\n          sload\n          dup3\n          dup3\n          sstore\n          swap1\n          0x00\n          mstore\n          keccak256(0x00, 0x20)\n          swap1\n          dup2\n          add\n          swap3\n          dup3\n          iszero\n          tag_18\n          jumpi\n          swap2\n          0x20\n          mul\n          dup3\n          add\n        tag_19:\n          dup3\n          dup2\n          gt\n          iszero\n          tag_20\n          jumpi\n          dup3\n          mload\n          dup3\n          swap1\n          dup2\n          tag_21\n          swap2\n          swap1\n          tag_22\n          jump\t// in\n        tag_21:\n          pop\n          swap2\n          0x20\n          add\n          swap2\n          swap1\n          0x01\n          add\n          swap1\n          jump(tag_19)\n        tag_20:\n        tag_18:\n          pop\n          swap1\n          pop\n          tag_23\n          swap2\n          swap1\n          tag_24\n          jump\t// in\n        tag_23:\n          pop\n          swap1\n          jump\t// out\n        tag_24:\n        tag_25:\n          dup1\n          dup3\n          gt\n          iszero\n          tag_26\n          jumpi\n          0x00\n          dup2\n          dup2\n          tag_27\n          swap2\n          swap1\n          tag_28\n          jump\t// in\n        tag_27:\n          pop\n          0x01\n          add\n          jump(tag_25)\n        tag_26:\n          pop\n          swap1\n          jump\t// out\n        tag_28:\n          pop\n          dup1\n          sload\n          tag_29\n          swap1\n          tag_30\n          jump\t// in\n        tag_29:\n          0x00\n          dup3\n          sstore\n          dup1\n          0x1f\n          lt\n          tag_32\n          jumpi\n          pop\n          jump(tag_31)\n        tag_32:\n          0x1f\n          add\n          0x20\n          swap1\n          div\n          swap1\n          0x00\n          mstore\n          keccak256(0x00, 0x20)\n          swap1\n          dup2\n          add\n          swap1\n          tag_33\n          swap2\n          swap1\n          tag_34\n          jump\t// in\n        tag_33:\n        tag_31:\n          pop\n          jump\t// out\n        tag_34:\n        tag_35:\n          dup1\n          dup3\n          gt\n          iszero\n          tag_36\n          jumpi\n          0x00\n          dup2\n          0x00\n          swap1\n          sstore\n          pop\n          0x01\n          add\n          jump(tag_35)\n        tag_36:\n          pop\n          swap1\n          jump\t// out\n            /* \"#utility.yul\":7:82   */\n        tag_37:\n            /* \"#utility.yul\":40:46   */\n          0x00\n            /* \"#utility.yul\":73:75   */\n          0x40\n            /* \"#utility.yul\":67:76   */\n          mload\n            /* \"#utility.yul\":57:76   */\n          swap1\n          pop\n            /* \"#utility.yul\":7:82   */\n          swap1\n          jump\t// out\n            /* \"#utility.yul\":88:205   */\n        tag_38:\n            /* \"#utility.yul\":197:198   */\n          0x00\n            /* \"#utility.yul\":194:195   */\n          dup1\n            /* \"#utility.yul\":187:199   */\n          revert\n            /* \"#utility.yul\":211:328   */\n        tag_39:\n            /* \"#utility.yul\":320:321   */\n          0x00\n            /* \"#utility.yul\":317:318   */\n          dup1\n            /* \"#utility.yul\":310:322   */\n          revert\n            /* \"#utility.yul\":334:460   */\n        tag_40:\n            /* \"#utility.yul\":371:378   */\n          0x00\n            /* \"#utility.yul\":411:453   */\n          0xffffffffffffffffffffffffffffffffffffffff\n            /* \"#utility.yul\":404:409   */\n          dup3\n            /* \"#utility.yul\":400:454   */\n          and\n            /* \"#utility.yul\":389:454   */\n          swap1\n          pop\n            /* \"#utility.yul\":334:460   */\n          swap2\n          swap1\n          pop\n          jump\t// out\n            /* \"#utility.yul\":466:562   */\n        tag_41:\n            /* \"#utility.yul\":503:510   */\n          0x00\n            /* \"#utility.yul\":532:556   */\n          tag_84\n            /* \"#utility.yul\":550:555   */\n          dup3\n            /* \"#utility.yul\":532:556   */\n          tag_40\n          jump\t// in\n        tag_84:\n            /* \"#utility.yul\":521:556   */\n          swap1\n          pop\n            /* \"#utility.yul\":466:562   */\n          swap2\n          swap1\n          pop\n          jump\t// out\n            /* \"#utility.yul\":568:690   */\n        tag_42:\n            /* \"#utility.yul\":641:665   */\n          tag_86\n            /* \"#utility.yul\":659:664   */\n          dup2\n            /* \"#utility.yul\":641:665   */\n          tag_41\n          jump\t// in\n        tag_86:\n            /* \"#utility.yul\":634:639   */\n          dup2\n            /* \"#utility.yul\":631:666   */\n          eq\n            /* \"#utility.yul\":621:684   */\n          tag_87\n          jumpi\n            /* \"#utility.yul\":680:681   */\n          0x00\n            /* \"#utility.yul\":677:678   */\n          dup1\n            /* \"#utility.yul\":670:682   */\n          revert\n            /* \"#utility.yul\":621:684   */\n        tag_87:\n            /* \"#utility.yul\":568:690   */\n          pop\n          jump\t// out\n            /* \"#utility.yul\":696:839   */\n        tag_43:\n            /* \"#utility.yul\":753:758   */\n          0x00\n            /* \"#utility.yul\":784:790   */\n          dup2\n            /* \"#utility.yul\":778:791   */\n          mload\n            /* \"#utility.yul\":769:791   */\n          swap1\n          pop\n            /* \"#utility.yul\":800:833   */\n          tag_89\n            /* \"#utility.yul\":827:832   */\n          dup2\n            /* \"#utility.yul\":800:833   */\n          tag_42\n          jump\t// in\n        tag_89:\n            /* \"#utility.yul\":696:839   */\n          swap3\n          swap2\n          pop\n          pop\n          jump\t// out\n            /* \"#utility.yul\":845:962   */\n        tag_44:\n            /* \"#utility.yul\":954:955   */\n          0x00\n            /* \"#utility.yul\":951:952   */\n          dup1\n            /* \"#utility.yul\":944:956   */\n          revert\n            /* \"#utility.yul\":968:1070   */\n        tag_45:\n            /* \"#utility.yul\":1009:1015   */\n          0x00\n            /* \"#utility.yul\":1060:1062   */\n          0x1f\n            /* \"#utility.yul\":1056:1063   */\n          not\n            /* \"#utility.yul\":1051:1053   */\n          0x1f\n            /* \"#utility.yul\":1044:1049   */\n          dup4\n            /* \"#utility.yul\":1040:1054   */\n          add\n            /* \"#utility.yul\":1036:1064   */\n          and\n            /* \"#utility.yul\":1026:1064   */\n          swap1\n          pop\n            /* \"#utility.yul\":968:1070   */\n          swap2\n          swap1\n          pop\n          jump\t// out\n            /* \"#utility.yul\":1076:1256   */\n        tag_46:\n            /* \"#utility.yul\":1124:1201   */\n          0x4e487b7100000000000000000000000000000000000000000000000000000000\n            /* \"#utility.yul\":1121:1122   */\n          0x00\n            /* \"#utility.yul\":1114:1202   */\n          mstore\n            /* \"#utility.yul\":1221:1225   */\n          0x41\n            /* \"#utility.yul\":1218:1219   */\n          0x04\n            /* \"#utility.yul\":1211:1226   */\n          mstore\n            /* \"#utility.yul\":1245:1249   */\n          0x24\n            /* \"#utility.yul\":1242:1243   */\n          0x00\n            /* \"#utility.yul\":1235:1250   */\n          revert\n            /* \"#utility.yul\":1262:1543   */\n        tag_47:\n            /* \"#utility.yul\":1345:1372   */\n          tag_94\n            /* \"#utility.yul\":1367:1371   */\n          dup3\n            /* \"#utility.yul\":1345:1372   */\n          tag_45\n          jump\t// in\n        tag_94:\n            /* \"#utility.yul\":1337:1343   */\n          dup2\n            /* \"#utility.yul\":1333:1373   */\n          add\n            /* \"#utility.yul\":1475:1481   */\n          dup2\n            /* \"#utility.yul\":1463:1473   */\n          dup2\n            /* \"#utility.yul\":1460:1482   */\n          lt\n            /* \"#utility.yul\":1439:1457   */\n          0xffffffffffffffff\n            /* \"#utility.yul\":1427:1437   */\n          dup3\n            /* \"#utility.yul\":1424:1458   */\n          gt\n            /* \"#utility.yul\":1421:1483   */\n          or\n            /* \"#utility.yul\":1418:1506   */\n          iszero\n          tag_95\n          jumpi\n            /* \"#utility.yul\":1486:1504   */\n          tag_96\n          tag_46\n          jump\t// in\n        tag_96:\n            /* \"#utility.yul\":1418:1506   */\n        tag_95:\n            /* \"#utility.yul\":1526:1536   */\n          dup1\n            /* \"#utility.yul\":1522:1524   */\n          0x40\n            /* \"#utility.yul\":1515:1537   */\n          mstore\n            /* \"#utility.yul\":1305:1543   */\n          pop\n            /* \"#utility.yul\":1262:1543   */\n          pop\n          pop\n          jump\t// out\n            /* \"#utility.yul\":1549:1678   */\n        tag_48:\n            /* \"#utility.yul\":1583:1589   */\n          0x00\n            /* \"#utility.yul\":1610:1630   */\n          tag_98\n          tag_37\n          jump\t// in\n        tag_98:\n            /* \"#utility.yul\":1600:1630   */\n          swap1\n          pop\n            /* \"#utility.yul\":1639:1672   */\n          tag_99\n            /* \"#utility.yul\":1667:1671   */\n          dup3\n            /* \"#utility.yul\":1659:1665   */\n          dup3\n            /* \"#utility.yul\":1639:1672   */\n          tag_47\n          jump\t// in\n        tag_99:\n            /* \"#utility.yul\":1549:1678   */\n          swap2\n          swap1\n          pop\n          jump\t// out\n            /* \"#utility.yul\":1684:2005   */\n        tag_49:\n            /* \"#utility.yul\":1771:1775   */\n          0x00\n            /* \"#utility.yul\":1861:1879   */\n          0xffffffffffffffff\n            /* \"#utility.yul\":1853:1859   */\n          dup3\n            /* \"#utility.yul\":1850:1880   */\n          gt\n            /* \"#utility.yul\":1847:1903   */\n          iszero\n          tag_101\n          jumpi\n            /* \"#utility.yul\":1883:1901   */\n          tag_102\n          tag_46\n          jump\t// in\n        tag_102:\n            /* \"#utility.yul\":1847:1903   */\n        tag_101:\n            /* \"#utility.yul\":1933:1937   */\n          0x20\n            /* \"#utility.yul\":1925:1931   */\n          dup3\n            /* \"#utility.yul\":1921:1938   */\n          mul\n            /* \"#utility.yul\":1913:1938   */\n          swap1\n          pop\n            /* \"#utility.yul\":1993:1997   */\n          0x20\n            /* \"#utility.yul\":1987:1991   */\n          dup2\n            /* \"#utility.yul\":1983:1998   */\n          add\n            /* \"#utility.yul\":1975:1998   */\n          swap1\n          pop\n            /* \"#utility.yul\":1684:2005   */\n          swap2\n          swap1\n          pop\n          jump\t// out\n            /* \"#utility.yul\":2011:2128   */\n        tag_50:\n            /* \"#utility.yul\":2120:2121   */\n          0x00\n            /* \"#utility.yul\":2117:2118   */\n          dup1\n            /* \"#utility.yul\":2110:2122   */\n          revert\n            /* \"#utility.yul\":2134:2251   */\n        tag_51:\n            /* \"#utility.yul\":2243:2244   */\n          0x00\n            /* \"#utility.yul\":2240:2241   */\n          dup1\n            /* \"#utility.yul\":2233:2245   */\n          revert\n            /* \"#utility.yul\":2257:2565   */\n        tag_52:\n            /* \"#utility.yul\":2319:2323   */\n          0x00\n            /* \"#utility.yul\":2409:2427   */\n          0xffffffffffffffff\n            /* \"#utility.yul\":2401:2407   */\n          dup3\n            /* \"#utility.yul\":2398:2428   */\n          gt\n            /* \"#utility.yul\":2395:2451   */\n          iszero\n          tag_106\n          jumpi\n            /* \"#utility.yul\":2431:2449   */\n          tag_107\n          tag_46\n          jump\t// in\n        tag_107:\n            /* \"#utility.yul\":2395:2451   */\n        tag_106:\n            /* \"#utility.yul\":2469:2498   */\n          tag_108\n            /* \"#utility.yul\":2491:2497   */\n          dup3\n            /* \"#utility.yul\":2469:2498   */\n          tag_45\n          jump\t// in\n        tag_108:\n            /* \"#utility.yul\":2461:2498   */\n          swap1\n          pop\n            /* \"#utility.yul\":2553:2557   */\n          0x20\n            /* \"#utility.yul\":2547:2551   */\n          dup2\n            /* \"#utility.yul\":2543:2558   */\n          add\n            /* \"#utility.yul\":2535:2558   */\n          swap1\n          pop\n            /* \"#utility.yul\":2257:2565   */\n          swap2\n          swap1\n          pop\n          jump\t// out\n            /* \"#utility.yul\":2571:2817   */\n        tag_53:\n            /* \"#utility.yul\":2652:2653   */\n          0x00\n            /* \"#utility.yul\":2662:2775   */\n        tag_110:\n            /* \"#utility.yul\":2676:2682   */\n          dup4\n            /* \"#utility.yul\":2673:2674   */\n          dup2\n            /* \"#utility.yul\":2670:2683   */\n          lt\n            /* \"#utility.yul\":2662:2775   */\n          iszero\n          tag_112\n          jumpi\n            /* \"#utility.yul\":2761:2762   */\n          dup1\n            /* \"#utility.yul\":2756:2759   */\n          dup3\n            /* \"#utility.yul\":2752:2763   */\n          add\n            /* \"#utility.yul\":2746:2764   */\n          mload\n            /* \"#utility.yul\":2742:2743   */\n          dup2\n            /* \"#utility.yul\":2737:2740   */\n          dup5\n            /* \"#utility.yul\":2733:2744   */\n          add\n            /* \"#utility.yul\":2726:2765   */\n          mstore\n            /* \"#utility.yul\":2698:2700   */\n          0x20\n            /* \"#utility.yul\":2695:2696   */\n          dup2\n            /* \"#utility.yul\":2691:2701   */\n          add\n            /* \"#utility.yul\":2686:2701   */\n          swap1\n          pop\n            /* \"#utility.yul\":2662:2775   */\n          jump(tag_110)\n        tag_112:\n            /* \"#utility.yul\":2809:2810   */\n          0x00\n            /* \"#utility.yul\":2800:2806   */\n          dup5\n            /* \"#utility.yul\":2795:2798   */\n          dup5\n            /* \"#utility.yul\":2791:2807   */\n          add\n            /* \"#utility.yul\":2784:2811   */\n          mstore\n            /* \"#utility.yul\":2633:2817   */\n          pop\n            /* \"#utility.yul\":2571:2817   */\n          pop\n          pop\n          pop\n          jump\t// out\n            /* \"#utility.yul\":2823:3257   */\n        tag_54:\n            /* \"#utility.yul\":2912:2917   */\n          0x00\n            /* \"#utility.yul\":2937:3003   */\n          tag_114\n            /* \"#utility.yul\":2953:3002   */\n          tag_115\n            /* \"#utility.yul\":2995:3001   */\n          dup5\n            /* \"#utility.yul\":2953:3002   */\n          tag_52\n          jump\t// in\n        tag_115:\n            /* \"#utility.yul\":2937:3003   */\n          tag_48\n          jump\t// in\n        tag_114:\n            /* \"#utility.yul\":2928:3003   */\n          swap1\n          pop\n            /* \"#utility.yul\":3026:3032   */\n          dup3\n            /* \"#utility.yul\":3019:3024   */\n          dup2\n            /* \"#utility.yul\":3012:3033   */\n          mstore\n            /* \"#utility.yul\":3064:3068   */\n          0x20\n            /* \"#utility.yul\":3057:3062   */\n          dup2\n            /* \"#utility.yul\":3053:3069   */\n          add\n            /* \"#utility.yul\":3102:3105   */\n          dup5\n            /* \"#utility.yul\":3093:3099   */\n          dup5\n            /* \"#utility.yul\":3088:3091   */\n          dup5\n            /* \"#utility.yul\":3084:3100   */\n          add\n            /* \"#utility.yul\":3081:3106   */\n          gt\n            /* \"#utility.yul\":3078:3190   */\n          iszero\n          tag_116\n          jumpi\n            /* \"#utility.yul\":3109:3188   */\n          tag_117\n          tag_51\n          jump\t// in\n        tag_117:\n            /* \"#utility.yul\":3078:3190   */\n        tag_116:\n            /* \"#utility.yul\":3199:3251   */\n          tag_118\n            /* \"#utility.yul\":3244:3250   */\n          dup5\n            /* \"#utility.yul\":3239:3242   */\n          dup3\n            /* \"#utility.yul\":3234:3237   */\n          dup6\n            /* \"#utility.yul\":3199:3251   */\n          tag_53\n          jump\t// in\n        tag_118:\n            /* \"#utility.yul\":2918:3257   */\n          pop\n            /* \"#utility.yul\":2823:3257   */\n          swap4\n          swap3\n          pop\n          pop\n          pop\n          jump\t// out\n            /* \"#utility.yul\":3277:3632   */\n        tag_55:\n            /* \"#utility.yul\":3344:3349   */\n          0x00\n            /* \"#utility.yul\":3393:3396   */\n          dup3\n            /* \"#utility.yul\":3386:3390   */\n          0x1f\n            /* \"#utility.yul\":3378:3384   */\n          dup4\n            /* \"#utility.yul\":3374:3391   */\n          add\n            /* \"#utility.yul\":3370:3397   */\n          slt\n            /* \"#utility.yul\":3360:3482   */\n          tag_120\n          jumpi\n            /* \"#utility.yul\":3401:3480   */\n          tag_121\n          tag_44\n          jump\t// in\n        tag_121:\n            /* \"#utility.yul\":3360:3482   */\n        tag_120:\n            /* \"#utility.yul\":3511:3517   */\n          dup2\n            /* \"#utility.yul\":3505:3518   */\n          mload\n            /* \"#utility.yul\":3536:3626   */\n          tag_122\n            /* \"#utility.yul\":3622:3625   */\n          dup5\n            /* \"#utility.yul\":3614:3620   */\n          dup3\n            /* \"#utility.yul\":3607:3611   */\n          0x20\n            /* \"#utility.yul\":3599:3605   */\n          dup7\n            /* \"#utility.yul\":3595:3612   */\n          add\n            /* \"#utility.yul\":3536:3626   */\n          tag_54\n          jump\t// in\n        tag_122:\n            /* \"#utility.yul\":3527:3626   */\n          swap2\n          pop\n            /* \"#utility.yul\":3350:3632   */\n          pop\n            /* \"#utility.yul\":3277:3632   */\n          swap3\n          swap2\n          pop\n          pop\n          jump\t// out\n            /* \"#utility.yul\":3654:4614   */\n        tag_56:\n            /* \"#utility.yul\":3771:3776   */\n          0x00\n            /* \"#utility.yul\":3796:3887   */\n          tag_124\n            /* \"#utility.yul\":3812:3886   */\n          tag_125\n            /* \"#utility.yul\":3879:3885   */\n          dup5\n            /* \"#utility.yul\":3812:3886   */\n          tag_49\n          jump\t// in\n        tag_125:\n            /* \"#utility.yul\":3796:3887   */\n          tag_48\n          jump\t// in\n        tag_124:\n            /* \"#utility.yul\":3787:3887   */\n          swap1\n          pop\n            /* \"#utility.yul\":3907:3912   */\n          dup1\n            /* \"#utility.yul\":3936:3942   */\n          dup4\n            /* \"#utility.yul\":3929:3934   */\n          dup3\n            /* \"#utility.yul\":3922:3943   */\n          mstore\n            /* \"#utility.yul\":3970:3974   */\n          0x20\n            /* \"#utility.yul\":3963:3968   */\n          dup3\n            /* \"#utility.yul\":3959:3975   */\n          add\n            /* \"#utility.yul\":3952:3975   */\n          swap1\n          pop\n            /* \"#utility.yul\":4023:4027   */\n          0x20\n            /* \"#utility.yul\":4015:4021   */\n          dup5\n            /* \"#utility.yul\":4011:4028   */\n          mul\n            /* \"#utility.yul\":4003:4009   */\n          dup4\n            /* \"#utility.yul\":3999:4029   */\n          add\n            /* \"#utility.yul\":4052:4055   */\n          dup6\n            /* \"#utility.yul\":4044:4050   */\n          dup2\n            /* \"#utility.yul\":4041:4056   */\n          gt\n            /* \"#utility.yul\":4038:4160   */\n          iszero\n          tag_126\n          jumpi\n            /* \"#utility.yul\":4071:4150   */\n          tag_127\n          tag_50\n          jump\t// in\n        tag_127:\n            /* \"#utility.yul\":4038:4160   */\n        tag_126:\n            /* \"#utility.yul\":4186:4192   */\n          dup4\n            /* \"#utility.yul\":4169:4608   */\n        tag_128:\n            /* \"#utility.yul\":4203:4209   */\n          dup2\n            /* \"#utility.yul\":4198:4201   */\n          dup2\n            /* \"#utility.yul\":4195:4210   */\n          lt\n            /* \"#utility.yul\":4169:4608   */\n          iszero\n          tag_130\n          jumpi\n            /* \"#utility.yul\":4285:4288   */\n          dup1\n            /* \"#utility.yul\":4279:4289   */\n          mload\n            /* \"#utility.yul\":4321:4339   */\n          0xffffffffffffffff\n            /* \"#utility.yul\":4308:4319   */\n          dup2\n            /* \"#utility.yul\":4305:4340   */\n          gt\n            /* \"#utility.yul\":4302:4424   */\n          iszero\n          tag_131\n          jumpi\n            /* \"#utility.yul\":4343:4422   */\n          tag_132\n          tag_44\n          jump\t// in\n        tag_132:\n            /* \"#utility.yul\":4302:4424   */\n        tag_131:\n            /* \"#utility.yul\":4467:4478   */\n          dup1\n            /* \"#utility.yul\":4459:4465   */\n          dup7\n            /* \"#utility.yul\":4455:4479   */\n          add\n            /* \"#utility.yul\":4505:4563   */\n          tag_133\n            /* \"#utility.yul\":4559:4562   */\n          dup10\n            /* \"#utility.yul\":4547:4557   */\n          dup3\n            /* \"#utility.yul\":4505:4563   */\n          tag_55\n          jump\t// in\n        tag_133:\n            /* \"#utility.yul\":4500:4503   */\n          dup6\n            /* \"#utility.yul\":4493:4564   */\n          mstore\n            /* \"#utility.yul\":4593:4597   */\n          0x20\n            /* \"#utility.yul\":4588:4591   */\n          dup6\n            /* \"#utility.yul\":4584:4598   */\n          add\n            /* \"#utility.yul\":4577:4598   */\n          swap5\n          pop\n            /* \"#utility.yul\":4245:4608   */\n          pop\n          pop\n            /* \"#utility.yul\":4229:4233   */\n          0x20\n            /* \"#utility.yul\":4224:4227   */\n          dup2\n            /* \"#utility.yul\":4220:4234   */\n          add\n            /* \"#utility.yul\":4213:4234   */\n          swap1\n          pop\n            /* \"#utility.yul\":4169:4608   */\n          jump(tag_128)\n        tag_130:\n            /* \"#utility.yul\":4173:4194   */\n          pop\n            /* \"#utility.yul\":3777:4614   */\n          pop\n          pop\n            /* \"#utility.yul\":3654:4614   */\n          swap4\n          swap3\n          pop\n          pop\n          pop\n          jump\t// out\n            /* \"#utility.yul\":4636:5041   */\n        tag_57:\n            /* \"#utility.yul\":4728:4733   */\n          0x00\n            /* \"#utility.yul\":4777:4780   */\n          dup3\n            /* \"#utility.yul\":4770:4774   */\n          0x1f\n            /* \"#utility.yul\":4762:4768   */\n          dup4\n            /* \"#utility.yul\":4758:4775   */\n          add\n            /* \"#utility.yul\":4754:4781   */\n          slt\n            /* \"#utility.yul\":4744:4866   */\n          tag_135\n          jumpi\n            /* \"#utility.yul\":4785:4864   */\n          tag_136\n          tag_44\n          jump\t// in\n        tag_136:\n            /* \"#utility.yul\":4744:4866   */\n        tag_135:\n            /* \"#utility.yul\":4895:4901   */\n          dup2\n            /* \"#utility.yul\":4889:4902   */\n          mload\n            /* \"#utility.yul\":4920:5035   */\n          tag_137\n            /* \"#utility.yul\":5031:5034   */\n          dup5\n            /* \"#utility.yul\":5023:5029   */\n          dup3\n            /* \"#utility.yul\":5016:5020   */\n          0x20\n            /* \"#utility.yul\":5008:5014   */\n          dup7\n            /* \"#utility.yul\":5004:5021   */\n          add\n            /* \"#utility.yul\":4920:5035   */\n          tag_56\n          jump\t// in\n        tag_137:\n            /* \"#utility.yul\":4911:5035   */\n          swap2\n          pop\n            /* \"#utility.yul\":4734:5041   */\n          pop\n            /* \"#utility.yul\":4636:5041   */\n          swap3\n          swap2\n          pop\n          pop\n          jump\t// out\n            /* \"#utility.yul\":5047:5777   */\n        tag_3:\n            /* \"#utility.yul\":5161:5167   */\n          0x00\n            /* \"#utility.yul\":5169:5175   */\n          dup1\n            /* \"#utility.yul\":5218:5220   */\n          0x40\n            /* \"#utility.yul\":5206:5215   */\n          dup4\n            /* \"#utility.yul\":5197:5204   */\n          dup6\n            /* \"#utility.yul\":5193:5216   */\n          sub\n            /* \"#utility.yul\":5189:5221   */\n          slt\n            /* \"#utility.yul\":5186:5305   */\n          iszero\n          tag_139\n          jumpi\n            /* \"#utility.yul\":5224:5303   */\n          tag_140\n          tag_38\n          jump\t// in\n        tag_140:\n            /* \"#utility.yul\":5186:5305   */\n        tag_139:\n            /* \"#utility.yul\":5344:5345   */\n          0x00\n            /* \"#utility.yul\":5369:5433   */\n          tag_141\n            /* \"#utility.yul\":5425:5432   */\n          dup6\n            /* \"#utility.yul\":5416:5422   */\n          dup3\n            /* \"#utility.yul\":5405:5414   */\n          dup7\n            /* \"#utility.yul\":5401:5423   */\n          add\n            /* \"#utility.yul\":5369:5433   */\n          tag_43\n          jump\t// in\n        tag_141:\n            /* \"#utility.yul\":5359:5433   */\n          swap3\n          pop\n            /* \"#utility.yul\":5315:5443   */\n          pop\n            /* \"#utility.yul\":5503:5505   */\n          0x20\n            /* \"#utility.yul\":5492:5501   */\n          dup4\n            /* \"#utility.yul\":5488:5506   */\n          add\n            /* \"#utility.yul\":5482:5507   */\n          mload\n            /* \"#utility.yul\":5534:5552   */\n          0xffffffffffffffff\n            /* \"#utility.yul\":5526:5532   */\n          dup2\n            /* \"#utility.yul\":5523:5553   */\n          gt\n            /* \"#utility.yul\":5520:5637   */\n          iszero\n          tag_142\n          jumpi\n            /* \"#utility.yul\":5556:5635   */\n          tag_143\n          tag_39\n          jump\t// in\n        tag_143:\n            /* \"#utility.yul\":5520:5637   */\n        tag_142:\n            /* \"#utility.yul\":5661:5760   */\n          tag_144\n            /* \"#utility.yul\":5752:5759   */\n          dup6\n            /* \"#utility.yul\":5743:5749   */\n          dup3\n            /* \"#utility.yul\":5732:5741   */\n          dup7\n            /* \"#utility.yul\":5728:5750   */\n          add\n            /* \"#utility.yul\":5661:5760   */\n          tag_57\n          jump\t// in\n        tag_144:\n            /* \"#utility.yul\":5651:5760   */\n          swap2\n          pop\n            /* \"#utility.yul\":5453:5770   */\n          pop\n            /* \"#utility.yul\":5047:5777   */\n          swap3\n          pop\n          swap3\n          swap1\n          pop\n          jump\t// out\n            /* \"#utility.yul\":5783:5963   */\n        tag_13:\n            /* \"#utility.yul\":5831:5908   */\n          0x4e487b7100000000000000000000000000000000000000000000000000000000\n            /* \"#utility.yul\":5828:5829   */\n          0x00\n            /* \"#utility.yul\":5821:5909   */\n          mstore\n            /* \"#utility.yul\":5928:5932   */\n          0x32\n            /* \"#utility.yul\":5925:5926   */\n          0x04\n            /* \"#utility.yul\":5918:5933   */\n          mstore\n            /* \"#utility.yul\":5952:5956   */\n          0x24\n            /* \"#utility.yul\":5949:5950   */\n          0x00\n            /* \"#utility.yul\":5942:5957   */\n          revert\n            /* \"#utility.yul\":5969:6149   */\n        tag_58:\n            /* \"#utility.yul\":6017:6094   */\n          0x4e487b7100000000000000000000000000000000000000000000000000000000\n            /* \"#utility.yul\":6014:6015   */\n          0x00\n            /* \"#utility.yul\":6007:6095   */\n          mstore\n            /* \"#utility.yul\":6114:6118   */\n          0x22\n            /* \"#utility.yul\":6111:6112   */\n          0x04\n            /* \"#utility.yul\":6104:6119   */\n          mstore\n            /* \"#utility.yul\":6138:6142   */\n          0x24\n            /* \"#utility.yul\":6135:6136   */\n          0x00\n            /* \"#utility.yul\":6128:6143   */\n          revert\n            /* \"#utility.yul\":6155:6475   */\n        tag_30:\n            /* \"#utility.yul\":6199:6205   */\n          0x00\n            /* \"#utility.yul\":6236:6237   */\n          0x02\n            /* \"#utility.yul\":6230:6234   */\n          dup3\n            /* \"#utility.yul\":6226:6238   */\n          div\n            /* \"#utility.yul\":6216:6238   */\n          swap1\n          pop\n            /* \"#utility.yul\":6283:6284   */\n          0x01\n            /* \"#utility.yul\":6277:6281   */\n          dup3\n            /* \"#utility.yul\":6273:6285   */\n          and\n            /* \"#utility.yul\":6304:6322   */\n          dup1\n            /* \"#utility.yul\":6294:6375   */\n          tag_148\n          jumpi\n            /* \"#utility.yul\":6360:6364   */\n          0x7f\n            /* \"#utility.yul\":6352:6358   */\n          dup3\n            /* \"#utility.yul\":6348:6365   */\n          and\n            /* \"#utility.yul\":6338:6365   */\n          swap2\n          pop\n            /* \"#utility.yul\":6294:6375   */\n        tag_148:\n            /* \"#utility.yul\":6422:6424   */\n          0x20\n            /* \"#utility.yul\":6414:6420   */\n          dup3\n            /* \"#utility.yul\":6411:6425   */\n          lt\n            /* \"#utility.yul\":6391:6409   */\n          dup2\n            /* \"#utility.yul\":6388:6426   */\n          sub\n            /* \"#utility.yul\":6385:6469   */\n          tag_149\n          jumpi\n            /* \"#utility.yul\":6441:6459   */\n          tag_150\n          tag_58\n          jump\t// in\n        tag_150:\n            /* \"#utility.yul\":6385:6469   */\n        tag_149:\n            /* \"#utility.yul\":6206:6475   */\n          pop\n            /* \"#utility.yul\":6155:6475   */\n          swap2\n          swap1\n          pop\n          jump\t// out\n            /* \"#utility.yul\":6481:6629   */\n        tag_59:\n            /* \"#utility.yul\":6583:6594   */\n          0x00\n            /* \"#utility.yul\":6620:6623   */\n          dup2\n            /* \"#utility.yul\":6605:6623   */\n          swap1\n          pop\n            /* \"#utility.yul\":6481:6629   */\n          swap3\n          swap2\n          pop\n          pop\n          jump\t// out\n            /* \"#utility.yul\":6635:6776   */\n        tag_60:\n            /* \"#utility.yul\":6684:6688   */\n          0x00\n            /* \"#utility.yul\":6707:6710   */\n          dup2\n            /* \"#utility.yul\":6699:6710   */\n          swap1\n          pop\n            /* \"#utility.yul\":6730:6733   */\n          dup2\n            /* \"#utility.yul\":6727:6728   */\n          0x00\n            /* \"#utility.yul\":6720:6734   */\n          mstore\n            /* \"#utility.yul\":6764:6768   */\n          0x20\n            /* \"#utility.yul\":6761:6762   */\n          0x00\n            /* \"#utility.yul\":6751:6769   */\n          keccak256\n            /* \"#utility.yul\":6743:6769   */\n          swap1\n          pop\n            /* \"#utility.yul\":6635:6776   */\n          swap2\n          swap1\n          pop\n          jump\t// out\n            /* \"#utility.yul\":6806:7680   */\n        tag_61:\n            /* \"#utility.yul\":6909:6912   */\n          0x00\n            /* \"#utility.yul\":6946:6951   */\n          dup2\n            /* \"#utility.yul\":6940:6952   */\n          sload\n            /* \"#utility.yul\":6975:7011   */\n          tag_154\n            /* \"#utility.yul\":7001:7010   */\n          dup2\n            /* \"#utility.yul\":6975:7011   */\n          tag_30\n          jump\t// in\n        tag_154:\n            /* \"#utility.yul\":7027:7116   */\n          tag_155\n            /* \"#utility.yul\":7109:7115   */\n          dup2\n            /* \"#utility.yul\":7104:7107   */\n          dup7\n            /* \"#utility.yul\":7027:7116   */\n          tag_59\n          jump\t// in\n        tag_155:\n            /* \"#utility.yul\":7020:7116   */\n          swap5\n          pop\n            /* \"#utility.yul\":7147:7148   */\n          0x01\n            /* \"#utility.yul\":7136:7145   */\n          dup3\n            /* \"#utility.yul\":7132:7149   */\n          and\n            /* \"#utility.yul\":7163:7164   */\n          0x00\n            /* \"#utility.yul\":7158:7324   */\n          dup2\n          eq\n          tag_157\n          jumpi\n            /* \"#utility.yul\":7338:7339   */\n          0x01\n            /* \"#utility.yul\":7333:7674   */\n          dup2\n          eq\n          tag_158\n          jumpi\n            /* \"#utility.yul\":7125:7674   */\n          jump(tag_156)\n            /* \"#utility.yul\":7158:7324   */\n        tag_157:\n            /* \"#utility.yul\":7242:7246   */\n          0xff\n            /* \"#utility.yul\":7238:7247   */\n          not\n            /* \"#utility.yul\":7227:7236   */\n          dup4\n            /* \"#utility.yul\":7223:7248   */\n          and\n            /* \"#utility.yul\":7218:7221   */\n          dup7\n            /* \"#utility.yul\":7211:7249   */\n          mstore\n            /* \"#utility.yul\":7304:7310   */\n          dup2\n            /* \"#utility.yul\":7297:7311   */\n          iszero\n            /* \"#utility.yul\":7290:7312   */\n          iszero\n            /* \"#utility.yul\":7282:7288   */\n          dup3\n            /* \"#utility.yul\":7278:7313   */\n          mul\n            /* \"#utility.yul\":7273:7276   */\n          dup7\n            /* \"#utility.yul\":7269:7314   */\n          add\n            /* \"#utility.yul\":7262:7314   */\n          swap4\n          pop\n            /* \"#utility.yul\":7158:7324   */\n          jump(tag_156)\n            /* \"#utility.yul\":7333:7674   */\n        tag_158:\n            /* \"#utility.yul\":7400:7438   */\n          tag_159\n            /* \"#utility.yul\":7432:7437   */\n          dup6\n            /* \"#utility.yul\":7400:7438   */\n          tag_60\n          jump\t// in\n        tag_159:\n            /* \"#utility.yul\":7460:7461   */\n          0x00\n            /* \"#utility.yul\":7474:7628   */\n        tag_160:\n            /* \"#utility.yul\":7488:7494   */\n          dup4\n            /* \"#utility.yul\":7485:7486   */\n          dup2\n            /* \"#utility.yul\":7482:7495   */\n          lt\n            /* \"#utility.yul\":7474:7628   */\n          iszero\n          tag_162\n          jumpi\n            /* \"#utility.yul\":7562:7569   */\n          dup2\n            /* \"#utility.yul\":7556:7570   */\n          sload\n            /* \"#utility.yul\":7552:7553   */\n          dup2\n            /* \"#utility.yul\":7547:7550   */\n          dup10\n            /* \"#utility.yul\":7543:7554   */\n          add\n            /* \"#utility.yul\":7536:7571   */\n          mstore\n            /* \"#utility.yul\":7612:7613   */\n          0x01\n            /* \"#utility.yul\":7603:7610   */\n          dup3\n            /* \"#utility.yul\":7599:7614   */\n          add\n            /* \"#utility.yul\":7588:7614   */\n          swap2\n          pop\n            /* \"#utility.yul\":7510:7514   */\n          0x20\n            /* \"#utility.yul\":7507:7508   */\n          dup2\n            /* \"#utility.yul\":7503:7515   */\n          add\n            /* \"#utility.yul\":7498:7515   */\n          swap1\n          pop\n            /* \"#utility.yul\":7474:7628   */\n          jump(tag_160)\n        tag_162:\n            /* \"#utility.yul\":7657:7663   */\n          dup4\n            /* \"#utility.yul\":7652:7655   */\n          dup9\n            /* \"#utility.yul\":7648:7664   */\n          add\n            /* \"#utility.yul\":7641:7664   */\n          swap6\n          pop\n            /* \"#utility.yul\":7340:7674   */\n          pop\n          pop\n            /* \"#utility.yul\":7125:7674   */\n        tag_156:\n          pop\n            /* \"#utility.yul\":6913:7680   */\n          pop\n          pop\n            /* \"#utility.yul\":6806:7680   */\n          swap3\n          swap2\n          pop\n          pop\n          jump\t// out\n            /* \"#utility.yul\":7686:7955   */\n        tag_16:\n            /* \"#utility.yul\":7815:7818   */\n          0x00\n            /* \"#utility.yul\":7837:7929   */\n          tag_164\n            /* \"#utility.yul\":7925:7928   */\n          dup3\n            /* \"#utility.yul\":7916:7922   */\n          dup5\n            /* \"#utility.yul\":7837:7929   */\n          tag_61\n          jump\t// in\n        tag_164:\n            /* \"#utility.yul\":7830:7929   */\n          swap2\n          pop\n            /* \"#utility.yul\":7946:7949   */\n          dup2\n            /* \"#utility.yul\":7939:7949   */\n          swap1\n          pop\n            /* \"#utility.yul\":7686:7955   */\n          swap3\n          swap2\n          pop\n          pop\n          jump\t// out\n            /* \"#utility.yul\":7961:8060   */\n        tag_62:\n            /* \"#utility.yul\":8013:8019   */\n          0x00\n            /* \"#utility.yul\":8047:8052   */\n          dup2\n            /* \"#utility.yul\":8041:8053   */\n          mload\n            /* \"#utility.yul\":8031:8053   */\n          swap1\n          pop\n            /* \"#utility.yul\":7961:8060   */\n          swap2\n          swap1\n          pop\n          jump\t// out\n            /* \"#utility.yul\":8066:8159   */\n        tag_63:\n            /* \"#utility.yul\":8103:8109   */\n          0x00\n            /* \"#utility.yul\":8150:8152   */\n          0x20\n            /* \"#utility.yul\":8145:8147   */\n          0x1f\n            /* \"#utility.yul\":8138:8143   */\n          dup4\n            /* \"#utility.yul\":8134:8148   */\n          add\n            /* \"#utility.yul\":8130:8153   */\n          div\n            /* \"#utility.yul\":8120:8153   */\n          swap1\n          pop\n            /* \"#utility.yul\":8066:8159   */\n          swap2\n          swap1\n          pop\n          jump\t// out\n            /* \"#utility.yul\":8165:8272   */\n        tag_64:\n            /* \"#utility.yul\":8209:8217   */\n          0x00\n            /* \"#utility.yul\":8259:8264   */\n          dup3\n            /* \"#utility.yul\":8253:8257   */\n          dup3\n            /* \"#utility.yul\":8249:8265   */\n          shl\n            /* \"#utility.yul\":8228:8265   */\n          swap1\n          pop\n            /* \"#utility.yul\":8165:8272   */\n          swap3\n          swap2\n          pop\n          pop\n          jump\t// out\n            /* \"#utility.yul\":8278:8671   */\n        tag_65:\n            /* \"#utility.yul\":8347:8353   */\n          0x00\n            /* \"#utility.yul\":8397:8398   */\n          0x08\n            /* \"#utility.yul\":8385:8395   */\n          dup4\n            /* \"#utility.yul\":8381:8399   */\n          mul\n            /* \"#utility.yul\":8420:8517   */\n          tag_169\n            /* \"#utility.yul\":8450:8516   */\n          0xffffffffffffffffffffffffffffffffffffffffffffffffffffffffffffffff\n            /* \"#utility.yul\":8439:8448   */\n          dup3\n            /* \"#utility.yul\":8420:8517   */\n          tag_64\n          jump\t// in\n        tag_169:\n            /* \"#utility.yul\":8538:8577   */\n          tag_170\n            /* \"#utility.yul\":8568:8576   */\n          dup7\n            /* \"#utility.yul\":8557:8566   */\n          dup4\n            /* \"#utility.yul\":8538:8577   */\n          tag_64\n          jump\t// in\n        tag_170:\n            /* \"#utility.yul\":8526:8577   */\n          swap6\n          pop\n            /* \"#utility.yul\":8610:8614   */\n          dup1\n            /* \"#utility.yul\":8606:8615   */\n          not\n            /* \"#utility.yul\":8599:8604   */\n          dup5\n            /* \"#utility.yul\":8595:8616   */\n          and\n            /* \"#utility.yul\":8586:8616   */\n          swap4\n          pop\n            /* \"#utility.yul\":8659:8663   */\n          dup1\n            /* \"#utility.yul\":8649:8657   */\n          dup7\n            /* \"#utility.yul\":8645:8664   */\n          and\n            /* \"#utility.yul\":8638:8643   */\n          dup5\n            /* \"#utility.yul\":8635:8665   */\n          or\n            /* \"#utility.yul\":8625:8665   */\n          swap3\n          pop\n            /* \"#utility.yul\":8354:8671   */\n          pop\n          pop\n            /* \"#utility.yul\":8278:8671   */\n          swap4\n          swap3\n          pop\n          pop\n          pop\n          jump\t// out\n            /* \"#utility.yul\":8677:8754   */\n        tag_66:\n            /* \"#utility.yul\":8714:8721   */\n          0x00\n            /* \"#utility.yul\":8743:8748   */\n          dup2\n            /* \"#utility.yul\":8732:8748   */\n          swap1\n          pop\n            /* \"#utility.yul\":8677:8754   */\n          swap2\n          swap1\n          pop\n          jump\t// out\n            /* \"#utility.yul\":8760:8820   */\n        tag_67:\n            /* \"#utility.yul\":8788:8791   */\n          0x00\n            /* \"#utility.yul\":8809:8814   */\n          dup2\n            /* \"#utility.yul\":8802:8814   */\n          swap1\n          pop\n            /* \"#utility.yul\":8760:8820   */\n          swap2\n          swap1\n          pop\n          jump\t// out\n            /* \"#utility.yul\":8826:8968   */\n        tag_68:\n            /* \"#utility.yul\":8876:8885   */\n          0x00\n            /* \"#utility.yul\":8909:8962   */\n          tag_174\n            /* \"#utility.yul\":8927:8961   */\n          tag_175\n            /* \"#utility.yul\":8936:8960   */\n          tag_176\n            /* \"#utility.yul\":8954:8959   */\n          dup5\n            /* \"#utility.yul\":8936:8960   */\n          tag_66\n          jump\t// in\n        tag_176:\n            /* \"#utility.yul\":8927:8961   */\n          tag_67\n          jump\t// in\n        tag_175:\n            /* \"#utility.yul\":8909:8962   */\n          tag_66\n          jump\t// in\n        tag_174:\n            /* \"#utility.yul\":8896:8962   */\n          swap1\n          pop\n            /* \"#utility.yul\":8826:8968   */\n          swap2\n          swap1\n          pop\n          jump\t// out\n            /* \"#utility.yul\":8974:9049   */\n        tag_69:\n            /* \"#utility.yul\":9017:9020   */\n          0x00\n            /* \"#utility.yul\":9038:9043   */\n          dup2\n            /* \"#utility.yul\":9031:9043   */\n          swap1\n          pop\n            /* \"#utility.yul\":8974:9049   */\n          swap2\n          swap1\n          pop\n          jump\t// out\n            /* \"#utility.yul\":9055:9324   */\n        tag_70:\n            /* \"#utility.yul\":9165:9204   */\n          tag_179\n            /* \"#utility.yul\":9196:9203   */\n          dup4\n            /* \"#utility.yul\":9165:9204   */\n          tag_68\n          jump\t// in\n        tag_179:\n            /* \"#utility.yul\":9226:9317   */\n          tag_180\n            /* \"#utility.yul\":9275:9316   */\n          tag_181\n            /* \"#utility.yul\":9299:9315   */\n          dup3\n            /* \"#utility.yul\":9275:9316   */\n          tag_69\n          jump\t// in\n        tag_181:\n            /* \"#utility.yul\":9267:9273   */\n          dup5\n            /* \"#utility.yul\":9260:9264   */\n          dup5\n            /* \"#utility.yul\":9254:9265   */\n          sload\n            /* \"#utility.yul\":9226:9317   */\n          tag_65\n          jump\t// in\n        tag_180:\n            /* \"#utility.yul\":9220:9224   */\n          dup3\n            /* \"#utility.yul\":9213:9318   */\n          sstore\n            /* \"#utility.yul\":9131:9324   */\n          pop\n            /* \"#utility.yul\":9055:9324   */\n          pop\n          pop\n          pop\n          jump\t// out\n            /* \"#utility.yul\":9330:9403   */\n        tag_71:\n            /* \"#utility.yul\":9375:9378   */\n          0x00\n            /* \"#utility.yul\":9330:9403   */\n          swap1\n          jump\t// out\n            /* \"#utility.yul\":9409:9598   */\n        tag_72:\n            /* \"#utility.yul\":9486:9518   */\n          tag_184\n          tag_71\n          jump\t// in\n        tag_184:\n            /* \"#utility.yul\":9527:9592   */\n          tag_185\n            /* \"#utility.yul\":9585:9591   */\n          dup2\n            /* \"#utility.yul\":9577:9583   */\n          dup5\n            /* \"#utility.yul\":9571:9575   */\n          dup5\n            /* \"#utility.yul\":9527:9592   */\n          tag_70\n          jump\t// in\n        tag_185:\n            /* \"#utility.yul\":9462:9598   */\n          pop\n            /* \"#utility.yul\":9409:9598   */\n          pop\n          pop\n          jump\t// out\n            /* \"#utility.yul\":9604:9790   */\n        tag_73:\n            /* \"#utility.yul\":9664:9784   */\n        tag_187:\n            /* \"#utility.yul\":9681:9684   */\n          dup2\n            /* \"#utility.yul\":9674:9679   */\n          dup2\n            /* \"#utility.yul\":9671:9685   */\n          lt\n            /* \"#utility.yul\":9664:9784   */\n          iszero\n          tag_189\n          jumpi\n            /* \"#utility.yul\":9735:9774   */\n          tag_190\n            /* \"#utility.yul\":9772:9773   */\n          0x00\n            /* \"#utility.yul\":9765:9770   */\n          dup3\n            /* \"#utility.yul\":9735:9774   */\n          tag_72\n          jump\t// in\n        tag_190:\n            /* \"#utility.yul\":9708:9709   */\n          0x01\n            /* \"#utility.yul\":9701:9706   */\n          dup2\n            /* \"#utility.yul\":9697:9710   */\n          add\n            /* \"#utility.yul\":9688:9710   */\n          swap1\n          pop\n            /* \"#utility.yul\":9664:9784   */\n          jump(tag_187)\n        tag_189:\n            /* \"#utility.yul\":9604:9790   */\n          pop\n          pop\n          jump\t// out\n            /* \"#utility.yul\":9796:10339   */\n        tag_74:\n            /* \"#utility.yul\":9897:9899   */\n          0x1f\n            /* \"#utility.yul\":9892:9895   */\n          dup3\n            /* \"#utility.yul\":9889:9900   */\n          gt\n            /* \"#utility.yul\":9886:10332   */\n          iszero\n          tag_192\n          jumpi\n            /* \"#utility.yul\":9931:9969   */\n          tag_193\n            /* \"#utility.yul\":9963:9968   */\n          dup2\n            /* \"#utility.yul\":9931:9969   */\n          tag_60\n          jump\t// in\n        tag_193:\n            /* \"#utility.yul\":10015:10044   */\n          tag_194\n            /* \"#utility.yul\":10033:10043   */\n          dup5\n            /* \"#utility.yul\":10015:10044   */\n          tag_63\n          jump\t// in\n        tag_194:\n            /* \"#utility.yul\":10005:10013   */\n          dup2\n            /* \"#utility.yul\":10001:10045   */\n          add\n            /* \"#utility.yul\":10198:10200   */\n          0x20\n            /* \"#utility.yul\":10186:10196   */\n          dup6\n            /* \"#utility.yul\":10183:10201   */\n          lt\n            /* \"#utility.yul\":10180:10229   */\n          iszero\n          tag_195\n          jumpi\n            /* \"#utility.yul\":10219:10227   */\n          dup2\n            /* \"#utility.yul\":10204:10227   */\n          swap1\n          pop\n            /* \"#utility.yul\":10180:10229   */\n        tag_195:\n            /* \"#utility.yul\":10242:10322   */\n          tag_196\n            /* \"#utility.yul\":10298:10320   */\n          tag_197\n            /* \"#utility.yul\":10316:10319   */\n          dup6\n            /* \"#utility.yul\":10298:10320   */\n          tag_63\n          jump\t// in\n        tag_197:\n            /* \"#utility.yul\":10288:10296   */\n          dup4\n            /* \"#utility.yul\":10284:10321   */\n          add\n            /* \"#utility.yul\":10271:10282   */\n          dup3\n            /* \"#utility.yul\":10242:10322   */\n          tag_73\n          jump\t// in\n        tag_196:\n            /* \"#utility.yul\":9901:10332   */\n          pop\n          pop\n            /* \"#utility.yul\":9886:10332   */\n        tag_192:\n            /* \"#utility.yul\":9796:10339   */\n          pop\n          pop\n          pop\n          jump\t// out\n            /* \"#utility.yul\":10345:10462   */\n        tag_75:\n            /* \"#utility.yul\":10399:10407   */\n          0x00\n            /* \"#utility.yul\":10449:10454   */\n          dup3\n            /* \"#utility.yul\":10443:10447   */\n          dup3\n            /* \"#utility.yul\":10439:10455   */\n          shr\n            /* \"#utility.yul\":10418:10455   */\n          swap1\n          pop\n            /* \"#utility.yul\":10345:10462   */\n          swap3\n          swap2\n          pop\n          pop\n          jump\t// out\n            /* \"#utility.yul\":10468:10637   */\n        tag_76:\n            /* \"#utility.yul\":10512:10518   */\n          0x00\n            /* \"#utility.yul\":10545:10596   */\n          tag_200\n            /* \"#utility.yul\":10593:10594   */\n          0x00\n            /* \"#utility.yul\":10589:10595   */\n          not\n            /* \"#utility.yul\":10581:10586   */\n          dup5\n            /* \"#utility.yul\":10578:10579   */\n          0x08\n            /* \"#utility.yul\":10574:10587   */\n          mul\n            /* \"#utility.yul\":10545:10596   */\n          tag_75\n          jump\t// in\n        tag_200:\n            /* \"#utility.yul\":10541:10597   */\n          not\n            /* \"#utility.yul\":10626:10630   */\n          dup1\n            /* \"#utility.yul\":10620:10624   */\n          dup4\n            /* \"#utility.yul\":10616:10631   */\n          and\n            /* \"#utility.yul\":10606:10631   */\n          swap2\n          pop\n            /* \"#utility.yul\":10519:10637   */\n          pop\n            /* \"#utility.yul\":10468:10637   */\n          swap3\n          swap2\n          pop\n          pop\n          jump\t// out\n            /* \"#utility.yul\":10642:10937   */\n        tag_77:\n            /* \"#utility.yul\":10718:10722   */\n          0x00\n            /* \"#utility.yul\":10864:10893   */\n          tag_202\n            /* \"#utility.yul\":10889:10892   */\n          dup4\n            /* \"#utility.yul\":10883:10887   */\n          dup4\n            /* \"#utility.yul\":10864:10893   */\n          tag_76\n          jump\t// in\n        tag_202:\n            /* \"#utility.yul\":10856:10893   */\n          swap2\n          pop\n            /* \"#utility.yul\":10926:10929   */\n          dup3\n            /* \"#utility.yul\":10923:10924   */\n          0x02\n            /* \"#utility.yul\":10919:10930   */\n          mul\n            /* \"#utility.yul\":10913:10917   */\n          dup3\n            /* \"#utility.yul\":10910:10931   */\n          or\n            /* \"#utility.yul\":10902:10931   */\n          swap1\n          pop\n            /* \"#utility.yul\":10642:10937   */\n          swap3\n          swap2\n          pop\n          pop\n          jump\t// out\n            /* \"#utility.yul\":10942:12337   */\n        tag_22:\n            /* \"#utility.yul\":11059:11096   */\n          tag_204\n            /* \"#utility.yul\":11092:11095   */\n          dup3\n            /* \"#utility.yul\":11059:11096   */\n          tag_62\n          jump\t// in\n        tag_204:\n            /* \"#utility.yul\":11161:11179   */\n          0xffffffffffffffff\n            /* \"#utility.yul\":11153:11159   */\n          dup2\n            /* \"#utility.yul\":11150:11180   */\n          gt\n            /* \"#utility.yul\":11147:11203   */\n          iszero\n          tag_205\n          jumpi\n            /* \"#utility.yul\":11183:11201   */\n          tag_206\n          tag_46\n          jump\t// in\n        tag_206:\n            /* \"#utility.yul\":11147:11203   */\n        tag_205:\n            /* \"#utility.yul\":11227:11265   */\n          tag_207\n            /* \"#utility.yul\":11259:11263   */\n          dup3\n            /* \"#utility.yul\":11253:11264   */\n          sload\n            /* \"#utility.yul\":11227:11265   */\n          tag_30\n          jump\t// in\n        tag_207:\n            /* \"#utility.yul\":11312:11379   */\n          tag_208\n            /* \"#utility.yul\":11372:11378   */\n          dup3\n            /* \"#utility.yul\":11364:11370   */\n          dup3\n            /* \"#utility.yul\":11358:11362   */\n          dup6\n            /* \"#utility.yul\":11312:11379   */\n          tag_74\n          jump\t// in\n        tag_208:\n            /* \"#utility.yul\":11406:11407   */\n          0x00\n            /* \"#utility.yul\":11430:11434   */\n          0x20\n            /* \"#utility.yul\":11417:11434   */\n          swap1\n          pop\n            /* \"#utility.yul\":11462:11464   */\n          0x1f\n            /* \"#utility.yul\":11454:11460   */\n          dup4\n            /* \"#utility.yul\":11451:11465   */\n          gt\n            /* \"#utility.yul\":11479:11480   */\n          0x01\n            /* \"#utility.yul\":11474:12092   */\n          dup2\n          eq\n          tag_210\n          jumpi\n            /* \"#utility.yul\":12136:12137   */\n          0x00\n            /* \"#utility.yul\":12153:12159   */\n          dup5\n            /* \"#utility.yul\":12150:12227   */\n          iszero\n          tag_211\n          jumpi\n            /* \"#utility.yul\":12202:12211   */\n          dup3\n            /* \"#utility.yul\":12197:12200   */\n          dup8\n            /* \"#utility.yul\":12193:12212   */\n          add\n            /* \"#utility.yul\":12187:12213   */\n          mload\n            /* \"#utility.yul\":12178:12213   */\n          swap1\n          pop\n            /* \"#utility.yul\":12150:12227   */\n        tag_211:\n            /* \"#utility.yul\":12253:12320   */\n          tag_212\n            /* \"#utility.yul\":12313:12319   */\n          dup6\n            /* \"#utility.yul\":12306:12311   */\n          dup3\n            /* \"#utility.yul\":12253:12320   */\n          tag_77\n          jump\t// in\n        tag_212:\n            /* \"#utility.yul\":12247:12251   */\n          dup7\n            /* \"#utility.yul\":12240:12321   */\n          sstore\n            /* \"#utility.yul\":12109:12331   */\n          pop\n            /* \"#utility.yul\":11444:12331   */\n          jump(tag_209)\n            /* \"#utility.yul\":11474:12092   */\n        tag_210:\n            /* \"#utility.yul\":11526:11530   */\n          0x1f\n            /* \"#utility.yul\":11522:11531   */\n          not\n            /* \"#utility.yul\":11514:11520   */\n          dup5\n            /* \"#utility.yul\":11510:11532   */\n          and\n            /* \"#utility.yul\":11560:11597   */\n          tag_213\n            /* \"#utility.yul\":11592:11596   */\n          dup7\n            /* \"#utility.yul\":11560:11597   */\n          tag_60\n          jump\t// in\n        tag_213:\n            /* \"#utility.yul\":11619:11620   */\n          0x00\n            /* \"#utility.yul\":11633:11841   */\n        tag_214:\n            /* \"#utility.yul\":11647:11654   */\n          dup3\n            /* \"#utility.yul\":11644:11645   */\n          dup2\n            /* \"#utility.yul\":11641:11655   */\n          lt\n            /* \"#utility.yul\":11633:11841   */\n          iszero\n          tag_216\n          jumpi\n            /* \"#utility.yul\":11726:11735   */\n          dup5\n            /* \"#utility.yul\":11721:11724   */\n          dup10\n            /* \"#utility.yul\":11717:11736   */\n          add\n            /* \"#utility.yul\":11711:11737   */\n          mload\n            /* \"#utility.yul\":11703:11709   */\n          dup3\n            /* \"#utility.yul\":11696:11738   */\n          sstore\n            /* \"#utility.yul\":11777:11778   */\n          0x01\n            /* \"#utility.yul\":11769:11775   */\n          dup3\n            /* \"#utility.yul\":11765:11779   */\n          add\n            /* \"#utility.yul\":11755:11779   */\n          swap2\n          pop\n            /* \"#utility.yul\":11824:11826   */\n          0x20\n            /* \"#utility.yul\":11813:11822   */\n          dup6\n            /* \"#utility.yul\":11809:11827   */\n          add\n            /* \"#utility.yul\":11796:11827   */\n          swap5\n          pop\n            /* \"#utility.yul\":11670:11674   */\n          0x20\n            /* \"#utility.yul\":11667:11668   */\n          dup2\n            /* \"#utility.yul\":11663:11675   */\n          add\n            /* \"#utility.yul\":11658:11675   */\n          swap1\n          pop\n            /* \"#utility.yul\":11633:11841   */\n          jump(tag_214)\n        tag_216:\n            /* \"#utility.yul\":11869:11875   */\n          dup7\n            /* \"#utility.yul\":11860:11867   */\n          dup4\n            /* \"#utility.yul\":11857:11876   */\n          lt\n            /* \"#utility.yul\":11854:12033   */\n          iszero\n          tag_217\n          jumpi\n            /* \"#utility.yul\":11927:11936   */\n          dup5\n            /* \"#utility.yul\":11922:11925   */\n          dup10\n            /* \"#utility.yul\":11918:11937   */\n          add\n            /* \"#utility.yul\":11912:11938   */\n          mload\n            /* \"#utility.yul\":11970:12018   */\n          tag_218\n            /* \"#utility.yul\":12012:12016   */\n          0x1f\n            /* \"#utility.yul\":12004:12010   */\n          dup10\n            /* \"#utility.yul\":12000:12017   */\n          and\n            /* \"#utility.yul\":11989:11998   */\n          dup3\n            /* \"#utility.yul\":11970:12018   */\n          tag_76\n          jump\t// in\n        tag_218:\n            /* \"#utility.yul\":11962:11968   */\n          dup4\n            /* \"#utility.yul\":11955:12019   */\n          sstore\n            /* \"#utility.yul\":11877:12033   */\n          pop\n            /* \"#utility.yul\":11854:12033   */\n        tag_217:\n            /* \"#utility.yul\":12079:12080   */\n          0x01\n            /* \"#utility.yul\":12075:12076   */\n          0x02\n            /* \"#utility.yul\":12067:12073   */\n          dup9\n            /* \"#utility.yul\":12063:12077   */\n          mul\n            /* \"#utility.yul\":12059:12081   */\n          add\n            /* \"#utility.yul\":12053:12057   */\n          dup9\n            /* \"#utility.yul\":12046:12082   */\n          sstore\n            /* \"#utility.yul\":11481:12092   */\n          pop\n          pop\n          pop\n            /* \"#utility.yul\":11444:12331   */\n        tag_209:\n          pop\n            /* \"#utility.yul\":11034:12337   */\n          pop\n          pop\n          pop\n            /* \"#utility.yul\":10942:12337   */\n          pop\n          pop\n          jump\t// out\n            /* \"blockchain/contracts/Election.sol\":158:2177  contract Election {... */\n        tag_17:\n          dataSize(sub_0)\n          dup1\n          dataOffset(sub_0)\n          0x00\n          codecopy\n          0x00\n          return\n        stop\n\n        sub_0: assembly {\n                /* \"blockchain/contracts/Election.sol\":158:2177  contract Election {... */\n              mstore(0x40, 0x80)\n              callvalue\n              dup1\n              iszero\n              tag_1\n              jumpi\n              0x00\n              dup1\n              revert\n            tag_1:\n              pop\n              jumpi(tag_2, lt(calldatasize, 0x04))\n              shr(0xe0, calldataload(0x00))\n              dup1\n              0x06a49fce\n              eq\n              tag_3\n              jumpi\n              dup1\n              0x122902a6\n              eq\n              tag_4\n              jumpi\n              dup1\n              0x893d20e8\n              eq\n              tag_5\n              jumpi\n              dup1\n              0xe7b3387c\n              eq\n              tag_6\n              jumpi\n            tag_2:\n              0x00\n              dup1\n              revert\n                /* \"blockchain/contracts/Election.sol\":1305:1403  function getCandidates() public view returns(string[] memory) {... */\n            tag_3:\n              tag_7\n              tag_8\n              jump\t// in\n            tag_7:\n              mload(0x40)\n              tag_9\n              swap2\n              swap1\n              tag_10\n              jump\t// in\n            tag_9:\n              mload(0x40)\n              dup1\n              swap2\n              sub\n              swap1\n              return\n                /* \"blockchain/contracts/Election.sol\":1067:1156  function getElectionStatus() public view returns(bool) {... */\n            tag_4:\n              tag_11\n              tag_12\n              jump\t// in\n            tag_11:\n              mload(0x40)\n              tag_13\n              swap2\n              swap1\n              tag_14\n              jump\t// in\n            tag_13:\n              mload(0x40)\n              dup1\n              swap2\n              sub\n              swap1\n              return\n                /* \"blockchain/contracts/Election.sol\":2094:2174  function getOwner() public view returns(address) {... */\n            tag_5:\n              tag_15\n              tag_16\n              jump\t// in\n            tag_15:\n              mload(0x40)\n              tag_17\n              swap2\n              swap1\n              tag_18\n              jump\t// in\n            tag_17:\n              mload(0x40)\n              dup1\n              swap2\n              sub\n              swap1\n              return\n                /* \"blockchain/contracts/Election.sol\":1599:1956  function getVoteCount() public view returns(string[] memory candidateNames, uint256[] memory numVotes) {... */\n            tag_6:\n              tag_19\n              tag_20\n              jump\t// in\n            tag_19:\n              mload(0x40)\n              tag_21\n              swap3\n              swap2\n              swap1\n              tag_22\n              jump\t// in\n            tag_21:\n              mload(0x40)\n              dup1\n              swap2\n              sub\n              swap1\n              return\n                /* \"blockchain/contracts/Election.sol\":1305:1403  function getCandidates() public view returns(string[] memory) {... */\n            tag_8:\n                /* \"blockchain/contracts/Election.sol\":1350:1365  string[] memory */\n              0x60\n                /* \"blockchain/contracts/Election.sol\":1385:1395  candidates */\n              0x02\n                /* \"blockchain/contracts/Election.sol\":1378:1395  return candidates */\n              dup1\n              sload\n              dup1\n              0x20\n              mul\n              0x20\n              add\n              mload(0x40)\n              swap1\n              dup2\n              add\n              0x40\n              mstore\n              dup1\n              swap3\n              swap2\n              swap1\n              dup2\n              dup2\n              mstore\n              0x20\n              add\n              0x00\n              swap1\n            tag_24:\n              dup3\n              dup3\n              lt\n              iszero\n              tag_25\n              jumpi\n              dup4\n              dup3\n              swap1\n              0x00\n              mstore\n              keccak256(0x00, 0x20)\n              add\n              dup1\n              sload\n              tag_27\n              swap1\n              tag_28\n              jump\t// in\n            tag_27:\n              dup1\n              0x1f\n              add\n              0x20\n              dup1\n              swap2\n              div\n              mul\n              0x20\n              add\n              mload(0x40)\n              swap1\n              dup2\n              add\n              0x40\n              mstore\n              dup1\n              swap3\n              swap2\n              swap1\n              dup2\n              dup2\n              mstore\n              0x20\n              add\n              dup3\n              dup1\n              sload\n              tag_29\n              swap1\n              tag_28\n              jump\t// in\n            tag_29:\n              dup1\n              iszero\n              tag_30\n              jumpi\n              dup1\n              0x1f\n              lt\n              tag_31\n              jumpi\n              0x0100\n              dup1\n              dup4\n              sload\n              div\n              mul\n              dup4\n              mstore\n              swap2\n              0x20\n              add\n              swap2\n              jump(tag_30)\n            tag_31:\n              dup3\n              add\n              swap2\n              swap1\n              0x00\n              mstore\n              keccak256(0x00, 0x20)\n              swap1\n            tag_32:\n              dup2\n              sload\n              dup2\n              mstore\n              swap1\n              0x01\n              add\n              swap1\n              0x20\n              add\n              dup1\n              dup4\n              gt\n              tag_32\n              jumpi\n              dup3\n              swap1\n              sub\n              0x1f\n              and\n              dup3\n              add\n              swap2\n            tag_30:\n              pop\n              pop\n              pop\n              pop\n              pop\n              dup2\n              mstore\n              0x20\n              add\n              swap1\n              0x01\n              add\n              swap1\n              jump(tag_24)\n            tag_25:\n              pop\n              pop\n              pop\n              pop\n              swap1\n              pop\n                /* \"blockchain/contracts/Election.sol\":1305:1403  function getCandidates() public view returns(string[] memory) {... */\n              swap1\n              jump\t// out\n                /* \"blockchain/contracts/Election.sol\":1067:1156  function getElectionStatus() public view returns(bool) {... */\n            tag_12:\n                /* \"blockchain/contracts/Election.sol\":1116:1120  bool */\n              0x00\n                /* \"blockchain/contracts/Election.sol\":1140:1148  hasEnded */\n              0x06\n              0x00\n              swap1\n              sload\n              swap1\n              0x0100\n              exp\n              swap1\n              div\n              0xff\n              and\n                /* \"blockchain/contracts/Election.sol\":1133:1148  return hasEnded */\n              swap1\n              pop\n                /* \"blockchain/contracts/Election.sol\":1067:1156  function getElectionStatus() public view returns(bool) {... */\n              swap1\n              jump\t// out\n                /* \"blockchain/contracts/Election.sol\":2094:2174  function getOwner() public view returns(address) {... */\n            tag_16:\n                /* \"blockchain/contracts/Election.sol\":2134:2141  address */\n              0x00\n                /* \"blockchain/contracts/Election.sol\":2161:2166  owner */\n              dup1\n              0x00\n              swap1\n              sload\n              swap1\n              0x0100\n              exp\n              swap1\n              div\n              0xffffffffffffffffffffffffffffffffffffffff\n              and\n                /* \"blockchain/contracts/Election.sol\":2154:2166  return owner */\n              swap1\n              pop\n                /* \"blockchain/contracts/Election.sol\":2094:2174  function getOwner() public view returns(address) {... */\n              swap1\n              jump\t// out\n                /* \"blockchain/contracts/Election.sol\":1599:1956  function getVoteCount() public view returns(string[] memory candidateNames, uint256[] memory numVotes) {... */\n            tag_20:\n                /* \"blockchain/contracts/Election.sol\":1643:1673  string[] memory candidateNames */\n              0x60\n                /* \"blockchain/contracts/Election.sol\":1675:1700  uint256[] memory numVotes */\n              dup1\n                /* \"blockchain/contracts/Election.sol\":1713:1739  uint256[] memory _numVotes */\n              0x00\n                /* \"blockchain/contracts/Election.sol\":1756:1766  candidates */\n              0x02\n                /* \"blockchain/contracts/Election.sol\":1756:1773  candidates.length */\n              dup1\n              sload\n              swap1\n              pop\n                /* \"blockchain/contracts/Election.sol\":1742:1774  new uint256[](candidates.length) */\n              0xffffffffffffffff\n              dup2\n              gt\n              iszero\n              tag_36\n              jumpi\n              tag_37\n              tag_38\n              jump\t// in\n            tag_37:\n            tag_36:\n              mload(0x40)\n              swap1\n              dup1\n              dup3\n              mstore\n              dup1\n              0x20\n              mul\n              0x20\n              add\n              dup3\n              add\n              0x40\n              mstore\n              dup1\n              iszero\n              tag_39\n              jumpi\n              dup2\n              0x20\n              add\n              0x20\n              dup3\n              mul\n              dup1\n              calldatasize\n              dup4\n              calldatacopy\n              dup1\n              dup3\n              add\n              swap2\n              pop\n              pop\n              swap1\n              pop\n            tag_39:\n              pop\n                /* \"blockchain/contracts/Election.sol\":1713:1774  uint256[] memory _numVotes = new uint256[](candidates.length) */\n              swap1\n              pop\n                /* \"blockchain/contracts/Election.sol\":1792:1801  uint256 i */\n              0x00\n                /* \"blockchain/contracts/Election.sol\":1787:1906  for (uint256 i = 0; i < candidates.length; i++) {... */\n            tag_40:\n                /* \"blockchain/contracts/Election.sol\":1811:1821  candidates */\n              0x02\n                /* \"blockchain/contracts/Election.sol\":1811:1828  candidates.length */\n              dup1\n              sload\n              swap1\n              pop\n                /* \"blockchain/contracts/Election.sol\":1807:1808  i */\n              dup2\n                /* \"blockchain/contracts/Election.sol\":1807:1828  i < candidates.length */\n              lt\n                /* \"blockchain/contracts/Election.sol\":1787:1906  for (uint256 i = 0; i < candidates.length; i++) {... */\n              iszero\n              tag_41\n              jumpi\n                /* \"blockchain/contracts/Election.sol\":1865:1879  candidateVotes */\n              0x04\n                /* \"blockchain/contracts/Election.sol\":1880:1890  candidates */\n              0x02\n                /* \"blockchain/contracts/Election.sol\":1891:1892  i */\n              dup3\n                /* \"blockchain/contracts/Election.sol\":1880:1893  candidates[i] */\n              dup2\n              sload\n              dup2\n              lt\n              tag_43\n              jumpi\n              tag_44\n              tag_45\n              jump\t// in\n            tag_44:\n            tag_43:\n              swap1\n              0x00\n              mstore\n              keccak256(0x00, 0x20)\n              add\n                /* \"blockchain/contracts/Election.sol\":1865:1894  candidateVotes[candidates[i]] */\n              mload(0x40)\n              tag_47\n              swap2\n              swap1\n              tag_48\n              jump\t// in\n            tag_47:\n              swap1\n              dup2\n              mstore\n              0x20\n              add\n              mload(0x40)\n              dup1\n              swap2\n              sub\n              swap1\n              keccak256\n              sload\n                /* \"blockchain/contracts/Election.sol\":1850:1859  _numVotes */\n              dup3\n                /* \"blockchain/contracts/Election.sol\":1860:1861  i */\n              dup3\n                /* \"blockchain/contracts/Election.sol\":1850:1862  _numVotes[i] */\n              dup2\n              mload\n              dup2\n              lt\n              tag_49\n              jumpi\n              tag_50\n              tag_45\n              jump\t// in\n            tag_50:\n            tag_49:\n              0x20\n              mul\n              0x20\n              add\n              add\n                /* \"blockchain/contracts/Election.sol\":1850:1894  _numVotes[i] = candidateVotes[candidates[i]] */\n              dup2\n              dup2\n              mstore\n              pop\n              pop\n                /* \"blockchain/contracts/Election.sol\":1830:1833  i++ */\n              dup1\n              dup1\n              0x01\n              add\n              swap2\n              pop\n              pop\n                /* \"blockchain/contracts/Election.sol\":1787:1906  for (uint256 i = 0; i < candidates.length; i++) {... */\n              jump(tag_40)\n            tag_41:\n              pop\n                /* \"blockchain/contracts/Election.sol\":1926:1936  candidates */\n              0x02\n                /* \"blockchain/contracts/Election.sol\":1938:1947  _numVotes */\n              dup2\n                /* \"blockchain/contracts/Election.sol\":1918:1948  return (candidates, _numVotes) */\n              dup2\n              dup1\n              sload\n              dup1\n              0x20\n              mul\n              0x20\n              add\n              mload(0x40)\n              swap1\n              dup2\n              add\n              0x40\n              mstore\n              dup1\n              swap3\n              swap2\n              swap1\n              dup2\n              dup2\n              mstore\n              0x20\n              add\n              0x00\n              swap1\n            tag_51:\n              dup3\n              dup3\n              lt\n              iszero\n              tag_52\n              jumpi\n              dup4\n              dup3\n              swap1\n              0x00\n              mstore\n              keccak256(0x00, 0x20)\n              add\n              dup1\n              sload\n              tag_54\n              swap1\n              tag_28\n              jump\t// in\n            tag_54:\n              dup1\n              0x1f\n              add\n              0x20\n              dup1\n              swap2\n              div\n              mul\n              0x20\n              add\n              mload(0x40)\n              swap1\n              dup2\n              add\n              0x40\n              mstore\n              dup1\n              swap3\n              swap2\n              swap1\n              dup2\n              dup2\n              mstore\n              0x20\n              add\n              dup3\n              dup1\n              sload\n              tag_55\n              swap1\n              tag_28\n              jump\t// in\n            tag_55:\n              dup1\n              iszero\n              tag_56\n              jumpi\n              dup1\n              0x1f\n              lt\n              tag_57\n              jumpi\n              0x0100\n              dup1\n              dup4\n              sload\n              div\n              mul\n              dup4\n              mstore\n              swap2\n              0x20\n              add\n              swap2\n              jump(tag_56)\n            tag_57:\n              dup3\n              add\n              swap2\n              swap1\n              0x00\n              mstore\n              keccak256(0x00, 0x20)\n              swap1\n            tag_58:\n              dup2\n              sload\n              dup2\n              mstore\n              swap1\n              0x01\n              add\n              swap1\n              0x20\n              add\n              dup1\n              dup4\n              gt\n              tag_58\n              jumpi\n              dup3\n              swap1\n              sub\n              0x1f\n              and\n              dup3\n              add\n              swap2\n            tag_56:\n              pop\n              pop\n              pop\n              pop\n              pop\n              dup2\n              mstore\n              0x20\n              add\n              swap1\n              0x01\n              add\n              swap1\n              jump(tag_51)\n            tag_52:\n              pop\n              pop\n              pop\n              pop\n              swap2\n              pop\n              swap3\n              pop\n              swap3\n              pop\n              pop\n                /* \"blockchain/contracts/Election.sol\":1599:1956  function getVoteCount() public view returns(string[] memory candidateNames, uint256[] memory numVotes) {... */\n              swap1\n              swap2\n              jump\t// out\n                /* \"#utility.yul\":7:131   */\n            tag_59:\n                /* \"#utility.yul\":84:90   */\n              0x00\n                /* \"#utility.yul\":118:123   */\n              dup2\n                /* \"#utility.yul\":112:124   */\n              mload\n                /* \"#utility.yul\":102:124   */\n              swap1\n              pop\n                /* \"#utility.yul\":7:131   */\n              swap2\n              swap1\n              pop\n              jump\t// out\n                /* \"#utility.yul\":137:331   */\n            tag_60:\n                /* \"#utility.yul\":246:257   */\n              0x00\n                /* \"#utility.yul\":280:286   */\n              dup3\n                /* \"#utility.yul\":275:278   */\n              dup3\n                /* \"#utility.yul\":268:287   */\n              mstore\n                /* \"#utility.yul\":320:324   */\n              0x20\n                /* \"#utility.yul\":315:318   */\n              dup3\n                /* \"#utility.yul\":311:325   */\n              add\n                /* \"#utility.yul\":296:325   */\n              swap1\n              pop\n                /* \"#utility.yul\":137:331   */\n              swap3\n              swap2\n              pop\n              pop\n              jump\t// out\n                /* \"#utility.yul\":337:479   */\n            tag_61:\n                /* \"#utility.yul\":414:418   */\n              0x00\n                /* \"#utility.yul\":437:440   */\n              dup2\n                /* \"#utility.yul\":429:440   */\n              swap1\n              pop\n                /* \"#utility.yul\":467:471   */\n              0x20\n                /* \"#utility.yul\":462:465   */\n              dup3\n                /* \"#utility.yul\":458:472   */\n              add\n                /* \"#utility.yul\":450:472   */\n              swap1\n              pop\n                /* \"#utility.yul\":337:479   */\n              swap2\n              swap1\n              pop\n              jump\t// out\n                /* \"#utility.yul\":485:584   */\n            tag_62:\n                /* \"#utility.yul\":537:543   */\n              0x00\n                /* \"#utility.yul\":571:576   */\n              dup2\n                /* \"#utility.yul\":565:577   */\n              mload\n                /* \"#utility.yul\":555:577   */\n              swap1\n              pop\n                /* \"#utility.yul\":485:584   */\n              swap2\n              swap1\n              pop\n              jump\t// out\n                /* \"#utility.yul\":590:749   */\n            tag_63:\n                /* \"#utility.yul\":664:675   */\n              0x00\n                /* \"#utility.yul\":698:704   */\n              dup3\n                /* \"#utility.yul\":693:696   */\n              dup3\n                /* \"#utility.yul\":686:705   */\n              mstore\n                /* \"#utility.yul\":738:742   */\n              0x20\n                /* \"#utility.yul\":733:736   */\n              dup3\n                /* \"#utility.yul\":729:743   */\n              add\n                /* \"#utility.yul\":714:743   */\n              swap1\n              pop\n                /* \"#utility.yul\":590:749   */\n              swap3\n              swap2\n              pop\n              pop\n              jump\t// out\n                /* \"#utility.yul\":755:1001   */\n            tag_64:\n                /* \"#utility.yul\":836:837   */\n              0x00\n                /* \"#utility.yul\":846:959   */\n            tag_94:\n                /* \"#utility.yul\":860:866   */\n              dup4\n                /* \"#utility.yul\":857:858   */\n              dup2\n                /* \"#utility.yul\":854:867   */\n              lt\n                /* \"#utility.yul\":846:959   */\n              iszero\n              tag_96\n              jumpi\n                /* \"#utility.yul\":945:946   */\n              dup1\n                /* \"#utility.yul\":940:943   */\n              dup3\n                /* \"#utility.yul\":936:947   */\n              add\n                /* \"#utility.yul\":930:948   */\n              mload\n                /* \"#utility.yul\":926:927   */\n              dup2\n                /* \"#utility.yul\":921:924   */\n              dup5\n                /* \"#utility.yul\":917:928   */\n              add\n                /* \"#utility.yul\":910:949   */\n              mstore\n                /* \"#utility.yul\":882:884   */\n              0x20\n                /* \"#utility.yul\":879:880   */\n              dup2\n                /* \"#utility.yul\":875:885   */\n              add\n                /* \"#utility.yul\":870:885   */\n              swap1\n              pop\n                /* \"#utility.yul\":846:959   */\n              jump(tag_94)\n            tag_96:\n                /* \"#utility.yul\":993:994   */\n              0x00\n                /* \"#utility.yul\":984:990   */\n              dup5\n                /* \"#utility.yul\":979:982   */\n              dup5\n                /* \"#utility.yul\":975:991   */\n              add\n                /* \"#utility.yul\":968:995   */\n              mstore\n                /* \"#utility.yul\":817:1001   */\n              pop\n                /* \"#utility.yul\":755:1001   */\n              pop\n              pop\n              pop\n              jump\t// out\n                /* \"#utility.yul\":1007:1109   */\n            tag_65:\n                /* \"#utility.yul\":1048:1054   */\n              0x00\n                /* \"#utility.yul\":1099:1101   */\n              0x1f\n                /* \"#utility.yul\":1095:1102   */\n              not\n                /* \"#utility.yul\":1090:1092   */\n              0x1f\n                /* \"#utility.yul\":1083:1088   */\n              dup4\n                /* \"#utility.yul\":1079:1093   */\n              add\n                /* \"#utility.yul\":1075:1103   */\n              and\n                /* \"#utility.yul\":1065:1103   */\n              swap1\n              pop\n                /* \"#utility.yul\":1007:1109   */\n              swap2\n              swap1\n              pop\n              jump\t// out\n                /* \"#utility.yul\":1115:1472   */\n            tag_66:\n                /* \"#utility.yul\":1193:1196   */\n              0x00\n                /* \"#utility.yul\":1221:1260   */\n              tag_99\n                /* \"#utility.yul\":1254:1259   */\n              dup3\n                /* \"#utility.yul\":1221:1260   */\n              tag_62\n              jump\t// in\n            tag_99:\n                /* \"#utility.yul\":1276:1337   */\n              tag_100\n                /* \"#utility.yul\":1330:1336   */\n              dup2\n                /* \"#utility.yul\":1325:1328   */\n              dup6\n                /* \"#utility.yul\":1276:1337   */\n              tag_63\n              jump\t// in\n            tag_100:\n                /* \"#utility.yul\":1269:1337   */\n              swap4\n              pop\n                /* \"#utility.yul\":1346:1411   */\n              tag_101\n                /* \"#utility.yul\":1404:1410   */\n              dup2\n                /* \"#utility.yul\":1399:1402   */\n              dup6\n                /* \"#utility.yul\":1392:1396   */\n              0x20\n                /* \"#utility.yul\":1385:1390   */\n              dup7\n                /* \"#utility.yul\":1381:1397   */\n              add\n                /* \"#utility.yul\":1346:1411   */\n              tag_64\n              jump\t// in\n            tag_101:\n                /* \"#utility.yul\":1436:1465   */\n              tag_102\n                /* \"#utility.yul\":1458:1464   */\n              dup2\n                /* \"#utility.yul\":1436:1465   */\n              tag_65\n              jump\t// in\n            tag_102:\n                /* \"#utility.yul\":1431:1434   */\n              dup5\n                /* \"#utility.yul\":1427:1466   */\n              add\n                /* \"#utility.yul\":1420:1466   */\n              swap2\n              pop\n                /* \"#utility.yul\":1197:1472   */\n              pop\n                /* \"#utility.yul\":1115:1472   */\n              swap3\n              swap2\n              pop\n              pop\n              jump\t// out\n                /* \"#utility.yul\":1478:1674   */\n            tag_67:\n                /* \"#utility.yul\":1567:1577   */\n              0x00\n                /* \"#utility.yul\":1602:1668   */\n              tag_104\n                /* \"#utility.yul\":1664:1667   */\n              dup4\n                /* \"#utility.yul\":1656:1662   */\n              dup4\n                /* \"#utility.yul\":1602:1668   */\n              tag_66\n              jump\t// in\n            tag_104:\n                /* \"#utility.yul\":1588:1668   */\n              swap1\n              pop\n                /* \"#utility.yul\":1478:1674   */\n              swap3\n              swap2\n              pop\n              pop\n              jump\t// out\n                /* \"#utility.yul\":1680:1803   */\n            tag_68:\n                /* \"#utility.yul\":1760:1764   */\n              0x00\n                /* \"#utility.yul\":1792:1796   */\n              0x20\n                /* \"#utility.yul\":1787:1790   */\n              dup3\n                /* \"#utility.yul\":1783:1797   */\n              add\n                /* \"#utility.yul\":1775:1797   */\n              swap1\n              pop\n                /* \"#utility.yul\":1680:1803   */\n              swap2\n              swap1\n              pop\n              jump\t// out\n                /* \"#utility.yul\":1837:2828   */\n            tag_69:\n                /* \"#utility.yul\":1976:1979   */\n              0x00\n                /* \"#utility.yul\":2005:2069   */\n              tag_107\n                /* \"#utility.yul\":2063:2068   */\n              dup3\n                /* \"#utility.yul\":2005:2069   */\n              tag_59\n              jump\t// in\n            tag_107:\n                /* \"#utility.yul\":2085:2181   */\n              tag_108\n                /* \"#utility.yul\":2174:2180   */\n              dup2\n                /* \"#utility.yul\":2169:2172   */\n              dup6\n                /* \"#utility.yul\":2085:2181   */\n              tag_60\n              jump\t// in\n            tag_108:\n                /* \"#utility.yul\":2078:2181   */\n              swap4\n              pop\n                /* \"#utility.yul\":2207:2210   */\n              dup4\n                /* \"#utility.yul\":2252:2256   */\n              0x20\n                /* \"#utility.yul\":2244:2250   */\n              dup3\n                /* \"#utility.yul\":2240:2257   */\n              mul\n                /* \"#utility.yul\":2235:2238   */\n              dup6\n                /* \"#utility.yul\":2231:2258   */\n              add\n                /* \"#utility.yul\":2282:2348   */\n              tag_109\n                /* \"#utility.yul\":2342:2347   */\n              dup6\n                /* \"#utility.yul\":2282:2348   */\n              tag_61\n              jump\t// in\n            tag_109:\n                /* \"#utility.yul\":2371:2378   */\n              dup1\n                /* \"#utility.yul\":2402:2403   */\n              0x00\n                /* \"#utility.yul\":2387:2783   */\n            tag_110:\n                /* \"#utility.yul\":2412:2418   */\n              dup6\n                /* \"#utility.yul\":2409:2410   */\n              dup2\n                /* \"#utility.yul\":2406:2419   */\n              lt\n                /* \"#utility.yul\":2387:2783   */\n              iszero\n              tag_112\n              jumpi\n                /* \"#utility.yul\":2483:2492   */\n              dup5\n                /* \"#utility.yul\":2477:2481   */\n              dup5\n                /* \"#utility.yul\":2473:2493   */\n              sub\n                /* \"#utility.yul\":2468:2471   */\n              dup10\n                /* \"#utility.yul\":2461:2494   */\n              mstore\n                /* \"#utility.yul\":2534:2540   */\n              dup2\n                /* \"#utility.yul\":2528:2541   */\n              mload\n                /* \"#utility.yul\":2562:2646   */\n              tag_113\n                /* \"#utility.yul\":2641:2645   */\n              dup6\n                /* \"#utility.yul\":2626:2639   */\n              dup3\n                /* \"#utility.yul\":2562:2646   */\n              tag_67\n              jump\t// in\n            tag_113:\n                /* \"#utility.yul\":2554:2646   */\n              swap5\n              pop\n                /* \"#utility.yul\":2669:2739   */\n              tag_114\n                /* \"#utility.yul\":2732:2738   */\n              dup4\n                /* \"#utility.yul\":2669:2739   */\n              tag_68\n              jump\t// in\n            tag_114:\n                /* \"#utility.yul\":2659:2739   */\n              swap3\n              pop\n                /* \"#utility.yul\":2768:2772   */\n              0x20\n                /* \"#utility.yul\":2763:2766   */\n              dup11\n                /* \"#utility.yul\":2759:2773   */\n              add\n                /* \"#utility.yul\":2752:2773   */\n              swap10\n              pop\n                /* \"#utility.yul\":2447:2783   */\n              pop\n                /* \"#utility.yul\":2434:2435   */\n              0x01\n                /* \"#utility.yul\":2431:2432   */\n              dup2\n                /* \"#utility.yul\":2427:2436   */\n              add\n                /* \"#utility.yul\":2422:2436   */\n              swap1\n              pop\n                /* \"#utility.yul\":2387:2783   */\n              jump(tag_110)\n            tag_112:\n                /* \"#utility.yul\":2391:2405   */\n              pop\n                /* \"#utility.yul\":2799:2803   */\n              dup3\n                /* \"#utility.yul\":2792:2803   */\n              swap8\n              pop\n                /* \"#utility.yul\":2819:2822   */\n              dup8\n                /* \"#utility.yul\":2812:2822   */\n              swap6\n              pop\n                /* \"#utility.yul\":1981:2828   */\n              pop\n              pop\n              pop\n              pop\n              pop\n                /* \"#utility.yul\":1837:2828   */\n              swap3\n              swap2\n              pop\n              pop\n              jump\t// out\n                /* \"#utility.yul\":2834:3247   */\n            tag_10:\n                /* \"#utility.yul\":2997:3001   */\n              0x00\n                /* \"#utility.yul\":3035:3037   */\n              0x20\n                /* \"#utility.yul\":3024:3033   */\n              dup3\n                /* \"#utility.yul\":3020:3038   */\n              add\n                /* \"#utility.yul\":3012:3038   */\n              swap1\n              pop\n                /* \"#utility.yul\":3084:3093   */\n              dup2\n                /* \"#utility.yul\":3078:3082   */\n              dup2\n                /* \"#utility.yul\":3074:3094   */\n              sub\n                /* \"#utility.yul\":3070:3071   */\n              0x00\n                /* \"#utility.yul\":3059:3068   */\n              dup4\n                /* \"#utility.yul\":3055:3072   */\n              add\n                /* \"#utility.yul\":3048:3095   */\n              mstore\n                /* \"#utility.yul\":3112:3240   */\n              tag_116\n                /* \"#utility.yul\":3235:3239   */\n              dup2\n                /* \"#utility.yul\":3226:3232   */\n              dup5\n                /* \"#utility.yul\":3112:3240   */\n              tag_69\n              jump\t// in\n            tag_116:\n                /* \"#utility.yul\":3104:3240   */\n              swap1\n              pop\n                /* \"#utility.yul\":2834:3247   */\n              swap3\n              swap2\n              pop\n              pop\n              jump\t// out\n                /* \"#utility.yul\":3253:3343   */\n            tag_70:\n                /* \"#utility.yul\":3287:3294   */\n              0x00\n                /* \"#utility.yul\":3330:3335   */\n              dup2\n                /* \"#utility.yul\":3323:3336   */\n              iszero\n                /* \"#utility.yul\":3316:3337   */\n              iszero\n                /* \"#utility.yul\":3305:3337   */\n              swap1\n              pop\n                /* \"#utility.yul\":3253:3343   */\n              swap2\n              swap1\n              pop\n              jump\t// out\n                /* \"#utility.yul\":3349:3458   */\n            tag_71:\n                /* \"#utility.yul\":3430:3451   */\n              tag_119\n                /* \"#utility.yul\":3445:3450   */\n              dup2\n                /* \"#utility.yul\":3430:3451   */\n              tag_70\n              jump\t// in\n            tag_119:\n                /* \"#utility.yul\":3425:3428   */\n              dup3\n                /* \"#utility.yul\":3418:3452   */\n              mstore\n                /* \"#utility.yul\":3349:3458   */\n              pop\n              pop\n              jump\t// out\n                /* \"#utility.yul\":3464:3674   */\n            tag_14:\n                /* \"#utility.yul\":3551:3555   */\n              0x00\n                /* \"#utility.yul\":3589:3591   */\n              0x20\n                /* \"#utility.yul\":3578:3587   */\n              dup3\n                /* \"#utility.yul\":3574:3592   */\n              add\n                /* \"#utility.yul\":3566:3592   */\n              swap1\n              pop\n                /* \"#utility.yul\":3602:3667   */\n              tag_121\n                /* \"#utility.yul\":3664:3665   */\n              0x00\n                /* \"#utility.yul\":3653:3662   */\n              dup4\n                /* \"#utility.yul\":3649:3666   */\n              add\n                /* \"#utility.yul\":3640:3646   */\n              dup5\n                /* \"#utility.yul\":3602:3667   */\n              tag_71\n              jump\t// in\n            tag_121:\n                /* \"#utility.yul\":3464:3674   */\n              swap3\n              swap2\n              pop\n              pop\n              jump\t// out\n                /* \"#utility.yul\":3680:3806   */\n            tag_72:\n                /* \"#utility.yul\":3717:3724   */\n              0x00\n                /* \"#utility.yul\":3757:3799   */\n              0xffffffffffffffffffffffffffffffffffffffff\n                /* \"#utility.yul\":3750:3755   */\n              dup3\n                /* \"#utility.yul\":3746:3800   */\n              and\n                /* \"#utility.yul\":3735:3800   */\n              swap1\n              pop\n                /* \"#utility.yul\":3680:3806   */\n              swap2\n              swap1\n              pop\n              jump\t// out\n                /* \"#utility.yul\":3812:3908   */\n            tag_73:\n                /* \"#utility.yul\":3849:3856   */\n              0x00\n                /* \"#utility.yul\":3878:3902   */\n              tag_124\n                /* \"#utility.yul\":3896:3901   */\n              dup3\n                /* \"#utility.yul\":3878:3902   */\n              tag_72\n              jump\t// in\n            tag_124:\n                /* \"#utility.yul\":3867:3902   */\n              swap1\n              pop\n                /* \"#utility.yul\":3812:3908   */\n              swap2\n              swap1\n              pop\n              jump\t// out\n                /* \"#utility.yul\":3914:4032   */\n            tag_74:\n                /* \"#utility.yul\":4001:4025   */\n              tag_126\n                /* \"#utility.yul\":4019:4024   */\n              dup2\n                /* \"#utility.yul\":4001:4025   */\n              tag_73\n              jump\t// in\n            tag_126:\n                /* \"#utility.yul\":3996:3999   */\n              dup3\n                /* \"#utility.yul\":3989:4026   */\n              mstore\n                /* \"#utility.yul\":3914:4032   */\n              pop\n              pop\n              jump\t// out\n                /* \"#utility.yul\":4038:4260   */\n            tag_18:\n                /* \"#utility.yul\":4131:4135   */\n              0x00\n                /* \"#utility.yul\":4169:4171   */\n              0x20\n                /* \"#utility.yul\":4158:4167   */\n              dup3\n                /* \"#utility.yul\":4154:4172   */\n              add\n                /* \"#utility.yul\":4146:4172   */\n              swap1\n              pop\n                /* \"#utility.yul\":4182:4253   */\n              tag_128\n                /* \"#utility.yul\":4250:4251   */\n              0x00\n                /* \"#utility.yul\":4239:4248   */\n              dup4\n                /* \"#utility.yul\":4235:4252   */\n              add\n                /* \"#utility.yul\":4226:4232   */\n              dup5\n                /* \"#utility.yul\":4182:4253   */\n              tag_74\n              jump\t// in\n            tag_128:\n                /* \"#utility.yul\":4038:4260   */\n              swap3\n              swap2\n              pop\n              pop\n              jump\t// out\n                /* \"#utility.yul\":4266:4380   */\n            tag_75:\n                /* \"#utility.yul\":4333:4339   */\n              0x00\n                /* \"#utility.yul\":4367:4372   */\n              dup2\n                /* \"#utility.yul\":4361:4373   */\n              mload\n                /* \"#utility.yul\":4351:4373   */\n              swap1\n              pop\n                /* \"#utility.yul\":4266:4380   */\n              swap2\n              swap1\n              pop\n              jump\t// out\n                /* \"#utility.yul\":4386:4570   */\n            tag_76:\n                /* \"#utility.yul\":4485:4496   */\n              0x00\n                /* \"#utility.yul\":4519:4525   */\n              dup3\n                /* \"#utility.yul\":4514:4517   */\n              dup3\n                /* \"#utility.yul\":4507:4526   */\n              mstore\n                /* \"#utility.yul\":4559:4563   */\n              0x20\n                /* \"#utility.yul\":4554:4557   */\n              dup3\n                /* \"#utility.yul\":4550:4564   */\n              add\n                /* \"#utility.yul\":4535:4564   */\n              swap1\n              pop\n                /* \"#utility.yul\":4386:4570   */\n              swap3\n              swap2\n              pop\n              pop\n              jump\t// out\n                /* \"#utility.yul\":4576:4708   */\n            tag_77:\n                /* \"#utility.yul\":4643:4647   */\n              0x00\n                /* \"#utility.yul\":4666:4669   */\n              dup2\n                /* \"#utility.yul\":4658:4669   */\n              swap1\n              pop\n                /* \"#utility.yul\":4696:4700   */\n              0x20\n                /* \"#utility.yul\":4691:4694   */\n              dup3\n                /* \"#utility.yul\":4687:4701   */\n              add\n                /* \"#utility.yul\":4679:4701   */\n              swap1\n              pop\n                /* \"#utility.yul\":4576:4708   */\n              swap2\n              swap1\n              pop\n              jump\t// out\n                /* \"#utility.yul\":4714:4791   */\n            tag_78:\n                /* \"#utility.yul\":4751:4758   */\n              0x00\n                /* \"#utility.yul\":4780:4785   */\n              dup2\n                /* \"#utility.yul\":4769:4785   */\n              swap1\n              pop\n                /* \"#utility.yul\":4714:4791   */\n              swap2\n              swap1\n              pop\n              jump\t// out\n                /* \"#utility.yul\":4797:4905   */\n            tag_79:\n                /* \"#utility.yul\":4874:4898   */\n              tag_134\n                /* \"#utility.yul\":4892:4897   */\n              dup2\n                /* \"#utility.yul\":4874:4898   */\n              tag_78\n              jump\t// in\n            tag_134:\n                /* \"#utility.yul\":4869:4872   */\n              dup3\n                /* \"#utility.yul\":4862:4899   */\n              mstore\n                /* \"#utility.yul\":4797:4905   */\n              pop\n              pop\n              jump\t// out\n                /* \"#utility.yul\":4911:5090   */\n            tag_80:\n                /* \"#utility.yul\":4980:4990   */\n              0x00\n                /* \"#utility.yul\":5001:5047   */\n              tag_136\n                /* \"#utility.yul\":5043:5046   */\n              dup4\n                /* \"#utility.yul\":5035:5041   */\n              dup4\n                /* \"#utility.yul\":5001:5047   */\n              tag_79\n              jump\t// in\n            tag_136:\n                /* \"#utility.yul\":5079:5083   */\n              0x20\n                /* \"#utility.yul\":5074:5077   */\n              dup4\n                /* \"#utility.yul\":5070:5084   */\n              add\n                /* \"#utility.yul\":5056:5084   */\n              swap1\n              pop\n                /* \"#utility.yul\":4911:5090   */\n              swap3\n              swap2\n              pop\n              pop\n              jump\t// out\n                /* \"#utility.yul\":5096:5209   */\n            tag_81:\n                /* \"#utility.yul\":5166:5170   */\n              0x00\n                /* \"#utility.yul\":5198:5202   */\n              0x20\n                /* \"#utility.yul\":5193:5196   */\n              dup3\n                /* \"#utility.yul\":5189:5203   */\n              add\n                /* \"#utility.yul\":5181:5203   */\n              swap1\n              pop\n                /* \"#utility.yul\":5096:5209   */\n              swap2\n              swap1\n              pop\n              jump\t// out\n                /* \"#utility.yul\":5245:5977   */\n            tag_82:\n                /* \"#utility.yul\":5364:5367   */\n              0x00\n                /* \"#utility.yul\":5393:5447   */\n              tag_139\n                /* \"#utility.yul\":5441:5446   */\n              dup3\n                /* \"#utility.yul\":5393:5447   */\n              tag_75\n              jump\t// in\n            tag_139:\n                /* \"#utility.yul\":5463:5549   */\n              tag_140\n                /* \"#utility.yul\":5542:5548   */\n              dup2\n                /* \"#utility.yul\":5537:5540   */\n              dup6\n                /* \"#utility.yul\":5463:5549   */\n              tag_76\n              jump\t// in\n            tag_140:\n                /* \"#utility.yul\":5456:5549   */\n              swap4\n              pop\n                /* \"#utility.yul\":5573:5629   */\n              tag_141\n                /* \"#utility.yul\":5623:5628   */\n              dup4\n                /* \"#utility.yul\":5573:5629   */\n              tag_77\n              jump\t// in\n            tag_141:\n                /* \"#utility.yul\":5652:5659   */\n              dup1\n                /* \"#utility.yul\":5683:5684   */\n              0x00\n                /* \"#utility.yul\":5668:5952   */\n            tag_142:\n                /* \"#utility.yul\":5693:5699   */\n              dup4\n                /* \"#utility.yul\":5690:5691   */\n              dup2\n                /* \"#utility.yul\":5687:5700   */\n              lt\n                /* \"#utility.yul\":5668:5952   */\n              iszero\n              tag_144\n              jumpi\n                /* \"#utility.yul\":5769:5775   */\n              dup2\n                /* \"#utility.yul\":5763:5776   */\n              mload\n                /* \"#utility.yul\":5796:5859   */\n              tag_145\n                /* \"#utility.yul\":5855:5858   */\n              dup9\n                /* \"#utility.yul\":5840:5853   */\n              dup3\n                /* \"#utility.yul\":5796:5859   */\n              tag_80\n              jump\t// in\n            tag_145:\n                /* \"#utility.yul\":5789:5859   */\n              swap8\n              pop\n                /* \"#utility.yul\":5882:5942   */\n              tag_146\n                /* \"#utility.yul\":5935:5941   */\n              dup4\n                /* \"#utility.yul\":5882:5942   */\n              tag_81\n              jump\t// in\n            tag_146:\n                /* \"#utility.yul\":5872:5942   */\n              swap3\n              pop\n                /* \"#utility.yul\":5728:5952   */\n              pop\n                /* \"#utility.yul\":5715:5716   */\n              0x01\n                /* \"#utility.yul\":5712:5713   */\n              dup2\n                /* \"#utility.yul\":5708:5717   */\n              add\n                /* \"#utility.yul\":5703:5717   */\n              swap1\n              pop\n                /* \"#utility.yul\":5668:5952   */\n              jump(tag_142)\n            tag_144:\n                /* \"#utility.yul\":5672:5686   */\n              pop\n                /* \"#utility.yul\":5968:5971   */\n              dup6\n                /* \"#utility.yul\":5961:5971   */\n              swap4\n              pop\n                /* \"#utility.yul\":5369:5977   */\n              pop\n              pop\n              pop\n                /* \"#utility.yul\":5245:5977   */\n              swap3\n              swap2\n              pop\n              pop\n              jump\t// out\n                /* \"#utility.yul\":5983:6657   */\n            tag_22:\n                /* \"#utility.yul\":6224:6228   */\n              0x00\n                /* \"#utility.yul\":6262:6264   */\n              0x40\n                /* \"#utility.yul\":6251:6260   */\n              dup3\n                /* \"#utility.yul\":6247:6265   */\n              add\n                /* \"#utility.yul\":6239:6265   */\n              swap1\n              pop\n                /* \"#utility.yul\":6311:6320   */\n              dup2\n                /* \"#utility.yul\":6305:6309   */\n              dup2\n                /* \"#utility.yul\":6301:6321   */\n              sub\n                /* \"#utility.yul\":6297:6298   */\n              0x00\n                /* \"#utility.yul\":6286:6295   */\n              dup4\n                /* \"#utility.yul\":6282:6299   */\n              add\n                /* \"#utility.yul\":6275:6322   */\n              mstore\n                /* \"#utility.yul\":6339:6467   */\n              tag_148\n                /* \"#utility.yul\":6462:6466   */\n              dup2\n                /* \"#utility.yul\":6453:6459   */\n              dup6\n                /* \"#utility.yul\":6339:6467   */\n              tag_69\n              jump\t// in\n            tag_148:\n                /* \"#utility.yul\":6331:6467   */\n              swap1\n              pop\n                /* \"#utility.yul\":6514:6523   */\n              dup2\n                /* \"#utility.yul\":6508:6512   */\n              dup2\n                /* \"#utility.yul\":6504:6524   */\n              sub\n                /* \"#utility.yul\":6499:6501   */\n              0x20\n                /* \"#utility.yul\":6488:6497   */\n              dup4\n                /* \"#utility.yul\":6484:6502   */\n              add\n                /* \"#utility.yul\":6477:6525   */\n              mstore\n                /* \"#utility.yul\":6542:6650   */\n              tag_149\n                /* \"#utility.yul\":6645:6649   */\n              dup2\n                /* \"#utility.yul\":6636:6642   */\n              dup5\n                /* \"#utility.yul\":6542:6650   */\n              tag_82\n              jump\t// in\n            tag_149:\n                /* \"#utility.yul\":6534:6650   */\n              swap1\n              pop\n                /* \"#utility.yul\":5983:6657   */\n              swap4\n              swap3\n              pop\n              pop\n              pop\n              jump\t// out\n                /* \"#utility.yul\":6663:6843   */\n            tag_83:\n                /* \"#utility.yul\":6711:6788   */\n              0x4e487b7100000000000000000000000000000000000000000000000000000000\n                /* \"#utility.yul\":6708:6709   */\n              0x00\n                /* \"#utility.yul\":6701:6789   */\n              mstore\n                /* \"#utility.yul\":6808:6812   */\n              0x22\n                /* \"#utility.yul\":6805:6806   */\n              0x04\n                /* \"#utility.yul\":6798:6813   */\n              mstore\n                /* \"#utility.yul\":6832:6836   */\n              0x24\n                /* \"#utility.yul\":6829:6830   */\n              0x00\n                /* \"#utility.yul\":6822:6837   */\n              revert\n                /* \"#utility.yul\":6849:7169   */\n            tag_28:\n                /* \"#utility.yul\":6893:6899   */\n              0x00\n                /* \"#utility.yul\":6930:6931   */\n              0x02\n                /* \"#utility.yul\":6924:6928   */\n              dup3\n                /* \"#utility.yul\":6920:6932   */\n              div\n                /* \"#utility.yul\":6910:6932   */\n              swap1\n              pop\n                /* \"#utility.yul\":6977:6978   */\n              0x01\n                /* \"#utility.yul\":6971:6975   */\n              dup3\n                /* \"#utility.yul\":6967:6979   */\n              and\n                /* \"#utility.yul\":6998:7016   */\n              dup1\n                /* \"#utility.yul\":6988:7069   */\n              tag_152\n              jumpi\n                /* \"#utility.yul\":7054:7058   */\n              0x7f\n                /* \"#utility.yul\":7046:7052   */\n              dup3\n                /* \"#utility.yul\":7042:7059   */\n              and\n                /* \"#utility.yul\":7032:7059   */\n              swap2\n              pop\n                /* \"#utility.yul\":6988:7069   */\n            tag_152:\n                /* \"#utility.yul\":7116:7118   */\n              0x20\n                /* \"#utility.yul\":7108:7114   */\n              dup3\n                /* \"#utility.yul\":7105:7119   */\n              lt\n                /* \"#utility.yul\":7085:7103   */\n              dup2\n                /* \"#utility.yul\":7082:7120   */\n              sub\n                /* \"#utility.yul\":7079:7163   */\n              tag_153\n              jumpi\n                /* \"#utility.yul\":7135:7153   */\n              tag_154\n              tag_83\n              jump\t// in\n            tag_154:\n                /* \"#utility.yul\":7079:7163   */\n            tag_153:\n                /* \"#utility.yul\":6900:7169   */\n              pop\n                /* \"#utility.yul\":6849:7169   */\n              swap2\n              swap1\n              pop\n              jump\t// out\n                /* \"#utility.yul\":7175:7355   */\n            tag_38:\n                /* \"#utility.yul\":7223:7300   */\n              0x4e487b7100000000000000000000000000000000000000000000000000000000\n                /* \"#utility.yul\":7220:7221   */\n              0x00\n                /* \"#utility.yul\":7213:7301   */\n              mstore\n                /* \"#utility.yul\":7320:7324   */\n              0x41\n                /* \"#utility.yul\":7317:7318   */\n              0x04\n                /* \"#utility.yul\":7310:7325   */\n              mstore\n                /* \"#utility.yul\":7344:7348   */\n              0x24\n                /* \"#utility.yul\":7341:7342   */\n              0x00\n                /* \"#utility.yul\":7334:7349   */\n              revert\n                /* \"#utility.yul\":7361:7541   */\n            tag_45:\n                /* \"#utility.yul\":7409:7486   */\n              0x4e487b7100000000000000000000000000000000000000000000000000000000\n                /* \"#utility.yul\":7406:7407   */\n              0x00\n                /* \"#utility.yul\":7399:7487   */\n              mstore\n                /* \"#utility.yul\":7506:7510   */\n              0x32\n                /* \"#utility.yul\":7503:7504   */\n              0x04\n                /* \"#utility.yul\":7496:7511   */\n              mstore\n                /* \"#utility.yul\":7530:7534   */\n              0x24\n                /* \"#utility.yul\":7527:7528   */\n              0x00\n                /* \"#utility.yul\":7520:7535   */\n              revert\n                /* \"#utility.yul\":7547:7695   */\n            tag_84:\n                /* \"#utility.yul\":7649:7660   */\n              0x00\n                /* \"#utility.yul\":7686:7689   */\n              dup2\n                /* \"#utility.yul\":7671:7689   */\n              swap1\n              pop\n                /* \"#utility.yul\":7547:7695   */\n              swap3\n              swap2\n              pop\n              pop\n              jump\t// out\n                /* \"#utility.yul\":7701:7842   */\n            tag_85:\n                /* \"#utility.yul\":7750:7754   */\n              0x00\n                /* \"#utility.yul\":7773:7776   */\n              dup2\n                /* \"#utility.yul\":7765:7776   */\n              swap1\n              pop\n                /* \"#utility.yul\":7796:7799   */\n              dup2\n                /* \"#utility.yul\":7793:7794   */\n              0x00\n                /* \"#utility.yul\":7786:7800   */\n              mstore\n                /* \"#utility.yul\":7830:7834   */\n              0x20\n                /* \"#utility.yul\":7827:7828   */\n              0x00\n                /* \"#utility.yul\":7817:7835   */\n              keccak256\n                /* \"#utility.yul\":7809:7835   */\n              swap1\n              pop\n                /* \"#utility.yul\":7701:7842   */\n              swap2\n              swap1\n              pop\n              jump\t// out\n                /* \"#utility.yul\":7872:8746   */\n            tag_86:\n                /* \"#utility.yul\":7975:7978   */\n              0x00\n                /* \"#utility.yul\":8012:8017   */\n              dup2\n                /* \"#utility.yul\":8006:8018   */\n              sload\n                /* \"#utility.yul\":8041:8077   */\n              tag_160\n                /* \"#utility.yul\":8067:8076   */\n              dup2\n                /* \"#utility.yul\":8041:8077   */\n              tag_28\n              jump\t// in\n            tag_160:\n                /* \"#utility.yul\":8093:8182   */\n              tag_161\n                /* \"#utility.yul\":8175:8181   */\n              dup2\n                /* \"#utility.yul\":8170:8173   */\n              dup7\n                /* \"#utility.yul\":8093:8182   */\n              tag_84\n              jump\t// in\n            tag_161:\n                /* \"#utility.yul\":8086:8182   */\n              swap5\n              pop\n                /* \"#utility.yul\":8213:8214   */\n              0x01\n                /* \"#utility.yul\":8202:8211   */\n              dup3\n                /* \"#utility.yul\":8198:8215   */\n              and\n                /* \"#utility.yul\":8229:8230   */\n              0x00\n                /* \"#utility.yul\":8224:8390   */\n              dup2\n              eq\n              tag_163\n              jumpi\n                /* \"#utility.yul\":8404:8405   */\n              0x01\n                /* \"#utility.yul\":8399:8740   */\n              dup2\n              eq\n              tag_164\n              jumpi\n                /* \"#utility.yul\":8191:8740   */\n              jump(tag_162)\n                /* \"#utility.yul\":8224:8390   */\n            tag_163:\n                /* \"#utility.yul\":8308:8312   */\n              0xff\n                /* \"#utility.yul\":8304:8313   */\n              not\n                /* \"#utility.yul\":8293:8302   */\n              dup4\n                /* \"#utility.yul\":8289:8314   */\n              and\n                /* \"#utility.yul\":8284:8287   */\n              dup7\n                /* \"#utility.yul\":8277:8315   */\n              mstore\n                /* \"#utility.yul\":8370:8376   */\n              dup2\n                /* \"#utility.yul\":8363:8377   */\n              iszero\n                /* \"#utility.yul\":8356:8378   */\n              iszero\n                /* \"#utility.yul\":8348:8354   */\n              dup3\n                /* \"#utility.yul\":8344:8379   */\n              mul\n                /* \"#utility.yul\":8339:8342   */\n              dup7\n                /* \"#utility.yul\":8335:8380   */\n              add\n                /* \"#utility.yul\":8328:8380   */\n              swap4\n              pop\n                /* \"#utility.yul\":8224:8390   */\n              jump(tag_162)\n                /* \"#utility.yul\":8399:8740   */\n            tag_164:\n                /* \"#utility.yul\":8466:8504   */\n              tag_165\n                /* \"#utility.yul\":8498:8503   */\n              dup6\n                /* \"#utility.yul\":8466:8504   */\n              tag_85\n              jump\t// in\n            tag_165:\n                /* \"#utility.yul\":8526:8527   */\n              0x00\n                /* \"#utility.yul\":8540:8694   */\n            tag_166:\n                /* \"#utility.yul\":8554:8560   */\n              dup4\n                /* \"#utility.yul\":8551:8552   */\n              dup2\n                /* \"#utility.yul\":8548:8561   */\n              lt\n                /* \"#utility.yul\":8540:8694   */\n              iszero\n              tag_168\n              jumpi\n                /* \"#utility.yul\":8628:8635   */\n              dup2\n                /* \"#utility.yul\":8622:8636   */\n              sload\n                /* \"#utility.yul\":8618:8619   */\n              dup2\n                /* \"#utility.yul\":8613:8616   */\n              dup10\n                /* \"#utility.yul\":8609:8620   */\n              add\n                /* \"#utility.yul\":8602:8637   */\n              mstore\n                /* \"#utility.yul\":8678:8679   */\n              0x01\n                /* \"#utility.yul\":8669:8676   */\n              dup3\n                /* \"#utility.yul\":8665:8680   */\n              add\n                /* \"#utility.yul\":8654:8680   */\n              swap2\n              pop\n                /* \"#utility.yul\":8576:8580   */\n              0x20\n                /* \"#utility.yul\":8573:8574   */\n              dup2\n                /* \"#utility.yul\":8569:8581   */\n              add\n                /* \"#utility.yul\":8564:8581   */\n              swap1\n              pop\n                /* \"#utility.yul\":8540:8694   */\n              jump(tag_166)\n            tag_168:\n                /* \"#utility.yul\":8723:8729   */\n              dup4\n                /* \"#utility.yul\":8718:8721   */\n              dup9\n                /* \"#utility.yul\":8714:8730   */\n              add\n                /* \"#utility.yul\":8707:8730   */\n              swap6\n              pop\n                /* \"#utility.yul\":8406:8740   */\n              pop\n              pop\n                /* \"#utility.yul\":8191:8740   */\n            tag_162:\n              pop\n                /* \"#utility.yul\":7979:8746   */\n              pop\n              pop\n                /* \"#utility.yul\":7872:8746   */\n              swap3\n              swap2\n              pop\n              pop\n              jump\t// out\n                /* \"#utility.yul\":8752:9021   */\n            tag_48:\n                /* \"#utility.yul\":8881:8884   */\n              0x00\n                /* \"#utility.yul\":8903:8995   */\n              tag_170\n                /* \"#utility.yul\":8991:8994   */\n              dup3\n                /* \"#utility.yul\":8982:8988   */\n              dup5\n                /* \"#utility.yul\":8903:8995   */\n              tag_86\n              jump\t// in\n            tag_170:\n                /* \"#utility.yul\":8896:8995   */\n              swap2\n              pop\n                /* \"#utility.yul\":9012:9015   */\n              dup2\n                /* \"#utility.yul\":9005:9015   */\n              swap1\n              pop\n                /* \"#utility.yul\":8752:9021   */\n              swap3\n              swap2\n              pop\n              pop\n              jump\t// out\n\n            auxdata: 0xa2646970667358221220093c89e23fa6894721b55d76df49c9a7f964b316a1e327a369388fddcb1b813c64736f6c63430008160033\n        }\n    }\n\n    auxdata: 0xa264697066735822122092921691ec22e73b1ad215f5b5e15942796e2b19e0d06b34903e8f787c27afd364736f6c63430008160033\n}\n",
				"bytecode": {
					"linkReferences": {},
					"object": "608060405234801561000f575f80fd5b50611f3d8061001d5f395ff3fe608060405234801562000010575f80fd5b506004361062000044575f3560e01c80639f3a7f521462000048578063dbdcbeac146200006b578063f8c5d5e6146200008d575b5f80fd5b62000052620000ad565b60405162000062929190620006bb565b60405180910390f35b620000756200014a565b60405162000084919062000710565b60405180910390f35b620000ab6004803603810190620000a591906200097c565b6200036d565b005b6060805f8054906101000a900473ffffffffffffffffffffffffffffffffffffffff1673ffffffffffffffffffffffffffffffffffffffff1663e7b3387c6040518163ffffffff1660e01b81526004015f60405180830381865afa15801562000118573d5f803e3d5ffd5b505050506040513d5f823e3d601f19601f8201168201806040525081019062000142919062000c0f565b915091509091565b5f60015f3373ffffffffffffffffffffffffffffffffffffffff1673ffffffffffffffffffffffffffffffffffffffff1681526020019081526020015f205f9054906101000a900473ffffffffffffffffffffffffffffffffffffffff165f806101000a81548173ffffffffffffffffffffffffffffffffffffffff021916908373ffffffffffffffffffffffffffffffffffffffff1602179055505f805f9054906101000a900473ffffffffffffffffffffffffffffffffffffffff1673ffffffffffffffffffffffffffffffffffffffff1663893d20e86040518163ffffffff1660e01b8152600401602060405180830381865afa15801562000251573d5f803e3d5ffd5b505050506040513d601f19601f8201168201806040525081019062000277919062000cf3565b90503373ffffffffffffffffffffffffffffffffffffffff168173ffffffffffffffffffffffffffffffffffffffff1614620002b85760019150506200036a565b5f805f9054906101000a900473ffffffffffffffffffffffffffffffffffffffff1673ffffffffffffffffffffffffffffffffffffffff1663122902a66040518163ffffffff1660e01b8152600401602060405180830381865afa15801562000323573d5f803e3d5ffd5b505050506040513d601f19601f8201168201806040525081019062000349919062000d52565b9050600115158115150362000363575f925050506200036a565b6001925050505b90565b33816040516200037d9062000480565b6200038a92919062000d93565b604051809103905ff080158015620003a4573d5f803e3d5ffd5b505f806101000a81548173ffffffffffffffffffffffffffffffffffffffff021916908373ffffffffffffffffffffffffffffffffffffffff1602179055505f8054906101000a900473ffffffffffffffffffffffffffffffffffffffff1660015f3373ffffffffffffffffffffffffffffffffffffffff1673ffffffffffffffffffffffffffffffffffffffff1681526020019081526020015f205f6101000a81548173ffffffffffffffffffffffffffffffffffffffff021916908373ffffffffffffffffffffffffffffffffffffffff16021790555050565b6111428062000dc683390190565b5f81519050919050565b5f82825260208201905092915050565b5f819050602082019050919050565b5f81519050919050565b5f82825260208201905092915050565b5f5b83811015620004f0578082015181840152602081019050620004d3565b5f8484015250505050565b5f601f19601f8301169050919050565b5f6200051782620004b7565b620005238185620004c1565b935062000535818560208601620004d1565b6200054081620004fb565b840191505092915050565b5f6200055883836200050b565b905092915050565b5f602082019050919050565b5f62000578826200048e565b62000584818562000498565b9350836020820285016200059885620004a8565b805f5b85811015620005d95784840389528151620005b785826200054b565b9450620005c48362000560565b925060208a019950506001810190506200059b565b50829750879550505050505092915050565b5f81519050919050565b5f82825260208201905092915050565b5f819050602082019050919050565b5f819050919050565b620006288162000614565b82525050565b5f6200063b83836200061d565b60208301905092915050565b5f602082019050919050565b5f6200065f82620005eb565b6200066b8185620005f5565b9350620006788362000605565b805f5b83811015620006ae5781516200069288826200062e565b97506200069f8362000647565b9250506001810190506200067b565b5085935050505092915050565b5f6040820190508181035f830152620006d581856200056c565b90508181036020830152620006eb818462000653565b90509392505050565b5f8115159050919050565b6200070a81620006f4565b82525050565b5f602082019050620007255f830184620006ff565b92915050565b5f604051905090565b5f80fd5b5f80fd5b5f80fd5b7f4e487b71000000000000000000000000000000000000000000000000000000005f52604160045260245ffd5b6200077882620004fb565b810181811067ffffffffffffffff821117156200079a576200079962000740565b5b80604052505050565b5f620007ae6200072b565b9050620007bc82826200076d565b919050565b5f67ffffffffffffffff821115620007de57620007dd62000740565b5b602082029050602081019050919050565b5f80fd5b5f80fd5b5f67ffffffffffffffff82111562000814576200081362000740565b5b6200081f82620004fb565b9050602081019050919050565b828183375f83830152505050565b5f620008506200084a84620007f7565b620007a3565b9050828152602081018484840111156200086f576200086e620007f3565b5b6200087c8482856200082c565b509392505050565b5f82601f8301126200089b576200089a6200073c565b5b8135620008ad8482602086016200083a565b91505092915050565b5f620008cc620008c684620007c1565b620007a3565b90508083825260208201905060208402830185811115620008f257620008f1620007ef565b5b835b818110156200094057803567ffffffffffffffff8111156200091b576200091a6200073c565b5b8086016200092a898262000884565b85526020850194505050602081019050620008f4565b5050509392505050565b5f82601f8301126200096157620009606200073c565b5b813562000973848260208601620008b6565b91505092915050565b5f6020828403121562000994576200099362000734565b5b5f82013567ffffffffffffffff811115620009b457620009b362000738565b5b620009c2848285016200094a565b91505092915050565b5f620009e1620009db84620007f7565b620007a3565b90508281526020810184848401111562000a0057620009ff620007f3565b5b62000a0d848285620004d1565b509392505050565b5f82601f83011262000a2c5762000a2b6200073c565b5b815162000a3e848260208601620009cb565b91505092915050565b5f62000a5d62000a5784620007c1565b620007a3565b9050808382526020820190506020840283018581111562000a835762000a82620007ef565b5b835b8181101562000ad157805167ffffffffffffffff81111562000aac5762000aab6200073c565b5b80860162000abb898262000a15565b8552602085019450505060208101905062000a85565b5050509392505050565b5f82601f83011262000af25762000af16200073c565b5b815162000b0484826020860162000a47565b91505092915050565b5f67ffffffffffffffff82111562000b2a5762000b2962000740565b5b602082029050602081019050919050565b62000b468162000614565b811462000b51575f80fd5b50565b5f8151905062000b648162000b3b565b92915050565b5f62000b8062000b7a8462000b0d565b620007a3565b9050808382526020820190506020840283018581111562000ba65762000ba5620007ef565b5b835b8181101562000bd3578062000bbe888262000b54565b84526020840193505060208101905062000ba8565b5050509392505050565b5f82601f83011262000bf45762000bf36200073c565b5b815162000c0684826020860162000b6a565b91505092915050565b5f806040838503121562000c285762000c2762000734565b5b5f83015167ffffffffffffffff81111562000c485762000c4762000738565b5b62000c568582860162000adb565b925050602083015167ffffffffffffffff81111562000c7a5762000c7962000738565b5b62000c888582860162000bdd565b9150509250929050565b5f73ffffffffffffffffffffffffffffffffffffffff82169050919050565b5f62000cbd8262000c92565b9050919050565b62000ccf8162000cb1565b811462000cda575f80fd5b50565b5f8151905062000ced8162000cc4565b92915050565b5f6020828403121562000d0b5762000d0a62000734565b5b5f62000d1a8482850162000cdd565b91505092915050565b62000d2e81620006f4565b811462000d39575f80fd5b50565b5f8151905062000d4c8162000d23565b92915050565b5f6020828403121562000d6a5762000d6962000734565b5b5f62000d798482850162000d3c565b91505092915050565b62000d8d8162000cb1565b82525050565b5f60408201905062000da85f83018562000d82565b818103602083015262000dbc81846200056c565b9050939250505056fe608060405234801562000010575f80fd5b5060405162001142380380620011428339818101604052810190620000369190620004db565b815f806101000a81548173ffffffffffffffffffffffffffffffffffffffff021916908373ffffffffffffffffffffffffffffffffffffffff1602179055504260018190555080600290805190602001906200009492919062000118565b505f60065f6101000a81548160ff0219169083151502179055505f5b6002805490508110156200010f575f600460028381548110620000d857620000d76200053f565b5b905f5260205f2001604051620000ef919062000675565b9081526020016040518091039020819055508080600101915050620000b0565b50505062000935565b828054828255905f5260205f2090810192821562000163579160200282015b828111156200016257825182908162000151919062000851565b509160200191906001019062000137565b5b50905062000172919062000176565b5090565b5b8082111562000199575f81816200018f91906200019d565b5060010162000177565b5090565b508054620001ab9062000599565b5f825580601f10620001be5750620001dd565b601f0160209004905f5260205f2090810190620001dc9190620001e0565b5b50565b5b80821115620001f9575f815f905550600101620001e1565b5090565b5f604051905090565b5f80fd5b5f80fd5b5f73ffffffffffffffffffffffffffffffffffffffff82169050919050565b5f62000239826200020e565b9050919050565b6200024b816200022d565b811462000256575f80fd5b50565b5f81519050620002698162000240565b92915050565b5f80fd5b5f601f19601f8301169050919050565b7f4e487b71000000000000000000000000000000000000000000000000000000005f52604160045260245ffd5b620002bb8262000273565b810181811067ffffffffffffffff82111715620002dd57620002dc62000283565b5b80604052505050565b5f620002f1620001fd565b9050620002ff8282620002b0565b919050565b5f67ffffffffffffffff82111562000321576200032062000283565b5b602082029050602081019050919050565b5f80fd5b5f80fd5b5f67ffffffffffffffff82111562000357576200035662000283565b5b620003628262000273565b9050602081019050919050565b5f5b838110156200038e57808201518184015260208101905062000371565b5f8484015250505050565b5f620003af620003a9846200033a565b620002e6565b905082815260208101848484011115620003ce57620003cd62000336565b5b620003db8482856200036f565b509392505050565b5f82601f830112620003fa57620003f96200026f565b5b81516200040c84826020860162000399565b91505092915050565b5f6200042b620004258462000304565b620002e6565b9050808382526020820190506020840283018581111562000451576200045062000332565b5b835b818110156200049f57805167ffffffffffffffff8111156200047a57620004796200026f565b5b808601620004898982620003e3565b8552602085019450505060208101905062000453565b5050509392505050565b5f82601f830112620004c057620004bf6200026f565b5b8151620004d284826020860162000415565b91505092915050565b5f8060408385031215620004f457620004f362000206565b5b5f620005038582860162000259565b925050602083015167ffffffffffffffff8111156200052757620005266200020a565b5b6200053585828601620004a9565b9150509250929050565b7f4e487b71000000000000000000000000000000000000000000000000000000005f52603260045260245ffd5b7f4e487b71000000000000000000000000000000000000000000000000000000005f52602260045260245ffd5b5f6002820490506001821680620005b157607f821691505b602082108103620005c757620005c66200056c565b5b50919050565b5f81905092915050565b5f819050815f5260205f209050919050565b5f8154620005f78162000599565b620006038186620005cd565b9450600182165f811462000620576001811462000636576200066c565b60ff19831686528115158202860193506200066c565b6200064185620005d7565b5f5b83811015620006645781548189015260018201915060208101905062000643565b838801955050505b50505092915050565b5f620006828284620005e9565b915081905092915050565b5f81519050919050565b5f6020601f8301049050919050565b5f82821b905092915050565b5f60088302620006e37fffffffffffffffffffffffffffffffffffffffffffffffffffffffffffffffff82620006a6565b620006ef8683620006a6565b95508019841693508086168417925050509392505050565b5f819050919050565b5f819050919050565b5f62000739620007336200072d8462000707565b62000710565b62000707565b9050919050565b5f819050919050565b620007548362000719565b6200076c620007638262000740565b848454620006b2565b825550505050565b5f90565b6200078262000774565b6200078f81848462000749565b505050565b5b81811015620007b657620007aa5f8262000778565b60018101905062000795565b5050565b601f8211156200080557620007cf81620005d7565b620007da8462000697565b81016020851015620007ea578190505b62000802620007f98562000697565b83018262000794565b50505b505050565b5f82821c905092915050565b5f620008275f19846008026200080a565b1980831691505092915050565b5f62000841838362000816565b9150826002028217905092915050565b6200085c826200068d565b67ffffffffffffffff81111562000878576200087762000283565b5b62000884825462000599565b62000891828285620007ba565b5f60209050601f831160018114620008c7575f8415620008b2578287015190505b620008be858262000834565b8655506200092d565b601f198416620008d786620005d7565b5f5b828110156200090057848901518255600182019150602085019450602081019050620008d9565b868310156200092057848901516200091c601f89168262000816565b8355505b6001600288020188555050505b505050505050565b6107ff80620009435f395ff3fe608060405234801561000f575f80fd5b506004361061004a575f3560e01c806306a49fce1461004e578063122902a61461006c578063893d20e81461008a578063e7b3387c146100a8575b5f80fd5b6100566100c7565b60405161006391906104c0565b60405180910390f35b61007461019b565b60405161008191906104fa565b60405180910390f35b6100926101b0565b60405161009f9190610552565b60405180910390f35b6100b06101d7565b6040516100be92919061062b565b60405180910390f35b60606002805480602002602001604051908101604052809291908181526020015f905b82821015610192578382905f5260205f200180546101079061068d565b80601f01602080910402602001604051908101604052809291908181526020018280546101339061068d565b801561017e5780601f106101555761010080835404028352916020019161017e565b820191905f5260205f20905b81548152906001019060200180831161016157829003601f168201915b5050505050815260200190600101906100ea565b50505050905090565b5f60065f9054906101000a900460ff16905090565b5f805f9054906101000a900473ffffffffffffffffffffffffffffffffffffffff16905090565b6060805f60028054905067ffffffffffffffff8111156101fa576101f96106bd565b5b6040519080825280602002602001820160405280156102285781602001602082028036833780820191505090505b5090505f5b6002805490508110156102a0576004600282815481106102505761024f6106ea565b5b905f5260205f200160405161026591906107b3565b908152602001604051809103902054828281518110610287576102866106ea565b5b602002602001018181525050808060010191505061022d565b5060028181805480602002602001604051908101604052809291908181526020015f905b8282101561036c578382905f5260205f200180546102e19061068d565b80601f016020809104026020016040519081016040528092919081815260200182805461030d9061068d565b80156103585780601f1061032f57610100808354040283529160200191610358565b820191905f5260205f20905b81548152906001019060200180831161033b57829003601f168201915b5050505050815260200190600101906102c4565b50505050915092509250509091565b5f81519050919050565b5f82825260208201905092915050565b5f819050602082019050919050565b5f81519050919050565b5f82825260208201905092915050565b5f5b838110156103db5780820151818401526020810190506103c0565b5f8484015250505050565b5f601f19601f8301169050919050565b5f610400826103a4565b61040a81856103ae565b935061041a8185602086016103be565b610423816103e6565b840191505092915050565b5f61043983836103f6565b905092915050565b5f602082019050919050565b5f6104578261037b565b6104618185610385565b93508360208202850161047385610395565b805f5b858110156104ae578484038952815161048f858261042e565b945061049a83610441565b925060208a01995050600181019050610476565b50829750879550505050505092915050565b5f6020820190508181035f8301526104d8818461044d565b905092915050565b5f8115159050919050565b6104f4816104e0565b82525050565b5f60208201905061050d5f8301846104eb565b92915050565b5f73ffffffffffffffffffffffffffffffffffffffff82169050919050565b5f61053c82610513565b9050919050565b61054c81610532565b82525050565b5f6020820190506105655f830184610543565b92915050565b5f81519050919050565b5f82825260208201905092915050565b5f819050602082019050919050565b5f819050919050565b6105a681610594565b82525050565b5f6105b7838361059d565b60208301905092915050565b5f602082019050919050565b5f6105d98261056b565b6105e38185610575565b93506105ee83610585565b805f5b8381101561061e57815161060588826105ac565b9750610610836105c3565b9250506001810190506105f1565b5085935050505092915050565b5f6040820190508181035f830152610643818561044d565b9050818103602083015261065781846105cf565b90509392505050565b7f4e487b71000000000000000000000000000000000000000000000000000000005f52602260045260245ffd5b5f60028204905060018216806106a457607f821691505b6020821081036106b7576106b6610660565b5b50919050565b7f4e487b71000000000000000000000000000000000000000000000000000000005f52604160045260245ffd5b7f4e487b71000000000000000000000000000000000000000000000000000000005f52603260045260245ffd5b5f81905092915050565b5f819050815f5260205f209050919050565b5f815461073f8161068d565b6107498186610717565b9450600182165f81146107635760018114610778576107aa565b60ff19831686528115158202860193506107aa565b61078185610721565b5f5b838110156107a257815481890152600182019150602081019050610783565b838801955050505b50505092915050565b5f6107be8284610733565b91508190509291505056fea2646970667358221220093c89e23fa6894721b55d76df49c9a7f964b316a1e327a369388fddcb1b813c64736f6c63430008160033a264697066735822122092921691ec22e73b1ad215f5b5e15942796e2b19e0d06b34903e8f787c27afd364736f6c63430008160033",
					"opcodes": "PUSH1 0x80 PUSH1 0x40 MSTORE CALLVALUE DUP1 ISZERO PUSH2 0xF JUMPI PUSH0 DUP1 REVERT JUMPDEST POP PUSH2 0x1F3D DUP1 PUSH2 0x1D PUSH0 CODECOPY PUSH0 RETURN INVALID PUSH1 0x80 PUSH1 0x40 MSTORE CALLVALUE DUP1 ISZERO PUSH3 0x10 JUMPI PUSH0 DUP1 REVERT JUMPDEST POP PUSH1 0x4 CALLDATASIZE LT PUSH3 0x44 JUMPI PUSH0 CALLDATALOAD PUSH1 0xE0 SHR DUP1 PUSH4 0x9F3A7F52 EQ PUSH3 0x48 JUMPI DUP1 PUSH4 0xDBDCBEAC EQ PUSH3 0x6B JUMPI DUP1 PUSH4 0xF8C5D5E6 EQ PUSH3 0x8D JUMPI JUMPDEST PUSH0 DUP1 REVERT JUMPDEST PUSH3 0x52 PUSH3 0xAD JUMP JUMPDEST PUSH1 0x40 MLOAD PUSH3 0x62 SWAP3 SWAP2 SWAP1 PUSH3 0x6BB JUMP JUMPDEST PUSH1 0x40 MLOAD DUP1 SWAP2 SUB SWAP1 RETURN JUMPDEST PUSH3 0x75 PUSH3 0x14A JUMP JUMPDEST PUSH1 0x40 MLOAD PUSH3 0x84 SWAP2 SWAP1 PUSH3 0x710 JUMP JUMPDEST PUSH1 0x40 MLOAD DUP1 SWAP2 SUB SWAP1 RETURN JUMPDEST PUSH3 0xAB PUSH1 0x4 DUP1 CALLDATASIZE SUB DUP2 ADD SWAP1 PUSH3 0xA5 SWAP2 SWAP1 PUSH3 0x97C JUMP JUMPDEST PUSH3 0x36D JUMP JUMPDEST STOP JUMPDEST PUSH1 0x60 DUP1 PUSH0 DUP1 SLOAD SWAP1 PUSH2 0x100 EXP SWAP1 DIV PUSH20 0xFFFFFFFFFFFFFFFFFFFFFFFFFFFFFFFFFFFFFFFF AND PUSH20 0xFFFFFFFFFFFFFFFFFFFFFFFFFFFFFFFFFFFFFFFF AND PUSH4 0xE7B3387C PUSH1 0x40 MLOAD DUP2 PUSH4 0xFFFFFFFF AND PUSH1 0xE0 SHL DUP2 MSTORE PUSH1 0x4 ADD PUSH0 PUSH1 0x40 MLOAD DUP1 DUP4 SUB DUP2 DUP7 GAS STATICCALL ISZERO DUP1 ISZERO PUSH3 0x118 JUMPI RETURNDATASIZE PUSH0 DUP1 RETURNDATACOPY RETURNDATASIZE PUSH0 REVERT JUMPDEST POP POP POP POP PUSH1 0x40 MLOAD RETURNDATASIZE PUSH0 DUP3 RETURNDATACOPY RETURNDATASIZE PUSH1 0x1F NOT PUSH1 0x1F DUP3 ADD AND DUP3 ADD DUP1 PUSH1 0x40 MSTORE POP DUP2 ADD SWAP1 PUSH3 0x142 SWAP2 SWAP1 PUSH3 0xC0F JUMP JUMPDEST SWAP2 POP SWAP2 POP SWAP1 SWAP2 JUMP JUMPDEST PUSH0 PUSH1 0x1 PUSH0 CALLER PUSH20 0xFFFFFFFFFFFFFFFFFFFFFFFFFFFFFFFFFFFFFFFF AND PUSH20 0xFFFFFFFFFFFFFFFFFFFFFFFFFFFFFFFFFFFFFFFF AND DUP2 MSTORE PUSH1 0x20 ADD SWAP1 DUP2 MSTORE PUSH1 0x20 ADD PUSH0 KECCAK256 PUSH0 SWAP1 SLOAD SWAP1 PUSH2 0x100 EXP SWAP1 DIV PUSH20 0xFFFFFFFFFFFFFFFFFFFFFFFFFFFFFFFFFFFFFFFF AND PUSH0 DUP1 PUSH2 0x100 EXP DUP2 SLOAD DUP2 PUSH20 0xFFFFFFFFFFFFFFFFFFFFFFFFFFFFFFFFFFFFFFFF MUL NOT AND SWAP1 DUP4 PUSH20 0xFFFFFFFFFFFFFFFFFFFFFFFFFFFFFFFFFFFFFFFF AND MUL OR SWAP1 SSTORE POP PUSH0 DUP1 PUSH0 SWAP1 SLOAD SWAP1 PUSH2 0x100 EXP SWAP1 DIV PUSH20 0xFFFFFFFFFFFFFFFFFFFFFFFFFFFFFFFFFFFFFFFF AND PUSH20 0xFFFFFFFFFFFFFFFFFFFFFFFFFFFFFFFFFFFFFFFF AND PUSH4 0x893D20E8 PUSH1 0x40 MLOAD DUP2 PUSH4 0xFFFFFFFF AND PUSH1 0xE0 SHL DUP2 MSTORE PUSH1 0x4 ADD PUSH1 0x20 PUSH1 0x40 MLOAD DUP1 DUP4 SUB DUP2 DUP7 GAS STATICCALL ISZERO DUP1 ISZERO PUSH3 0x251 JUMPI RETURNDATASIZE PUSH0 DUP1 RETURNDATACOPY RETURNDATASIZE PUSH0 REVERT JUMPDEST POP POP POP POP PUSH1 0x40 MLOAD RETURNDATASIZE PUSH1 0x1F NOT PUSH1 0x1F DUP3 ADD AND DUP3 ADD DUP1 PUSH1 0x40 MSTORE POP DUP2 ADD SWAP1 PUSH3 0x277 SWAP2 SWAP1 PUSH3 0xCF3 JUMP JUMPDEST SWAP1 POP CALLER PUSH20 0xFFFFFFFFFFFFFFFFFFFFFFFFFFFFFFFFFFFFFFFF AND DUP2 PUSH20 0xFFFFFFFFFFFFFFFFFFFFFFFFFFFFFFFFFFFFFFFF AND EQ PUSH3 0x2B8 JUMPI PUSH1 0x1 SWAP2 POP POP PUSH3 0x36A JUMP JUMPDEST PUSH0 DUP1 PUSH0 SWAP1 SLOAD SWAP1 PUSH2 0x100 EXP SWAP1 DIV PUSH20 0xFFFFFFFFFFFFFFFFFFFFFFFFFFFFFFFFFFFFFFFF AND PUSH20 0xFFFFFFFFFFFFFFFFFFFFFFFFFFFFFFFFFFFFFFFF AND PUSH4 0x122902A6 PUSH1 0x40 MLOAD DUP2 PUSH4 0xFFFFFFFF AND PUSH1 0xE0 SHL DUP2 MSTORE PUSH1 0x4 ADD PUSH1 0x20 PUSH1 0x40 MLOAD DUP1 DUP4 SUB DUP2 DUP7 GAS STATICCALL ISZERO DUP1 ISZERO PUSH3 0x323 JUMPI RETURNDATASIZE PUSH0 DUP1 RETURNDATACOPY RETURNDATASIZE PUSH0 REVERT JUMPDEST POP POP POP POP PUSH1 0x40 MLOAD RETURNDATASIZE PUSH1 0x1F NOT PUSH1 0x1F DUP3 ADD AND DUP3 ADD DUP1 PUSH1 0x40 MSTORE POP DUP2 ADD SWAP1 PUSH3 0x349 SWAP2 SWAP1 PUSH3 0xD52 JUMP JUMPDEST SWAP1 POP PUSH1 0x1 ISZERO ISZERO DUP2 ISZERO ISZERO SUB PUSH3 0x363 JUMPI PUSH0 SWAP3 POP POP POP PUSH3 0x36A JUMP JUMPDEST PUSH1 0x1 SWAP3 POP POP POP JUMPDEST SWAP1 JUMP JUMPDEST CALLER DUP2 PUSH1 0x40 MLOAD PUSH3 0x37D SWAP1 PUSH3 0x480 JUMP JUMPDEST PUSH3 0x38A SWAP3 SWAP2 SWAP1 PUSH3 0xD93 JUMP JUMPDEST PUSH1 0x40 MLOAD DUP1 SWAP2 SUB SWAP1 PUSH0 CREATE DUP1 ISZERO DUP1 ISZERO PUSH3 0x3A4 JUMPI RETURNDATASIZE PUSH0 DUP1 RETURNDATACOPY RETURNDATASIZE PUSH0 REVERT JUMPDEST POP PUSH0 DUP1 PUSH2 0x100 EXP DUP2 SLOAD DUP2 PUSH20 0xFFFFFFFFFFFFFFFFFFFFFFFFFFFFFFFFFFFFFFFF MUL NOT AND SWAP1 DUP4 PUSH20 0xFFFFFFFFFFFFFFFFFFFFFFFFFFFFFFFFFFFFFFFF AND MUL OR SWAP1 SSTORE POP PUSH0 DUP1 SLOAD SWAP1 PUSH2 0x100 EXP SWAP1 DIV PUSH20 0xFFFFFFFFFFFFFFFFFFFFFFFFFFFFFFFFFFFFFFFF AND PUSH1 0x1 PUSH0 CALLER PUSH20 0xFFFFFFFFFFFFFFFFFFFFFFFFFFFFFFFFFFFFFFFF AND PUSH20 0xFFFFFFFFFFFFFFFFFFFFFFFFFFFFFFFFFFFFFFFF AND DUP2 MSTORE PUSH1 0x20 ADD SWAP1 DUP2 MSTORE PUSH1 0x20 ADD PUSH0 KECCAK256 PUSH0 PUSH2 0x100 EXP DUP2 SLOAD DUP2 PUSH20 0xFFFFFFFFFFFFFFFFFFFFFFFFFFFFFFFFFFFFFFFF MUL NOT AND SWAP1 DUP4 PUSH20 0xFFFFFFFFFFFFFFFFFFFFFFFFFFFFFFFFFFFFFFFF AND MUL OR SWAP1 SSTORE POP POP JUMP JUMPDEST PUSH2 0x1142 DUP1 PUSH3 0xDC6 DUP4 CODECOPY ADD SWAP1 JUMP JUMPDEST PUSH0 DUP2 MLOAD SWAP1 POP SWAP2 SWAP1 POP JUMP JUMPDEST PUSH0 DUP3 DUP3 MSTORE PUSH1 0x20 DUP3 ADD SWAP1 POP SWAP3 SWAP2 POP POP JUMP JUMPDEST PUSH0 DUP2 SWAP1 POP PUSH1 0x20 DUP3 ADD SWAP1 POP SWAP2 SWAP1 POP JUMP JUMPDEST PUSH0 DUP2 MLOAD SWAP1 POP SWAP2 SWAP1 POP JUMP JUMPDEST PUSH0 DUP3 DUP3 MSTORE PUSH1 0x20 DUP3 ADD SWAP1 POP SWAP3 SWAP2 POP POP JUMP JUMPDEST PUSH0 JUMPDEST DUP4 DUP2 LT ISZERO PUSH3 0x4F0 JUMPI DUP1 DUP3 ADD MLOAD DUP2 DUP5 ADD MSTORE PUSH1 0x20 DUP2 ADD SWAP1 POP PUSH3 0x4D3 JUMP JUMPDEST PUSH0 DUP5 DUP5 ADD MSTORE POP POP POP POP JUMP JUMPDEST PUSH0 PUSH1 0x1F NOT PUSH1 0x1F DUP4 ADD AND SWAP1 POP SWAP2 SWAP1 POP JUMP JUMPDEST PUSH0 PUSH3 0x517 DUP3 PUSH3 0x4B7 JUMP JUMPDEST PUSH3 0x523 DUP2 DUP6 PUSH3 0x4C1 JUMP JUMPDEST SWAP4 POP PUSH3 0x535 DUP2 DUP6 PUSH1 0x20 DUP7 ADD PUSH3 0x4D1 JUMP JUMPDEST PUSH3 0x540 DUP2 PUSH3 0x4FB JUMP JUMPDEST DUP5 ADD SWAP2 POP POP SWAP3 SWAP2 POP POP JUMP JUMPDEST PUSH0 PUSH3 0x558 DUP4 DUP4 PUSH3 0x50B JUMP JUMPDEST SWAP1 POP SWAP3 SWAP2 POP POP JUMP JUMPDEST PUSH0 PUSH1 0x20 DUP3 ADD SWAP1 POP SWAP2 SWAP1 POP JUMP JUMPDEST PUSH0 PUSH3 0x578 DUP3 PUSH3 0x48E JUMP JUMPDEST PUSH3 0x584 DUP2 DUP6 PUSH3 0x498 JUMP JUMPDEST SWAP4 POP DUP4 PUSH1 0x20 DUP3 MUL DUP6 ADD PUSH3 0x598 DUP6 PUSH3 0x4A8 JUMP JUMPDEST DUP1 PUSH0 JUMPDEST DUP6 DUP2 LT ISZERO PUSH3 0x5D9 JUMPI DUP5 DUP5 SUB DUP10 MSTORE DUP2 MLOAD PUSH3 0x5B7 DUP6 DUP3 PUSH3 0x54B JUMP JUMPDEST SWAP5 POP PUSH3 0x5C4 DUP4 PUSH3 0x560 JUMP JUMPDEST SWAP3 POP PUSH1 0x20 DUP11 ADD SWAP10 POP POP PUSH1 0x1 DUP2 ADD SWAP1 POP PUSH3 0x59B JUMP JUMPDEST POP DUP3 SWAP8 POP DUP8 SWAP6 POP POP POP POP POP POP SWAP3 SWAP2 POP POP JUMP JUMPDEST PUSH0 DUP2 MLOAD SWAP1 POP SWAP2 SWAP1 POP JUMP JUMPDEST PUSH0 DUP3 DUP3 MSTORE PUSH1 0x20 DUP3 ADD SWAP1 POP SWAP3 SWAP2 POP POP JUMP JUMPDEST PUSH0 DUP2 SWAP1 POP PUSH1 0x20 DUP3 ADD SWAP1 POP SWAP2 SWAP1 POP JUMP JUMPDEST PUSH0 DUP2 SWAP1 POP SWAP2 SWAP1 POP JUMP JUMPDEST PUSH3 0x628 DUP2 PUSH3 0x614 JUMP JUMPDEST DUP3 MSTORE POP POP JUMP JUMPDEST PUSH0 PUSH3 0x63B DUP4 DUP4 PUSH3 0x61D JUMP JUMPDEST PUSH1 0x20 DUP4 ADD SWAP1 POP SWAP3 SWAP2 POP POP JUMP JUMPDEST PUSH0 PUSH1 0x20 DUP3 ADD SWAP1 POP SWAP2 SWAP1 POP JUMP JUMPDEST PUSH0 PUSH3 0x65F DUP3 PUSH3 0x5EB JUMP JUMPDEST PUSH3 0x66B DUP2 DUP6 PUSH3 0x5F5 JUMP JUMPDEST SWAP4 POP PUSH3 0x678 DUP4 PUSH3 0x605 JUMP JUMPDEST DUP1 PUSH0 JUMPDEST DUP4 DUP2 LT ISZERO PUSH3 0x6AE JUMPI DUP2 MLOAD PUSH3 0x692 DUP9 DUP3 PUSH3 0x62E JUMP JUMPDEST SWAP8 POP PUSH3 0x69F DUP4 PUSH3 0x647 JUMP JUMPDEST SWAP3 POP POP PUSH1 0x1 DUP2 ADD SWAP1 POP PUSH3 0x67B JUMP JUMPDEST POP DUP6 SWAP4 POP POP POP POP SWAP3 SWAP2 POP POP JUMP JUMPDEST PUSH0 PUSH1 0x40 DUP3 ADD SWAP1 POP DUP2 DUP2 SUB PUSH0 DUP4 ADD MSTORE PUSH3 0x6D5 DUP2 DUP6 PUSH3 0x56C JUMP JUMPDEST SWAP1 POP DUP2 DUP2 SUB PUSH1 0x20 DUP4 ADD MSTORE PUSH3 0x6EB DUP2 DUP5 PUSH3 0x653 JUMP JUMPDEST SWAP1 POP SWAP4 SWAP3 POP POP POP JUMP JUMPDEST PUSH0 DUP2 ISZERO ISZERO SWAP1 POP SWAP2 SWAP1 POP JUMP JUMPDEST PUSH3 0x70A DUP2 PUSH3 0x6F4 JUMP JUMPDEST DUP3 MSTORE POP POP JUMP JUMPDEST PUSH0 PUSH1 0x20 DUP3 ADD SWAP1 POP PUSH3 0x725 PUSH0 DUP4 ADD DUP5 PUSH3 0x6FF JUMP JUMPDEST SWAP3 SWAP2 POP POP JUMP JUMPDEST PUSH0 PUSH1 0x40 MLOAD SWAP1 POP SWAP1 JUMP JUMPDEST PUSH0 DUP1 REVERT JUMPDEST PUSH0 DUP1 REVERT JUMPDEST PUSH0 DUP1 REVERT JUMPDEST PUSH32 0x4E487B7100000000000000000000000000000000000000000000000000000000 PUSH0 MSTORE PUSH1 0x41 PUSH1 0x4 MSTORE PUSH1 0x24 PUSH0 REVERT JUMPDEST PUSH3 0x778 DUP3 PUSH3 0x4FB JUMP JUMPDEST DUP2 ADD DUP2 DUP2 LT PUSH8 0xFFFFFFFFFFFFFFFF DUP3 GT OR ISZERO PUSH3 0x79A JUMPI PUSH3 0x799 PUSH3 0x740 JUMP JUMPDEST JUMPDEST DUP1 PUSH1 0x40 MSTORE POP POP POP JUMP JUMPDEST PUSH0 PUSH3 0x7AE PUSH3 0x72B JUMP JUMPDEST SWAP1 POP PUSH3 0x7BC DUP3 DUP3 PUSH3 0x76D JUMP JUMPDEST SWAP2 SWAP1 POP JUMP JUMPDEST PUSH0 PUSH8 0xFFFFFFFFFFFFFFFF DUP3 GT ISZERO PUSH3 0x7DE JUMPI PUSH3 0x7DD PUSH3 0x740 JUMP JUMPDEST JUMPDEST PUSH1 0x20 DUP3 MUL SWAP1 POP PUSH1 0x20 DUP2 ADD SWAP1 POP SWAP2 SWAP1 POP JUMP JUMPDEST PUSH0 DUP1 REVERT JUMPDEST PUSH0 DUP1 REVERT JUMPDEST PUSH0 PUSH8 0xFFFFFFFFFFFFFFFF DUP3 GT ISZERO PUSH3 0x814 JUMPI PUSH3 0x813 PUSH3 0x740 JUMP JUMPDEST JUMPDEST PUSH3 0x81F DUP3 PUSH3 0x4FB JUMP JUMPDEST SWAP1 POP PUSH1 0x20 DUP2 ADD SWAP1 POP SWAP2 SWAP1 POP JUMP JUMPDEST DUP3 DUP2 DUP4 CALLDATACOPY PUSH0 DUP4 DUP4 ADD MSTORE POP POP POP JUMP JUMPDEST PUSH0 PUSH3 0x850 PUSH3 0x84A DUP5 PUSH3 0x7F7 JUMP JUMPDEST PUSH3 0x7A3 JUMP JUMPDEST SWAP1 POP DUP3 DUP2 MSTORE PUSH1 0x20 DUP2 ADD DUP5 DUP5 DUP5 ADD GT ISZERO PUSH3 0x86F JUMPI PUSH3 0x86E PUSH3 0x7F3 JUMP JUMPDEST JUMPDEST PUSH3 0x87C DUP5 DUP3 DUP6 PUSH3 0x82C JUMP JUMPDEST POP SWAP4 SWAP3 POP POP POP JUMP JUMPDEST PUSH0 DUP3 PUSH1 0x1F DUP4 ADD SLT PUSH3 0x89B JUMPI PUSH3 0x89A PUSH3 0x73C JUMP JUMPDEST JUMPDEST DUP2 CALLDATALOAD PUSH3 0x8AD DUP5 DUP3 PUSH1 0x20 DUP7 ADD PUSH3 0x83A JUMP JUMPDEST SWAP2 POP POP SWAP3 SWAP2 POP POP JUMP JUMPDEST PUSH0 PUSH3 0x8CC PUSH3 0x8C6 DUP5 PUSH3 0x7C1 JUMP JUMPDEST PUSH3 0x7A3 JUMP JUMPDEST SWAP1 POP DUP1 DUP4 DUP3 MSTORE PUSH1 0x20 DUP3 ADD SWAP1 POP PUSH1 0x20 DUP5 MUL DUP4 ADD DUP6 DUP2 GT ISZERO PUSH3 0x8F2 JUMPI PUSH3 0x8F1 PUSH3 0x7EF JUMP JUMPDEST JUMPDEST DUP4 JUMPDEST DUP2 DUP2 LT ISZERO PUSH3 0x940 JUMPI DUP1 CALLDATALOAD PUSH8 0xFFFFFFFFFFFFFFFF DUP2 GT ISZERO PUSH3 0x91B JUMPI PUSH3 0x91A PUSH3 0x73C JUMP JUMPDEST JUMPDEST DUP1 DUP7 ADD PUSH3 0x92A DUP10 DUP3 PUSH3 0x884 JUMP JUMPDEST DUP6 MSTORE PUSH1 0x20 DUP6 ADD SWAP5 POP POP POP PUSH1 0x20 DUP2 ADD SWAP1 POP PUSH3 0x8F4 JUMP JUMPDEST POP POP POP SWAP4 SWAP3 POP POP POP JUMP JUMPDEST PUSH0 DUP3 PUSH1 0x1F DUP4 ADD SLT PUSH3 0x961 JUMPI PUSH3 0x960 PUSH3 0x73C JUMP JUMPDEST JUMPDEST DUP2 CALLDATALOAD PUSH3 0x973 DUP5 DUP3 PUSH1 0x20 DUP7 ADD PUSH3 0x8B6 JUMP JUMPDEST SWAP2 POP POP SWAP3 SWAP2 POP POP JUMP JUMPDEST PUSH0 PUSH1 0x20 DUP3 DUP5 SUB SLT ISZERO PUSH3 0x994 JUMPI PUSH3 0x993 PUSH3 0x734 JUMP JUMPDEST JUMPDEST PUSH0 DUP3 ADD CALLDATALOAD PUSH8 0xFFFFFFFFFFFFFFFF DUP2 GT ISZERO PUSH3 0x9B4 JUMPI PUSH3 0x9B3 PUSH3 0x738 JUMP JUMPDEST JUMPDEST PUSH3 0x9C2 DUP5 DUP3 DUP6 ADD PUSH3 0x94A JUMP JUMPDEST SWAP2 POP POP SWAP3 SWAP2 POP POP JUMP JUMPDEST PUSH0 PUSH3 0x9E1 PUSH3 0x9DB DUP5 PUSH3 0x7F7 JUMP JUMPDEST PUSH3 0x7A3 JUMP JUMPDEST SWAP1 POP DUP3 DUP2 MSTORE PUSH1 0x20 DUP2 ADD DUP5 DUP5 DUP5 ADD GT ISZERO PUSH3 0xA00 JUMPI PUSH3 0x9FF PUSH3 0x7F3 JUMP JUMPDEST JUMPDEST PUSH3 0xA0D DUP5 DUP3 DUP6 PUSH3 0x4D1 JUMP JUMPDEST POP SWAP4 SWAP3 POP POP POP JUMP JUMPDEST PUSH0 DUP3 PUSH1 0x1F DUP4 ADD SLT PUSH3 0xA2C JUMPI PUSH3 0xA2B PUSH3 0x73C JUMP JUMPDEST JUMPDEST DUP2 MLOAD PUSH3 0xA3E DUP5 DUP3 PUSH1 0x20 DUP7 ADD PUSH3 0x9CB JUMP JUMPDEST SWAP2 POP POP SWAP3 SWAP2 POP POP JUMP JUMPDEST PUSH0 PUSH3 0xA5D PUSH3 0xA57 DUP5 PUSH3 0x7C1 JUMP JUMPDEST PUSH3 0x7A3 JUMP JUMPDEST SWAP1 POP DUP1 DUP4 DUP3 MSTORE PUSH1 0x20 DUP3 ADD SWAP1 POP PUSH1 0x20 DUP5 MUL DUP4 ADD DUP6 DUP2 GT ISZERO PUSH3 0xA83 JUMPI PUSH3 0xA82 PUSH3 0x7EF JUMP JUMPDEST JUMPDEST DUP4 JUMPDEST DUP2 DUP2 LT ISZERO PUSH3 0xAD1 JUMPI DUP1 MLOAD PUSH8 0xFFFFFFFFFFFFFFFF DUP2 GT ISZERO PUSH3 0xAAC JUMPI PUSH3 0xAAB PUSH3 0x73C JUMP JUMPDEST JUMPDEST DUP1 DUP7 ADD PUSH3 0xABB DUP10 DUP3 PUSH3 0xA15 JUMP JUMPDEST DUP6 MSTORE PUSH1 0x20 DUP6 ADD SWAP5 POP POP POP PUSH1 0x20 DUP2 ADD SWAP1 POP PUSH3 0xA85 JUMP JUMPDEST POP POP POP SWAP4 SWAP3 POP POP POP JUMP JUMPDEST PUSH0 DUP3 PUSH1 0x1F DUP4 ADD SLT PUSH3 0xAF2 JUMPI PUSH3 0xAF1 PUSH3 0x73C JUMP JUMPDEST JUMPDEST DUP2 MLOAD PUSH3 0xB04 DUP5 DUP3 PUSH1 0x20 DUP7 ADD PUSH3 0xA47 JUMP JUMPDEST SWAP2 POP POP SWAP3 SWAP2 POP POP JUMP JUMPDEST PUSH0 PUSH8 0xFFFFFFFFFFFFFFFF DUP3 GT ISZERO PUSH3 0xB2A JUMPI PUSH3 0xB29 PUSH3 0x740 JUMP JUMPDEST JUMPDEST PUSH1 0x20 DUP3 MUL SWAP1 POP PUSH1 0x20 DUP2 ADD SWAP1 POP SWAP2 SWAP1 POP JUMP JUMPDEST PUSH3 0xB46 DUP2 PUSH3 0x614 JUMP JUMPDEST DUP2 EQ PUSH3 0xB51 JUMPI PUSH0 DUP1 REVERT JUMPDEST POP JUMP JUMPDEST PUSH0 DUP2 MLOAD SWAP1 POP PUSH3 0xB64 DUP2 PUSH3 0xB3B JUMP JUMPDEST SWAP3 SWAP2 POP POP JUMP JUMPDEST PUSH0 PUSH3 0xB80 PUSH3 0xB7A DUP5 PUSH3 0xB0D JUMP JUMPDEST PUSH3 0x7A3 JUMP JUMPDEST SWAP1 POP DUP1 DUP4 DUP3 MSTORE PUSH1 0x20 DUP3 ADD SWAP1 POP PUSH1 0x20 DUP5 MUL DUP4 ADD DUP6 DUP2 GT ISZERO PUSH3 0xBA6 JUMPI PUSH3 0xBA5 PUSH3 0x7EF JUMP JUMPDEST JUMPDEST DUP4 JUMPDEST DUP2 DUP2 LT ISZERO PUSH3 0xBD3 JUMPI DUP1 PUSH3 0xBBE DUP9 DUP3 PUSH3 0xB54 JUMP JUMPDEST DUP5 MSTORE PUSH1 0x20 DUP5 ADD SWAP4 POP POP PUSH1 0x20 DUP2 ADD SWAP1 POP PUSH3 0xBA8 JUMP JUMPDEST POP POP POP SWAP4 SWAP3 POP POP POP JUMP JUMPDEST PUSH0 DUP3 PUSH1 0x1F DUP4 ADD SLT PUSH3 0xBF4 JUMPI PUSH3 0xBF3 PUSH3 0x73C JUMP JUMPDEST JUMPDEST DUP2 MLOAD PUSH3 0xC06 DUP5 DUP3 PUSH1 0x20 DUP7 ADD PUSH3 0xB6A JUMP JUMPDEST SWAP2 POP POP SWAP3 SWAP2 POP POP JUMP JUMPDEST PUSH0 DUP1 PUSH1 0x40 DUP4 DUP6 SUB SLT ISZERO PUSH3 0xC28 JUMPI PUSH3 0xC27 PUSH3 0x734 JUMP JUMPDEST JUMPDEST PUSH0 DUP4 ADD MLOAD PUSH8 0xFFFFFFFFFFFFFFFF DUP2 GT ISZERO PUSH3 0xC48 JUMPI PUSH3 0xC47 PUSH3 0x738 JUMP JUMPDEST JUMPDEST PUSH3 0xC56 DUP6 DUP3 DUP7 ADD PUSH3 0xADB JUMP JUMPDEST SWAP3 POP POP PUSH1 0x20 DUP4 ADD MLOAD PUSH8 0xFFFFFFFFFFFFFFFF DUP2 GT ISZERO PUSH3 0xC7A JUMPI PUSH3 0xC79 PUSH3 0x738 JUMP JUMPDEST JUMPDEST PUSH3 0xC88 DUP6 DUP3 DUP7 ADD PUSH3 0xBDD JUMP JUMPDEST SWAP2 POP POP SWAP3 POP SWAP3 SWAP1 POP JUMP JUMPDEST PUSH0 PUSH20 0xFFFFFFFFFFFFFFFFFFFFFFFFFFFFFFFFFFFFFFFF DUP3 AND SWAP1 POP SWAP2 SWAP1 POP JUMP JUMPDEST PUSH0 PUSH3 0xCBD DUP3 PUSH3 0xC92 JUMP JUMPDEST SWAP1 POP SWAP2 SWAP1 POP JUMP JUMPDEST PUSH3 0xCCF DUP2 PUSH3 0xCB1 JUMP JUMPDEST DUP2 EQ PUSH3 0xCDA JUMPI PUSH0 DUP1 REVERT JUMPDEST POP JUMP JUMPDEST PUSH0 DUP2 MLOAD SWAP1 POP PUSH3 0xCED DUP2 PUSH3 0xCC4 JUMP JUMPDEST SWAP3 SWAP2 POP POP JUMP JUMPDEST PUSH0 PUSH1 0x20 DUP3 DUP5 SUB SLT ISZERO PUSH3 0xD0B JUMPI PUSH3 0xD0A PUSH3 0x734 JUMP JUMPDEST JUMPDEST PUSH0 PUSH3 0xD1A DUP5 DUP3 DUP6 ADD PUSH3 0xCDD JUMP JUMPDEST SWAP2 POP POP SWAP3 SWAP2 POP POP JUMP JUMPDEST PUSH3 0xD2E DUP2 PUSH3 0x6F4 JUMP JUMPDEST DUP2 EQ PUSH3 0xD39 JUMPI PUSH0 DUP1 REVERT JUMPDEST POP JUMP JUMPDEST PUSH0 DUP2 MLOAD SWAP1 POP PUSH3 0xD4C DUP2 PUSH3 0xD23 JUMP JUMPDEST SWAP3 SWAP2 POP POP JUMP JUMPDEST PUSH0 PUSH1 0x20 DUP3 DUP5 SUB SLT ISZERO PUSH3 0xD6A JUMPI PUSH3 0xD69 PUSH3 0x734 JUMP JUMPDEST JUMPDEST PUSH0 PUSH3 0xD79 DUP5 DUP3 DUP6 ADD PUSH3 0xD3C JUMP JUMPDEST SWAP2 POP POP SWAP3 SWAP2 POP POP JUMP JUMPDEST PUSH3 0xD8D DUP2 PUSH3 0xCB1 JUMP JUMPDEST DUP3 MSTORE POP POP JUMP JUMPDEST PUSH0 PUSH1 0x40 DUP3 ADD SWAP1 POP PUSH3 0xDA8 PUSH0 DUP4 ADD DUP6 PUSH3 0xD82 JUMP JUMPDEST DUP2 DUP2 SUB PUSH1 0x20 DUP4 ADD MSTORE PUSH3 0xDBC DUP2 DUP5 PUSH3 0x56C JUMP JUMPDEST SWAP1 POP SWAP4 SWAP3 POP POP POP JUMP INVALID PUSH1 0x80 PUSH1 0x40 MSTORE CALLVALUE DUP1 ISZERO PUSH3 0x10 JUMPI PUSH0 DUP1 REVERT JUMPDEST POP PUSH1 0x40 MLOAD PUSH3 0x1142 CODESIZE SUB DUP1 PUSH3 0x1142 DUP4 CODECOPY DUP2 DUP2 ADD PUSH1 0x40 MSTORE DUP2 ADD SWAP1 PUSH3 0x36 SWAP2 SWAP1 PUSH3 0x4DB JUMP JUMPDEST DUP2 PUSH0 DUP1 PUSH2 0x100 EXP DUP2 SLOAD DUP2 PUSH20 0xFFFFFFFFFFFFFFFFFFFFFFFFFFFFFFFFFFFFFFFF MUL NOT AND SWAP1 DUP4 PUSH20 0xFFFFFFFFFFFFFFFFFFFFFFFFFFFFFFFFFFFFFFFF AND MUL OR SWAP1 SSTORE POP TIMESTAMP PUSH1 0x1 DUP2 SWAP1 SSTORE POP DUP1 PUSH1 0x2 SWAP1 DUP1 MLOAD SWAP1 PUSH1 0x20 ADD SWAP1 PUSH3 0x94 SWAP3 SWAP2 SWAP1 PUSH3 0x118 JUMP JUMPDEST POP PUSH0 PUSH1 0x6 PUSH0 PUSH2 0x100 EXP DUP2 SLOAD DUP2 PUSH1 0xFF MUL NOT AND SWAP1 DUP4 ISZERO ISZERO MUL OR SWAP1 SSTORE POP PUSH0 JUMPDEST PUSH1 0x2 DUP1 SLOAD SWAP1 POP DUP2 LT ISZERO PUSH3 0x10F JUMPI PUSH0 PUSH1 0x4 PUSH1 0x2 DUP4 DUP2 SLOAD DUP2 LT PUSH3 0xD8 JUMPI PUSH3 0xD7 PUSH3 0x53F JUMP JUMPDEST JUMPDEST SWAP1 PUSH0 MSTORE PUSH1 0x20 PUSH0 KECCAK256 ADD PUSH1 0x40 MLOAD PUSH3 0xEF SWAP2 SWAP1 PUSH3 0x675 JUMP JUMPDEST SWAP1 DUP2 MSTORE PUSH1 0x20 ADD PUSH1 0x40 MLOAD DUP1 SWAP2 SUB SWAP1 KECCAK256 DUP2 SWAP1 SSTORE POP DUP1 DUP1 PUSH1 0x1 ADD SWAP2 POP POP PUSH3 0xB0 JUMP JUMPDEST POP POP POP PUSH3 0x935 JUMP JUMPDEST DUP3 DUP1 SLOAD DUP3 DUP3 SSTORE SWAP1 PUSH0 MSTORE PUSH1 0x20 PUSH0 KECCAK256 SWAP1 DUP2 ADD SWAP3 DUP3 ISZERO PUSH3 0x163 JUMPI SWAP2 PUSH1 0x20 MUL DUP3 ADD JUMPDEST DUP3 DUP2 GT ISZERO PUSH3 0x162 JUMPI DUP3 MLOAD DUP3 SWAP1 DUP2 PUSH3 0x151 SWAP2 SWAP1 PUSH3 0x851 JUMP JUMPDEST POP SWAP2 PUSH1 0x20 ADD SWAP2 SWAP1 PUSH1 0x1 ADD SWAP1 PUSH3 0x137 JUMP JUMPDEST JUMPDEST POP SWAP1 POP PUSH3 0x172 SWAP2 SWAP1 PUSH3 0x176 JUMP JUMPDEST POP SWAP1 JUMP JUMPDEST JUMPDEST DUP1 DUP3 GT ISZERO PUSH3 0x199 JUMPI PUSH0 DUP2 DUP2 PUSH3 0x18F SWAP2 SWAP1 PUSH3 0x19D JUMP JUMPDEST POP PUSH1 0x1 ADD PUSH3 0x177 JUMP JUMPDEST POP SWAP1 JUMP JUMPDEST POP DUP1 SLOAD PUSH3 0x1AB SWAP1 PUSH3 0x599 JUMP JUMPDEST PUSH0 DUP3 SSTORE DUP1 PUSH1 0x1F LT PUSH3 0x1BE JUMPI POP PUSH3 0x1DD JUMP JUMPDEST PUSH1 0x1F ADD PUSH1 0x20 SWAP1 DIV SWAP1 PUSH0 MSTORE PUSH1 0x20 PUSH0 KECCAK256 SWAP1 DUP2 ADD SWAP1 PUSH3 0x1DC SWAP2 SWAP1 PUSH3 0x1E0 JUMP JUMPDEST JUMPDEST POP JUMP JUMPDEST JUMPDEST DUP1 DUP3 GT ISZERO PUSH3 0x1F9 JUMPI PUSH0 DUP2 PUSH0 SWAP1 SSTORE POP PUSH1 0x1 ADD PUSH3 0x1E1 JUMP JUMPDEST POP SWAP1 JUMP JUMPDEST PUSH0 PUSH1 0x40 MLOAD SWAP1 POP SWAP1 JUMP JUMPDEST PUSH0 DUP1 REVERT JUMPDEST PUSH0 DUP1 REVERT JUMPDEST PUSH0 PUSH20 0xFFFFFFFFFFFFFFFFFFFFFFFFFFFFFFFFFFFFFFFF DUP3 AND SWAP1 POP SWAP2 SWAP1 POP JUMP JUMPDEST PUSH0 PUSH3 0x239 DUP3 PUSH3 0x20E JUMP JUMPDEST SWAP1 POP SWAP2 SWAP1 POP JUMP JUMPDEST PUSH3 0x24B DUP2 PUSH3 0x22D JUMP JUMPDEST DUP2 EQ PUSH3 0x256 JUMPI PUSH0 DUP1 REVERT JUMPDEST POP JUMP JUMPDEST PUSH0 DUP2 MLOAD SWAP1 POP PUSH3 0x269 DUP2 PUSH3 0x240 JUMP JUMPDEST SWAP3 SWAP2 POP POP JUMP JUMPDEST PUSH0 DUP1 REVERT JUMPDEST PUSH0 PUSH1 0x1F NOT PUSH1 0x1F DUP4 ADD AND SWAP1 POP SWAP2 SWAP1 POP JUMP JUMPDEST PUSH32 0x4E487B7100000000000000000000000000000000000000000000000000000000 PUSH0 MSTORE PUSH1 0x41 PUSH1 0x4 MSTORE PUSH1 0x24 PUSH0 REVERT JUMPDEST PUSH3 0x2BB DUP3 PUSH3 0x273 JUMP JUMPDEST DUP2 ADD DUP2 DUP2 LT PUSH8 0xFFFFFFFFFFFFFFFF DUP3 GT OR ISZERO PUSH3 0x2DD JUMPI PUSH3 0x2DC PUSH3 0x283 JUMP JUMPDEST JUMPDEST DUP1 PUSH1 0x40 MSTORE POP POP POP JUMP JUMPDEST PUSH0 PUSH3 0x2F1 PUSH3 0x1FD JUMP JUMPDEST SWAP1 POP PUSH3 0x2FF DUP3 DUP3 PUSH3 0x2B0 JUMP JUMPDEST SWAP2 SWAP1 POP JUMP JUMPDEST PUSH0 PUSH8 0xFFFFFFFFFFFFFFFF DUP3 GT ISZERO PUSH3 0x321 JUMPI PUSH3 0x320 PUSH3 0x283 JUMP JUMPDEST JUMPDEST PUSH1 0x20 DUP3 MUL SWAP1 POP PUSH1 0x20 DUP2 ADD SWAP1 POP SWAP2 SWAP1 POP JUMP JUMPDEST PUSH0 DUP1 REVERT JUMPDEST PUSH0 DUP1 REVERT JUMPDEST PUSH0 PUSH8 0xFFFFFFFFFFFFFFFF DUP3 GT ISZERO PUSH3 0x357 JUMPI PUSH3 0x356 PUSH3 0x283 JUMP JUMPDEST JUMPDEST PUSH3 0x362 DUP3 PUSH3 0x273 JUMP JUMPDEST SWAP1 POP PUSH1 0x20 DUP2 ADD SWAP1 POP SWAP2 SWAP1 POP JUMP JUMPDEST PUSH0 JUMPDEST DUP4 DUP2 LT ISZERO PUSH3 0x38E JUMPI DUP1 DUP3 ADD MLOAD DUP2 DUP5 ADD MSTORE PUSH1 0x20 DUP2 ADD SWAP1 POP PUSH3 0x371 JUMP JUMPDEST PUSH0 DUP5 DUP5 ADD MSTORE POP POP POP POP JUMP JUMPDEST PUSH0 PUSH3 0x3AF PUSH3 0x3A9 DUP5 PUSH3 0x33A JUMP JUMPDEST PUSH3 0x2E6 JUMP JUMPDEST SWAP1 POP DUP3 DUP2 MSTORE PUSH1 0x20 DUP2 ADD DUP5 DUP5 DUP5 ADD GT ISZERO PUSH3 0x3CE JUMPI PUSH3 0x3CD PUSH3 0x336 JUMP JUMPDEST JUMPDEST PUSH3 0x3DB DUP5 DUP3 DUP6 PUSH3 0x36F JUMP JUMPDEST POP SWAP4 SWAP3 POP POP POP JUMP JUMPDEST PUSH0 DUP3 PUSH1 0x1F DUP4 ADD SLT PUSH3 0x3FA JUMPI PUSH3 0x3F9 PUSH3 0x26F JUMP JUMPDEST JUMPDEST DUP2 MLOAD PUSH3 0x40C DUP5 DUP3 PUSH1 0x20 DUP7 ADD PUSH3 0x399 JUMP JUMPDEST SWAP2 POP POP SWAP3 SWAP2 POP POP JUMP JUMPDEST PUSH0 PUSH3 0x42B PUSH3 0x425 DUP5 PUSH3 0x304 JUMP JUMPDEST PUSH3 0x2E6 JUMP JUMPDEST SWAP1 POP DUP1 DUP4 DUP3 MSTORE PUSH1 0x20 DUP3 ADD SWAP1 POP PUSH1 0x20 DUP5 MUL DUP4 ADD DUP6 DUP2 GT ISZERO PUSH3 0x451 JUMPI PUSH3 0x450 PUSH3 0x332 JUMP JUMPDEST JUMPDEST DUP4 JUMPDEST DUP2 DUP2 LT ISZERO PUSH3 0x49F JUMPI DUP1 MLOAD PUSH8 0xFFFFFFFFFFFFFFFF DUP2 GT ISZERO PUSH3 0x47A JUMPI PUSH3 0x479 PUSH3 0x26F JUMP JUMPDEST JUMPDEST DUP1 DUP7 ADD PUSH3 0x489 DUP10 DUP3 PUSH3 0x3E3 JUMP JUMPDEST DUP6 MSTORE PUSH1 0x20 DUP6 ADD SWAP5 POP POP POP PUSH1 0x20 DUP2 ADD SWAP1 POP PUSH3 0x453 JUMP JUMPDEST POP POP POP SWAP4 SWAP3 POP POP POP JUMP JUMPDEST PUSH0 DUP3 PUSH1 0x1F DUP4 ADD SLT PUSH3 0x4C0 JUMPI PUSH3 0x4BF PUSH3 0x26F JUMP JUMPDEST JUMPDEST DUP2 MLOAD PUSH3 0x4D2 DUP5 DUP3 PUSH1 0x20 DUP7 ADD PUSH3 0x415 JUMP JUMPDEST SWAP2 POP POP SWAP3 SWAP2 POP POP JUMP JUMPDEST PUSH0 DUP1 PUSH1 0x40 DUP4 DUP6 SUB SLT ISZERO PUSH3 0x4F4 JUMPI PUSH3 0x4F3 PUSH3 0x206 JUMP JUMPDEST JUMPDEST PUSH0 PUSH3 0x503 DUP6 DUP3 DUP7 ADD PUSH3 0x259 JUMP JUMPDEST SWAP3 POP POP PUSH1 0x20 DUP4 ADD MLOAD PUSH8 0xFFFFFFFFFFFFFFFF DUP2 GT ISZERO PUSH3 0x527 JUMPI PUSH3 0x526 PUSH3 0x20A JUMP JUMPDEST JUMPDEST PUSH3 0x535 DUP6 DUP3 DUP7 ADD PUSH3 0x4A9 JUMP JUMPDEST SWAP2 POP POP SWAP3 POP SWAP3 SWAP1 POP JUMP JUMPDEST PUSH32 0x4E487B7100000000000000000000000000000000000000000000000000000000 PUSH0 MSTORE PUSH1 0x32 PUSH1 0x4 MSTORE PUSH1 0x24 PUSH0 REVERT JUMPDEST PUSH32 0x4E487B7100000000000000000000000000000000000000000000000000000000 PUSH0 MSTORE PUSH1 0x22 PUSH1 0x4 MSTORE PUSH1 0x24 PUSH0 REVERT JUMPDEST PUSH0 PUSH1 0x2 DUP3 DIV SWAP1 POP PUSH1 0x1 DUP3 AND DUP1 PUSH3 0x5B1 JUMPI PUSH1 0x7F DUP3 AND SWAP2 POP JUMPDEST PUSH1 0x20 DUP3 LT DUP2 SUB PUSH3 0x5C7 JUMPI PUSH3 0x5C6 PUSH3 0x56C JUMP JUMPDEST JUMPDEST POP SWAP2 SWAP1 POP JUMP JUMPDEST PUSH0 DUP2 SWAP1 POP SWAP3 SWAP2 POP POP JUMP JUMPDEST PUSH0 DUP2 SWAP1 POP DUP2 PUSH0 MSTORE PUSH1 0x20 PUSH0 KECCAK256 SWAP1 POP SWAP2 SWAP1 POP JUMP JUMPDEST PUSH0 DUP2 SLOAD PUSH3 0x5F7 DUP2 PUSH3 0x599 JUMP JUMPDEST PUSH3 0x603 DUP2 DUP7 PUSH3 0x5CD JUMP JUMPDEST SWAP5 POP PUSH1 0x1 DUP3 AND PUSH0 DUP2 EQ PUSH3 0x620 JUMPI PUSH1 0x1 DUP2 EQ PUSH3 0x636 JUMPI PUSH3 0x66C JUMP JUMPDEST PUSH1 0xFF NOT DUP4 AND DUP7 MSTORE DUP2 ISZERO ISZERO DUP3 MUL DUP7 ADD SWAP4 POP PUSH3 0x66C JUMP JUMPDEST PUSH3 0x641 DUP6 PUSH3 0x5D7 JUMP JUMPDEST PUSH0 JUMPDEST DUP4 DUP2 LT ISZERO PUSH3 0x664 JUMPI DUP2 SLOAD DUP2 DUP10 ADD MSTORE PUSH1 0x1 DUP3 ADD SWAP2 POP PUSH1 0x20 DUP2 ADD SWAP1 POP PUSH3 0x643 JUMP JUMPDEST DUP4 DUP9 ADD SWAP6 POP POP POP JUMPDEST POP POP POP SWAP3 SWAP2 POP POP JUMP JUMPDEST PUSH0 PUSH3 0x682 DUP3 DUP5 PUSH3 0x5E9 JUMP JUMPDEST SWAP2 POP DUP2 SWAP1 POP SWAP3 SWAP2 POP POP JUMP JUMPDEST PUSH0 DUP2 MLOAD SWAP1 POP SWAP2 SWAP1 POP JUMP JUMPDEST PUSH0 PUSH1 0x20 PUSH1 0x1F DUP4 ADD DIV SWAP1 POP SWAP2 SWAP1 POP JUMP JUMPDEST PUSH0 DUP3 DUP3 SHL SWAP1 POP SWAP3 SWAP2 POP POP JUMP JUMPDEST PUSH0 PUSH1 0x8 DUP4 MUL PUSH3 0x6E3 PUSH32 0xFFFFFFFFFFFFFFFFFFFFFFFFFFFFFFFFFFFFFFFFFFFFFFFFFFFFFFFFFFFFFFFF DUP3 PUSH3 0x6A6 JUMP JUMPDEST PUSH3 0x6EF DUP7 DUP4 PUSH3 0x6A6 JUMP JUMPDEST SWAP6 POP DUP1 NOT DUP5 AND SWAP4 POP DUP1 DUP7 AND DUP5 OR SWAP3 POP POP POP SWAP4 SWAP3 POP POP POP JUMP JUMPDEST PUSH0 DUP2 SWAP1 POP SWAP2 SWAP1 POP JUMP JUMPDEST PUSH0 DUP2 SWAP1 POP SWAP2 SWAP1 POP JUMP JUMPDEST PUSH0 PUSH3 0x739 PUSH3 0x733 PUSH3 0x72D DUP5 PUSH3 0x707 JUMP JUMPDEST PUSH3 0x710 JUMP JUMPDEST PUSH3 0x707 JUMP JUMPDEST SWAP1 POP SWAP2 SWAP1 POP JUMP JUMPDEST PUSH0 DUP2 SWAP1 POP SWAP2 SWAP1 POP JUMP JUMPDEST PUSH3 0x754 DUP4 PUSH3 0x719 JUMP JUMPDEST PUSH3 0x76C PUSH3 0x763 DUP3 PUSH3 0x740 JUMP JUMPDEST DUP5 DUP5 SLOAD PUSH3 0x6B2 JUMP JUMPDEST DUP3 SSTORE POP POP POP POP JUMP JUMPDEST PUSH0 SWAP1 JUMP JUMPDEST PUSH3 0x782 PUSH3 0x774 JUMP JUMPDEST PUSH3 0x78F DUP2 DUP5 DUP5 PUSH3 0x749 JUMP JUMPDEST POP POP POP JUMP JUMPDEST JUMPDEST DUP2 DUP2 LT ISZERO PUSH3 0x7B6 JUMPI PUSH3 0x7AA PUSH0 DUP3 PUSH3 0x778 JUMP JUMPDEST PUSH1 0x1 DUP2 ADD SWAP1 POP PUSH3 0x795 JUMP JUMPDEST POP POP JUMP JUMPDEST PUSH1 0x1F DUP3 GT ISZERO PUSH3 0x805 JUMPI PUSH3 0x7CF DUP2 PUSH3 0x5D7 JUMP JUMPDEST PUSH3 0x7DA DUP5 PUSH3 0x697 JUMP JUMPDEST DUP2 ADD PUSH1 0x20 DUP6 LT ISZERO PUSH3 0x7EA JUMPI DUP2 SWAP1 POP JUMPDEST PUSH3 0x802 PUSH3 0x7F9 DUP6 PUSH3 0x697 JUMP JUMPDEST DUP4 ADD DUP3 PUSH3 0x794 JUMP JUMPDEST POP POP JUMPDEST POP POP POP JUMP JUMPDEST PUSH0 DUP3 DUP3 SHR SWAP1 POP SWAP3 SWAP2 POP POP JUMP JUMPDEST PUSH0 PUSH3 0x827 PUSH0 NOT DUP5 PUSH1 0x8 MUL PUSH3 0x80A JUMP JUMPDEST NOT DUP1 DUP4 AND SWAP2 POP POP SWAP3 SWAP2 POP POP JUMP JUMPDEST PUSH0 PUSH3 0x841 DUP4 DUP4 PUSH3 0x816 JUMP JUMPDEST SWAP2 POP DUP3 PUSH1 0x2 MUL DUP3 OR SWAP1 POP SWAP3 SWAP2 POP POP JUMP JUMPDEST PUSH3 0x85C DUP3 PUSH3 0x68D JUMP JUMPDEST PUSH8 0xFFFFFFFFFFFFFFFF DUP2 GT ISZERO PUSH3 0x878 JUMPI PUSH3 0x877 PUSH3 0x283 JUMP JUMPDEST JUMPDEST PUSH3 0x884 DUP3 SLOAD PUSH3 0x599 JUMP JUMPDEST PUSH3 0x891 DUP3 DUP3 DUP6 PUSH3 0x7BA JUMP JUMPDEST PUSH0 PUSH1 0x20 SWAP1 POP PUSH1 0x1F DUP4 GT PUSH1 0x1 DUP2 EQ PUSH3 0x8C7 JUMPI PUSH0 DUP5 ISZERO PUSH3 0x8B2 JUMPI DUP3 DUP8 ADD MLOAD SWAP1 POP JUMPDEST PUSH3 0x8BE DUP6 DUP3 PUSH3 0x834 JUMP JUMPDEST DUP7 SSTORE POP PUSH3 0x92D JUMP JUMPDEST PUSH1 0x1F NOT DUP5 AND PUSH3 0x8D7 DUP7 PUSH3 0x5D7 JUMP JUMPDEST PUSH0 JUMPDEST DUP3 DUP2 LT ISZERO PUSH3 0x900 JUMPI DUP5 DUP10 ADD MLOAD DUP3 SSTORE PUSH1 0x1 DUP3 ADD SWAP2 POP PUSH1 0x20 DUP6 ADD SWAP5 POP PUSH1 0x20 DUP2 ADD SWAP1 POP PUSH3 0x8D9 JUMP JUMPDEST DUP7 DUP4 LT ISZERO PUSH3 0x920 JUMPI DUP5 DUP10 ADD MLOAD PUSH3 0x91C PUSH1 0x1F DUP10 AND DUP3 PUSH3 0x816 JUMP JUMPDEST DUP4 SSTORE POP JUMPDEST PUSH1 0x1 PUSH1 0x2 DUP9 MUL ADD DUP9 SSTORE POP POP POP JUMPDEST POP POP POP POP POP POP JUMP JUMPDEST PUSH2 0x7FF DUP1 PUSH3 0x943 PUSH0 CODECOPY PUSH0 RETURN INVALID PUSH1 0x80 PUSH1 0x40 MSTORE CALLVALUE DUP1 ISZERO PUSH2 0xF JUMPI PUSH0 DUP1 REVERT JUMPDEST POP PUSH1 0x4 CALLDATASIZE LT PUSH2 0x4A JUMPI PUSH0 CALLDATALOAD PUSH1 0xE0 SHR DUP1 PUSH4 0x6A49FCE EQ PUSH2 0x4E JUMPI DUP1 PUSH4 0x122902A6 EQ PUSH2 0x6C JUMPI DUP1 PUSH4 0x893D20E8 EQ PUSH2 0x8A JUMPI DUP1 PUSH4 0xE7B3387C EQ PUSH2 0xA8 JUMPI JUMPDEST PUSH0 DUP1 REVERT JUMPDEST PUSH2 0x56 PUSH2 0xC7 JUMP JUMPDEST PUSH1 0x40 MLOAD PUSH2 0x63 SWAP2 SWAP1 PUSH2 0x4C0 JUMP JUMPDEST PUSH1 0x40 MLOAD DUP1 SWAP2 SUB SWAP1 RETURN JUMPDEST PUSH2 0x74 PUSH2 0x19B JUMP JUMPDEST PUSH1 0x40 MLOAD PUSH2 0x81 SWAP2 SWAP1 PUSH2 0x4FA JUMP JUMPDEST PUSH1 0x40 MLOAD DUP1 SWAP2 SUB SWAP1 RETURN JUMPDEST PUSH2 0x92 PUSH2 0x1B0 JUMP JUMPDEST PUSH1 0x40 MLOAD PUSH2 0x9F SWAP2 SWAP1 PUSH2 0x552 JUMP JUMPDEST PUSH1 0x40 MLOAD DUP1 SWAP2 SUB SWAP1 RETURN JUMPDEST PUSH2 0xB0 PUSH2 0x1D7 JUMP JUMPDEST PUSH1 0x40 MLOAD PUSH2 0xBE SWAP3 SWAP2 SWAP1 PUSH2 0x62B JUMP JUMPDEST PUSH1 0x40 MLOAD DUP1 SWAP2 SUB SWAP1 RETURN JUMPDEST PUSH1 0x60 PUSH1 0x2 DUP1 SLOAD DUP1 PUSH1 0x20 MUL PUSH1 0x20 ADD PUSH1 0x40 MLOAD SWAP1 DUP2 ADD PUSH1 0x40 MSTORE DUP1 SWAP3 SWAP2 SWAP1 DUP2 DUP2 MSTORE PUSH1 0x20 ADD PUSH0 SWAP1 JUMPDEST DUP3 DUP3 LT ISZERO PUSH2 0x192 JUMPI DUP4 DUP3 SWAP1 PUSH0 MSTORE PUSH1 0x20 PUSH0 KECCAK256 ADD DUP1 SLOAD PUSH2 0x107 SWAP1 PUSH2 0x68D JUMP JUMPDEST DUP1 PUSH1 0x1F ADD PUSH1 0x20 DUP1 SWAP2 DIV MUL PUSH1 0x20 ADD PUSH1 0x40 MLOAD SWAP1 DUP2 ADD PUSH1 0x40 MSTORE DUP1 SWAP3 SWAP2 SWAP1 DUP2 DUP2 MSTORE PUSH1 0x20 ADD DUP3 DUP1 SLOAD PUSH2 0x133 SWAP1 PUSH2 0x68D JUMP JUMPDEST DUP1 ISZERO PUSH2 0x17E JUMPI DUP1 PUSH1 0x1F LT PUSH2 0x155 JUMPI PUSH2 0x100 DUP1 DUP4 SLOAD DIV MUL DUP4 MSTORE SWAP2 PUSH1 0x20 ADD SWAP2 PUSH2 0x17E JUMP JUMPDEST DUP3 ADD SWAP2 SWAP1 PUSH0 MSTORE PUSH1 0x20 PUSH0 KECCAK256 SWAP1 JUMPDEST DUP2 SLOAD DUP2 MSTORE SWAP1 PUSH1 0x1 ADD SWAP1 PUSH1 0x20 ADD DUP1 DUP4 GT PUSH2 0x161 JUMPI DUP3 SWAP1 SUB PUSH1 0x1F AND DUP3 ADD SWAP2 JUMPDEST POP POP POP POP POP DUP2 MSTORE PUSH1 0x20 ADD SWAP1 PUSH1 0x1 ADD SWAP1 PUSH2 0xEA JUMP JUMPDEST POP POP POP POP SWAP1 POP SWAP1 JUMP JUMPDEST PUSH0 PUSH1 0x6 PUSH0 SWAP1 SLOAD SWAP1 PUSH2 0x100 EXP SWAP1 DIV PUSH1 0xFF AND SWAP1 POP SWAP1 JUMP JUMPDEST PUSH0 DUP1 PUSH0 SWAP1 SLOAD SWAP1 PUSH2 0x100 EXP SWAP1 DIV PUSH20 0xFFFFFFFFFFFFFFFFFFFFFFFFFFFFFFFFFFFFFFFF AND SWAP1 POP SWAP1 JUMP JUMPDEST PUSH1 0x60 DUP1 PUSH0 PUSH1 0x2 DUP1 SLOAD SWAP1 POP PUSH8 0xFFFFFFFFFFFFFFFF DUP2 GT ISZERO PUSH2 0x1FA JUMPI PUSH2 0x1F9 PUSH2 0x6BD JUMP JUMPDEST JUMPDEST PUSH1 0x40 MLOAD SWAP1 DUP1 DUP3 MSTORE DUP1 PUSH1 0x20 MUL PUSH1 0x20 ADD DUP3 ADD PUSH1 0x40 MSTORE DUP1 ISZERO PUSH2 0x228 JUMPI DUP2 PUSH1 0x20 ADD PUSH1 0x20 DUP3 MUL DUP1 CALLDATASIZE DUP4 CALLDATACOPY DUP1 DUP3 ADD SWAP2 POP POP SWAP1 POP JUMPDEST POP SWAP1 POP PUSH0 JUMPDEST PUSH1 0x2 DUP1 SLOAD SWAP1 POP DUP2 LT ISZERO PUSH2 0x2A0 JUMPI PUSH1 0x4 PUSH1 0x2 DUP3 DUP2 SLOAD DUP2 LT PUSH2 0x250 JUMPI PUSH2 0x24F PUSH2 0x6EA JUMP JUMPDEST JUMPDEST SWAP1 PUSH0 MSTORE PUSH1 0x20 PUSH0 KECCAK256 ADD PUSH1 0x40 MLOAD PUSH2 0x265 SWAP2 SWAP1 PUSH2 0x7B3 JUMP JUMPDEST SWAP1 DUP2 MSTORE PUSH1 0x20 ADD PUSH1 0x40 MLOAD DUP1 SWAP2 SUB SWAP1 KECCAK256 SLOAD DUP3 DUP3 DUP2 MLOAD DUP2 LT PUSH2 0x287 JUMPI PUSH2 0x286 PUSH2 0x6EA JUMP JUMPDEST JUMPDEST PUSH1 0x20 MUL PUSH1 0x20 ADD ADD DUP2 DUP2 MSTORE POP POP DUP1 DUP1 PUSH1 0x1 ADD SWAP2 POP POP PUSH2 0x22D JUMP JUMPDEST POP PUSH1 0x2 DUP2 DUP2 DUP1 SLOAD DUP1 PUSH1 0x20 MUL PUSH1 0x20 ADD PUSH1 0x40 MLOAD SWAP1 DUP2 ADD PUSH1 0x40 MSTORE DUP1 SWAP3 SWAP2 SWAP1 DUP2 DUP2 MSTORE PUSH1 0x20 ADD PUSH0 SWAP1 JUMPDEST DUP3 DUP3 LT ISZERO PUSH2 0x36C JUMPI DUP4 DUP3 SWAP1 PUSH0 MSTORE PUSH1 0x20 PUSH0 KECCAK256 ADD DUP1 SLOAD PUSH2 0x2E1 SWAP1 PUSH2 0x68D JUMP JUMPDEST DUP1 PUSH1 0x1F ADD PUSH1 0x20 DUP1 SWAP2 DIV MUL PUSH1 0x20 ADD PUSH1 0x40 MLOAD SWAP1 DUP2 ADD PUSH1 0x40 MSTORE DUP1 SWAP3 SWAP2 SWAP1 DUP2 DUP2 MSTORE PUSH1 0x20 ADD DUP3 DUP1 SLOAD PUSH2 0x30D SWAP1 PUSH2 0x68D JUMP JUMPDEST DUP1 ISZERO PUSH2 0x358 JUMPI DUP1 PUSH1 0x1F LT PUSH2 0x32F JUMPI PUSH2 0x100 DUP1 DUP4 SLOAD DIV MUL DUP4 MSTORE SWAP2 PUSH1 0x20 ADD SWAP2 PUSH2 0x358 JUMP JUMPDEST DUP3 ADD SWAP2 SWAP1 PUSH0 MSTORE PUSH1 0x20 PUSH0 KECCAK256 SWAP1 JUMPDEST DUP2 SLOAD DUP2 MSTORE SWAP1 PUSH1 0x1 ADD SWAP1 PUSH1 0x20 ADD DUP1 DUP4 GT PUSH2 0x33B JUMPI DUP3 SWAP1 SUB PUSH1 0x1F AND DUP3 ADD SWAP2 JUMPDEST POP POP POP POP POP DUP2 MSTORE PUSH1 0x20 ADD SWAP1 PUSH1 0x1 ADD SWAP1 PUSH2 0x2C4 JUMP JUMPDEST POP POP POP POP SWAP2 POP SWAP3 POP SWAP3 POP POP SWAP1 SWAP2 JUMP JUMPDEST PUSH0 DUP2 MLOAD SWAP1 POP SWAP2 SWAP1 POP JUMP JUMPDEST PUSH0 DUP3 DUP3 MSTORE PUSH1 0x20 DUP3 ADD SWAP1 POP SWAP3 SWAP2 POP POP JUMP JUMPDEST PUSH0 DUP2 SWAP1 POP PUSH1 0x20 DUP3 ADD SWAP1 POP SWAP2 SWAP1 POP JUMP JUMPDEST PUSH0 DUP2 MLOAD SWAP1 POP SWAP2 SWAP1 POP JUMP JUMPDEST PUSH0 DUP3 DUP3 MSTORE PUSH1 0x20 DUP3 ADD SWAP1 POP SWAP3 SWAP2 POP POP JUMP JUMPDEST PUSH0 JUMPDEST DUP4 DUP2 LT ISZERO PUSH2 0x3DB JUMPI DUP1 DUP3 ADD MLOAD DUP2 DUP5 ADD MSTORE PUSH1 0x20 DUP2 ADD SWAP1 POP PUSH2 0x3C0 JUMP JUMPDEST PUSH0 DUP5 DUP5 ADD MSTORE POP POP POP POP JUMP JUMPDEST PUSH0 PUSH1 0x1F NOT PUSH1 0x1F DUP4 ADD AND SWAP1 POP SWAP2 SWAP1 POP JUMP JUMPDEST PUSH0 PUSH2 0x400 DUP3 PUSH2 0x3A4 JUMP JUMPDEST PUSH2 0x40A DUP2 DUP6 PUSH2 0x3AE JUMP JUMPDEST SWAP4 POP PUSH2 0x41A DUP2 DUP6 PUSH1 0x20 DUP7 ADD PUSH2 0x3BE JUMP JUMPDEST PUSH2 0x423 DUP2 PUSH2 0x3E6 JUMP JUMPDEST DUP5 ADD SWAP2 POP POP SWAP3 SWAP2 POP POP JUMP JUMPDEST PUSH0 PUSH2 0x439 DUP4 DUP4 PUSH2 0x3F6 JUMP JUMPDEST SWAP1 POP SWAP3 SWAP2 POP POP JUMP JUMPDEST PUSH0 PUSH1 0x20 DUP3 ADD SWAP1 POP SWAP2 SWAP1 POP JUMP JUMPDEST PUSH0 PUSH2 0x457 DUP3 PUSH2 0x37B JUMP JUMPDEST PUSH2 0x461 DUP2 DUP6 PUSH2 0x385 JUMP JUMPDEST SWAP4 POP DUP4 PUSH1 0x20 DUP3 MUL DUP6 ADD PUSH2 0x473 DUP6 PUSH2 0x395 JUMP JUMPDEST DUP1 PUSH0 JUMPDEST DUP6 DUP2 LT ISZERO PUSH2 0x4AE JUMPI DUP5 DUP5 SUB DUP10 MSTORE DUP2 MLOAD PUSH2 0x48F DUP6 DUP3 PUSH2 0x42E JUMP JUMPDEST SWAP5 POP PUSH2 0x49A DUP4 PUSH2 0x441 JUMP JUMPDEST SWAP3 POP PUSH1 0x20 DUP11 ADD SWAP10 POP POP PUSH1 0x1 DUP2 ADD SWAP1 POP PUSH2 0x476 JUMP JUMPDEST POP DUP3 SWAP8 POP DUP8 SWAP6 POP POP POP POP POP POP SWAP3 SWAP2 POP POP JUMP JUMPDEST PUSH0 PUSH1 0x20 DUP3 ADD SWAP1 POP DUP2 DUP2 SUB PUSH0 DUP4 ADD MSTORE PUSH2 0x4D8 DUP2 DUP5 PUSH2 0x44D JUMP JUMPDEST SWAP1 POP SWAP3 SWAP2 POP POP JUMP JUMPDEST PUSH0 DUP2 ISZERO ISZERO SWAP1 POP SWAP2 SWAP1 POP JUMP JUMPDEST PUSH2 0x4F4 DUP2 PUSH2 0x4E0 JUMP JUMPDEST DUP3 MSTORE POP POP JUMP JUMPDEST PUSH0 PUSH1 0x20 DUP3 ADD SWAP1 POP PUSH2 0x50D PUSH0 DUP4 ADD DUP5 PUSH2 0x4EB JUMP JUMPDEST SWAP3 SWAP2 POP POP JUMP JUMPDEST PUSH0 PUSH20 0xFFFFFFFFFFFFFFFFFFFFFFFFFFFFFFFFFFFFFFFF DUP3 AND SWAP1 POP SWAP2 SWAP1 POP JUMP JUMPDEST PUSH0 PUSH2 0x53C DUP3 PUSH2 0x513 JUMP JUMPDEST SWAP1 POP SWAP2 SWAP1 POP JUMP JUMPDEST PUSH2 0x54C DUP2 PUSH2 0x532 JUMP JUMPDEST DUP3 MSTORE POP POP JUMP JUMPDEST PUSH0 PUSH1 0x20 DUP3 ADD SWAP1 POP PUSH2 0x565 PUSH0 DUP4 ADD DUP5 PUSH2 0x543 JUMP JUMPDEST SWAP3 SWAP2 POP POP JUMP JUMPDEST PUSH0 DUP2 MLOAD SWAP1 POP SWAP2 SWAP1 POP JUMP JUMPDEST PUSH0 DUP3 DUP3 MSTORE PUSH1 0x20 DUP3 ADD SWAP1 POP SWAP3 SWAP2 POP POP JUMP JUMPDEST PUSH0 DUP2 SWAP1 POP PUSH1 0x20 DUP3 ADD SWAP1 POP SWAP2 SWAP1 POP JUMP JUMPDEST PUSH0 DUP2 SWAP1 POP SWAP2 SWAP1 POP JUMP JUMPDEST PUSH2 0x5A6 DUP2 PUSH2 0x594 JUMP JUMPDEST DUP3 MSTORE POP POP JUMP JUMPDEST PUSH0 PUSH2 0x5B7 DUP4 DUP4 PUSH2 0x59D JUMP JUMPDEST PUSH1 0x20 DUP4 ADD SWAP1 POP SWAP3 SWAP2 POP POP JUMP JUMPDEST PUSH0 PUSH1 0x20 DUP3 ADD SWAP1 POP SWAP2 SWAP1 POP JUMP JUMPDEST PUSH0 PUSH2 0x5D9 DUP3 PUSH2 0x56B JUMP JUMPDEST PUSH2 0x5E3 DUP2 DUP6 PUSH2 0x575 JUMP JUMPDEST SWAP4 POP PUSH2 0x5EE DUP4 PUSH2 0x585 JUMP JUMPDEST DUP1 PUSH0 JUMPDEST DUP4 DUP2 LT ISZERO PUSH2 0x61E JUMPI DUP2 MLOAD PUSH2 0x605 DUP9 DUP3 PUSH2 0x5AC JUMP JUMPDEST SWAP8 POP PUSH2 0x610 DUP4 PUSH2 0x5C3 JUMP JUMPDEST SWAP3 POP POP PUSH1 0x1 DUP2 ADD SWAP1 POP PUSH2 0x5F1 JUMP JUMPDEST POP DUP6 SWAP4 POP POP POP POP SWAP3 SWAP2 POP POP JUMP JUMPDEST PUSH0 PUSH1 0x40 DUP3 ADD SWAP1 POP DUP2 DUP2 SUB PUSH0 DUP4 ADD MSTORE PUSH2 0x643 DUP2 DUP6 PUSH2 0x44D JUMP JUMPDEST SWAP1 POP DUP2 DUP2 SUB PUSH1 0x20 DUP4 ADD MSTORE PUSH2 0x657 DUP2 DUP5 PUSH2 0x5CF JUMP JUMPDEST SWAP1 POP SWAP4 SWAP3 POP POP POP JUMP JUMPDEST PUSH32 0x4E487B7100000000000000000000000000000000000000000000000000000000 PUSH0 MSTORE PUSH1 0x22 PUSH1 0x4 MSTORE PUSH1 0x24 PUSH0 REVERT JUMPDEST PUSH0 PUSH1 0x2 DUP3 DIV SWAP1 POP PUSH1 0x1 DUP3 AND DUP1 PUSH2 0x6A4 JUMPI PUSH1 0x7F DUP3 AND SWAP2 POP JUMPDEST PUSH1 0x20 DUP3 LT DUP2 SUB PUSH2 0x6B7 JUMPI PUSH2 0x6B6 PUSH2 0x660 JUMP JUMPDEST JUMPDEST POP SWAP2 SWAP1 POP JUMP JUMPDEST PUSH32 0x4E487B7100000000000000000000000000000000000000000000000000000000 PUSH0 MSTORE PUSH1 0x41 PUSH1 0x4 MSTORE PUSH1 0x24 PUSH0 REVERT JUMPDEST PUSH32 0x4E487B7100000000000000000000000000000000000000000000000000000000 PUSH0 MSTORE PUSH1 0x32 PUSH1 0x4 MSTORE PUSH1 0x24 PUSH0 REVERT JUMPDEST PUSH0 DUP2 SWAP1 POP SWAP3 SWAP2 POP POP JUMP JUMPDEST PUSH0 DUP2 SWAP1 POP DUP2 PUSH0 MSTORE PUSH1 0x20 PUSH0 KECCAK256 SWAP1 POP SWAP2 SWAP1 POP JUMP JUMPDEST PUSH0 DUP2 SLOAD PUSH2 0x73F DUP2 PUSH2 0x68D JUMP JUMPDEST PUSH2 0x749 DUP2 DUP7 PUSH2 0x717 JUMP JUMPDEST SWAP5 POP PUSH1 0x1 DUP3 AND PUSH0 DUP2 EQ PUSH2 0x763 JUMPI PUSH1 0x1 DUP2 EQ PUSH2 0x778 JUMPI PUSH2 0x7AA JUMP JUMPDEST PUSH1 0xFF NOT DUP4 AND DUP7 MSTORE DUP2 ISZERO ISZERO DUP3 MUL DUP7 ADD SWAP4 POP PUSH2 0x7AA JUMP JUMPDEST PUSH2 0x781 DUP6 PUSH2 0x721 JUMP JUMPDEST PUSH0 JUMPDEST DUP4 DUP2 LT ISZERO PUSH2 0x7A2 JUMPI DUP2 SLOAD DUP2 DUP10 ADD MSTORE PUSH1 0x1 DUP3 ADD SWAP2 POP PUSH1 0x20 DUP2 ADD SWAP1 POP PUSH2 0x783 JUMP JUMPDEST DUP4 DUP9 ADD SWAP6 POP POP POP JUMPDEST POP POP POP SWAP3 SWAP2 POP POP JUMP JUMPDEST PUSH0 PUSH2 0x7BE DUP3 DUP5 PUSH2 0x733 JUMP JUMPDEST SWAP2 POP DUP2 SWAP1 POP SWAP3 SWAP2 POP POP JUMP INVALID LOG2 PUSH5 0x6970667358 0x22 SLT KECCAK256 MULMOD EXTCODECOPY DUP10 0xE2 EXTCODEHASH 0xA6 DUP10 SELFBALANCE 0x21 0xB5 0x5D PUSH23 0xDF49C9A7F964B316A1E327A369388FDDCB1B813C64736F PUSH13 0x63430008160033A26469706673 PC 0x22 SLT KECCAK256 SWAP3 SWAP3 AND SWAP2 0xEC 0x22 0xE7 EXTCODESIZE BYTE 0xD2 ISZERO CREATE2 0xB5 0xE1 MSIZE TIMESTAMP PUSH26 0x6E2B19E0D06B34903E8F787C27AFD364736F6C63430008160033 "
				},
				"gasEstimates": {
					"creation": {
						"codeDepositCost": "1599400",
						"executionCost": "1671",
						"totalCost": "1601071"
					},
					"external": {
						"createElection(string[])": "infinite",
						"getElections()": "infinite",
						"hasElectionGoing()": "infinite"
					}
				},
				"methodIdentifiers": {
					"createElection(string[])": "f8c5d5e6",
					"getElections()": "9f3a7f52",
					"hasElectionGoing()": "dbdcbeac"
				}
			},
			"storageLayout": {
				"storage": [
					{
						"astId": 5,
						"contract": "blockchain/contracts/DEVote.sol:DEVote",
						"label": "election",
						"offset": 0,
						"slot": "0",
						"type": "t_contract(Election)236"
					},
					{
						"astId": 10,
						"contract": "blockchain/contracts/DEVote.sol:DEVote",
						"label": "elections",
						"offset": 0,
						"slot": "1",
						"type": "t_mapping(t_address,t_contract(Election)236)"
					}
				],
				"types": {
					"t_address": {
						"encoding": "inplace",
						"label": "address",
						"numberOfBytes": "20"
					},
					"t_contract(Election)236": {
						"encoding": "inplace",
						"label": "contract Election",
						"numberOfBytes": "20"
					},
					"t_mapping(t_address,t_contract(Election)236)": {
						"encoding": "mapping",
						"key": "t_address",
						"label": "mapping(address => contract Election)",
						"numberOfBytes": "32",
						"value": "t_contract(Election)236"
					}
				}
			},
			"userdoc": {
				"kind": "user",
				"methods": {},
				"version": 1
			}
		}
	}
}