{
	"data": {
		"bytecode": {
			"linkReferences": {},
			"object": "608060405234801561000f575f80fd5b506125758061001d5f395ff3fe608060405234801562000010575f80fd5b50600436106200005c575f3560e01c806359f78468146200006057806392f8346914620000825780639f3a7f5214620000a5578063dbdcbeac14620000c8578063f8c5d5e614620000ea575b5f80fd5b6200006a62000120565b604051620000799190620008f1565b60405180910390f35b6200008c62000278565b6040516200009c92919062000aa3565b60405180910390f35b620000af620004b3565b604051620000bf92919062000c39565b60405180910390f35b620000d2620005ab565b604051620000e19190620008f1565b60405180910390f35b62000108600480360381019062000102919062000ec3565b620007cf565b60405162000117919062000f23565b60405180910390f35b5f805f60015f3373ffffffffffffffffffffffffffffffffffffffff1673ffffffffffffffffffffffffffffffffffffffff1681526020019081526020015f20548154811062000175576200017462000f3e565b5b905f5260205f20015f9054906101000a900473ffffffffffffffffffffffffffffffffffffffff1690505f8173ffffffffffffffffffffffffffffffffffffffff1663122902a66040518163ffffffff1660e01b8152600401602060405180830381865afa158015620001ea573d5f803e3d5ffd5b505050506040513d601f19601f8201168201806040525081019062000210919062000f9a565b1590508173ffffffffffffffffffffffffffffffffffffffff166359f784686040518163ffffffff1660e01b81526004015f604051808303815f87803b15801562000259575f80fd5b505af11580156200026c573d5f803e3d5ffd5b50505050809250505090565b6060805f60025f3373ffffffffffffffffffffffffffffffffffffffff1673ffffffffffffffffffffffffffffffffffffffff1681526020019081526020015f208054806020026020016040519081016040528092919081815260200182805480156200030357602002820191905f5260205f20905b815481526020019060010190808311620002ee575b505050505090505f60025f3373ffffffffffffffffffffffffffffffffffffffff1673ffffffffffffffffffffffffffffffffffffffff1681526020019081526020015f208054905067ffffffffffffffff81111562000368576200036762000c87565b5b604051908082528060200260200182016040528015620003975781602001602082028036833780820191505090505b5090505f5b8251811015620004a6575f838281518110620003bd57620003bc62000f3e565b5b602002602001015181548110620003d957620003d862000f3e565b5b905f5260205f20015f9054906101000a900473ffffffffffffffffffffffffffffffffffffffff1673ffffffffffffffffffffffffffffffffffffffff1663122902a66040518163ffffffff1660e01b8152600401602060405180830381865afa1580156200044a573d5f803e3d5ffd5b505050506040513d601f19601f8201168201806040525081019062000470919062000f9a565b82828151811062000486576200048562000f3e565b5b60200260200101901515908115158152505080806001019150506200039c565b5081819350935050509091565b6060805f60015f3373ffffffffffffffffffffffffffffffffffffffff1673ffffffffffffffffffffffffffffffffffffffff1681526020019081526020015f20548154811062000509576200050862000f3e565b5b905f5260205f20015f9054906101000a900473ffffffffffffffffffffffffffffffffffffffff1673ffffffffffffffffffffffffffffffffffffffff1663e7b3387c6040518163ffffffff1660e01b81526004015f60405180830381865afa15801562000579573d5f803e3d5ffd5b505050506040513d5f823e3d601f19601f82011682018060405250810190620005a391906200120e565b915091509091565b5f805f60015f3373ffffffffffffffffffffffffffffffffffffffff1673ffffffffffffffffffffffffffffffffffffffff1681526020019081526020015f2054815481106200060057620005ff62000f3e565b5b905f5260205f20015f9054906101000a900473ffffffffffffffffffffffffffffffffffffffff1673ffffffffffffffffffffffffffffffffffffffff1663893d20e86040518163ffffffff1660e01b8152600401602060405180830381865afa15801562000671573d5f803e3d5ffd5b505050506040513d601f19601f82011682018060405250810190620006979190620012f2565b90503373ffffffffffffffffffffffffffffffffffffffff168173ffffffffffffffffffffffffffffffffffffffff1614620006d8576001915050620007cc565b5f8060015f3373ffffffffffffffffffffffffffffffffffffffff1673ffffffffffffffffffffffffffffffffffffffff1681526020019081526020015f2054815481106200072c576200072b62000f3e565b5b905f5260205f20015f9054906101000a900473ffffffffffffffffffffffffffffffffffffffff1673ffffffffffffffffffffffffffffffffffffffff1663122902a66040518163ffffffff1660e01b8152600401602060405180830381865afa1580156200079d573d5f803e3d5ffd5b505050506040513d601f19601f82011682018060405250810190620007c3919062000f9a565b90508015925050505b90565b5f803383604051620007e190620008c7565b620007ee92919062001333565b604051809103905ff08015801562000808573d5f803e3d5ffd5b50908060018154018082558091505060019003905f5260205f20015f9091909190916101000a81548173ffffffffffffffffffffffffffffffffffffffff021916908373ffffffffffffffffffffffffffffffffffffffff1602179055505f60015f805490506200087a919062001392565b90508060015f3373ffffffffffffffffffffffffffffffffffffffff1673ffffffffffffffffffffffffffffffffffffffff1681526020019081526020015f208190555080915050919050565b61117380620013cd83390190565b5f8115159050919050565b620008eb81620008d5565b82525050565b5f602082019050620009065f830184620008e0565b92915050565b5f81519050919050565b5f82825260208201905092915050565b5f819050602082019050919050565b5f819050919050565b620009498162000935565b82525050565b5f6200095c83836200093e565b60208301905092915050565b5f602082019050919050565b5f62000980826200090c565b6200098c818562000916565b9350620009998362000926565b805f5b83811015620009cf578151620009b388826200094f565b9750620009c08362000968565b9250506001810190506200099c565b5085935050505092915050565b5f81519050919050565b5f82825260208201905092915050565b5f819050602082019050919050565b62000a1081620008d5565b82525050565b5f62000a23838362000a05565b60208301905092915050565b5f602082019050919050565b5f62000a4782620009dc565b62000a538185620009e6565b935062000a6083620009f6565b805f5b8381101562000a9657815162000a7a888262000a16565b975062000a878362000a2f565b92505060018101905062000a63565b5085935050505092915050565b5f6040820190508181035f83015262000abd818562000974565b9050818103602083015262000ad3818462000a3b565b90509392505050565b5f81519050919050565b5f82825260208201905092915050565b5f819050602082019050919050565b5f81519050919050565b5f82825260208201905092915050565b5f5b8381101562000b3e57808201518184015260208101905062000b21565b5f8484015250505050565b5f601f19601f8301169050919050565b5f62000b658262000b05565b62000b71818562000b0f565b935062000b8381856020860162000b1f565b62000b8e8162000b49565b840191505092915050565b5f62000ba6838362000b59565b905092915050565b5f602082019050919050565b5f62000bc68262000adc565b62000bd2818562000ae6565b93508360208202850162000be68562000af6565b805f5b8581101562000c27578484038952815162000c05858262000b99565b945062000c128362000bae565b925060208a0199505060018101905062000be9565b50829750879550505050505092915050565b5f6040820190508181035f83015262000c53818562000bba565b9050818103602083015262000c69818462000974565b90509392505050565b5f604051905090565b5f80fd5b5f80fd5b5f80fd5b7f4e487b71000000000000000000000000000000000000000000000000000000005f52604160045260245ffd5b62000cbf8262000b49565b810181811067ffffffffffffffff8211171562000ce15762000ce062000c87565b5b80604052505050565b5f62000cf562000c72565b905062000d03828262000cb4565b919050565b5f67ffffffffffffffff82111562000d255762000d2462000c87565b5b602082029050602081019050919050565b5f80fd5b5f80fd5b5f67ffffffffffffffff82111562000d5b5762000d5a62000c87565b5b62000d668262000b49565b9050602081019050919050565b828183375f83830152505050565b5f62000d9762000d918462000d3e565b62000cea565b90508281526020810184848401111562000db65762000db562000d3a565b5b62000dc384828562000d73565b509392505050565b5f82601f83011262000de25762000de162000c83565b5b813562000df484826020860162000d81565b91505092915050565b5f62000e1362000e0d8462000d08565b62000cea565b9050808382526020820190506020840283018581111562000e395762000e3862000d36565b5b835b8181101562000e8757803567ffffffffffffffff81111562000e625762000e6162000c83565b5b80860162000e71898262000dcb565b8552602085019450505060208101905062000e3b565b5050509392505050565b5f82601f83011262000ea85762000ea762000c83565b5b813562000eba84826020860162000dfd565b91505092915050565b5f6020828403121562000edb5762000eda62000c7b565b5b5f82013567ffffffffffffffff81111562000efb5762000efa62000c7f565b5b62000f098482850162000e91565b91505092915050565b62000f1d8162000935565b82525050565b5f60208201905062000f385f83018462000f12565b92915050565b7f4e487b71000000000000000000000000000000000000000000000000000000005f52603260045260245ffd5b62000f7681620008d5565b811462000f81575f80fd5b50565b5f8151905062000f948162000f6b565b92915050565b5f6020828403121562000fb25762000fb162000c7b565b5b5f62000fc18482850162000f84565b91505092915050565b5f62000fe062000fda8462000d3e565b62000cea565b90508281526020810184848401111562000fff5762000ffe62000d3a565b5b6200100c84828562000b1f565b509392505050565b5f82601f8301126200102b576200102a62000c83565b5b81516200103d84826020860162000fca565b91505092915050565b5f6200105c620010568462000d08565b62000cea565b9050808382526020820190506020840283018581111562001082576200108162000d36565b5b835b81811015620010d057805167ffffffffffffffff811115620010ab57620010aa62000c83565b5b808601620010ba898262001014565b8552602085019450505060208101905062001084565b5050509392505050565b5f82601f830112620010f157620010f062000c83565b5b81516200110384826020860162001046565b91505092915050565b5f67ffffffffffffffff82111562001129576200112862000c87565b5b602082029050602081019050919050565b620011458162000935565b811462001150575f80fd5b50565b5f8151905062001163816200113a565b92915050565b5f6200117f62001179846200110c565b62000cea565b90508083825260208201905060208402830185811115620011a557620011a462000d36565b5b835b81811015620011d25780620011bd888262001153565b845260208401935050602081019050620011a7565b5050509392505050565b5f82601f830112620011f357620011f262000c83565b5b81516200120584826020860162001169565b91505092915050565b5f806040838503121562001227576200122662000c7b565b5b5f83015167ffffffffffffffff81111562001247576200124662000c7f565b5b6200125585828601620010da565b925050602083015167ffffffffffffffff81111562001279576200127862000c7f565b5b6200128785828601620011dc565b9150509250929050565b5f73ffffffffffffffffffffffffffffffffffffffff82169050919050565b5f620012bc8262001291565b9050919050565b620012ce81620012b0565b8114620012d9575f80fd5b50565b5f81519050620012ec81620012c3565b92915050565b5f602082840312156200130a576200130962000c7b565b5b5f6200131984828501620012dc565b91505092915050565b6200132d81620012b0565b82525050565b5f604082019050620013485f83018562001322565b81810360208301526200135c818462000bba565b90509392505050565b7f4e487b71000000000000000000000000000000000000000000000000000000005f52601160045260245ffd5b5f6200139e8262000935565b9150620013ab8362000935565b9250828203905081811115620013c657620013c562001365565b5b9291505056fe608060405234801562000010575f80fd5b5060405162001173380380620011738339818101604052810190620000369190620004db565b815f806101000a81548173ffffffffffffffffffffffffffffffffffffffff021916908373ffffffffffffffffffffffffffffffffffffffff1602179055504260018190555080600290805190602001906200009492919062000118565b505f60065f6101000a81548160ff0219169083151502179055505f5b6002805490508110156200010f575f600460028381548110620000d857620000d76200053f565b5b905f5260205f2001604051620000ef919062000675565b9081526020016040518091039020819055508080600101915050620000b0565b50505062000935565b828054828255905f5260205f2090810192821562000163579160200282015b828111156200016257825182908162000151919062000851565b509160200191906001019062000137565b5b50905062000172919062000176565b5090565b5b8082111562000199575f81816200018f91906200019d565b5060010162000177565b5090565b508054620001ab9062000599565b5f825580601f10620001be5750620001dd565b601f0160209004905f5260205f2090810190620001dc9190620001e0565b5b50565b5b80821115620001f9575f815f905550600101620001e1565b5090565b5f604051905090565b5f80fd5b5f80fd5b5f73ffffffffffffffffffffffffffffffffffffffff82169050919050565b5f62000239826200020e565b9050919050565b6200024b816200022d565b811462000256575f80fd5b50565b5f81519050620002698162000240565b92915050565b5f80fd5b5f601f19601f8301169050919050565b7f4e487b71000000000000000000000000000000000000000000000000000000005f52604160045260245ffd5b620002bb8262000273565b810181811067ffffffffffffffff82111715620002dd57620002dc62000283565b5b80604052505050565b5f620002f1620001fd565b9050620002ff8282620002b0565b919050565b5f67ffffffffffffffff82111562000321576200032062000283565b5b602082029050602081019050919050565b5f80fd5b5f80fd5b5f67ffffffffffffffff82111562000357576200035662000283565b5b620003628262000273565b9050602081019050919050565b5f5b838110156200038e57808201518184015260208101905062000371565b5f8484015250505050565b5f620003af620003a9846200033a565b620002e6565b905082815260208101848484011115620003ce57620003cd62000336565b5b620003db8482856200036f565b509392505050565b5f82601f830112620003fa57620003f96200026f565b5b81516200040c84826020860162000399565b91505092915050565b5f6200042b620004258462000304565b620002e6565b9050808382526020820190506020840283018581111562000451576200045062000332565b5b835b818110156200049f57805167ffffffffffffffff8111156200047a57620004796200026f565b5b808601620004898982620003e3565b8552602085019450505060208101905062000453565b5050509392505050565b5f82601f830112620004c057620004bf6200026f565b5b8151620004d284826020860162000415565b91505092915050565b5f8060408385031215620004f457620004f362000206565b5b5f620005038582860162000259565b925050602083015167ffffffffffffffff8111156200052757620005266200020a565b5b6200053585828601620004a9565b9150509250929050565b7f4e487b71000000000000000000000000000000000000000000000000000000005f52603260045260245ffd5b7f4e487b71000000000000000000000000000000000000000000000000000000005f52602260045260245ffd5b5f6002820490506001821680620005b157607f821691505b602082108103620005c757620005c66200056c565b5b50919050565b5f81905092915050565b5f819050815f5260205f209050919050565b5f8154620005f78162000599565b620006038186620005cd565b9450600182165f811462000620576001811462000636576200066c565b60ff19831686528115158202860193506200066c565b6200064185620005d7565b5f5b83811015620006645781548189015260018201915060208101905062000643565b838801955050505b50505092915050565b5f620006828284620005e9565b915081905092915050565b5f81519050919050565b5f6020601f8301049050919050565b5f82821b905092915050565b5f60088302620006e37fffffffffffffffffffffffffffffffffffffffffffffffffffffffffffffffff82620006a6565b620006ef8683620006a6565b95508019841693508086168417925050509392505050565b5f819050919050565b5f819050919050565b5f62000739620007336200072d8462000707565b62000710565b62000707565b9050919050565b5f819050919050565b620007548362000719565b6200076c620007638262000740565b848454620006b2565b825550505050565b5f90565b6200078262000774565b6200078f81848462000749565b505050565b5b81811015620007b657620007aa5f8262000778565b60018101905062000795565b5050565b601f8211156200080557620007cf81620005d7565b620007da8462000697565b81016020851015620007ea578190505b62000802620007f98562000697565b83018262000794565b50505b505050565b5f82821c905092915050565b5f620008275f19846008026200080a565b1980831691505092915050565b5f62000841838362000816565b9150826002028217905092915050565b6200085c826200068d565b67ffffffffffffffff81111562000878576200087762000283565b5b62000884825462000599565b62000891828285620007ba565b5f60209050601f831160018114620008c7575f8415620008b2578287015190505b620008be858262000834565b8655506200092d565b601f198416620008d786620005d7565b5f5b828110156200090057848901518255600182019150602085019450602081019050620008d9565b868310156200092057848901516200091c601f89168262000816565b8355505b6001600288020188555050505b505050505050565b61083080620009435f395ff3fe608060405234801561000f575f80fd5b5060043610610055575f3560e01c806306a49fce14610059578063122902a61461007757806359f7846814610095578063893d20e81461009f578063e7b3387c146100bd575b5f80fd5b6100616100dc565b60405161006e91906104f1565b60405180910390f35b61007f6101b0565b60405161008c919061052b565b60405180910390f35b61009d6101c5565b005b6100a76101e1565b6040516100b49190610583565b60405180910390f35b6100c5610208565b6040516100d392919061065c565b60405180910390f35b60606002805480602002602001604051908101604052809291908181526020015f905b828210156101a7578382905f5260205f2001805461011c906106be565b80601f0160208091040260200160405190810160405280929190818152602001828054610148906106be565b80156101935780601f1061016a57610100808354040283529160200191610193565b820191905f5260205f20905b81548152906001019060200180831161017657829003601f168201915b5050505050815260200190600101906100ff565b50505050905090565b5f60065f9054906101000a900460ff16905090565b600160065f6101000a81548160ff021916908315150217905550565b5f805f9054906101000a900473ffffffffffffffffffffffffffffffffffffffff16905090565b6060805f60028054905067ffffffffffffffff81111561022b5761022a6106ee565b5b6040519080825280602002602001820160405280156102595781602001602082028036833780820191505090505b5090505f5b6002805490508110156102d1576004600282815481106102815761028061071b565b5b905f5260205f200160405161029691906107e4565b9081526020016040518091039020548282815181106102b8576102b761071b565b5b602002602001018181525050808060010191505061025e565b5060028181805480602002602001604051908101604052809291908181526020015f905b8282101561039d578382905f5260205f20018054610312906106be565b80601f016020809104026020016040519081016040528092919081815260200182805461033e906106be565b80156103895780601f1061036057610100808354040283529160200191610389565b820191905f5260205f20905b81548152906001019060200180831161036c57829003601f168201915b5050505050815260200190600101906102f5565b50505050915092509250509091565b5f81519050919050565b5f82825260208201905092915050565b5f819050602082019050919050565b5f81519050919050565b5f82825260208201905092915050565b5f5b8381101561040c5780820151818401526020810190506103f1565b5f8484015250505050565b5f601f19601f8301169050919050565b5f610431826103d5565b61043b81856103df565b935061044b8185602086016103ef565b61045481610417565b840191505092915050565b5f61046a8383610427565b905092915050565b5f602082019050919050565b5f610488826103ac565b61049281856103b6565b9350836020820285016104a4856103c6565b805f5b858110156104df57848403895281516104c0858261045f565b94506104cb83610472565b925060208a019950506001810190506104a7565b50829750879550505050505092915050565b5f6020820190508181035f830152610509818461047e565b905092915050565b5f8115159050919050565b61052581610511565b82525050565b5f60208201905061053e5f83018461051c565b92915050565b5f73ffffffffffffffffffffffffffffffffffffffff82169050919050565b5f61056d82610544565b9050919050565b61057d81610563565b82525050565b5f6020820190506105965f830184610574565b92915050565b5f81519050919050565b5f82825260208201905092915050565b5f819050602082019050919050565b5f819050919050565b6105d7816105c5565b82525050565b5f6105e883836105ce565b60208301905092915050565b5f602082019050919050565b5f61060a8261059c565b61061481856105a6565b935061061f836105b6565b805f5b8381101561064f57815161063688826105dd565b9750610641836105f4565b925050600181019050610622565b5085935050505092915050565b5f6040820190508181035f830152610674818561047e565b905081810360208301526106888184610600565b90509392505050565b7f4e487b71000000000000000000000000000000000000000000000000000000005f52602260045260245ffd5b5f60028204905060018216806106d557607f821691505b6020821081036106e8576106e7610691565b5b50919050565b7f4e487b71000000000000000000000000000000000000000000000000000000005f52604160045260245ffd5b7f4e487b71000000000000000000000000000000000000000000000000000000005f52603260045260245ffd5b5f81905092915050565b5f819050815f5260205f209050919050565b5f8154610770816106be565b61077a8186610748565b9450600182165f811461079457600181146107a9576107db565b60ff19831686528115158202860193506107db565b6107b285610752565b5f5b838110156107d3578154818901526001820191506020810190506107b4565b838801955050505b50505092915050565b5f6107ef8284610764565b91508190509291505056fea26469706673582212205558c09cfc8bf0c5e1b75f3813d44e0a8a198caf9261d431a1683258f0aecde564736f6c63430008160033a2646970667358221220451a5c4a28e399f4946b7a1c940aafeecc85d82baf0735835bba2bd1d3ca178a64736f6c63430008160033",
			"opcodes": "PUSH1 0x80 PUSH1 0x40 MSTORE CALLVALUE DUP1 ISZERO PUSH2 0xF JUMPI PUSH0 DUP1 REVERT JUMPDEST POP PUSH2 0x2575 DUP1 PUSH2 0x1D PUSH0 CODECOPY PUSH0 RETURN INVALID PUSH1 0x80 PUSH1 0x40 MSTORE CALLVALUE DUP1 ISZERO PUSH3 0x10 JUMPI PUSH0 DUP1 REVERT JUMPDEST POP PUSH1 0x4 CALLDATASIZE LT PUSH3 0x5C JUMPI PUSH0 CALLDATALOAD PUSH1 0xE0 SHR DUP1 PUSH4 0x59F78468 EQ PUSH3 0x60 JUMPI DUP1 PUSH4 0x92F83469 EQ PUSH3 0x82 JUMPI DUP1 PUSH4 0x9F3A7F52 EQ PUSH3 0xA5 JUMPI DUP1 PUSH4 0xDBDCBEAC EQ PUSH3 0xC8 JUMPI DUP1 PUSH4 0xF8C5D5E6 EQ PUSH3 0xEA JUMPI JUMPDEST PUSH0 DUP1 REVERT JUMPDEST PUSH3 0x6A PUSH3 0x120 JUMP JUMPDEST PUSH1 0x40 MLOAD PUSH3 0x79 SWAP2 SWAP1 PUSH3 0x8F1 JUMP JUMPDEST PUSH1 0x40 MLOAD DUP1 SWAP2 SUB SWAP1 RETURN JUMPDEST PUSH3 0x8C PUSH3 0x278 JUMP JUMPDEST PUSH1 0x40 MLOAD PUSH3 0x9C SWAP3 SWAP2 SWAP1 PUSH3 0xAA3 JUMP JUMPDEST PUSH1 0x40 MLOAD DUP1 SWAP2 SUB SWAP1 RETURN JUMPDEST PUSH3 0xAF PUSH3 0x4B3 JUMP JUMPDEST PUSH1 0x40 MLOAD PUSH3 0xBF SWAP3 SWAP2 SWAP1 PUSH3 0xC39 JUMP JUMPDEST PUSH1 0x40 MLOAD DUP1 SWAP2 SUB SWAP1 RETURN JUMPDEST PUSH3 0xD2 PUSH3 0x5AB JUMP JUMPDEST PUSH1 0x40 MLOAD PUSH3 0xE1 SWAP2 SWAP1 PUSH3 0x8F1 JUMP JUMPDEST PUSH1 0x40 MLOAD DUP1 SWAP2 SUB SWAP1 RETURN JUMPDEST PUSH3 0x108 PUSH1 0x4 DUP1 CALLDATASIZE SUB DUP2 ADD SWAP1 PUSH3 0x102 SWAP2 SWAP1 PUSH3 0xEC3 JUMP JUMPDEST PUSH3 0x7CF JUMP JUMPDEST PUSH1 0x40 MLOAD PUSH3 0x117 SWAP2 SWAP1 PUSH3 0xF23 JUMP JUMPDEST PUSH1 0x40 MLOAD DUP1 SWAP2 SUB SWAP1 RETURN JUMPDEST PUSH0 DUP1 PUSH0 PUSH1 0x1 PUSH0 CALLER PUSH20 0xFFFFFFFFFFFFFFFFFFFFFFFFFFFFFFFFFFFFFFFF AND PUSH20 0xFFFFFFFFFFFFFFFFFFFFFFFFFFFFFFFFFFFFFFFF AND DUP2 MSTORE PUSH1 0x20 ADD SWAP1 DUP2 MSTORE PUSH1 0x20 ADD PUSH0 KECCAK256 SLOAD DUP2 SLOAD DUP2 LT PUSH3 0x175 JUMPI PUSH3 0x174 PUSH3 0xF3E JUMP JUMPDEST JUMPDEST SWAP1 PUSH0 MSTORE PUSH1 0x20 PUSH0 KECCAK256 ADD PUSH0 SWAP1 SLOAD SWAP1 PUSH2 0x100 EXP SWAP1 DIV PUSH20 0xFFFFFFFFFFFFFFFFFFFFFFFFFFFFFFFFFFFFFFFF AND SWAP1 POP PUSH0 DUP2 PUSH20 0xFFFFFFFFFFFFFFFFFFFFFFFFFFFFFFFFFFFFFFFF AND PUSH4 0x122902A6 PUSH1 0x40 MLOAD DUP2 PUSH4 0xFFFFFFFF AND PUSH1 0xE0 SHL DUP2 MSTORE PUSH1 0x4 ADD PUSH1 0x20 PUSH1 0x40 MLOAD DUP1 DUP4 SUB DUP2 DUP7 GAS STATICCALL ISZERO DUP1 ISZERO PUSH3 0x1EA JUMPI RETURNDATASIZE PUSH0 DUP1 RETURNDATACOPY RETURNDATASIZE PUSH0 REVERT JUMPDEST POP POP POP POP PUSH1 0x40 MLOAD RETURNDATASIZE PUSH1 0x1F NOT PUSH1 0x1F DUP3 ADD AND DUP3 ADD DUP1 PUSH1 0x40 MSTORE POP DUP2 ADD SWAP1 PUSH3 0x210 SWAP2 SWAP1 PUSH3 0xF9A JUMP JUMPDEST ISZERO SWAP1 POP DUP2 PUSH20 0xFFFFFFFFFFFFFFFFFFFFFFFFFFFFFFFFFFFFFFFF AND PUSH4 0x59F78468 PUSH1 0x40 MLOAD DUP2 PUSH4 0xFFFFFFFF AND PUSH1 0xE0 SHL DUP2 MSTORE PUSH1 0x4 ADD PUSH0 PUSH1 0x40 MLOAD DUP1 DUP4 SUB DUP2 PUSH0 DUP8 DUP1 EXTCODESIZE ISZERO DUP1 ISZERO PUSH3 0x259 JUMPI PUSH0 DUP1 REVERT JUMPDEST POP GAS CALL ISZERO DUP1 ISZERO PUSH3 0x26C JUMPI RETURNDATASIZE PUSH0 DUP1 RETURNDATACOPY RETURNDATASIZE PUSH0 REVERT JUMPDEST POP POP POP POP DUP1 SWAP3 POP POP POP SWAP1 JUMP JUMPDEST PUSH1 0x60 DUP1 PUSH0 PUSH1 0x2 PUSH0 CALLER PUSH20 0xFFFFFFFFFFFFFFFFFFFFFFFFFFFFFFFFFFFFFFFF AND PUSH20 0xFFFFFFFFFFFFFFFFFFFFFFFFFFFFFFFFFFFFFFFF AND DUP2 MSTORE PUSH1 0x20 ADD SWAP1 DUP2 MSTORE PUSH1 0x20 ADD PUSH0 KECCAK256 DUP1 SLOAD DUP1 PUSH1 0x20 MUL PUSH1 0x20 ADD PUSH1 0x40 MLOAD SWAP1 DUP2 ADD PUSH1 0x40 MSTORE DUP1 SWAP3 SWAP2 SWAP1 DUP2 DUP2 MSTORE PUSH1 0x20 ADD DUP3 DUP1 SLOAD DUP1 ISZERO PUSH3 0x303 JUMPI PUSH1 0x20 MUL DUP3 ADD SWAP2 SWAP1 PUSH0 MSTORE PUSH1 0x20 PUSH0 KECCAK256 SWAP1 JUMPDEST DUP2 SLOAD DUP2 MSTORE PUSH1 0x20 ADD SWAP1 PUSH1 0x1 ADD SWAP1 DUP1 DUP4 GT PUSH3 0x2EE JUMPI JUMPDEST POP POP POP POP POP SWAP1 POP PUSH0 PUSH1 0x2 PUSH0 CALLER PUSH20 0xFFFFFFFFFFFFFFFFFFFFFFFFFFFFFFFFFFFFFFFF AND PUSH20 0xFFFFFFFFFFFFFFFFFFFFFFFFFFFFFFFFFFFFFFFF AND DUP2 MSTORE PUSH1 0x20 ADD SWAP1 DUP2 MSTORE PUSH1 0x20 ADD PUSH0 KECCAK256 DUP1 SLOAD SWAP1 POP PUSH8 0xFFFFFFFFFFFFFFFF DUP2 GT ISZERO PUSH3 0x368 JUMPI PUSH3 0x367 PUSH3 0xC87 JUMP JUMPDEST JUMPDEST PUSH1 0x40 MLOAD SWAP1 DUP1 DUP3 MSTORE DUP1 PUSH1 0x20 MUL PUSH1 0x20 ADD DUP3 ADD PUSH1 0x40 MSTORE DUP1 ISZERO PUSH3 0x397 JUMPI DUP2 PUSH1 0x20 ADD PUSH1 0x20 DUP3 MUL DUP1 CALLDATASIZE DUP4 CALLDATACOPY DUP1 DUP3 ADD SWAP2 POP POP SWAP1 POP JUMPDEST POP SWAP1 POP PUSH0 JUMPDEST DUP3 MLOAD DUP2 LT ISZERO PUSH3 0x4A6 JUMPI PUSH0 DUP4 DUP3 DUP2 MLOAD DUP2 LT PUSH3 0x3BD JUMPI PUSH3 0x3BC PUSH3 0xF3E JUMP JUMPDEST JUMPDEST PUSH1 0x20 MUL PUSH1 0x20 ADD ADD MLOAD DUP2 SLOAD DUP2 LT PUSH3 0x3D9 JUMPI PUSH3 0x3D8 PUSH3 0xF3E JUMP JUMPDEST JUMPDEST SWAP1 PUSH0 MSTORE PUSH1 0x20 PUSH0 KECCAK256 ADD PUSH0 SWAP1 SLOAD SWAP1 PUSH2 0x100 EXP SWAP1 DIV PUSH20 0xFFFFFFFFFFFFFFFFFFFFFFFFFFFFFFFFFFFFFFFF AND PUSH20 0xFFFFFFFFFFFFFFFFFFFFFFFFFFFFFFFFFFFFFFFF AND PUSH4 0x122902A6 PUSH1 0x40 MLOAD DUP2 PUSH4 0xFFFFFFFF AND PUSH1 0xE0 SHL DUP2 MSTORE PUSH1 0x4 ADD PUSH1 0x20 PUSH1 0x40 MLOAD DUP1 DUP4 SUB DUP2 DUP7 GAS STATICCALL ISZERO DUP1 ISZERO PUSH3 0x44A JUMPI RETURNDATASIZE PUSH0 DUP1 RETURNDATACOPY RETURNDATASIZE PUSH0 REVERT JUMPDEST POP POP POP POP PUSH1 0x40 MLOAD RETURNDATASIZE PUSH1 0x1F NOT PUSH1 0x1F DUP3 ADD AND DUP3 ADD DUP1 PUSH1 0x40 MSTORE POP DUP2 ADD SWAP1 PUSH3 0x470 SWAP2 SWAP1 PUSH3 0xF9A JUMP JUMPDEST DUP3 DUP3 DUP2 MLOAD DUP2 LT PUSH3 0x486 JUMPI PUSH3 0x485 PUSH3 0xF3E JUMP JUMPDEST JUMPDEST PUSH1 0x20 MUL PUSH1 0x20 ADD ADD SWAP1 ISZERO ISZERO SWAP1 DUP2 ISZERO ISZERO DUP2 MSTORE POP POP DUP1 DUP1 PUSH1 0x1 ADD SWAP2 POP POP PUSH3 0x39C JUMP JUMPDEST POP DUP2 DUP2 SWAP4 POP SWAP4 POP POP POP SWAP1 SWAP2 JUMP JUMPDEST PUSH1 0x60 DUP1 PUSH0 PUSH1 0x1 PUSH0 CALLER PUSH20 0xFFFFFFFFFFFFFFFFFFFFFFFFFFFFFFFFFFFFFFFF AND PUSH20 0xFFFFFFFFFFFFFFFFFFFFFFFFFFFFFFFFFFFFFFFF AND DUP2 MSTORE PUSH1 0x20 ADD SWAP1 DUP2 MSTORE PUSH1 0x20 ADD PUSH0 KECCAK256 SLOAD DUP2 SLOAD DUP2 LT PUSH3 0x509 JUMPI PUSH3 0x508 PUSH3 0xF3E JUMP JUMPDEST JUMPDEST SWAP1 PUSH0 MSTORE PUSH1 0x20 PUSH0 KECCAK256 ADD PUSH0 SWAP1 SLOAD SWAP1 PUSH2 0x100 EXP SWAP1 DIV PUSH20 0xFFFFFFFFFFFFFFFFFFFFFFFFFFFFFFFFFFFFFFFF AND PUSH20 0xFFFFFFFFFFFFFFFFFFFFFFFFFFFFFFFFFFFFFFFF AND PUSH4 0xE7B3387C PUSH1 0x40 MLOAD DUP2 PUSH4 0xFFFFFFFF AND PUSH1 0xE0 SHL DUP2 MSTORE PUSH1 0x4 ADD PUSH0 PUSH1 0x40 MLOAD DUP1 DUP4 SUB DUP2 DUP7 GAS STATICCALL ISZERO DUP1 ISZERO PUSH3 0x579 JUMPI RETURNDATASIZE PUSH0 DUP1 RETURNDATACOPY RETURNDATASIZE PUSH0 REVERT JUMPDEST POP POP POP POP PUSH1 0x40 MLOAD RETURNDATASIZE PUSH0 DUP3 RETURNDATACOPY RETURNDATASIZE PUSH1 0x1F NOT PUSH1 0x1F DUP3 ADD AND DUP3 ADD DUP1 PUSH1 0x40 MSTORE POP DUP2 ADD SWAP1 PUSH3 0x5A3 SWAP2 SWAP1 PUSH3 0x120E JUMP JUMPDEST SWAP2 POP SWAP2 POP SWAP1 SWAP2 JUMP JUMPDEST PUSH0 DUP1 PUSH0 PUSH1 0x1 PUSH0 CALLER PUSH20 0xFFFFFFFFFFFFFFFFFFFFFFFFFFFFFFFFFFFFFFFF AND PUSH20 0xFFFFFFFFFFFFFFFFFFFFFFFFFFFFFFFFFFFFFFFF AND DUP2 MSTORE PUSH1 0x20 ADD SWAP1 DUP2 MSTORE PUSH1 0x20 ADD PUSH0 KECCAK256 SLOAD DUP2 SLOAD DUP2 LT PUSH3 0x600 JUMPI PUSH3 0x5FF PUSH3 0xF3E JUMP JUMPDEST JUMPDEST SWAP1 PUSH0 MSTORE PUSH1 0x20 PUSH0 KECCAK256 ADD PUSH0 SWAP1 SLOAD SWAP1 PUSH2 0x100 EXP SWAP1 DIV PUSH20 0xFFFFFFFFFFFFFFFFFFFFFFFFFFFFFFFFFFFFFFFF AND PUSH20 0xFFFFFFFFFFFFFFFFFFFFFFFFFFFFFFFFFFFFFFFF AND PUSH4 0x893D20E8 PUSH1 0x40 MLOAD DUP2 PUSH4 0xFFFFFFFF AND PUSH1 0xE0 SHL DUP2 MSTORE PUSH1 0x4 ADD PUSH1 0x20 PUSH1 0x40 MLOAD DUP1 DUP4 SUB DUP2 DUP7 GAS STATICCALL ISZERO DUP1 ISZERO PUSH3 0x671 JUMPI RETURNDATASIZE PUSH0 DUP1 RETURNDATACOPY RETURNDATASIZE PUSH0 REVERT JUMPDEST POP POP POP POP PUSH1 0x40 MLOAD RETURNDATASIZE PUSH1 0x1F NOT PUSH1 0x1F DUP3 ADD AND DUP3 ADD DUP1 PUSH1 0x40 MSTORE POP DUP2 ADD SWAP1 PUSH3 0x697 SWAP2 SWAP1 PUSH3 0x12F2 JUMP JUMPDEST SWAP1 POP CALLER PUSH20 0xFFFFFFFFFFFFFFFFFFFFFFFFFFFFFFFFFFFFFFFF AND DUP2 PUSH20 0xFFFFFFFFFFFFFFFFFFFFFFFFFFFFFFFFFFFFFFFF AND EQ PUSH3 0x6D8 JUMPI PUSH1 0x1 SWAP2 POP POP PUSH3 0x7CC JUMP JUMPDEST PUSH0 DUP1 PUSH1 0x1 PUSH0 CALLER PUSH20 0xFFFFFFFFFFFFFFFFFFFFFFFFFFFFFFFFFFFFFFFF AND PUSH20 0xFFFFFFFFFFFFFFFFFFFFFFFFFFFFFFFFFFFFFFFF AND DUP2 MSTORE PUSH1 0x20 ADD SWAP1 DUP2 MSTORE PUSH1 0x20 ADD PUSH0 KECCAK256 SLOAD DUP2 SLOAD DUP2 LT PUSH3 0x72C JUMPI PUSH3 0x72B PUSH3 0xF3E JUMP JUMPDEST JUMPDEST SWAP1 PUSH0 MSTORE PUSH1 0x20 PUSH0 KECCAK256 ADD PUSH0 SWAP1 SLOAD SWAP1 PUSH2 0x100 EXP SWAP1 DIV PUSH20 0xFFFFFFFFFFFFFFFFFFFFFFFFFFFFFFFFFFFFFFFF AND PUSH20 0xFFFFFFFFFFFFFFFFFFFFFFFFFFFFFFFFFFFFFFFF AND PUSH4 0x122902A6 PUSH1 0x40 MLOAD DUP2 PUSH4 0xFFFFFFFF AND PUSH1 0xE0 SHL DUP2 MSTORE PUSH1 0x4 ADD PUSH1 0x20 PUSH1 0x40 MLOAD DUP1 DUP4 SUB DUP2 DUP7 GAS STATICCALL ISZERO DUP1 ISZERO PUSH3 0x79D JUMPI RETURNDATASIZE PUSH0 DUP1 RETURNDATACOPY RETURNDATASIZE PUSH0 REVERT JUMPDEST POP POP POP POP PUSH1 0x40 MLOAD RETURNDATASIZE PUSH1 0x1F NOT PUSH1 0x1F DUP3 ADD AND DUP3 ADD DUP1 PUSH1 0x40 MSTORE POP DUP2 ADD SWAP1 PUSH3 0x7C3 SWAP2 SWAP1 PUSH3 0xF9A JUMP JUMPDEST SWAP1 POP DUP1 ISZERO SWAP3 POP POP POP JUMPDEST SWAP1 JUMP JUMPDEST PUSH0 DUP1 CALLER DUP4 PUSH1 0x40 MLOAD PUSH3 0x7E1 SWAP1 PUSH3 0x8C7 JUMP JUMPDEST PUSH3 0x7EE SWAP3 SWAP2 SWAP1 PUSH3 0x1333 JUMP JUMPDEST PUSH1 0x40 MLOAD DUP1 SWAP2 SUB SWAP1 PUSH0 CREATE DUP1 ISZERO DUP1 ISZERO PUSH3 0x808 JUMPI RETURNDATASIZE PUSH0 DUP1 RETURNDATACOPY RETURNDATASIZE PUSH0 REVERT JUMPDEST POP SWAP1 DUP1 PUSH1 0x1 DUP2 SLOAD ADD DUP1 DUP3 SSTORE DUP1 SWAP2 POP POP PUSH1 0x1 SWAP1 SUB SWAP1 PUSH0 MSTORE PUSH1 0x20 PUSH0 KECCAK256 ADD PUSH0 SWAP1 SWAP2 SWAP1 SWAP2 SWAP1 SWAP2 PUSH2 0x100 EXP DUP2 SLOAD DUP2 PUSH20 0xFFFFFFFFFFFFFFFFFFFFFFFFFFFFFFFFFFFFFFFF MUL NOT AND SWAP1 DUP4 PUSH20 0xFFFFFFFFFFFFFFFFFFFFFFFFFFFFFFFFFFFFFFFF AND MUL OR SWAP1 SSTORE POP PUSH0 PUSH1 0x1 PUSH0 DUP1 SLOAD SWAP1 POP PUSH3 0x87A SWAP2 SWAP1 PUSH3 0x1392 JUMP JUMPDEST SWAP1 POP DUP1 PUSH1 0x1 PUSH0 CALLER PUSH20 0xFFFFFFFFFFFFFFFFFFFFFFFFFFFFFFFFFFFFFFFF AND PUSH20 0xFFFFFFFFFFFFFFFFFFFFFFFFFFFFFFFFFFFFFFFF AND DUP2 MSTORE PUSH1 0x20 ADD SWAP1 DUP2 MSTORE PUSH1 0x20 ADD PUSH0 KECCAK256 DUP2 SWAP1 SSTORE POP DUP1 SWAP2 POP POP SWAP2 SWAP1 POP JUMP JUMPDEST PUSH2 0x1173 DUP1 PUSH3 0x13CD DUP4 CODECOPY ADD SWAP1 JUMP JUMPDEST PUSH0 DUP2 ISZERO ISZERO SWAP1 POP SWAP2 SWAP1 POP JUMP JUMPDEST PUSH3 0x8EB DUP2 PUSH3 0x8D5 JUMP JUMPDEST DUP3 MSTORE POP POP JUMP JUMPDEST PUSH0 PUSH1 0x20 DUP3 ADD SWAP1 POP PUSH3 0x906 PUSH0 DUP4 ADD DUP5 PUSH3 0x8E0 JUMP JUMPDEST SWAP3 SWAP2 POP POP JUMP JUMPDEST PUSH0 DUP2 MLOAD SWAP1 POP SWAP2 SWAP1 POP JUMP JUMPDEST PUSH0 DUP3 DUP3 MSTORE PUSH1 0x20 DUP3 ADD SWAP1 POP SWAP3 SWAP2 POP POP JUMP JUMPDEST PUSH0 DUP2 SWAP1 POP PUSH1 0x20 DUP3 ADD SWAP1 POP SWAP2 SWAP1 POP JUMP JUMPDEST PUSH0 DUP2 SWAP1 POP SWAP2 SWAP1 POP JUMP JUMPDEST PUSH3 0x949 DUP2 PUSH3 0x935 JUMP JUMPDEST DUP3 MSTORE POP POP JUMP JUMPDEST PUSH0 PUSH3 0x95C DUP4 DUP4 PUSH3 0x93E JUMP JUMPDEST PUSH1 0x20 DUP4 ADD SWAP1 POP SWAP3 SWAP2 POP POP JUMP JUMPDEST PUSH0 PUSH1 0x20 DUP3 ADD SWAP1 POP SWAP2 SWAP1 POP JUMP JUMPDEST PUSH0 PUSH3 0x980 DUP3 PUSH3 0x90C JUMP JUMPDEST PUSH3 0x98C DUP2 DUP6 PUSH3 0x916 JUMP JUMPDEST SWAP4 POP PUSH3 0x999 DUP4 PUSH3 0x926 JUMP JUMPDEST DUP1 PUSH0 JUMPDEST DUP4 DUP2 LT ISZERO PUSH3 0x9CF JUMPI DUP2 MLOAD PUSH3 0x9B3 DUP9 DUP3 PUSH3 0x94F JUMP JUMPDEST SWAP8 POP PUSH3 0x9C0 DUP4 PUSH3 0x968 JUMP JUMPDEST SWAP3 POP POP PUSH1 0x1 DUP2 ADD SWAP1 POP PUSH3 0x99C JUMP JUMPDEST POP DUP6 SWAP4 POP POP POP POP SWAP3 SWAP2 POP POP JUMP JUMPDEST PUSH0 DUP2 MLOAD SWAP1 POP SWAP2 SWAP1 POP JUMP JUMPDEST PUSH0 DUP3 DUP3 MSTORE PUSH1 0x20 DUP3 ADD SWAP1 POP SWAP3 SWAP2 POP POP JUMP JUMPDEST PUSH0 DUP2 SWAP1 POP PUSH1 0x20 DUP3 ADD SWAP1 POP SWAP2 SWAP1 POP JUMP JUMPDEST PUSH3 0xA10 DUP2 PUSH3 0x8D5 JUMP JUMPDEST DUP3 MSTORE POP POP JUMP JUMPDEST PUSH0 PUSH3 0xA23 DUP4 DUP4 PUSH3 0xA05 JUMP JUMPDEST PUSH1 0x20 DUP4 ADD SWAP1 POP SWAP3 SWAP2 POP POP JUMP JUMPDEST PUSH0 PUSH1 0x20 DUP3 ADD SWAP1 POP SWAP2 SWAP1 POP JUMP JUMPDEST PUSH0 PUSH3 0xA47 DUP3 PUSH3 0x9DC JUMP JUMPDEST PUSH3 0xA53 DUP2 DUP6 PUSH3 0x9E6 JUMP JUMPDEST SWAP4 POP PUSH3 0xA60 DUP4 PUSH3 0x9F6 JUMP JUMPDEST DUP1 PUSH0 JUMPDEST DUP4 DUP2 LT ISZERO PUSH3 0xA96 JUMPI DUP2 MLOAD PUSH3 0xA7A DUP9 DUP3 PUSH3 0xA16 JUMP JUMPDEST SWAP8 POP PUSH3 0xA87 DUP4 PUSH3 0xA2F JUMP JUMPDEST SWAP3 POP POP PUSH1 0x1 DUP2 ADD SWAP1 POP PUSH3 0xA63 JUMP JUMPDEST POP DUP6 SWAP4 POP POP POP POP SWAP3 SWAP2 POP POP JUMP JUMPDEST PUSH0 PUSH1 0x40 DUP3 ADD SWAP1 POP DUP2 DUP2 SUB PUSH0 DUP4 ADD MSTORE PUSH3 0xABD DUP2 DUP6 PUSH3 0x974 JUMP JUMPDEST SWAP1 POP DUP2 DUP2 SUB PUSH1 0x20 DUP4 ADD MSTORE PUSH3 0xAD3 DUP2 DUP5 PUSH3 0xA3B JUMP JUMPDEST SWAP1 POP SWAP4 SWAP3 POP POP POP JUMP JUMPDEST PUSH0 DUP2 MLOAD SWAP1 POP SWAP2 SWAP1 POP JUMP JUMPDEST PUSH0 DUP3 DUP3 MSTORE PUSH1 0x20 DUP3 ADD SWAP1 POP SWAP3 SWAP2 POP POP JUMP JUMPDEST PUSH0 DUP2 SWAP1 POP PUSH1 0x20 DUP3 ADD SWAP1 POP SWAP2 SWAP1 POP JUMP JUMPDEST PUSH0 DUP2 MLOAD SWAP1 POP SWAP2 SWAP1 POP JUMP JUMPDEST PUSH0 DUP3 DUP3 MSTORE PUSH1 0x20 DUP3 ADD SWAP1 POP SWAP3 SWAP2 POP POP JUMP JUMPDEST PUSH0 JUMPDEST DUP4 DUP2 LT ISZERO PUSH3 0xB3E JUMPI DUP1 DUP3 ADD MLOAD DUP2 DUP5 ADD MSTORE PUSH1 0x20 DUP2 ADD SWAP1 POP PUSH3 0xB21 JUMP JUMPDEST PUSH0 DUP5 DUP5 ADD MSTORE POP POP POP POP JUMP JUMPDEST PUSH0 PUSH1 0x1F NOT PUSH1 0x1F DUP4 ADD AND SWAP1 POP SWAP2 SWAP1 POP JUMP JUMPDEST PUSH0 PUSH3 0xB65 DUP3 PUSH3 0xB05 JUMP JUMPDEST PUSH3 0xB71 DUP2 DUP6 PUSH3 0xB0F JUMP JUMPDEST SWAP4 POP PUSH3 0xB83 DUP2 DUP6 PUSH1 0x20 DUP7 ADD PUSH3 0xB1F JUMP JUMPDEST PUSH3 0xB8E DUP2 PUSH3 0xB49 JUMP JUMPDEST DUP5 ADD SWAP2 POP POP SWAP3 SWAP2 POP POP JUMP JUMPDEST PUSH0 PUSH3 0xBA6 DUP4 DUP4 PUSH3 0xB59 JUMP JUMPDEST SWAP1 POP SWAP3 SWAP2 POP POP JUMP JUMPDEST PUSH0 PUSH1 0x20 DUP3 ADD SWAP1 POP SWAP2 SWAP1 POP JUMP JUMPDEST PUSH0 PUSH3 0xBC6 DUP3 PUSH3 0xADC JUMP JUMPDEST PUSH3 0xBD2 DUP2 DUP6 PUSH3 0xAE6 JUMP JUMPDEST SWAP4 POP DUP4 PUSH1 0x20 DUP3 MUL DUP6 ADD PUSH3 0xBE6 DUP6 PUSH3 0xAF6 JUMP JUMPDEST DUP1 PUSH0 JUMPDEST DUP6 DUP2 LT ISZERO PUSH3 0xC27 JUMPI DUP5 DUP5 SUB DUP10 MSTORE DUP2 MLOAD PUSH3 0xC05 DUP6 DUP3 PUSH3 0xB99 JUMP JUMPDEST SWAP5 POP PUSH3 0xC12 DUP4 PUSH3 0xBAE JUMP JUMPDEST SWAP3 POP PUSH1 0x20 DUP11 ADD SWAP10 POP POP PUSH1 0x1 DUP2 ADD SWAP1 POP PUSH3 0xBE9 JUMP JUMPDEST POP DUP3 SWAP8 POP DUP8 SWAP6 POP POP POP POP POP POP SWAP3 SWAP2 POP POP JUMP JUMPDEST PUSH0 PUSH1 0x40 DUP3 ADD SWAP1 POP DUP2 DUP2 SUB PUSH0 DUP4 ADD MSTORE PUSH3 0xC53 DUP2 DUP6 PUSH3 0xBBA JUMP JUMPDEST SWAP1 POP DUP2 DUP2 SUB PUSH1 0x20 DUP4 ADD MSTORE PUSH3 0xC69 DUP2 DUP5 PUSH3 0x974 JUMP JUMPDEST SWAP1 POP SWAP4 SWAP3 POP POP POP JUMP JUMPDEST PUSH0 PUSH1 0x40 MLOAD SWAP1 POP SWAP1 JUMP JUMPDEST PUSH0 DUP1 REVERT JUMPDEST PUSH0 DUP1 REVERT JUMPDEST PUSH0 DUP1 REVERT JUMPDEST PUSH32 0x4E487B7100000000000000000000000000000000000000000000000000000000 PUSH0 MSTORE PUSH1 0x41 PUSH1 0x4 MSTORE PUSH1 0x24 PUSH0 REVERT JUMPDEST PUSH3 0xCBF DUP3 PUSH3 0xB49 JUMP JUMPDEST DUP2 ADD DUP2 DUP2 LT PUSH8 0xFFFFFFFFFFFFFFFF DUP3 GT OR ISZERO PUSH3 0xCE1 JUMPI PUSH3 0xCE0 PUSH3 0xC87 JUMP JUMPDEST JUMPDEST DUP1 PUSH1 0x40 MSTORE POP POP POP JUMP JUMPDEST PUSH0 PUSH3 0xCF5 PUSH3 0xC72 JUMP JUMPDEST SWAP1 POP PUSH3 0xD03 DUP3 DUP3 PUSH3 0xCB4 JUMP JUMPDEST SWAP2 SWAP1 POP JUMP JUMPDEST PUSH0 PUSH8 0xFFFFFFFFFFFFFFFF DUP3 GT ISZERO PUSH3 0xD25 JUMPI PUSH3 0xD24 PUSH3 0xC87 JUMP JUMPDEST JUMPDEST PUSH1 0x20 DUP3 MUL SWAP1 POP PUSH1 0x20 DUP2 ADD SWAP1 POP SWAP2 SWAP1 POP JUMP JUMPDEST PUSH0 DUP1 REVERT JUMPDEST PUSH0 DUP1 REVERT JUMPDEST PUSH0 PUSH8 0xFFFFFFFFFFFFFFFF DUP3 GT ISZERO PUSH3 0xD5B JUMPI PUSH3 0xD5A PUSH3 0xC87 JUMP JUMPDEST JUMPDEST PUSH3 0xD66 DUP3 PUSH3 0xB49 JUMP JUMPDEST SWAP1 POP PUSH1 0x20 DUP2 ADD SWAP1 POP SWAP2 SWAP1 POP JUMP JUMPDEST DUP3 DUP2 DUP4 CALLDATACOPY PUSH0 DUP4 DUP4 ADD MSTORE POP POP POP JUMP JUMPDEST PUSH0 PUSH3 0xD97 PUSH3 0xD91 DUP5 PUSH3 0xD3E JUMP JUMPDEST PUSH3 0xCEA JUMP JUMPDEST SWAP1 POP DUP3 DUP2 MSTORE PUSH1 0x20 DUP2 ADD DUP5 DUP5 DUP5 ADD GT ISZERO PUSH3 0xDB6 JUMPI PUSH3 0xDB5 PUSH3 0xD3A JUMP JUMPDEST JUMPDEST PUSH3 0xDC3 DUP5 DUP3 DUP6 PUSH3 0xD73 JUMP JUMPDEST POP SWAP4 SWAP3 POP POP POP JUMP JUMPDEST PUSH0 DUP3 PUSH1 0x1F DUP4 ADD SLT PUSH3 0xDE2 JUMPI PUSH3 0xDE1 PUSH3 0xC83 JUMP JUMPDEST JUMPDEST DUP2 CALLDATALOAD PUSH3 0xDF4 DUP5 DUP3 PUSH1 0x20 DUP7 ADD PUSH3 0xD81 JUMP JUMPDEST SWAP2 POP POP SWAP3 SWAP2 POP POP JUMP JUMPDEST PUSH0 PUSH3 0xE13 PUSH3 0xE0D DUP5 PUSH3 0xD08 JUMP JUMPDEST PUSH3 0xCEA JUMP JUMPDEST SWAP1 POP DUP1 DUP4 DUP3 MSTORE PUSH1 0x20 DUP3 ADD SWAP1 POP PUSH1 0x20 DUP5 MUL DUP4 ADD DUP6 DUP2 GT ISZERO PUSH3 0xE39 JUMPI PUSH3 0xE38 PUSH3 0xD36 JUMP JUMPDEST JUMPDEST DUP4 JUMPDEST DUP2 DUP2 LT ISZERO PUSH3 0xE87 JUMPI DUP1 CALLDATALOAD PUSH8 0xFFFFFFFFFFFFFFFF DUP2 GT ISZERO PUSH3 0xE62 JUMPI PUSH3 0xE61 PUSH3 0xC83 JUMP JUMPDEST JUMPDEST DUP1 DUP7 ADD PUSH3 0xE71 DUP10 DUP3 PUSH3 0xDCB JUMP JUMPDEST DUP6 MSTORE PUSH1 0x20 DUP6 ADD SWAP5 POP POP POP PUSH1 0x20 DUP2 ADD SWAP1 POP PUSH3 0xE3B JUMP JUMPDEST POP POP POP SWAP4 SWAP3 POP POP POP JUMP JUMPDEST PUSH0 DUP3 PUSH1 0x1F DUP4 ADD SLT PUSH3 0xEA8 JUMPI PUSH3 0xEA7 PUSH3 0xC83 JUMP JUMPDEST JUMPDEST DUP2 CALLDATALOAD PUSH3 0xEBA DUP5 DUP3 PUSH1 0x20 DUP7 ADD PUSH3 0xDFD JUMP JUMPDEST SWAP2 POP POP SWAP3 SWAP2 POP POP JUMP JUMPDEST PUSH0 PUSH1 0x20 DUP3 DUP5 SUB SLT ISZERO PUSH3 0xEDB JUMPI PUSH3 0xEDA PUSH3 0xC7B JUMP JUMPDEST JUMPDEST PUSH0 DUP3 ADD CALLDATALOAD PUSH8 0xFFFFFFFFFFFFFFFF DUP2 GT ISZERO PUSH3 0xEFB JUMPI PUSH3 0xEFA PUSH3 0xC7F JUMP JUMPDEST JUMPDEST PUSH3 0xF09 DUP5 DUP3 DUP6 ADD PUSH3 0xE91 JUMP JUMPDEST SWAP2 POP POP SWAP3 SWAP2 POP POP JUMP JUMPDEST PUSH3 0xF1D DUP2 PUSH3 0x935 JUMP JUMPDEST DUP3 MSTORE POP POP JUMP JUMPDEST PUSH0 PUSH1 0x20 DUP3 ADD SWAP1 POP PUSH3 0xF38 PUSH0 DUP4 ADD DUP5 PUSH3 0xF12 JUMP JUMPDEST SWAP3 SWAP2 POP POP JUMP JUMPDEST PUSH32 0x4E487B7100000000000000000000000000000000000000000000000000000000 PUSH0 MSTORE PUSH1 0x32 PUSH1 0x4 MSTORE PUSH1 0x24 PUSH0 REVERT JUMPDEST PUSH3 0xF76 DUP2 PUSH3 0x8D5 JUMP JUMPDEST DUP2 EQ PUSH3 0xF81 JUMPI PUSH0 DUP1 REVERT JUMPDEST POP JUMP JUMPDEST PUSH0 DUP2 MLOAD SWAP1 POP PUSH3 0xF94 DUP2 PUSH3 0xF6B JUMP JUMPDEST SWAP3 SWAP2 POP POP JUMP JUMPDEST PUSH0 PUSH1 0x20 DUP3 DUP5 SUB SLT ISZERO PUSH3 0xFB2 JUMPI PUSH3 0xFB1 PUSH3 0xC7B JUMP JUMPDEST JUMPDEST PUSH0 PUSH3 0xFC1 DUP5 DUP3 DUP6 ADD PUSH3 0xF84 JUMP JUMPDEST SWAP2 POP POP SWAP3 SWAP2 POP POP JUMP JUMPDEST PUSH0 PUSH3 0xFE0 PUSH3 0xFDA DUP5 PUSH3 0xD3E JUMP JUMPDEST PUSH3 0xCEA JUMP JUMPDEST SWAP1 POP DUP3 DUP2 MSTORE PUSH1 0x20 DUP2 ADD DUP5 DUP5 DUP5 ADD GT ISZERO PUSH3 0xFFF JUMPI PUSH3 0xFFE PUSH3 0xD3A JUMP JUMPDEST JUMPDEST PUSH3 0x100C DUP5 DUP3 DUP6 PUSH3 0xB1F JUMP JUMPDEST POP SWAP4 SWAP3 POP POP POP JUMP JUMPDEST PUSH0 DUP3 PUSH1 0x1F DUP4 ADD SLT PUSH3 0x102B JUMPI PUSH3 0x102A PUSH3 0xC83 JUMP JUMPDEST JUMPDEST DUP2 MLOAD PUSH3 0x103D DUP5 DUP3 PUSH1 0x20 DUP7 ADD PUSH3 0xFCA JUMP JUMPDEST SWAP2 POP POP SWAP3 SWAP2 POP POP JUMP JUMPDEST PUSH0 PUSH3 0x105C PUSH3 0x1056 DUP5 PUSH3 0xD08 JUMP JUMPDEST PUSH3 0xCEA JUMP JUMPDEST SWAP1 POP DUP1 DUP4 DUP3 MSTORE PUSH1 0x20 DUP3 ADD SWAP1 POP PUSH1 0x20 DUP5 MUL DUP4 ADD DUP6 DUP2 GT ISZERO PUSH3 0x1082 JUMPI PUSH3 0x1081 PUSH3 0xD36 JUMP JUMPDEST JUMPDEST DUP4 JUMPDEST DUP2 DUP2 LT ISZERO PUSH3 0x10D0 JUMPI DUP1 MLOAD PUSH8 0xFFFFFFFFFFFFFFFF DUP2 GT ISZERO PUSH3 0x10AB JUMPI PUSH3 0x10AA PUSH3 0xC83 JUMP JUMPDEST JUMPDEST DUP1 DUP7 ADD PUSH3 0x10BA DUP10 DUP3 PUSH3 0x1014 JUMP JUMPDEST DUP6 MSTORE PUSH1 0x20 DUP6 ADD SWAP5 POP POP POP PUSH1 0x20 DUP2 ADD SWAP1 POP PUSH3 0x1084 JUMP JUMPDEST POP POP POP SWAP4 SWAP3 POP POP POP JUMP JUMPDEST PUSH0 DUP3 PUSH1 0x1F DUP4 ADD SLT PUSH3 0x10F1 JUMPI PUSH3 0x10F0 PUSH3 0xC83 JUMP JUMPDEST JUMPDEST DUP2 MLOAD PUSH3 0x1103 DUP5 DUP3 PUSH1 0x20 DUP7 ADD PUSH3 0x1046 JUMP JUMPDEST SWAP2 POP POP SWAP3 SWAP2 POP POP JUMP JUMPDEST PUSH0 PUSH8 0xFFFFFFFFFFFFFFFF DUP3 GT ISZERO PUSH3 0x1129 JUMPI PUSH3 0x1128 PUSH3 0xC87 JUMP JUMPDEST JUMPDEST PUSH1 0x20 DUP3 MUL SWAP1 POP PUSH1 0x20 DUP2 ADD SWAP1 POP SWAP2 SWAP1 POP JUMP JUMPDEST PUSH3 0x1145 DUP2 PUSH3 0x935 JUMP JUMPDEST DUP2 EQ PUSH3 0x1150 JUMPI PUSH0 DUP1 REVERT JUMPDEST POP JUMP JUMPDEST PUSH0 DUP2 MLOAD SWAP1 POP PUSH3 0x1163 DUP2 PUSH3 0x113A JUMP JUMPDEST SWAP3 SWAP2 POP POP JUMP JUMPDEST PUSH0 PUSH3 0x117F PUSH3 0x1179 DUP5 PUSH3 0x110C JUMP JUMPDEST PUSH3 0xCEA JUMP JUMPDEST SWAP1 POP DUP1 DUP4 DUP3 MSTORE PUSH1 0x20 DUP3 ADD SWAP1 POP PUSH1 0x20 DUP5 MUL DUP4 ADD DUP6 DUP2 GT ISZERO PUSH3 0x11A5 JUMPI PUSH3 0x11A4 PUSH3 0xD36 JUMP JUMPDEST JUMPDEST DUP4 JUMPDEST DUP2 DUP2 LT ISZERO PUSH3 0x11D2 JUMPI DUP1 PUSH3 0x11BD DUP9 DUP3 PUSH3 0x1153 JUMP JUMPDEST DUP5 MSTORE PUSH1 0x20 DUP5 ADD SWAP4 POP POP PUSH1 0x20 DUP2 ADD SWAP1 POP PUSH3 0x11A7 JUMP JUMPDEST POP POP POP SWAP4 SWAP3 POP POP POP JUMP JUMPDEST PUSH0 DUP3 PUSH1 0x1F DUP4 ADD SLT PUSH3 0x11F3 JUMPI PUSH3 0x11F2 PUSH3 0xC83 JUMP JUMPDEST JUMPDEST DUP2 MLOAD PUSH3 0x1205 DUP5 DUP3 PUSH1 0x20 DUP7 ADD PUSH3 0x1169 JUMP JUMPDEST SWAP2 POP POP SWAP3 SWAP2 POP POP JUMP JUMPDEST PUSH0 DUP1 PUSH1 0x40 DUP4 DUP6 SUB SLT ISZERO PUSH3 0x1227 JUMPI PUSH3 0x1226 PUSH3 0xC7B JUMP JUMPDEST JUMPDEST PUSH0 DUP4 ADD MLOAD PUSH8 0xFFFFFFFFFFFFFFFF DUP2 GT ISZERO PUSH3 0x1247 JUMPI PUSH3 0x1246 PUSH3 0xC7F JUMP JUMPDEST JUMPDEST PUSH3 0x1255 DUP6 DUP3 DUP7 ADD PUSH3 0x10DA JUMP JUMPDEST SWAP3 POP POP PUSH1 0x20 DUP4 ADD MLOAD PUSH8 0xFFFFFFFFFFFFFFFF DUP2 GT ISZERO PUSH3 0x1279 JUMPI PUSH3 0x1278 PUSH3 0xC7F JUMP JUMPDEST JUMPDEST PUSH3 0x1287 DUP6 DUP3 DUP7 ADD PUSH3 0x11DC JUMP JUMPDEST SWAP2 POP POP SWAP3 POP SWAP3 SWAP1 POP JUMP JUMPDEST PUSH0 PUSH20 0xFFFFFFFFFFFFFFFFFFFFFFFFFFFFFFFFFFFFFFFF DUP3 AND SWAP1 POP SWAP2 SWAP1 POP JUMP JUMPDEST PUSH0 PUSH3 0x12BC DUP3 PUSH3 0x1291 JUMP JUMPDEST SWAP1 POP SWAP2 SWAP1 POP JUMP JUMPDEST PUSH3 0x12CE DUP2 PUSH3 0x12B0 JUMP JUMPDEST DUP2 EQ PUSH3 0x12D9 JUMPI PUSH0 DUP1 REVERT JUMPDEST POP JUMP JUMPDEST PUSH0 DUP2 MLOAD SWAP1 POP PUSH3 0x12EC DUP2 PUSH3 0x12C3 JUMP JUMPDEST SWAP3 SWAP2 POP POP JUMP JUMPDEST PUSH0 PUSH1 0x20 DUP3 DUP5 SUB SLT ISZERO PUSH3 0x130A JUMPI PUSH3 0x1309 PUSH3 0xC7B JUMP JUMPDEST JUMPDEST PUSH0 PUSH3 0x1319 DUP5 DUP3 DUP6 ADD PUSH3 0x12DC JUMP JUMPDEST SWAP2 POP POP SWAP3 SWAP2 POP POP JUMP JUMPDEST PUSH3 0x132D DUP2 PUSH3 0x12B0 JUMP JUMPDEST DUP3 MSTORE POP POP JUMP JUMPDEST PUSH0 PUSH1 0x40 DUP3 ADD SWAP1 POP PUSH3 0x1348 PUSH0 DUP4 ADD DUP6 PUSH3 0x1322 JUMP JUMPDEST DUP2 DUP2 SUB PUSH1 0x20 DUP4 ADD MSTORE PUSH3 0x135C DUP2 DUP5 PUSH3 0xBBA JUMP JUMPDEST SWAP1 POP SWAP4 SWAP3 POP POP POP JUMP JUMPDEST PUSH32 0x4E487B7100000000000000000000000000000000000000000000000000000000 PUSH0 MSTORE PUSH1 0x11 PUSH1 0x4 MSTORE PUSH1 0x24 PUSH0 REVERT JUMPDEST PUSH0 PUSH3 0x139E DUP3 PUSH3 0x935 JUMP JUMPDEST SWAP2 POP PUSH3 0x13AB DUP4 PUSH3 0x935 JUMP JUMPDEST SWAP3 POP DUP3 DUP3 SUB SWAP1 POP DUP2 DUP2 GT ISZERO PUSH3 0x13C6 JUMPI PUSH3 0x13C5 PUSH3 0x1365 JUMP JUMPDEST JUMPDEST SWAP3 SWAP2 POP POP JUMP INVALID PUSH1 0x80 PUSH1 0x40 MSTORE CALLVALUE DUP1 ISZERO PUSH3 0x10 JUMPI PUSH0 DUP1 REVERT JUMPDEST POP PUSH1 0x40 MLOAD PUSH3 0x1173 CODESIZE SUB DUP1 PUSH3 0x1173 DUP4 CODECOPY DUP2 DUP2 ADD PUSH1 0x40 MSTORE DUP2 ADD SWAP1 PUSH3 0x36 SWAP2 SWAP1 PUSH3 0x4DB JUMP JUMPDEST DUP2 PUSH0 DUP1 PUSH2 0x100 EXP DUP2 SLOAD DUP2 PUSH20 0xFFFFFFFFFFFFFFFFFFFFFFFFFFFFFFFFFFFFFFFF MUL NOT AND SWAP1 DUP4 PUSH20 0xFFFFFFFFFFFFFFFFFFFFFFFFFFFFFFFFFFFFFFFF AND MUL OR SWAP1 SSTORE POP TIMESTAMP PUSH1 0x1 DUP2 SWAP1 SSTORE POP DUP1 PUSH1 0x2 SWAP1 DUP1 MLOAD SWAP1 PUSH1 0x20 ADD SWAP1 PUSH3 0x94 SWAP3 SWAP2 SWAP1 PUSH3 0x118 JUMP JUMPDEST POP PUSH0 PUSH1 0x6 PUSH0 PUSH2 0x100 EXP DUP2 SLOAD DUP2 PUSH1 0xFF MUL NOT AND SWAP1 DUP4 ISZERO ISZERO MUL OR SWAP1 SSTORE POP PUSH0 JUMPDEST PUSH1 0x2 DUP1 SLOAD SWAP1 POP DUP2 LT ISZERO PUSH3 0x10F JUMPI PUSH0 PUSH1 0x4 PUSH1 0x2 DUP4 DUP2 SLOAD DUP2 LT PUSH3 0xD8 JUMPI PUSH3 0xD7 PUSH3 0x53F JUMP JUMPDEST JUMPDEST SWAP1 PUSH0 MSTORE PUSH1 0x20 PUSH0 KECCAK256 ADD PUSH1 0x40 MLOAD PUSH3 0xEF SWAP2 SWAP1 PUSH3 0x675 JUMP JUMPDEST SWAP1 DUP2 MSTORE PUSH1 0x20 ADD PUSH1 0x40 MLOAD DUP1 SWAP2 SUB SWAP1 KECCAK256 DUP2 SWAP1 SSTORE POP DUP1 DUP1 PUSH1 0x1 ADD SWAP2 POP POP PUSH3 0xB0 JUMP JUMPDEST POP POP POP PUSH3 0x935 JUMP JUMPDEST DUP3 DUP1 SLOAD DUP3 DUP3 SSTORE SWAP1 PUSH0 MSTORE PUSH1 0x20 PUSH0 KECCAK256 SWAP1 DUP2 ADD SWAP3 DUP3 ISZERO PUSH3 0x163 JUMPI SWAP2 PUSH1 0x20 MUL DUP3 ADD JUMPDEST DUP3 DUP2 GT ISZERO PUSH3 0x162 JUMPI DUP3 MLOAD DUP3 SWAP1 DUP2 PUSH3 0x151 SWAP2 SWAP1 PUSH3 0x851 JUMP JUMPDEST POP SWAP2 PUSH1 0x20 ADD SWAP2 SWAP1 PUSH1 0x1 ADD SWAP1 PUSH3 0x137 JUMP JUMPDEST JUMPDEST POP SWAP1 POP PUSH3 0x172 SWAP2 SWAP1 PUSH3 0x176 JUMP JUMPDEST POP SWAP1 JUMP JUMPDEST JUMPDEST DUP1 DUP3 GT ISZERO PUSH3 0x199 JUMPI PUSH0 DUP2 DUP2 PUSH3 0x18F SWAP2 SWAP1 PUSH3 0x19D JUMP JUMPDEST POP PUSH1 0x1 ADD PUSH3 0x177 JUMP JUMPDEST POP SWAP1 JUMP JUMPDEST POP DUP1 SLOAD PUSH3 0x1AB SWAP1 PUSH3 0x599 JUMP JUMPDEST PUSH0 DUP3 SSTORE DUP1 PUSH1 0x1F LT PUSH3 0x1BE JUMPI POP PUSH3 0x1DD JUMP JUMPDEST PUSH1 0x1F ADD PUSH1 0x20 SWAP1 DIV SWAP1 PUSH0 MSTORE PUSH1 0x20 PUSH0 KECCAK256 SWAP1 DUP2 ADD SWAP1 PUSH3 0x1DC SWAP2 SWAP1 PUSH3 0x1E0 JUMP JUMPDEST JUMPDEST POP JUMP JUMPDEST JUMPDEST DUP1 DUP3 GT ISZERO PUSH3 0x1F9 JUMPI PUSH0 DUP2 PUSH0 SWAP1 SSTORE POP PUSH1 0x1 ADD PUSH3 0x1E1 JUMP JUMPDEST POP SWAP1 JUMP JUMPDEST PUSH0 PUSH1 0x40 MLOAD SWAP1 POP SWAP1 JUMP JUMPDEST PUSH0 DUP1 REVERT JUMPDEST PUSH0 DUP1 REVERT JUMPDEST PUSH0 PUSH20 0xFFFFFFFFFFFFFFFFFFFFFFFFFFFFFFFFFFFFFFFF DUP3 AND SWAP1 POP SWAP2 SWAP1 POP JUMP JUMPDEST PUSH0 PUSH3 0x239 DUP3 PUSH3 0x20E JUMP JUMPDEST SWAP1 POP SWAP2 SWAP1 POP JUMP JUMPDEST PUSH3 0x24B DUP2 PUSH3 0x22D JUMP JUMPDEST DUP2 EQ PUSH3 0x256 JUMPI PUSH0 DUP1 REVERT JUMPDEST POP JUMP JUMPDEST PUSH0 DUP2 MLOAD SWAP1 POP PUSH3 0x269 DUP2 PUSH3 0x240 JUMP JUMPDEST SWAP3 SWAP2 POP POP JUMP JUMPDEST PUSH0 DUP1 REVERT JUMPDEST PUSH0 PUSH1 0x1F NOT PUSH1 0x1F DUP4 ADD AND SWAP1 POP SWAP2 SWAP1 POP JUMP JUMPDEST PUSH32 0x4E487B7100000000000000000000000000000000000000000000000000000000 PUSH0 MSTORE PUSH1 0x41 PUSH1 0x4 MSTORE PUSH1 0x24 PUSH0 REVERT JUMPDEST PUSH3 0x2BB DUP3 PUSH3 0x273 JUMP JUMPDEST DUP2 ADD DUP2 DUP2 LT PUSH8 0xFFFFFFFFFFFFFFFF DUP3 GT OR ISZERO PUSH3 0x2DD JUMPI PUSH3 0x2DC PUSH3 0x283 JUMP JUMPDEST JUMPDEST DUP1 PUSH1 0x40 MSTORE POP POP POP JUMP JUMPDEST PUSH0 PUSH3 0x2F1 PUSH3 0x1FD JUMP JUMPDEST SWAP1 POP PUSH3 0x2FF DUP3 DUP3 PUSH3 0x2B0 JUMP JUMPDEST SWAP2 SWAP1 POP JUMP JUMPDEST PUSH0 PUSH8 0xFFFFFFFFFFFFFFFF DUP3 GT ISZERO PUSH3 0x321 JUMPI PUSH3 0x320 PUSH3 0x283 JUMP JUMPDEST JUMPDEST PUSH1 0x20 DUP3 MUL SWAP1 POP PUSH1 0x20 DUP2 ADD SWAP1 POP SWAP2 SWAP1 POP JUMP JUMPDEST PUSH0 DUP1 REVERT JUMPDEST PUSH0 DUP1 REVERT JUMPDEST PUSH0 PUSH8 0xFFFFFFFFFFFFFFFF DUP3 GT ISZERO PUSH3 0x357 JUMPI PUSH3 0x356 PUSH3 0x283 JUMP JUMPDEST JUMPDEST PUSH3 0x362 DUP3 PUSH3 0x273 JUMP JUMPDEST SWAP1 POP PUSH1 0x20 DUP2 ADD SWAP1 POP SWAP2 SWAP1 POP JUMP JUMPDEST PUSH0 JUMPDEST DUP4 DUP2 LT ISZERO PUSH3 0x38E JUMPI DUP1 DUP3 ADD MLOAD DUP2 DUP5 ADD MSTORE PUSH1 0x20 DUP2 ADD SWAP1 POP PUSH3 0x371 JUMP JUMPDEST PUSH0 DUP5 DUP5 ADD MSTORE POP POP POP POP JUMP JUMPDEST PUSH0 PUSH3 0x3AF PUSH3 0x3A9 DUP5 PUSH3 0x33A JUMP JUMPDEST PUSH3 0x2E6 JUMP JUMPDEST SWAP1 POP DUP3 DUP2 MSTORE PUSH1 0x20 DUP2 ADD DUP5 DUP5 DUP5 ADD GT ISZERO PUSH3 0x3CE JUMPI PUSH3 0x3CD PUSH3 0x336 JUMP JUMPDEST JUMPDEST PUSH3 0x3DB DUP5 DUP3 DUP6 PUSH3 0x36F JUMP JUMPDEST POP SWAP4 SWAP3 POP POP POP JUMP JUMPDEST PUSH0 DUP3 PUSH1 0x1F DUP4 ADD SLT PUSH3 0x3FA JUMPI PUSH3 0x3F9 PUSH3 0x26F JUMP JUMPDEST JUMPDEST DUP2 MLOAD PUSH3 0x40C DUP5 DUP3 PUSH1 0x20 DUP7 ADD PUSH3 0x399 JUMP JUMPDEST SWAP2 POP POP SWAP3 SWAP2 POP POP JUMP JUMPDEST PUSH0 PUSH3 0x42B PUSH3 0x425 DUP5 PUSH3 0x304 JUMP JUMPDEST PUSH3 0x2E6 JUMP JUMPDEST SWAP1 POP DUP1 DUP4 DUP3 MSTORE PUSH1 0x20 DUP3 ADD SWAP1 POP PUSH1 0x20 DUP5 MUL DUP4 ADD DUP6 DUP2 GT ISZERO PUSH3 0x451 JUMPI PUSH3 0x450 PUSH3 0x332 JUMP JUMPDEST JUMPDEST DUP4 JUMPDEST DUP2 DUP2 LT ISZERO PUSH3 0x49F JUMPI DUP1 MLOAD PUSH8 0xFFFFFFFFFFFFFFFF DUP2 GT ISZERO PUSH3 0x47A JUMPI PUSH3 0x479 PUSH3 0x26F JUMP JUMPDEST JUMPDEST DUP1 DUP7 ADD PUSH3 0x489 DUP10 DUP3 PUSH3 0x3E3 JUMP JUMPDEST DUP6 MSTORE PUSH1 0x20 DUP6 ADD SWAP5 POP POP POP PUSH1 0x20 DUP2 ADD SWAP1 POP PUSH3 0x453 JUMP JUMPDEST POP POP POP SWAP4 SWAP3 POP POP POP JUMP JUMPDEST PUSH0 DUP3 PUSH1 0x1F DUP4 ADD SLT PUSH3 0x4C0 JUMPI PUSH3 0x4BF PUSH3 0x26F JUMP JUMPDEST JUMPDEST DUP2 MLOAD PUSH3 0x4D2 DUP5 DUP3 PUSH1 0x20 DUP7 ADD PUSH3 0x415 JUMP JUMPDEST SWAP2 POP POP SWAP3 SWAP2 POP POP JUMP JUMPDEST PUSH0 DUP1 PUSH1 0x40 DUP4 DUP6 SUB SLT ISZERO PUSH3 0x4F4 JUMPI PUSH3 0x4F3 PUSH3 0x206 JUMP JUMPDEST JUMPDEST PUSH0 PUSH3 0x503 DUP6 DUP3 DUP7 ADD PUSH3 0x259 JUMP JUMPDEST SWAP3 POP POP PUSH1 0x20 DUP4 ADD MLOAD PUSH8 0xFFFFFFFFFFFFFFFF DUP2 GT ISZERO PUSH3 0x527 JUMPI PUSH3 0x526 PUSH3 0x20A JUMP JUMPDEST JUMPDEST PUSH3 0x535 DUP6 DUP3 DUP7 ADD PUSH3 0x4A9 JUMP JUMPDEST SWAP2 POP POP SWAP3 POP SWAP3 SWAP1 POP JUMP JUMPDEST PUSH32 0x4E487B7100000000000000000000000000000000000000000000000000000000 PUSH0 MSTORE PUSH1 0x32 PUSH1 0x4 MSTORE PUSH1 0x24 PUSH0 REVERT JUMPDEST PUSH32 0x4E487B7100000000000000000000000000000000000000000000000000000000 PUSH0 MSTORE PUSH1 0x22 PUSH1 0x4 MSTORE PUSH1 0x24 PUSH0 REVERT JUMPDEST PUSH0 PUSH1 0x2 DUP3 DIV SWAP1 POP PUSH1 0x1 DUP3 AND DUP1 PUSH3 0x5B1 JUMPI PUSH1 0x7F DUP3 AND SWAP2 POP JUMPDEST PUSH1 0x20 DUP3 LT DUP2 SUB PUSH3 0x5C7 JUMPI PUSH3 0x5C6 PUSH3 0x56C JUMP JUMPDEST JUMPDEST POP SWAP2 SWAP1 POP JUMP JUMPDEST PUSH0 DUP2 SWAP1 POP SWAP3 SWAP2 POP POP JUMP JUMPDEST PUSH0 DUP2 SWAP1 POP DUP2 PUSH0 MSTORE PUSH1 0x20 PUSH0 KECCAK256 SWAP1 POP SWAP2 SWAP1 POP JUMP JUMPDEST PUSH0 DUP2 SLOAD PUSH3 0x5F7 DUP2 PUSH3 0x599 JUMP JUMPDEST PUSH3 0x603 DUP2 DUP7 PUSH3 0x5CD JUMP JUMPDEST SWAP5 POP PUSH1 0x1 DUP3 AND PUSH0 DUP2 EQ PUSH3 0x620 JUMPI PUSH1 0x1 DUP2 EQ PUSH3 0x636 JUMPI PUSH3 0x66C JUMP JUMPDEST PUSH1 0xFF NOT DUP4 AND DUP7 MSTORE DUP2 ISZERO ISZERO DUP3 MUL DUP7 ADD SWAP4 POP PUSH3 0x66C JUMP JUMPDEST PUSH3 0x641 DUP6 PUSH3 0x5D7 JUMP JUMPDEST PUSH0 JUMPDEST DUP4 DUP2 LT ISZERO PUSH3 0x664 JUMPI DUP2 SLOAD DUP2 DUP10 ADD MSTORE PUSH1 0x1 DUP3 ADD SWAP2 POP PUSH1 0x20 DUP2 ADD SWAP1 POP PUSH3 0x643 JUMP JUMPDEST DUP4 DUP9 ADD SWAP6 POP POP POP JUMPDEST POP POP POP SWAP3 SWAP2 POP POP JUMP JUMPDEST PUSH0 PUSH3 0x682 DUP3 DUP5 PUSH3 0x5E9 JUMP JUMPDEST SWAP2 POP DUP2 SWAP1 POP SWAP3 SWAP2 POP POP JUMP JUMPDEST PUSH0 DUP2 MLOAD SWAP1 POP SWAP2 SWAP1 POP JUMP JUMPDEST PUSH0 PUSH1 0x20 PUSH1 0x1F DUP4 ADD DIV SWAP1 POP SWAP2 SWAP1 POP JUMP JUMPDEST PUSH0 DUP3 DUP3 SHL SWAP1 POP SWAP3 SWAP2 POP POP JUMP JUMPDEST PUSH0 PUSH1 0x8 DUP4 MUL PUSH3 0x6E3 PUSH32 0xFFFFFFFFFFFFFFFFFFFFFFFFFFFFFFFFFFFFFFFFFFFFFFFFFFFFFFFFFFFFFFFF DUP3 PUSH3 0x6A6 JUMP JUMPDEST PUSH3 0x6EF DUP7 DUP4 PUSH3 0x6A6 JUMP JUMPDEST SWAP6 POP DUP1 NOT DUP5 AND SWAP4 POP DUP1 DUP7 AND DUP5 OR SWAP3 POP POP POP SWAP4 SWAP3 POP POP POP JUMP JUMPDEST PUSH0 DUP2 SWAP1 POP SWAP2 SWAP1 POP JUMP JUMPDEST PUSH0 DUP2 SWAP1 POP SWAP2 SWAP1 POP JUMP JUMPDEST PUSH0 PUSH3 0x739 PUSH3 0x733 PUSH3 0x72D DUP5 PUSH3 0x707 JUMP JUMPDEST PUSH3 0x710 JUMP JUMPDEST PUSH3 0x707 JUMP JUMPDEST SWAP1 POP SWAP2 SWAP1 POP JUMP JUMPDEST PUSH0 DUP2 SWAP1 POP SWAP2 SWAP1 POP JUMP JUMPDEST PUSH3 0x754 DUP4 PUSH3 0x719 JUMP JUMPDEST PUSH3 0x76C PUSH3 0x763 DUP3 PUSH3 0x740 JUMP JUMPDEST DUP5 DUP5 SLOAD PUSH3 0x6B2 JUMP JUMPDEST DUP3 SSTORE POP POP POP POP JUMP JUMPDEST PUSH0 SWAP1 JUMP JUMPDEST PUSH3 0x782 PUSH3 0x774 JUMP JUMPDEST PUSH3 0x78F DUP2 DUP5 DUP5 PUSH3 0x749 JUMP JUMPDEST POP POP POP JUMP JUMPDEST JUMPDEST DUP2 DUP2 LT ISZERO PUSH3 0x7B6 JUMPI PUSH3 0x7AA PUSH0 DUP3 PUSH3 0x778 JUMP JUMPDEST PUSH1 0x1 DUP2 ADD SWAP1 POP PUSH3 0x795 JUMP JUMPDEST POP POP JUMP JUMPDEST PUSH1 0x1F DUP3 GT ISZERO PUSH3 0x805 JUMPI PUSH3 0x7CF DUP2 PUSH3 0x5D7 JUMP JUMPDEST PUSH3 0x7DA DUP5 PUSH3 0x697 JUMP JUMPDEST DUP2 ADD PUSH1 0x20 DUP6 LT ISZERO PUSH3 0x7EA JUMPI DUP2 SWAP1 POP JUMPDEST PUSH3 0x802 PUSH3 0x7F9 DUP6 PUSH3 0x697 JUMP JUMPDEST DUP4 ADD DUP3 PUSH3 0x794 JUMP JUMPDEST POP POP JUMPDEST POP POP POP JUMP JUMPDEST PUSH0 DUP3 DUP3 SHR SWAP1 POP SWAP3 SWAP2 POP POP JUMP JUMPDEST PUSH0 PUSH3 0x827 PUSH0 NOT DUP5 PUSH1 0x8 MUL PUSH3 0x80A JUMP JUMPDEST NOT DUP1 DUP4 AND SWAP2 POP POP SWAP3 SWAP2 POP POP JUMP JUMPDEST PUSH0 PUSH3 0x841 DUP4 DUP4 PUSH3 0x816 JUMP JUMPDEST SWAP2 POP DUP3 PUSH1 0x2 MUL DUP3 OR SWAP1 POP SWAP3 SWAP2 POP POP JUMP JUMPDEST PUSH3 0x85C DUP3 PUSH3 0x68D JUMP JUMPDEST PUSH8 0xFFFFFFFFFFFFFFFF DUP2 GT ISZERO PUSH3 0x878 JUMPI PUSH3 0x877 PUSH3 0x283 JUMP JUMPDEST JUMPDEST PUSH3 0x884 DUP3 SLOAD PUSH3 0x599 JUMP JUMPDEST PUSH3 0x891 DUP3 DUP3 DUP6 PUSH3 0x7BA JUMP JUMPDEST PUSH0 PUSH1 0x20 SWAP1 POP PUSH1 0x1F DUP4 GT PUSH1 0x1 DUP2 EQ PUSH3 0x8C7 JUMPI PUSH0 DUP5 ISZERO PUSH3 0x8B2 JUMPI DUP3 DUP8 ADD MLOAD SWAP1 POP JUMPDEST PUSH3 0x8BE DUP6 DUP3 PUSH3 0x834 JUMP JUMPDEST DUP7 SSTORE POP PUSH3 0x92D JUMP JUMPDEST PUSH1 0x1F NOT DUP5 AND PUSH3 0x8D7 DUP7 PUSH3 0x5D7 JUMP JUMPDEST PUSH0 JUMPDEST DUP3 DUP2 LT ISZERO PUSH3 0x900 JUMPI DUP5 DUP10 ADD MLOAD DUP3 SSTORE PUSH1 0x1 DUP3 ADD SWAP2 POP PUSH1 0x20 DUP6 ADD SWAP5 POP PUSH1 0x20 DUP2 ADD SWAP1 POP PUSH3 0x8D9 JUMP JUMPDEST DUP7 DUP4 LT ISZERO PUSH3 0x920 JUMPI DUP5 DUP10 ADD MLOAD PUSH3 0x91C PUSH1 0x1F DUP10 AND DUP3 PUSH3 0x816 JUMP JUMPDEST DUP4 SSTORE POP JUMPDEST PUSH1 0x1 PUSH1 0x2 DUP9 MUL ADD DUP9 SSTORE POP POP POP JUMPDEST POP POP POP POP POP POP JUMP JUMPDEST PUSH2 0x830 DUP1 PUSH3 0x943 PUSH0 CODECOPY PUSH0 RETURN INVALID PUSH1 0x80 PUSH1 0x40 MSTORE CALLVALUE DUP1 ISZERO PUSH2 0xF JUMPI PUSH0 DUP1 REVERT JUMPDEST POP PUSH1 0x4 CALLDATASIZE LT PUSH2 0x55 JUMPI PUSH0 CALLDATALOAD PUSH1 0xE0 SHR DUP1 PUSH4 0x6A49FCE EQ PUSH2 0x59 JUMPI DUP1 PUSH4 0x122902A6 EQ PUSH2 0x77 JUMPI DUP1 PUSH4 0x59F78468 EQ PUSH2 0x95 JUMPI DUP1 PUSH4 0x893D20E8 EQ PUSH2 0x9F JUMPI DUP1 PUSH4 0xE7B3387C EQ PUSH2 0xBD JUMPI JUMPDEST PUSH0 DUP1 REVERT JUMPDEST PUSH2 0x61 PUSH2 0xDC JUMP JUMPDEST PUSH1 0x40 MLOAD PUSH2 0x6E SWAP2 SWAP1 PUSH2 0x4F1 JUMP JUMPDEST PUSH1 0x40 MLOAD DUP1 SWAP2 SUB SWAP1 RETURN JUMPDEST PUSH2 0x7F PUSH2 0x1B0 JUMP JUMPDEST PUSH1 0x40 MLOAD PUSH2 0x8C SWAP2 SWAP1 PUSH2 0x52B JUMP JUMPDEST PUSH1 0x40 MLOAD DUP1 SWAP2 SUB SWAP1 RETURN JUMPDEST PUSH2 0x9D PUSH2 0x1C5 JUMP JUMPDEST STOP JUMPDEST PUSH2 0xA7 PUSH2 0x1E1 JUMP JUMPDEST PUSH1 0x40 MLOAD PUSH2 0xB4 SWAP2 SWAP1 PUSH2 0x583 JUMP JUMPDEST PUSH1 0x40 MLOAD DUP1 SWAP2 SUB SWAP1 RETURN JUMPDEST PUSH2 0xC5 PUSH2 0x208 JUMP JUMPDEST PUSH1 0x40 MLOAD PUSH2 0xD3 SWAP3 SWAP2 SWAP1 PUSH2 0x65C JUMP JUMPDEST PUSH1 0x40 MLOAD DUP1 SWAP2 SUB SWAP1 RETURN JUMPDEST PUSH1 0x60 PUSH1 0x2 DUP1 SLOAD DUP1 PUSH1 0x20 MUL PUSH1 0x20 ADD PUSH1 0x40 MLOAD SWAP1 DUP2 ADD PUSH1 0x40 MSTORE DUP1 SWAP3 SWAP2 SWAP1 DUP2 DUP2 MSTORE PUSH1 0x20 ADD PUSH0 SWAP1 JUMPDEST DUP3 DUP3 LT ISZERO PUSH2 0x1A7 JUMPI DUP4 DUP3 SWAP1 PUSH0 MSTORE PUSH1 0x20 PUSH0 KECCAK256 ADD DUP1 SLOAD PUSH2 0x11C SWAP1 PUSH2 0x6BE JUMP JUMPDEST DUP1 PUSH1 0x1F ADD PUSH1 0x20 DUP1 SWAP2 DIV MUL PUSH1 0x20 ADD PUSH1 0x40 MLOAD SWAP1 DUP2 ADD PUSH1 0x40 MSTORE DUP1 SWAP3 SWAP2 SWAP1 DUP2 DUP2 MSTORE PUSH1 0x20 ADD DUP3 DUP1 SLOAD PUSH2 0x148 SWAP1 PUSH2 0x6BE JUMP JUMPDEST DUP1 ISZERO PUSH2 0x193 JUMPI DUP1 PUSH1 0x1F LT PUSH2 0x16A JUMPI PUSH2 0x100 DUP1 DUP4 SLOAD DIV MUL DUP4 MSTORE SWAP2 PUSH1 0x20 ADD SWAP2 PUSH2 0x193 JUMP JUMPDEST DUP3 ADD SWAP2 SWAP1 PUSH0 MSTORE PUSH1 0x20 PUSH0 KECCAK256 SWAP1 JUMPDEST DUP2 SLOAD DUP2 MSTORE SWAP1 PUSH1 0x1 ADD SWAP1 PUSH1 0x20 ADD DUP1 DUP4 GT PUSH2 0x176 JUMPI DUP3 SWAP1 SUB PUSH1 0x1F AND DUP3 ADD SWAP2 JUMPDEST POP POP POP POP POP DUP2 MSTORE PUSH1 0x20 ADD SWAP1 PUSH1 0x1 ADD SWAP1 PUSH2 0xFF JUMP JUMPDEST POP POP POP POP SWAP1 POP SWAP1 JUMP JUMPDEST PUSH0 PUSH1 0x6 PUSH0 SWAP1 SLOAD SWAP1 PUSH2 0x100 EXP SWAP1 DIV PUSH1 0xFF AND SWAP1 POP SWAP1 JUMP JUMPDEST PUSH1 0x1 PUSH1 0x6 PUSH0 PUSH2 0x100 EXP DUP2 SLOAD DUP2 PUSH1 0xFF MUL NOT AND SWAP1 DUP4 ISZERO ISZERO MUL OR SWAP1 SSTORE POP JUMP JUMPDEST PUSH0 DUP1 PUSH0 SWAP1 SLOAD SWAP1 PUSH2 0x100 EXP SWAP1 DIV PUSH20 0xFFFFFFFFFFFFFFFFFFFFFFFFFFFFFFFFFFFFFFFF AND SWAP1 POP SWAP1 JUMP JUMPDEST PUSH1 0x60 DUP1 PUSH0 PUSH1 0x2 DUP1 SLOAD SWAP1 POP PUSH8 0xFFFFFFFFFFFFFFFF DUP2 GT ISZERO PUSH2 0x22B JUMPI PUSH2 0x22A PUSH2 0x6EE JUMP JUMPDEST JUMPDEST PUSH1 0x40 MLOAD SWAP1 DUP1 DUP3 MSTORE DUP1 PUSH1 0x20 MUL PUSH1 0x20 ADD DUP3 ADD PUSH1 0x40 MSTORE DUP1 ISZERO PUSH2 0x259 JUMPI DUP2 PUSH1 0x20 ADD PUSH1 0x20 DUP3 MUL DUP1 CALLDATASIZE DUP4 CALLDATACOPY DUP1 DUP3 ADD SWAP2 POP POP SWAP1 POP JUMPDEST POP SWAP1 POP PUSH0 JUMPDEST PUSH1 0x2 DUP1 SLOAD SWAP1 POP DUP2 LT ISZERO PUSH2 0x2D1 JUMPI PUSH1 0x4 PUSH1 0x2 DUP3 DUP2 SLOAD DUP2 LT PUSH2 0x281 JUMPI PUSH2 0x280 PUSH2 0x71B JUMP JUMPDEST JUMPDEST SWAP1 PUSH0 MSTORE PUSH1 0x20 PUSH0 KECCAK256 ADD PUSH1 0x40 MLOAD PUSH2 0x296 SWAP2 SWAP1 PUSH2 0x7E4 JUMP JUMPDEST SWAP1 DUP2 MSTORE PUSH1 0x20 ADD PUSH1 0x40 MLOAD DUP1 SWAP2 SUB SWAP1 KECCAK256 SLOAD DUP3 DUP3 DUP2 MLOAD DUP2 LT PUSH2 0x2B8 JUMPI PUSH2 0x2B7 PUSH2 0x71B JUMP JUMPDEST JUMPDEST PUSH1 0x20 MUL PUSH1 0x20 ADD ADD DUP2 DUP2 MSTORE POP POP DUP1 DUP1 PUSH1 0x1 ADD SWAP2 POP POP PUSH2 0x25E JUMP JUMPDEST POP PUSH1 0x2 DUP2 DUP2 DUP1 SLOAD DUP1 PUSH1 0x20 MUL PUSH1 0x20 ADD PUSH1 0x40 MLOAD SWAP1 DUP2 ADD PUSH1 0x40 MSTORE DUP1 SWAP3 SWAP2 SWAP1 DUP2 DUP2 MSTORE PUSH1 0x20 ADD PUSH0 SWAP1 JUMPDEST DUP3 DUP3 LT ISZERO PUSH2 0x39D JUMPI DUP4 DUP3 SWAP1 PUSH0 MSTORE PUSH1 0x20 PUSH0 KECCAK256 ADD DUP1 SLOAD PUSH2 0x312 SWAP1 PUSH2 0x6BE JUMP JUMPDEST DUP1 PUSH1 0x1F ADD PUSH1 0x20 DUP1 SWAP2 DIV MUL PUSH1 0x20 ADD PUSH1 0x40 MLOAD SWAP1 DUP2 ADD PUSH1 0x40 MSTORE DUP1 SWAP3 SWAP2 SWAP1 DUP2 DUP2 MSTORE PUSH1 0x20 ADD DUP3 DUP1 SLOAD PUSH2 0x33E SWAP1 PUSH2 0x6BE JUMP JUMPDEST DUP1 ISZERO PUSH2 0x389 JUMPI DUP1 PUSH1 0x1F LT PUSH2 0x360 JUMPI PUSH2 0x100 DUP1 DUP4 SLOAD DIV MUL DUP4 MSTORE SWAP2 PUSH1 0x20 ADD SWAP2 PUSH2 0x389 JUMP JUMPDEST DUP3 ADD SWAP2 SWAP1 PUSH0 MSTORE PUSH1 0x20 PUSH0 KECCAK256 SWAP1 JUMPDEST DUP2 SLOAD DUP2 MSTORE SWAP1 PUSH1 0x1 ADD SWAP1 PUSH1 0x20 ADD DUP1 DUP4 GT PUSH2 0x36C JUMPI DUP3 SWAP1 SUB PUSH1 0x1F AND DUP3 ADD SWAP2 JUMPDEST POP POP POP POP POP DUP2 MSTORE PUSH1 0x20 ADD SWAP1 PUSH1 0x1 ADD SWAP1 PUSH2 0x2F5 JUMP JUMPDEST POP POP POP POP SWAP2 POP SWAP3 POP SWAP3 POP POP SWAP1 SWAP2 JUMP JUMPDEST PUSH0 DUP2 MLOAD SWAP1 POP SWAP2 SWAP1 POP JUMP JUMPDEST PUSH0 DUP3 DUP3 MSTORE PUSH1 0x20 DUP3 ADD SWAP1 POP SWAP3 SWAP2 POP POP JUMP JUMPDEST PUSH0 DUP2 SWAP1 POP PUSH1 0x20 DUP3 ADD SWAP1 POP SWAP2 SWAP1 POP JUMP JUMPDEST PUSH0 DUP2 MLOAD SWAP1 POP SWAP2 SWAP1 POP JUMP JUMPDEST PUSH0 DUP3 DUP3 MSTORE PUSH1 0x20 DUP3 ADD SWAP1 POP SWAP3 SWAP2 POP POP JUMP JUMPDEST PUSH0 JUMPDEST DUP4 DUP2 LT ISZERO PUSH2 0x40C JUMPI DUP1 DUP3 ADD MLOAD DUP2 DUP5 ADD MSTORE PUSH1 0x20 DUP2 ADD SWAP1 POP PUSH2 0x3F1 JUMP JUMPDEST PUSH0 DUP5 DUP5 ADD MSTORE POP POP POP POP JUMP JUMPDEST PUSH0 PUSH1 0x1F NOT PUSH1 0x1F DUP4 ADD AND SWAP1 POP SWAP2 SWAP1 POP JUMP JUMPDEST PUSH0 PUSH2 0x431 DUP3 PUSH2 0x3D5 JUMP JUMPDEST PUSH2 0x43B DUP2 DUP6 PUSH2 0x3DF JUMP JUMPDEST SWAP4 POP PUSH2 0x44B DUP2 DUP6 PUSH1 0x20 DUP7 ADD PUSH2 0x3EF JUMP JUMPDEST PUSH2 0x454 DUP2 PUSH2 0x417 JUMP JUMPDEST DUP5 ADD SWAP2 POP POP SWAP3 SWAP2 POP POP JUMP JUMPDEST PUSH0 PUSH2 0x46A DUP4 DUP4 PUSH2 0x427 JUMP JUMPDEST SWAP1 POP SWAP3 SWAP2 POP POP JUMP JUMPDEST PUSH0 PUSH1 0x20 DUP3 ADD SWAP1 POP SWAP2 SWAP1 POP JUMP JUMPDEST PUSH0 PUSH2 0x488 DUP3 PUSH2 0x3AC JUMP JUMPDEST PUSH2 0x492 DUP2 DUP6 PUSH2 0x3B6 JUMP JUMPDEST SWAP4 POP DUP4 PUSH1 0x20 DUP3 MUL DUP6 ADD PUSH2 0x4A4 DUP6 PUSH2 0x3C6 JUMP JUMPDEST DUP1 PUSH0 JUMPDEST DUP6 DUP2 LT ISZERO PUSH2 0x4DF JUMPI DUP5 DUP5 SUB DUP10 MSTORE DUP2 MLOAD PUSH2 0x4C0 DUP6 DUP3 PUSH2 0x45F JUMP JUMPDEST SWAP5 POP PUSH2 0x4CB DUP4 PUSH2 0x472 JUMP JUMPDEST SWAP3 POP PUSH1 0x20 DUP11 ADD SWAP10 POP POP PUSH1 0x1 DUP2 ADD SWAP1 POP PUSH2 0x4A7 JUMP JUMPDEST POP DUP3 SWAP8 POP DUP8 SWAP6 POP POP POP POP POP POP SWAP3 SWAP2 POP POP JUMP JUMPDEST PUSH0 PUSH1 0x20 DUP3 ADD SWAP1 POP DUP2 DUP2 SUB PUSH0 DUP4 ADD MSTORE PUSH2 0x509 DUP2 DUP5 PUSH2 0x47E JUMP JUMPDEST SWAP1 POP SWAP3 SWAP2 POP POP JUMP JUMPDEST PUSH0 DUP2 ISZERO ISZERO SWAP1 POP SWAP2 SWAP1 POP JUMP JUMPDEST PUSH2 0x525 DUP2 PUSH2 0x511 JUMP JUMPDEST DUP3 MSTORE POP POP JUMP JUMPDEST PUSH0 PUSH1 0x20 DUP3 ADD SWAP1 POP PUSH2 0x53E PUSH0 DUP4 ADD DUP5 PUSH2 0x51C JUMP JUMPDEST SWAP3 SWAP2 POP POP JUMP JUMPDEST PUSH0 PUSH20 0xFFFFFFFFFFFFFFFFFFFFFFFFFFFFFFFFFFFFFFFF DUP3 AND SWAP1 POP SWAP2 SWAP1 POP JUMP JUMPDEST PUSH0 PUSH2 0x56D DUP3 PUSH2 0x544 JUMP JUMPDEST SWAP1 POP SWAP2 SWAP1 POP JUMP JUMPDEST PUSH2 0x57D DUP2 PUSH2 0x563 JUMP JUMPDEST DUP3 MSTORE POP POP JUMP JUMPDEST PUSH0 PUSH1 0x20 DUP3 ADD SWAP1 POP PUSH2 0x596 PUSH0 DUP4 ADD DUP5 PUSH2 0x574 JUMP JUMPDEST SWAP3 SWAP2 POP POP JUMP JUMPDEST PUSH0 DUP2 MLOAD SWAP1 POP SWAP2 SWAP1 POP JUMP JUMPDEST PUSH0 DUP3 DUP3 MSTORE PUSH1 0x20 DUP3 ADD SWAP1 POP SWAP3 SWAP2 POP POP JUMP JUMPDEST PUSH0 DUP2 SWAP1 POP PUSH1 0x20 DUP3 ADD SWAP1 POP SWAP2 SWAP1 POP JUMP JUMPDEST PUSH0 DUP2 SWAP1 POP SWAP2 SWAP1 POP JUMP JUMPDEST PUSH2 0x5D7 DUP2 PUSH2 0x5C5 JUMP JUMPDEST DUP3 MSTORE POP POP JUMP JUMPDEST PUSH0 PUSH2 0x5E8 DUP4 DUP4 PUSH2 0x5CE JUMP JUMPDEST PUSH1 0x20 DUP4 ADD SWAP1 POP SWAP3 SWAP2 POP POP JUMP JUMPDEST PUSH0 PUSH1 0x20 DUP3 ADD SWAP1 POP SWAP2 SWAP1 POP JUMP JUMPDEST PUSH0 PUSH2 0x60A DUP3 PUSH2 0x59C JUMP JUMPDEST PUSH2 0x614 DUP2 DUP6 PUSH2 0x5A6 JUMP JUMPDEST SWAP4 POP PUSH2 0x61F DUP4 PUSH2 0x5B6 JUMP JUMPDEST DUP1 PUSH0 JUMPDEST DUP4 DUP2 LT ISZERO PUSH2 0x64F JUMPI DUP2 MLOAD PUSH2 0x636 DUP9 DUP3 PUSH2 0x5DD JUMP JUMPDEST SWAP8 POP PUSH2 0x641 DUP4 PUSH2 0x5F4 JUMP JUMPDEST SWAP3 POP POP PUSH1 0x1 DUP2 ADD SWAP1 POP PUSH2 0x622 JUMP JUMPDEST POP DUP6 SWAP4 POP POP POP POP SWAP3 SWAP2 POP POP JUMP JUMPDEST PUSH0 PUSH1 0x40 DUP3 ADD SWAP1 POP DUP2 DUP2 SUB PUSH0 DUP4 ADD MSTORE PUSH2 0x674 DUP2 DUP6 PUSH2 0x47E JUMP JUMPDEST SWAP1 POP DUP2 DUP2 SUB PUSH1 0x20 DUP4 ADD MSTORE PUSH2 0x688 DUP2 DUP5 PUSH2 0x600 JUMP JUMPDEST SWAP1 POP SWAP4 SWAP3 POP POP POP JUMP JUMPDEST PUSH32 0x4E487B7100000000000000000000000000000000000000000000000000000000 PUSH0 MSTORE PUSH1 0x22 PUSH1 0x4 MSTORE PUSH1 0x24 PUSH0 REVERT JUMPDEST PUSH0 PUSH1 0x2 DUP3 DIV SWAP1 POP PUSH1 0x1 DUP3 AND DUP1 PUSH2 0x6D5 JUMPI PUSH1 0x7F DUP3 AND SWAP2 POP JUMPDEST PUSH1 0x20 DUP3 LT DUP2 SUB PUSH2 0x6E8 JUMPI PUSH2 0x6E7 PUSH2 0x691 JUMP JUMPDEST JUMPDEST POP SWAP2 SWAP1 POP JUMP JUMPDEST PUSH32 0x4E487B7100000000000000000000000000000000000000000000000000000000 PUSH0 MSTORE PUSH1 0x41 PUSH1 0x4 MSTORE PUSH1 0x24 PUSH0 REVERT JUMPDEST PUSH32 0x4E487B7100000000000000000000000000000000000000000000000000000000 PUSH0 MSTORE PUSH1 0x32 PUSH1 0x4 MSTORE PUSH1 0x24 PUSH0 REVERT JUMPDEST PUSH0 DUP2 SWAP1 POP SWAP3 SWAP2 POP POP JUMP JUMPDEST PUSH0 DUP2 SWAP1 POP DUP2 PUSH0 MSTORE PUSH1 0x20 PUSH0 KECCAK256 SWAP1 POP SWAP2 SWAP1 POP JUMP JUMPDEST PUSH0 DUP2 SLOAD PUSH2 0x770 DUP2 PUSH2 0x6BE JUMP JUMPDEST PUSH2 0x77A DUP2 DUP7 PUSH2 0x748 JUMP JUMPDEST SWAP5 POP PUSH1 0x1 DUP3 AND PUSH0 DUP2 EQ PUSH2 0x794 JUMPI PUSH1 0x1 DUP2 EQ PUSH2 0x7A9 JUMPI PUSH2 0x7DB JUMP JUMPDEST PUSH1 0xFF NOT DUP4 AND DUP7 MSTORE DUP2 ISZERO ISZERO DUP3 MUL DUP7 ADD SWAP4 POP PUSH2 0x7DB JUMP JUMPDEST PUSH2 0x7B2 DUP6 PUSH2 0x752 JUMP JUMPDEST PUSH0 JUMPDEST DUP4 DUP2 LT ISZERO PUSH2 0x7D3 JUMPI DUP2 SLOAD DUP2 DUP10 ADD MSTORE PUSH1 0x1 DUP3 ADD SWAP2 POP PUSH1 0x20 DUP2 ADD SWAP1 POP PUSH2 0x7B4 JUMP JUMPDEST DUP4 DUP9 ADD SWAP6 POP POP POP JUMPDEST POP POP POP SWAP3 SWAP2 POP POP JUMP JUMPDEST PUSH0 PUSH2 0x7EF DUP3 DUP5 PUSH2 0x764 JUMP JUMPDEST SWAP2 POP DUP2 SWAP1 POP SWAP3 SWAP2 POP POP JUMP INVALID LOG2 PUSH5 0x6970667358 0x22 SLT KECCAK256 SSTORE PC 0xC0 SWAP13 0xFC DUP12 CREATE 0xC5 0xE1 0xB7 PUSH0 CODESIZE SGT 0xD4 0x4E EXP DUP11 NOT DUP13 0xAF SWAP3 PUSH2 0xD431 LOG1 PUSH9 0x3258F0AECDE564736F PUSH13 0x63430008160033A26469706673 PC 0x22 SLT KECCAK256 GASLIMIT BYTE 0x5C 0x4A 0x28 0xE3 SWAP10 DELEGATECALL SWAP5 PUSH12 0x7A1C940AAFEECC85D82BAF07 CALLDATALOAD DUP4 JUMPDEST 0xBA 0x2B 0xD1 0xD3 0xCA OR DUP11 PUSH5 0x736F6C6343 STOP ADDMOD AND STOP CALLER "
		},
		"gasEstimates": {
			"creation": {
				"codeDepositCost": "1917800",
				"executionCost": "2024",
				"totalCost": "1919824"
			},
			"external": {
				"createElection(string[])": "infinite",
				"endElection()": "infinite",
				"getElections()": "infinite",
				"getElectionsForUser()": "infinite",
				"hasElectionGoing()": "infinite"
			}
		},
		"methodIdentifiers": {
			"createElection(string[])": "f8c5d5e6",
			"endElection()": "59f78468",
			"getElections()": "9f3a7f52",
			"getElectionsForUser()": "92f83469",
			"hasElectionGoing()": "dbdcbeac"
		}
	},
	"abi": [
		{
			"inputs": [
				{
					"internalType": "string[]",
					"name": "candidates",
					"type": "string[]"
				}
			],
			"name": "createElection",
			"outputs": [
				{
					"internalType": "uint256",
					"name": "",
					"type": "uint256"
				}
			],
			"stateMutability": "nonpayable",
			"type": "function"
		},
		{
			"inputs": [],
			"name": "endElection",
			"outputs": [
				{
					"internalType": "bool",
					"name": "",
					"type": "bool"
				}
			],
			"stateMutability": "nonpayable",
			"type": "function"
		},
		{
			"inputs": [],
			"name": "getElections",
			"outputs": [
				{
					"internalType": "string[]",
					"name": "",
					"type": "string[]"
				},
				{
					"internalType": "uint256[]",
					"name": "",
					"type": "uint256[]"
				}
			],
			"stateMutability": "view",
			"type": "function"
		},
		{
			"inputs": [],
			"name": "getElectionsForUser",
			"outputs": [
				{
					"internalType": "uint256[]",
					"name": "",
					"type": "uint256[]"
				},
				{
					"internalType": "bool[]",
					"name": "",
					"type": "bool[]"
				}
			],
			"stateMutability": "view",
			"type": "function"
		},
		{
			"inputs": [],
			"name": "hasElectionGoing",
			"outputs": [
				{
					"internalType": "bool",
					"name": "",
					"type": "bool"
				}
			],
			"stateMutability": "view",
			"type": "function"
		}
	]
}