{
	"data": {
		"bytecode": {
			"linkReferences": {},
			"object": "60806040525f67ffffffffffffffff81111562000021576200002062000124565b5b604051908082528060200260200182016040528015620000505781602001602082028036833780820191505090505b505f9080519060200190620000679291906200007b565b5034801562000074575f80fd5b5062000151565b828054828255905f5260205f20908101928215620000f4579160200282015b82811115620000f3578251825f6101000a81548173ffffffffffffffffffffffffffffffffffffffff021916908373ffffffffffffffffffffffffffffffffffffffff160217905550916020019190600101906200009a565b5b50905062000103919062000107565b5090565b5b8082111562000120575f815f90555060010162000108565b5090565b7f4e487b71000000000000000000000000000000000000000000000000000000005f52604160045260245ffd5b613da0806200015f5f395ff3fe608060405234801562000010575f80fd5b506004361062000092575f3560e01c80639d71077711620000615780639d710777146200011d5780639f3a7f521462000154578063e8ededa61462000177578063f8c5d5e614620001b05762000092565b806351df5cfc146200009657806359f7846814620000b657806384d16bf614620000d857806392f8346914620000fa575b5f80fd5b620000b46004803603810190620000ae9190620015cd565b620001e6565b005b620000c0620004f1565b604051620000cf91906200164d565b60405180910390f35b620000e2620007f6565b604051620000f1919062001682565b60405180910390f35b6200010462000a36565b604051620001149291906200182b565b60405180910390f35b6200013b600480360381019062000135919062001864565b62000c71565b6040516200014b929190620019f2565b60405180910390f35b6200015e62000eb1565b6040516200016e92919062001a24565b60405180910390f35b6200019560048036038101906200018f919062001864565b62000fa9565b604051620001a7949392919062001a5d565b60405180910390f35b620001ce6004803603810190620001c8919062001bae565b620012b9565b604051620001dd919062001bfd565b60405180910390f35b815f8054905081108015620001fb57505f8110155b8015620002b257505f818154811062000219576200021862001c18565b5b905f5260205f20015f9054906101000a900473ffffffffffffffffffffffffffffffffffffffff1673ffffffffffffffffffffffffffffffffffffffff1663122902a66040518163ffffffff1660e01b8152600401602060405180830381865afa1580156200028a573d5f803e3d5ffd5b505050506040513d601f19601f82011682018060405250810190620002b0919062001c74565b155b620002f4576040517f08c379a0000000000000000000000000000000000000000000000000000000008152600401620002eb9062001d02565b60405180910390fd5b5f8084815481106200030b576200030a62001c18565b5b905f5260205f20015f9054906101000a900473ffffffffffffffffffffffffffffffffffffffff1690508073ffffffffffffffffffffffffffffffffffffffff1663e00939a633856040518363ffffffff1660e01b81526004016200037292919062001da5565b5f604051808303815f87803b1580156200038a575f80fd5b505af11580156200039d573d5f803e3d5ffd5b505050505f60025f3373ffffffffffffffffffffffffffffffffffffffff1673ffffffffffffffffffffffffffffffffffffffff1681526020019081526020015f2080549050116200048a575f67ffffffffffffffff8111156200040657620004056200148d565b5b604051908082528060200260200182016040528015620004355781602001602082028036833780820191505090505b5060025f3373ffffffffffffffffffffffffffffffffffffffff1673ffffffffffffffffffffffffffffffffffffffff1681526020019081526020015f20908051906020019062000488929190620013b1565b505b60025f3373ffffffffffffffffffffffffffffffffffffffff1673ffffffffffffffffffffffffffffffffffffffff1681526020019081526020015f2084908060018154018082558091505060019003905f5260205f20015f909190919091505550505050565b5f805f8054905014806200061a57503373ffffffffffffffffffffffffffffffffffffffff165f60015f3373ffffffffffffffffffffffffffffffffffffffff1673ffffffffffffffffffffffffffffffffffffffff1681526020019081526020015f2054815481106200056a576200056962001c18565b5b905f5260205f20015f9054906101000a900473ffffffffffffffffffffffffffffffffffffffff1673ffffffffffffffffffffffffffffffffffffffff1663893d20e86040518163ffffffff1660e01b8152600401602060405180830381865afa158015620005db573d5f803e3d5ffd5b505050506040513d601f19601f8201168201806040525081019062000601919062001e06565b73ffffffffffffffffffffffffffffffffffffffff1614155b1562000629575f9050620007f3565b5f8060015f3373ffffffffffffffffffffffffffffffffffffffff1673ffffffffffffffffffffffffffffffffffffffff1681526020019081526020015f2054815481106200067d576200067c62001c18565b5b905f5260205f20015f9054906101000a900473ffffffffffffffffffffffffffffffffffffffff1673ffffffffffffffffffffffffffffffffffffffff1663122902a66040518163ffffffff1660e01b8152600401602060405180830381865afa158015620006ee573d5f803e3d5ffd5b505050506040513d601f19601f8201168201806040525081019062000714919062001c74565b1590505f60015f3373ffffffffffffffffffffffffffffffffffffffff1673ffffffffffffffffffffffffffffffffffffffff1681526020019081526020015f2054815481106200076a576200076962001c18565b5b905f5260205f20015f9054906101000a900473ffffffffffffffffffffffffffffffffffffffff1673ffffffffffffffffffffffffffffffffffffffff166359f784686040518163ffffffff1660e01b81526004015f604051808303815f87803b158015620007d7575f80fd5b505af1158015620007ea573d5f803e3d5ffd5b50505050809150505b90565b5f805f80549050036200082c577fffffffffffffffffffffffffffffffffffffffffffffffffffffffffffffffff905062000a33565b5f8060015f3373ffffffffffffffffffffffffffffffffffffffff1673ffffffffffffffffffffffffffffffffffffffff1681526020019081526020015f20548154811062000880576200087f62001c18565b5b905f5260205f20015f9054906101000a900473ffffffffffffffffffffffffffffffffffffffff1690503373ffffffffffffffffffffffffffffffffffffffff168173ffffffffffffffffffffffffffffffffffffffff1663893d20e86040518163ffffffff1660e01b8152600401602060405180830381865afa1580156200090b573d5f803e3d5ffd5b505050506040513d601f19601f8201168201806040525081019062000931919062001e06565b73ffffffffffffffffffffffffffffffffffffffff16141580620009c157508073ffffffffffffffffffffffffffffffffffffffff1663122902a66040518163ffffffff1660e01b8152600401602060405180830381865afa1580156200099a573d5f803e3d5ffd5b505050506040513d601f19601f82011682018060405250810190620009c0919062001c74565b5b15620009f1577fffffffffffffffffffffffffffffffffffffffffffffffffffffffffffffffff91505062000a33565b60015f3373ffffffffffffffffffffffffffffffffffffffff1673ffffffffffffffffffffffffffffffffffffffff1681526020019081526020015f20549150505b90565b6060805f60025f3373ffffffffffffffffffffffffffffffffffffffff1673ffffffffffffffffffffffffffffffffffffffff1681526020019081526020015f2080548060200260200160405190810160405280929190818152602001828054801562000ac157602002820191905f5260205f20905b81548152602001906001019080831162000aac575b505050505090505f60025f3373ffffffffffffffffffffffffffffffffffffffff1673ffffffffffffffffffffffffffffffffffffffff1681526020019081526020015f208054905067ffffffffffffffff81111562000b265762000b256200148d565b5b60405190808252806020026020018201604052801562000b555781602001602082028036833780820191505090505b5090505f5b825181101562000c64575f83828151811062000b7b5762000b7a62001c18565b5b60200260200101518154811062000b975762000b9662001c18565b5b905f5260205f20015f9054906101000a900473ffffffffffffffffffffffffffffffffffffffff1673ffffffffffffffffffffffffffffffffffffffff1663122902a66040518163ffffffff1660e01b8152600401602060405180830381865afa15801562000c08573d5f803e3d5ffd5b505050506040513d601f19601f8201168201806040525081019062000c2e919062001c74565b82828151811062000c445762000c4362001c18565b5b602002602001019015159081151581525050808060010191505062000b5a565b5081819350935050509091565b5f6060825f805490508110801562000c8957505f8110155b801562000d4057505f818154811062000ca75762000ca662001c18565b5b905f5260205f20015f9054906101000a900473ffffffffffffffffffffffffffffffffffffffff1673ffffffffffffffffffffffffffffffffffffffff1663122902a66040518163ffffffff1660e01b8152600401602060405180830381865afa15801562000d18573d5f803e3d5ffd5b505050506040513d601f19601f8201168201806040525081019062000d3e919062001c74565b155b62000d82576040517f08c379a000000000000000000000000000000000000000000000000000000000815260040162000d799062001d02565b60405180910390fd5b5f80858154811062000d995762000d9862001c18565b5b905f5260205f20015f9054906101000a900473ffffffffffffffffffffffffffffffffffffffff1690508073ffffffffffffffffffffffffffffffffffffffff1663188ec3566040518163ffffffff1660e01b8152600401602060405180830381865afa15801562000e0d573d5f803e3d5ffd5b505050506040513d601f19601f8201168201806040525081019062000e33919062001e4c565b8173ffffffffffffffffffffffffffffffffffffffff166306a49fce6040518163ffffffff1660e01b81526004015f60405180830381865afa15801562000e7c573d5f803e3d5ffd5b505050506040513d5f823e3d601f19601f8201168201806040525081019062000ea6919062001fbe565b935093505050915091565b6060805f60015f3373ffffffffffffffffffffffffffffffffffffffff1673ffffffffffffffffffffffffffffffffffffffff1681526020019081526020015f20548154811062000f075762000f0662001c18565b5b905f5260205f20015f9054906101000a900473ffffffffffffffffffffffffffffffffffffffff1673ffffffffffffffffffffffffffffffffffffffff1663e7b3387c6040518163ffffffff1660e01b81526004015f60405180830381865afa15801562000f77573d5f803e3d5ffd5b505050506040513d5f823e3d601f19601f8201168201806040525081019062000fa19190620020e0565b915091509091565b5f6060805f84600115155f828154811062000fc95762000fc862001c18565b5b905f5260205f20015f9054906101000a900473ffffffffffffffffffffffffffffffffffffffff1673ffffffffffffffffffffffffffffffffffffffff1663122902a66040518163ffffffff1660e01b8152600401602060405180830381865afa1580156200103a573d5f803e3d5ffd5b505050506040513d601f19601f8201168201806040525081019062001060919062001c74565b151514620010a5576040517f08c379a00000000000000000000000000000000000000000000000000000000081526004016200109c90620021b1565b60405180910390fd5b5f8054905086108015620010b957505f8610155b620010fb576040517f08c379a0000000000000000000000000000000000000000000000000000000008152600401620010f2906200221f565b60405180910390fd5b5f80878154811062001112576200111162001c18565b5b905f5260205f20015f9054906101000a900473ffffffffffffffffffffffffffffffffffffffff1690505f8173ffffffffffffffffffffffffffffffffffffffff1663188ec3566040518163ffffffff1660e01b8152600401602060405180830381865afa15801562001187573d5f803e3d5ffd5b505050506040513d601f19601f82011682018060405250810190620011ad919062001e4c565b90505f8273ffffffffffffffffffffffffffffffffffffffff1663122902a66040518163ffffffff1660e01b8152600401602060405180830381865afa158015620011fa573d5f803e3d5ffd5b505050506040513d601f19601f8201168201806040525081019062001220919062001c74565b90506060808473ffffffffffffffffffffffffffffffffffffffff1663e7b3387c6040518163ffffffff1660e01b81526004015f60405180830381865afa1580156200126e573d5f803e3d5ffd5b505050506040513d5f823e3d601f19601f82011682018060405250810190620012989190620020e0565b80925081935050508382828599509950995099505050505050509193509193565b5f803383604051620012cb9062001401565b620012d89291906200223f565b604051809103905ff080158015620012f2573d5f803e3d5ffd5b50908060018154018082558091505060019003905f5260205f20015f9091909190916101000a81548173ffffffffffffffffffffffffffffffffffffffff021916908373ffffffffffffffffffffffffffffffffffffffff1602179055505f60015f805490506200136491906200229e565b90508060015f3373ffffffffffffffffffffffffffffffffffffffff1673ffffffffffffffffffffffffffffffffffffffff1681526020019081526020015f208190555080915050919050565b828054828255905f5260205f20908101928215620013ee579160200282015b82811115620013ed578251825591602001919060010190620013d0565b5b509050620013fd91906200140f565b5090565b611a9280620022d983390190565b5b8082111562001428575f815f90555060010162001410565b5090565b5f604051905090565b5f80fd5b5f80fd5b5f819050919050565b62001451816200143d565b81146200145c575f80fd5b50565b5f813590506200146f8162001446565b92915050565b5f80fd5b5f80fd5b5f601f19601f8301169050919050565b7f4e487b71000000000000000000000000000000000000000000000000000000005f52604160045260245ffd5b620014c5826200147d565b810181811067ffffffffffffffff82111715620014e757620014e66200148d565b5b80604052505050565b5f620014fb6200142c565b9050620015098282620014ba565b919050565b5f67ffffffffffffffff8211156200152b576200152a6200148d565b5b62001536826200147d565b9050602081019050919050565b828183375f83830152505050565b5f6200156762001561846200150e565b620014f0565b90508281526020810184848401111562001586576200158562001479565b5b6200159384828562001543565b509392505050565b5f82601f830112620015b257620015b162001475565b5b8135620015c484826020860162001551565b91505092915050565b5f8060408385031215620015e657620015e562001435565b5b5f620015f5858286016200145f565b925050602083013567ffffffffffffffff81111562001619576200161862001439565b5b62001627858286016200159b565b9150509250929050565b5f8115159050919050565b620016478162001631565b82525050565b5f602082019050620016625f8301846200163c565b92915050565b5f819050919050565b6200167c8162001668565b82525050565b5f602082019050620016975f83018462001671565b92915050565b5f81519050919050565b5f82825260208201905092915050565b5f819050602082019050919050565b620016d1816200143d565b82525050565b5f620016e48383620016c6565b60208301905092915050565b5f602082019050919050565b5f62001708826200169d565b620017148185620016a7565b93506200172183620016b7565b805f5b83811015620017575781516200173b8882620016d7565b97506200174883620016f0565b92505060018101905062001724565b5085935050505092915050565b5f81519050919050565b5f82825260208201905092915050565b5f819050602082019050919050565b620017988162001631565b82525050565b5f620017ab83836200178d565b60208301905092915050565b5f602082019050919050565b5f620017cf8262001764565b620017db81856200176e565b9350620017e8836200177e565b805f5b838110156200181e5781516200180288826200179e565b97506200180f83620017b7565b925050600181019050620017eb565b5085935050505092915050565b5f6040820190508181035f830152620018458185620016fc565b905081810360208301526200185b8184620017c3565b90509392505050565b5f602082840312156200187c576200187b62001435565b5b5f6200188b848285016200145f565b91505092915050565b6200189f816200143d565b82525050565b5f81519050919050565b5f82825260208201905092915050565b5f819050602082019050919050565b5f81519050919050565b5f82825260208201905092915050565b5f5b8381101562001907578082015181840152602081019050620018ea565b5f8484015250505050565b5f6200191e82620018ce565b6200192a8185620018d8565b93506200193c818560208601620018e8565b62001947816200147d565b840191505092915050565b5f6200195f838362001912565b905092915050565b5f602082019050919050565b5f6200197f82620018a5565b6200198b8185620018af565b9350836020820285016200199f85620018bf565b805f5b85811015620019e05784840389528151620019be858262001952565b9450620019cb8362001967565b925060208a01995050600181019050620019a2565b50829750879550505050505092915050565b5f60408201905062001a075f83018562001894565b818103602083015262001a1b818462001973565b90509392505050565b5f6040820190508181035f83015262001a3e818562001973565b9050818103602083015262001a548184620016fc565b90509392505050565b5f60808201905062001a725f83018762001894565b818103602083015262001a86818662001973565b9050818103604083015262001a9c8185620016fc565b905062001aad60608301846200163c565b95945050505050565b5f67ffffffffffffffff82111562001ad35762001ad26200148d565b5b602082029050602081019050919050565b5f80fd5b5f62001afe62001af88462001ab6565b620014f0565b9050808382526020820190506020840283018581111562001b245762001b2362001ae4565b5b835b8181101562001b7257803567ffffffffffffffff81111562001b4d5762001b4c62001475565b5b80860162001b5c89826200159b565b8552602085019450505060208101905062001b26565b5050509392505050565b5f82601f83011262001b935762001b9262001475565b5b813562001ba584826020860162001ae8565b91505092915050565b5f6020828403121562001bc65762001bc562001435565b5b5f82013567ffffffffffffffff81111562001be65762001be562001439565b5b62001bf48482850162001b7c565b91505092915050565b5f60208201905062001c125f83018462001894565b92915050565b7f4e487b71000000000000000000000000000000000000000000000000000000005f52603260045260245ffd5b62001c508162001631565b811462001c5b575f80fd5b50565b5f8151905062001c6e8162001c45565b92915050565b5f6020828403121562001c8c5762001c8b62001435565b5b5f62001c9b8482850162001c5e565b91505092915050565b5f82825260208201905092915050565b7f656c656374696f6e206973206e6f742076616c696400000000000000000000005f82015250565b5f62001cea60158362001ca4565b915062001cf78262001cb4565b602082019050919050565b5f6020820190508181035f83015262001d1b8162001cdc565b9050919050565b5f73ffffffffffffffffffffffffffffffffffffffff82169050919050565b5f62001d4d8262001d22565b9050919050565b62001d5f8162001d41565b82525050565b5f62001d7182620018ce565b62001d7d818562001ca4565b935062001d8f818560208601620018e8565b62001d9a816200147d565b840191505092915050565b5f60408201905062001dba5f83018562001d54565b818103602083015262001dce818462001d65565b90509392505050565b62001de28162001d41565b811462001ded575f80fd5b50565b5f8151905062001e008162001dd7565b92915050565b5f6020828403121562001e1e5762001e1d62001435565b5b5f62001e2d8482850162001df0565b91505092915050565b5f8151905062001e468162001446565b92915050565b5f6020828403121562001e645762001e6362001435565b5b5f62001e738482850162001e36565b91505092915050565b5f62001e9262001e8c846200150e565b620014f0565b90508281526020810184848401111562001eb15762001eb062001479565b5b62001ebe848285620018e8565b509392505050565b5f82601f83011262001edd5762001edc62001475565b5b815162001eef84826020860162001e7c565b91505092915050565b5f62001f0e62001f088462001ab6565b620014f0565b9050808382526020820190506020840283018581111562001f345762001f3362001ae4565b5b835b8181101562001f8257805167ffffffffffffffff81111562001f5d5762001f5c62001475565b5b80860162001f6c898262001ec6565b8552602085019450505060208101905062001f36565b5050509392505050565b5f82601f83011262001fa35762001fa262001475565b5b815162001fb584826020860162001ef8565b91505092915050565b5f6020828403121562001fd65762001fd562001435565b5b5f82015167ffffffffffffffff81111562001ff65762001ff562001439565b5b620020048482850162001f8c565b91505092915050565b5f67ffffffffffffffff8211156200202a57620020296200148d565b5b602082029050602081019050919050565b5f620020516200204b846200200d565b620014f0565b9050808382526020820190506020840283018581111562002077576200207662001ae4565b5b835b81811015620020a457806200208f888262001e36565b84526020840193505060208101905062002079565b5050509392505050565b5f82601f830112620020c557620020c462001475565b5b8151620020d78482602086016200203b565b91505092915050565b5f8060408385031215620020f957620020f862001435565b5b5f83015167ffffffffffffffff81111562002119576200211862001439565b5b620021278582860162001f8c565b925050602083015167ffffffffffffffff8111156200214b576200214a62001439565b5b6200215985828601620020ae565b9150509250929050565b7f456c656374696f6e206973207374696c6c206f6e676f696e67000000000000005f82015250565b5f6200219960198362001ca4565b9150620021a68262002163565b602082019050919050565b5f6020820190508181035f830152620021ca816200218b565b9050919050565b7f456c656374696f6e20646f6573206e6f742065786973740000000000000000005f82015250565b5f6200220760178362001ca4565b91506200221482620021d1565b602082019050919050565b5f6020820190508181035f8301526200223881620021f9565b9050919050565b5f604082019050620022545f83018562001d54565b818103602083015262002268818462001973565b90509392505050565b7f4e487b71000000000000000000000000000000000000000000000000000000005f52601160045260245ffd5b5f620022aa826200143d565b9150620022b7836200143d565b9250828203905081811115620022d257620022d162002271565b5b9291505056fe608060405234801562000010575f80fd5b5060405162001a9238038062001a92833981810160405281019062000036919062000531565b815f806101000a81548173ffffffffffffffffffffffffffffffffffffffff021916908373ffffffffffffffffffffffffffffffffffffffff160217905550426001819055508060029080519060200190620000949291906200016e565b505f60085f6101000a81548160ff0219169083151502179055505f5b60028054905081101562000165575f600460028381548110620000d857620000d762000595565b5b905f5260205f2001604051620000ef9190620006cb565b90815260200160405180910390208190555060016006600283815481106200011c576200011b62000595565b5b905f5260205f2001604051620001339190620006cb565b90815260200160405180910390205f6101000a81548160ff0219169083151502179055508080600101915050620000b0565b5050506200098b565b828054828255905f5260205f20908101928215620001b9579160200282015b82811115620001b8578251829081620001a79190620008a7565b50916020019190600101906200018d565b5b509050620001c89190620001cc565b5090565b5b80821115620001ef575f8181620001e59190620001f3565b50600101620001cd565b5090565b5080546200020190620005ef565b5f825580601f1062000214575062000233565b601f0160209004905f5260205f209081019062000232919062000236565b5b50565b5b808211156200024f575f815f90555060010162000237565b5090565b5f604051905090565b5f80fd5b5f80fd5b5f73ffffffffffffffffffffffffffffffffffffffff82169050919050565b5f6200028f8262000264565b9050919050565b620002a18162000283565b8114620002ac575f80fd5b50565b5f81519050620002bf8162000296565b92915050565b5f80fd5b5f601f19601f8301169050919050565b7f4e487b71000000000000000000000000000000000000000000000000000000005f52604160045260245ffd5b6200031182620002c9565b810181811067ffffffffffffffff82111715620003335762000332620002d9565b5b80604052505050565b5f6200034762000253565b905062000355828262000306565b919050565b5f67ffffffffffffffff821115620003775762000376620002d9565b5b602082029050602081019050919050565b5f80fd5b5f80fd5b5f67ffffffffffffffff821115620003ad57620003ac620002d9565b5b620003b882620002c9565b9050602081019050919050565b5f5b83811015620003e4578082015181840152602081019050620003c7565b5f8484015250505050565b5f62000405620003ff8462000390565b6200033c565b9050828152602081018484840111156200042457620004236200038c565b5b62000431848285620003c5565b509392505050565b5f82601f83011262000450576200044f620002c5565b5b815162000462848260208601620003ef565b91505092915050565b5f620004816200047b846200035a565b6200033c565b90508083825260208201905060208402830185811115620004a757620004a662000388565b5b835b81811015620004f557805167ffffffffffffffff811115620004d057620004cf620002c5565b5b808601620004df898262000439565b85526020850194505050602081019050620004a9565b5050509392505050565b5f82601f830112620005165762000515620002c5565b5b8151620005288482602086016200046b565b91505092915050565b5f80604083850312156200054a57620005496200025c565b5b5f6200055985828601620002af565b925050602083015167ffffffffffffffff8111156200057d576200057c62000260565b5b6200058b85828601620004ff565b9150509250929050565b7f4e487b71000000000000000000000000000000000000000000000000000000005f52603260045260245ffd5b7f4e487b71000000000000000000000000000000000000000000000000000000005f52602260045260245ffd5b5f60028204905060018216806200060757607f821691505b6020821081036200061d576200061c620005c2565b5b50919050565b5f81905092915050565b5f819050815f5260205f209050919050565b5f81546200064d81620005ef565b62000659818662000623565b9450600182165f81146200067657600181146200068c57620006c2565b60ff1983168652811515820286019350620006c2565b62000697856200062d565b5f5b83811015620006ba5781548189015260018201915060208101905062000699565b838801955050505b50505092915050565b5f620006d882846200063f565b915081905092915050565b5f81519050919050565b5f6020601f8301049050919050565b5f82821b905092915050565b5f60088302620007397fffffffffffffffffffffffffffffffffffffffffffffffffffffffffffffffff82620006fc565b620007458683620006fc565b95508019841693508086168417925050509392505050565b5f819050919050565b5f819050919050565b5f6200078f6200078962000783846200075d565b62000766565b6200075d565b9050919050565b5f819050919050565b620007aa836200076f565b620007c2620007b98262000796565b84845462000708565b825550505050565b5f90565b620007d8620007ca565b620007e58184846200079f565b505050565b5b818110156200080c57620008005f82620007ce565b600181019050620007eb565b5050565b601f8211156200085b5762000825816200062d565b6200083084620006ed565b8101602085101562000840578190505b620008586200084f85620006ed565b830182620007ea565b50505b505050565b5f82821c905092915050565b5f6200087d5f198460080262000860565b1980831691505092915050565b5f6200089783836200086c565b9150826002028217905092915050565b620008b282620006e3565b67ffffffffffffffff811115620008ce57620008cd620002d9565b5b620008da8254620005ef565b620008e782828562000810565b5f60209050601f8311600181146200091d575f841562000908578287015190505b6200091485826200088a565b86555062000983565b601f1984166200092d866200062d565b5f5b8281101562000956578489015182556001820191506020850194506020810190506200092f565b8683101562000976578489015162000972601f8916826200086c565b8355505b6001600288020188555050505b505050505050565b6110f980620009995f395ff3fe608060405234801561000f575f80fd5b506004361061007b575f3560e01c806359f784681161005957806359f78468146100d9578063893d20e8146100e3578063e00939a614610101578063e7b3387c1461011d5761007b565b806306a49fce1461007f578063122902a61461009d578063188ec356146100bb575b5f80fd5b61008761013c565b604051610094919061084b565b60405180910390f35b6100a5610210565b6040516100b29190610885565b60405180910390f35b6100c3610225565b6040516100d091906108b6565b60405180910390f35b6100e161022e565b005b6100eb61024a565b6040516100f8919061090e565b60405180910390f35b61011b60048036038101906101169190610a8e565b610271565b005b610125610562565b604051610133929190610b9f565b60405180910390f35b60606002805480602002602001604051908101604052809291908181526020015f905b82821015610207578382905f5260205f2001805461017c90610c01565b80601f01602080910402602001604051908101604052809291908181526020018280546101a890610c01565b80156101f35780601f106101ca576101008083540402835291602001916101f3565b820191905f5260205f20905b8154815290600101906020018083116101d657829003601f168201915b50505050508152602001906001019061015f565b50505050905090565b5f60085f9054906101000a900460ff16905090565b5f600154905090565b600160085f6101000a81548160ff021916908315150217905550565b5f805f9054906101000a900473ffffffffffffffffffffffffffffffffffffffff16905090565b6006816040516102819190610c6b565b90815260200160405180910390205f9054906101000a900460ff166102db576040517f08c379a00000000000000000000000000000000000000000000000000000000081526004016102d290610cdb565b60405180910390fd5b60075f8373ffffffffffffffffffffffffffffffffffffffff1673ffffffffffffffffffffffffffffffffffffffff1681526020019081526020015f205f9054906101000a900460ff161561042a575f60055f8473ffffffffffffffffffffffffffffffffffffffff1673ffffffffffffffffffffffffffffffffffffffff1681526020019081526020015f20805461037390610c01565b80601f016020809104026020016040519081016040528092919081815260200182805461039f90610c01565b80156103ea5780601f106103c1576101008083540402835291602001916103ea565b820191905f5260205f20905b8154815290600101906020018083116103cd57829003601f168201915b505050505090506004816040516104019190610c6b565b90815260200160405180910390205f81548092919061041f90610d26565b9190505550506104e0565b600382908060018154018082558091505060019003905f5260205f20015f9091909190916101000a81548173ffffffffffffffffffffffffffffffffffffffff021916908373ffffffffffffffffffffffffffffffffffffffff160217905550600160075f8473ffffffffffffffffffffffffffffffffffffffff1673ffffffffffffffffffffffffffffffffffffffff1681526020019081526020015f205f6101000a81548160ff0219169083151502179055505b6004816040516104f09190610c6b565b90815260200160405180910390205f81548092919061050e90610d4d565b91905055508060055f8473ffffffffffffffffffffffffffffffffffffffff1673ffffffffffffffffffffffffffffffffffffffff1681526020019081526020015f20908161055d9190610f31565b505050565b6060805f60028054905067ffffffffffffffff8111156105855761058461096a565b5b6040519080825280602002602001820160405280156105b35781602001602082028036833780820191505090505b5090505f5b60028054905081101561062b576004600282815481106105db576105da611000565b5b905f5260205f20016040516105f091906110ad565b90815260200160405180910390205482828151811061061257610611611000565b5b60200260200101818152505080806001019150506105b8565b5060028181805480602002602001604051908101604052809291908181526020015f905b828210156106f7578382905f5260205f2001805461066c90610c01565b80601f016020809104026020016040519081016040528092919081815260200182805461069890610c01565b80156106e35780601f106106ba576101008083540402835291602001916106e3565b820191905f5260205f20905b8154815290600101906020018083116106c657829003601f168201915b50505050508152602001906001019061064f565b50505050915092509250509091565b5f81519050919050565b5f82825260208201905092915050565b5f819050602082019050919050565b5f81519050919050565b5f82825260208201905092915050565b5f5b8381101561076657808201518184015260208101905061074b565b5f8484015250505050565b5f601f19601f8301169050919050565b5f61078b8261072f565b6107958185610739565b93506107a5818560208601610749565b6107ae81610771565b840191505092915050565b5f6107c48383610781565b905092915050565b5f602082019050919050565b5f6107e282610706565b6107ec8185610710565b9350836020820285016107fe85610720565b805f5b85811015610839578484038952815161081a85826107b9565b9450610825836107cc565b925060208a01995050600181019050610801565b50829750879550505050505092915050565b5f6020820190508181035f83015261086381846107d8565b905092915050565b5f8115159050919050565b61087f8161086b565b82525050565b5f6020820190506108985f830184610876565b92915050565b5f819050919050565b6108b08161089e565b82525050565b5f6020820190506108c95f8301846108a7565b92915050565b5f73ffffffffffffffffffffffffffffffffffffffff82169050919050565b5f6108f8826108cf565b9050919050565b610908816108ee565b82525050565b5f6020820190506109215f8301846108ff565b92915050565b5f604051905090565b5f80fd5b5f80fd5b610941816108ee565b811461094b575f80fd5b50565b5f8135905061095c81610938565b92915050565b5f80fd5b5f80fd5b7f4e487b71000000000000000000000000000000000000000000000000000000005f52604160045260245ffd5b6109a082610771565b810181811067ffffffffffffffff821117156109bf576109be61096a565b5b80604052505050565b5f6109d1610927565b90506109dd8282610997565b919050565b5f67ffffffffffffffff8211156109fc576109fb61096a565b5b610a0582610771565b9050602081019050919050565b828183375f83830152505050565b5f610a32610a2d846109e2565b6109c8565b905082815260208101848484011115610a4e57610a4d610966565b5b610a59848285610a12565b509392505050565b5f82601f830112610a7557610a74610962565b5b8135610a85848260208601610a20565b91505092915050565b5f8060408385031215610aa457610aa3610930565b5b5f610ab18582860161094e565b925050602083013567ffffffffffffffff811115610ad257610ad1610934565b5b610ade85828601610a61565b9150509250929050565b5f81519050919050565b5f82825260208201905092915050565b5f819050602082019050919050565b610b1a8161089e565b82525050565b5f610b2b8383610b11565b60208301905092915050565b5f602082019050919050565b5f610b4d82610ae8565b610b578185610af2565b9350610b6283610b02565b805f5b83811015610b92578151610b798882610b20565b9750610b8483610b37565b925050600181019050610b65565b5085935050505092915050565b5f6040820190508181035f830152610bb781856107d8565b90508181036020830152610bcb8184610b43565b90509392505050565b7f4e487b71000000000000000000000000000000000000000000000000000000005f52602260045260245ffd5b5f6002820490506001821680610c1857607f821691505b602082108103610c2b57610c2a610bd4565b5b50919050565b5f81905092915050565b5f610c458261072f565b610c4f8185610c31565b9350610c5f818560208601610749565b80840191505092915050565b5f610c768284610c3b565b915081905092915050565b5f82825260208201905092915050565b7f63616e64696461746520646f65736e27742065786973740000000000000000005f82015250565b5f610cc5601783610c81565b9150610cd082610c91565b602082019050919050565b5f6020820190508181035f830152610cf281610cb9565b9050919050565b7f4e487b71000000000000000000000000000000000000000000000000000000005f52601160045260245ffd5b5f610d308261089e565b91505f8203610d4257610d41610cf9565b5b600182039050919050565b5f610d578261089e565b91507fffffffffffffffffffffffffffffffffffffffffffffffffffffffffffffffff8203610d8957610d88610cf9565b5b600182019050919050565b5f819050815f5260205f209050919050565b5f6020601f8301049050919050565b5f82821b905092915050565b5f60088302610df07fffffffffffffffffffffffffffffffffffffffffffffffffffffffffffffffff82610db5565b610dfa8683610db5565b95508019841693508086168417925050509392505050565b5f819050919050565b5f610e35610e30610e2b8461089e565b610e12565b61089e565b9050919050565b5f819050919050565b610e4e83610e1b565b610e62610e5a82610e3c565b848454610dc1565b825550505050565b5f90565b610e76610e6a565b610e81818484610e45565b505050565b5b81811015610ea457610e995f82610e6e565b600181019050610e87565b5050565b601f821115610ee957610eba81610d94565b610ec384610da6565b81016020851015610ed2578190505b610ee6610ede85610da6565b830182610e86565b50505b505050565b5f82821c905092915050565b5f610f095f1984600802610eee565b1980831691505092915050565b5f610f218383610efa565b9150826002028217905092915050565b610f3a8261072f565b67ffffffffffffffff811115610f5357610f5261096a565b5b610f5d8254610c01565b610f68828285610ea8565b5f60209050601f831160018114610f99575f8415610f87578287015190505b610f918582610f16565b865550610ff8565b601f198416610fa786610d94565b5f5b82811015610fce57848901518255600182019150602085019450602081019050610fa9565b86831015610feb5784890151610fe7601f891682610efa565b8355505b6001600288020188555050505b505050505050565b7f4e487b71000000000000000000000000000000000000000000000000000000005f52603260045260245ffd5b5f815461103981610c01565b6110438186610c31565b9450600182165f811461105d5760018114611072576110a4565b60ff19831686528115158202860193506110a4565b61107b85610d94565b5f5b8381101561109c5781548189015260018201915060208101905061107d565b838801955050505b50505092915050565b5f6110b8828461102d565b91508190509291505056fea2646970667358221220caf19b623c161af0d34f14b24d657ec9b6c69d2c0c9f22d121001e6f12660cae64736f6c63430008160033a26469706673582212209b93c4969308ef159c801aec9524869eee95eedb21f3099f45caae1c53f9c1f764736f6c63430008160033",
			"opcodes": "PUSH1 0x80 PUSH1 0x40 MSTORE PUSH0 PUSH8 0xFFFFFFFFFFFFFFFF DUP2 GT ISZERO PUSH3 0x21 JUMPI PUSH3 0x20 PUSH3 0x124 JUMP JUMPDEST JUMPDEST PUSH1 0x40 MLOAD SWAP1 DUP1 DUP3 MSTORE DUP1 PUSH1 0x20 MUL PUSH1 0x20 ADD DUP3 ADD PUSH1 0x40 MSTORE DUP1 ISZERO PUSH3 0x50 JUMPI DUP2 PUSH1 0x20 ADD PUSH1 0x20 DUP3 MUL DUP1 CALLDATASIZE DUP4 CALLDATACOPY DUP1 DUP3 ADD SWAP2 POP POP SWAP1 POP JUMPDEST POP PUSH0 SWAP1 DUP1 MLOAD SWAP1 PUSH1 0x20 ADD SWAP1 PUSH3 0x67 SWAP3 SWAP2 SWAP1 PUSH3 0x7B JUMP JUMPDEST POP CALLVALUE DUP1 ISZERO PUSH3 0x74 JUMPI PUSH0 DUP1 REVERT JUMPDEST POP PUSH3 0x151 JUMP JUMPDEST DUP3 DUP1 SLOAD DUP3 DUP3 SSTORE SWAP1 PUSH0 MSTORE PUSH1 0x20 PUSH0 KECCAK256 SWAP1 DUP2 ADD SWAP3 DUP3 ISZERO PUSH3 0xF4 JUMPI SWAP2 PUSH1 0x20 MUL DUP3 ADD JUMPDEST DUP3 DUP2 GT ISZERO PUSH3 0xF3 JUMPI DUP3 MLOAD DUP3 PUSH0 PUSH2 0x100 EXP DUP2 SLOAD DUP2 PUSH20 0xFFFFFFFFFFFFFFFFFFFFFFFFFFFFFFFFFFFFFFFF MUL NOT AND SWAP1 DUP4 PUSH20 0xFFFFFFFFFFFFFFFFFFFFFFFFFFFFFFFFFFFFFFFF AND MUL OR SWAP1 SSTORE POP SWAP2 PUSH1 0x20 ADD SWAP2 SWAP1 PUSH1 0x1 ADD SWAP1 PUSH3 0x9A JUMP JUMPDEST JUMPDEST POP SWAP1 POP PUSH3 0x103 SWAP2 SWAP1 PUSH3 0x107 JUMP JUMPDEST POP SWAP1 JUMP JUMPDEST JUMPDEST DUP1 DUP3 GT ISZERO PUSH3 0x120 JUMPI PUSH0 DUP2 PUSH0 SWAP1 SSTORE POP PUSH1 0x1 ADD PUSH3 0x108 JUMP JUMPDEST POP SWAP1 JUMP JUMPDEST PUSH32 0x4E487B7100000000000000000000000000000000000000000000000000000000 PUSH0 MSTORE PUSH1 0x41 PUSH1 0x4 MSTORE PUSH1 0x24 PUSH0 REVERT JUMPDEST PUSH2 0x3DA0 DUP1 PUSH3 0x15F PUSH0 CODECOPY PUSH0 RETURN INVALID PUSH1 0x80 PUSH1 0x40 MSTORE CALLVALUE DUP1 ISZERO PUSH3 0x10 JUMPI PUSH0 DUP1 REVERT JUMPDEST POP PUSH1 0x4 CALLDATASIZE LT PUSH3 0x92 JUMPI PUSH0 CALLDATALOAD PUSH1 0xE0 SHR DUP1 PUSH4 0x9D710777 GT PUSH3 0x61 JUMPI DUP1 PUSH4 0x9D710777 EQ PUSH3 0x11D JUMPI DUP1 PUSH4 0x9F3A7F52 EQ PUSH3 0x154 JUMPI DUP1 PUSH4 0xE8EDEDA6 EQ PUSH3 0x177 JUMPI DUP1 PUSH4 0xF8C5D5E6 EQ PUSH3 0x1B0 JUMPI PUSH3 0x92 JUMP JUMPDEST DUP1 PUSH4 0x51DF5CFC EQ PUSH3 0x96 JUMPI DUP1 PUSH4 0x59F78468 EQ PUSH3 0xB6 JUMPI DUP1 PUSH4 0x84D16BF6 EQ PUSH3 0xD8 JUMPI DUP1 PUSH4 0x92F83469 EQ PUSH3 0xFA JUMPI JUMPDEST PUSH0 DUP1 REVERT JUMPDEST PUSH3 0xB4 PUSH1 0x4 DUP1 CALLDATASIZE SUB DUP2 ADD SWAP1 PUSH3 0xAE SWAP2 SWAP1 PUSH3 0x15CD JUMP JUMPDEST PUSH3 0x1E6 JUMP JUMPDEST STOP JUMPDEST PUSH3 0xC0 PUSH3 0x4F1 JUMP JUMPDEST PUSH1 0x40 MLOAD PUSH3 0xCF SWAP2 SWAP1 PUSH3 0x164D JUMP JUMPDEST PUSH1 0x40 MLOAD DUP1 SWAP2 SUB SWAP1 RETURN JUMPDEST PUSH3 0xE2 PUSH3 0x7F6 JUMP JUMPDEST PUSH1 0x40 MLOAD PUSH3 0xF1 SWAP2 SWAP1 PUSH3 0x1682 JUMP JUMPDEST PUSH1 0x40 MLOAD DUP1 SWAP2 SUB SWAP1 RETURN JUMPDEST PUSH3 0x104 PUSH3 0xA36 JUMP JUMPDEST PUSH1 0x40 MLOAD PUSH3 0x114 SWAP3 SWAP2 SWAP1 PUSH3 0x182B JUMP JUMPDEST PUSH1 0x40 MLOAD DUP1 SWAP2 SUB SWAP1 RETURN JUMPDEST PUSH3 0x13B PUSH1 0x4 DUP1 CALLDATASIZE SUB DUP2 ADD SWAP1 PUSH3 0x135 SWAP2 SWAP1 PUSH3 0x1864 JUMP JUMPDEST PUSH3 0xC71 JUMP JUMPDEST PUSH1 0x40 MLOAD PUSH3 0x14B SWAP3 SWAP2 SWAP1 PUSH3 0x19F2 JUMP JUMPDEST PUSH1 0x40 MLOAD DUP1 SWAP2 SUB SWAP1 RETURN JUMPDEST PUSH3 0x15E PUSH3 0xEB1 JUMP JUMPDEST PUSH1 0x40 MLOAD PUSH3 0x16E SWAP3 SWAP2 SWAP1 PUSH3 0x1A24 JUMP JUMPDEST PUSH1 0x40 MLOAD DUP1 SWAP2 SUB SWAP1 RETURN JUMPDEST PUSH3 0x195 PUSH1 0x4 DUP1 CALLDATASIZE SUB DUP2 ADD SWAP1 PUSH3 0x18F SWAP2 SWAP1 PUSH3 0x1864 JUMP JUMPDEST PUSH3 0xFA9 JUMP JUMPDEST PUSH1 0x40 MLOAD PUSH3 0x1A7 SWAP5 SWAP4 SWAP3 SWAP2 SWAP1 PUSH3 0x1A5D JUMP JUMPDEST PUSH1 0x40 MLOAD DUP1 SWAP2 SUB SWAP1 RETURN JUMPDEST PUSH3 0x1CE PUSH1 0x4 DUP1 CALLDATASIZE SUB DUP2 ADD SWAP1 PUSH3 0x1C8 SWAP2 SWAP1 PUSH3 0x1BAE JUMP JUMPDEST PUSH3 0x12B9 JUMP JUMPDEST PUSH1 0x40 MLOAD PUSH3 0x1DD SWAP2 SWAP1 PUSH3 0x1BFD JUMP JUMPDEST PUSH1 0x40 MLOAD DUP1 SWAP2 SUB SWAP1 RETURN JUMPDEST DUP2 PUSH0 DUP1 SLOAD SWAP1 POP DUP2 LT DUP1 ISZERO PUSH3 0x1FB JUMPI POP PUSH0 DUP2 LT ISZERO JUMPDEST DUP1 ISZERO PUSH3 0x2B2 JUMPI POP PUSH0 DUP2 DUP2 SLOAD DUP2 LT PUSH3 0x219 JUMPI PUSH3 0x218 PUSH3 0x1C18 JUMP JUMPDEST JUMPDEST SWAP1 PUSH0 MSTORE PUSH1 0x20 PUSH0 KECCAK256 ADD PUSH0 SWAP1 SLOAD SWAP1 PUSH2 0x100 EXP SWAP1 DIV PUSH20 0xFFFFFFFFFFFFFFFFFFFFFFFFFFFFFFFFFFFFFFFF AND PUSH20 0xFFFFFFFFFFFFFFFFFFFFFFFFFFFFFFFFFFFFFFFF AND PUSH4 0x122902A6 PUSH1 0x40 MLOAD DUP2 PUSH4 0xFFFFFFFF AND PUSH1 0xE0 SHL DUP2 MSTORE PUSH1 0x4 ADD PUSH1 0x20 PUSH1 0x40 MLOAD DUP1 DUP4 SUB DUP2 DUP7 GAS STATICCALL ISZERO DUP1 ISZERO PUSH3 0x28A JUMPI RETURNDATASIZE PUSH0 DUP1 RETURNDATACOPY RETURNDATASIZE PUSH0 REVERT JUMPDEST POP POP POP POP PUSH1 0x40 MLOAD RETURNDATASIZE PUSH1 0x1F NOT PUSH1 0x1F DUP3 ADD AND DUP3 ADD DUP1 PUSH1 0x40 MSTORE POP DUP2 ADD SWAP1 PUSH3 0x2B0 SWAP2 SWAP1 PUSH3 0x1C74 JUMP JUMPDEST ISZERO JUMPDEST PUSH3 0x2F4 JUMPI PUSH1 0x40 MLOAD PUSH32 0x8C379A000000000000000000000000000000000000000000000000000000000 DUP2 MSTORE PUSH1 0x4 ADD PUSH3 0x2EB SWAP1 PUSH3 0x1D02 JUMP JUMPDEST PUSH1 0x40 MLOAD DUP1 SWAP2 SUB SWAP1 REVERT JUMPDEST PUSH0 DUP1 DUP5 DUP2 SLOAD DUP2 LT PUSH3 0x30B JUMPI PUSH3 0x30A PUSH3 0x1C18 JUMP JUMPDEST JUMPDEST SWAP1 PUSH0 MSTORE PUSH1 0x20 PUSH0 KECCAK256 ADD PUSH0 SWAP1 SLOAD SWAP1 PUSH2 0x100 EXP SWAP1 DIV PUSH20 0xFFFFFFFFFFFFFFFFFFFFFFFFFFFFFFFFFFFFFFFF AND SWAP1 POP DUP1 PUSH20 0xFFFFFFFFFFFFFFFFFFFFFFFFFFFFFFFFFFFFFFFF AND PUSH4 0xE00939A6 CALLER DUP6 PUSH1 0x40 MLOAD DUP4 PUSH4 0xFFFFFFFF AND PUSH1 0xE0 SHL DUP2 MSTORE PUSH1 0x4 ADD PUSH3 0x372 SWAP3 SWAP2 SWAP1 PUSH3 0x1DA5 JUMP JUMPDEST PUSH0 PUSH1 0x40 MLOAD DUP1 DUP4 SUB DUP2 PUSH0 DUP8 DUP1 EXTCODESIZE ISZERO DUP1 ISZERO PUSH3 0x38A JUMPI PUSH0 DUP1 REVERT JUMPDEST POP GAS CALL ISZERO DUP1 ISZERO PUSH3 0x39D JUMPI RETURNDATASIZE PUSH0 DUP1 RETURNDATACOPY RETURNDATASIZE PUSH0 REVERT JUMPDEST POP POP POP POP PUSH0 PUSH1 0x2 PUSH0 CALLER PUSH20 0xFFFFFFFFFFFFFFFFFFFFFFFFFFFFFFFFFFFFFFFF AND PUSH20 0xFFFFFFFFFFFFFFFFFFFFFFFFFFFFFFFFFFFFFFFF AND DUP2 MSTORE PUSH1 0x20 ADD SWAP1 DUP2 MSTORE PUSH1 0x20 ADD PUSH0 KECCAK256 DUP1 SLOAD SWAP1 POP GT PUSH3 0x48A JUMPI PUSH0 PUSH8 0xFFFFFFFFFFFFFFFF DUP2 GT ISZERO PUSH3 0x406 JUMPI PUSH3 0x405 PUSH3 0x148D JUMP JUMPDEST JUMPDEST PUSH1 0x40 MLOAD SWAP1 DUP1 DUP3 MSTORE DUP1 PUSH1 0x20 MUL PUSH1 0x20 ADD DUP3 ADD PUSH1 0x40 MSTORE DUP1 ISZERO PUSH3 0x435 JUMPI DUP2 PUSH1 0x20 ADD PUSH1 0x20 DUP3 MUL DUP1 CALLDATASIZE DUP4 CALLDATACOPY DUP1 DUP3 ADD SWAP2 POP POP SWAP1 POP JUMPDEST POP PUSH1 0x2 PUSH0 CALLER PUSH20 0xFFFFFFFFFFFFFFFFFFFFFFFFFFFFFFFFFFFFFFFF AND PUSH20 0xFFFFFFFFFFFFFFFFFFFFFFFFFFFFFFFFFFFFFFFF AND DUP2 MSTORE PUSH1 0x20 ADD SWAP1 DUP2 MSTORE PUSH1 0x20 ADD PUSH0 KECCAK256 SWAP1 DUP1 MLOAD SWAP1 PUSH1 0x20 ADD SWAP1 PUSH3 0x488 SWAP3 SWAP2 SWAP1 PUSH3 0x13B1 JUMP JUMPDEST POP JUMPDEST PUSH1 0x2 PUSH0 CALLER PUSH20 0xFFFFFFFFFFFFFFFFFFFFFFFFFFFFFFFFFFFFFFFF AND PUSH20 0xFFFFFFFFFFFFFFFFFFFFFFFFFFFFFFFFFFFFFFFF AND DUP2 MSTORE PUSH1 0x20 ADD SWAP1 DUP2 MSTORE PUSH1 0x20 ADD PUSH0 KECCAK256 DUP5 SWAP1 DUP1 PUSH1 0x1 DUP2 SLOAD ADD DUP1 DUP3 SSTORE DUP1 SWAP2 POP POP PUSH1 0x1 SWAP1 SUB SWAP1 PUSH0 MSTORE PUSH1 0x20 PUSH0 KECCAK256 ADD PUSH0 SWAP1 SWAP2 SWAP1 SWAP2 SWAP1 SWAP2 POP SSTORE POP POP POP POP JUMP JUMPDEST PUSH0 DUP1 PUSH0 DUP1 SLOAD SWAP1 POP EQ DUP1 PUSH3 0x61A JUMPI POP CALLER PUSH20 0xFFFFFFFFFFFFFFFFFFFFFFFFFFFFFFFFFFFFFFFF AND PUSH0 PUSH1 0x1 PUSH0 CALLER PUSH20 0xFFFFFFFFFFFFFFFFFFFFFFFFFFFFFFFFFFFFFFFF AND PUSH20 0xFFFFFFFFFFFFFFFFFFFFFFFFFFFFFFFFFFFFFFFF AND DUP2 MSTORE PUSH1 0x20 ADD SWAP1 DUP2 MSTORE PUSH1 0x20 ADD PUSH0 KECCAK256 SLOAD DUP2 SLOAD DUP2 LT PUSH3 0x56A JUMPI PUSH3 0x569 PUSH3 0x1C18 JUMP JUMPDEST JUMPDEST SWAP1 PUSH0 MSTORE PUSH1 0x20 PUSH0 KECCAK256 ADD PUSH0 SWAP1 SLOAD SWAP1 PUSH2 0x100 EXP SWAP1 DIV PUSH20 0xFFFFFFFFFFFFFFFFFFFFFFFFFFFFFFFFFFFFFFFF AND PUSH20 0xFFFFFFFFFFFFFFFFFFFFFFFFFFFFFFFFFFFFFFFF AND PUSH4 0x893D20E8 PUSH1 0x40 MLOAD DUP2 PUSH4 0xFFFFFFFF AND PUSH1 0xE0 SHL DUP2 MSTORE PUSH1 0x4 ADD PUSH1 0x20 PUSH1 0x40 MLOAD DUP1 DUP4 SUB DUP2 DUP7 GAS STATICCALL ISZERO DUP1 ISZERO PUSH3 0x5DB JUMPI RETURNDATASIZE PUSH0 DUP1 RETURNDATACOPY RETURNDATASIZE PUSH0 REVERT JUMPDEST POP POP POP POP PUSH1 0x40 MLOAD RETURNDATASIZE PUSH1 0x1F NOT PUSH1 0x1F DUP3 ADD AND DUP3 ADD DUP1 PUSH1 0x40 MSTORE POP DUP2 ADD SWAP1 PUSH3 0x601 SWAP2 SWAP1 PUSH3 0x1E06 JUMP JUMPDEST PUSH20 0xFFFFFFFFFFFFFFFFFFFFFFFFFFFFFFFFFFFFFFFF AND EQ ISZERO JUMPDEST ISZERO PUSH3 0x629 JUMPI PUSH0 SWAP1 POP PUSH3 0x7F3 JUMP JUMPDEST PUSH0 DUP1 PUSH1 0x1 PUSH0 CALLER PUSH20 0xFFFFFFFFFFFFFFFFFFFFFFFFFFFFFFFFFFFFFFFF AND PUSH20 0xFFFFFFFFFFFFFFFFFFFFFFFFFFFFFFFFFFFFFFFF AND DUP2 MSTORE PUSH1 0x20 ADD SWAP1 DUP2 MSTORE PUSH1 0x20 ADD PUSH0 KECCAK256 SLOAD DUP2 SLOAD DUP2 LT PUSH3 0x67D JUMPI PUSH3 0x67C PUSH3 0x1C18 JUMP JUMPDEST JUMPDEST SWAP1 PUSH0 MSTORE PUSH1 0x20 PUSH0 KECCAK256 ADD PUSH0 SWAP1 SLOAD SWAP1 PUSH2 0x100 EXP SWAP1 DIV PUSH20 0xFFFFFFFFFFFFFFFFFFFFFFFFFFFFFFFFFFFFFFFF AND PUSH20 0xFFFFFFFFFFFFFFFFFFFFFFFFFFFFFFFFFFFFFFFF AND PUSH4 0x122902A6 PUSH1 0x40 MLOAD DUP2 PUSH4 0xFFFFFFFF AND PUSH1 0xE0 SHL DUP2 MSTORE PUSH1 0x4 ADD PUSH1 0x20 PUSH1 0x40 MLOAD DUP1 DUP4 SUB DUP2 DUP7 GAS STATICCALL ISZERO DUP1 ISZERO PUSH3 0x6EE JUMPI RETURNDATASIZE PUSH0 DUP1 RETURNDATACOPY RETURNDATASIZE PUSH0 REVERT JUMPDEST POP POP POP POP PUSH1 0x40 MLOAD RETURNDATASIZE PUSH1 0x1F NOT PUSH1 0x1F DUP3 ADD AND DUP3 ADD DUP1 PUSH1 0x40 MSTORE POP DUP2 ADD SWAP1 PUSH3 0x714 SWAP2 SWAP1 PUSH3 0x1C74 JUMP JUMPDEST ISZERO SWAP1 POP PUSH0 PUSH1 0x1 PUSH0 CALLER PUSH20 0xFFFFFFFFFFFFFFFFFFFFFFFFFFFFFFFFFFFFFFFF AND PUSH20 0xFFFFFFFFFFFFFFFFFFFFFFFFFFFFFFFFFFFFFFFF AND DUP2 MSTORE PUSH1 0x20 ADD SWAP1 DUP2 MSTORE PUSH1 0x20 ADD PUSH0 KECCAK256 SLOAD DUP2 SLOAD DUP2 LT PUSH3 0x76A JUMPI PUSH3 0x769 PUSH3 0x1C18 JUMP JUMPDEST JUMPDEST SWAP1 PUSH0 MSTORE PUSH1 0x20 PUSH0 KECCAK256 ADD PUSH0 SWAP1 SLOAD SWAP1 PUSH2 0x100 EXP SWAP1 DIV PUSH20 0xFFFFFFFFFFFFFFFFFFFFFFFFFFFFFFFFFFFFFFFF AND PUSH20 0xFFFFFFFFFFFFFFFFFFFFFFFFFFFFFFFFFFFFFFFF AND PUSH4 0x59F78468 PUSH1 0x40 MLOAD DUP2 PUSH4 0xFFFFFFFF AND PUSH1 0xE0 SHL DUP2 MSTORE PUSH1 0x4 ADD PUSH0 PUSH1 0x40 MLOAD DUP1 DUP4 SUB DUP2 PUSH0 DUP8 DUP1 EXTCODESIZE ISZERO DUP1 ISZERO PUSH3 0x7D7 JUMPI PUSH0 DUP1 REVERT JUMPDEST POP GAS CALL ISZERO DUP1 ISZERO PUSH3 0x7EA JUMPI RETURNDATASIZE PUSH0 DUP1 RETURNDATACOPY RETURNDATASIZE PUSH0 REVERT JUMPDEST POP POP POP POP DUP1 SWAP2 POP POP JUMPDEST SWAP1 JUMP JUMPDEST PUSH0 DUP1 PUSH0 DUP1 SLOAD SWAP1 POP SUB PUSH3 0x82C JUMPI PUSH32 0xFFFFFFFFFFFFFFFFFFFFFFFFFFFFFFFFFFFFFFFFFFFFFFFFFFFFFFFFFFFFFFFF SWAP1 POP PUSH3 0xA33 JUMP JUMPDEST PUSH0 DUP1 PUSH1 0x1 PUSH0 CALLER PUSH20 0xFFFFFFFFFFFFFFFFFFFFFFFFFFFFFFFFFFFFFFFF AND PUSH20 0xFFFFFFFFFFFFFFFFFFFFFFFFFFFFFFFFFFFFFFFF AND DUP2 MSTORE PUSH1 0x20 ADD SWAP1 DUP2 MSTORE PUSH1 0x20 ADD PUSH0 KECCAK256 SLOAD DUP2 SLOAD DUP2 LT PUSH3 0x880 JUMPI PUSH3 0x87F PUSH3 0x1C18 JUMP JUMPDEST JUMPDEST SWAP1 PUSH0 MSTORE PUSH1 0x20 PUSH0 KECCAK256 ADD PUSH0 SWAP1 SLOAD SWAP1 PUSH2 0x100 EXP SWAP1 DIV PUSH20 0xFFFFFFFFFFFFFFFFFFFFFFFFFFFFFFFFFFFFFFFF AND SWAP1 POP CALLER PUSH20 0xFFFFFFFFFFFFFFFFFFFFFFFFFFFFFFFFFFFFFFFF AND DUP2 PUSH20 0xFFFFFFFFFFFFFFFFFFFFFFFFFFFFFFFFFFFFFFFF AND PUSH4 0x893D20E8 PUSH1 0x40 MLOAD DUP2 PUSH4 0xFFFFFFFF AND PUSH1 0xE0 SHL DUP2 MSTORE PUSH1 0x4 ADD PUSH1 0x20 PUSH1 0x40 MLOAD DUP1 DUP4 SUB DUP2 DUP7 GAS STATICCALL ISZERO DUP1 ISZERO PUSH3 0x90B JUMPI RETURNDATASIZE PUSH0 DUP1 RETURNDATACOPY RETURNDATASIZE PUSH0 REVERT JUMPDEST POP POP POP POP PUSH1 0x40 MLOAD RETURNDATASIZE PUSH1 0x1F NOT PUSH1 0x1F DUP3 ADD AND DUP3 ADD DUP1 PUSH1 0x40 MSTORE POP DUP2 ADD SWAP1 PUSH3 0x931 SWAP2 SWAP1 PUSH3 0x1E06 JUMP JUMPDEST PUSH20 0xFFFFFFFFFFFFFFFFFFFFFFFFFFFFFFFFFFFFFFFF AND EQ ISZERO DUP1 PUSH3 0x9C1 JUMPI POP DUP1 PUSH20 0xFFFFFFFFFFFFFFFFFFFFFFFFFFFFFFFFFFFFFFFF AND PUSH4 0x122902A6 PUSH1 0x40 MLOAD DUP2 PUSH4 0xFFFFFFFF AND PUSH1 0xE0 SHL DUP2 MSTORE PUSH1 0x4 ADD PUSH1 0x20 PUSH1 0x40 MLOAD DUP1 DUP4 SUB DUP2 DUP7 GAS STATICCALL ISZERO DUP1 ISZERO PUSH3 0x99A JUMPI RETURNDATASIZE PUSH0 DUP1 RETURNDATACOPY RETURNDATASIZE PUSH0 REVERT JUMPDEST POP POP POP POP PUSH1 0x40 MLOAD RETURNDATASIZE PUSH1 0x1F NOT PUSH1 0x1F DUP3 ADD AND DUP3 ADD DUP1 PUSH1 0x40 MSTORE POP DUP2 ADD SWAP1 PUSH3 0x9C0 SWAP2 SWAP1 PUSH3 0x1C74 JUMP JUMPDEST JUMPDEST ISZERO PUSH3 0x9F1 JUMPI PUSH32 0xFFFFFFFFFFFFFFFFFFFFFFFFFFFFFFFFFFFFFFFFFFFFFFFFFFFFFFFFFFFFFFFF SWAP2 POP POP PUSH3 0xA33 JUMP JUMPDEST PUSH1 0x1 PUSH0 CALLER PUSH20 0xFFFFFFFFFFFFFFFFFFFFFFFFFFFFFFFFFFFFFFFF AND PUSH20 0xFFFFFFFFFFFFFFFFFFFFFFFFFFFFFFFFFFFFFFFF AND DUP2 MSTORE PUSH1 0x20 ADD SWAP1 DUP2 MSTORE PUSH1 0x20 ADD PUSH0 KECCAK256 SLOAD SWAP2 POP POP JUMPDEST SWAP1 JUMP JUMPDEST PUSH1 0x60 DUP1 PUSH0 PUSH1 0x2 PUSH0 CALLER PUSH20 0xFFFFFFFFFFFFFFFFFFFFFFFFFFFFFFFFFFFFFFFF AND PUSH20 0xFFFFFFFFFFFFFFFFFFFFFFFFFFFFFFFFFFFFFFFF AND DUP2 MSTORE PUSH1 0x20 ADD SWAP1 DUP2 MSTORE PUSH1 0x20 ADD PUSH0 KECCAK256 DUP1 SLOAD DUP1 PUSH1 0x20 MUL PUSH1 0x20 ADD PUSH1 0x40 MLOAD SWAP1 DUP2 ADD PUSH1 0x40 MSTORE DUP1 SWAP3 SWAP2 SWAP1 DUP2 DUP2 MSTORE PUSH1 0x20 ADD DUP3 DUP1 SLOAD DUP1 ISZERO PUSH3 0xAC1 JUMPI PUSH1 0x20 MUL DUP3 ADD SWAP2 SWAP1 PUSH0 MSTORE PUSH1 0x20 PUSH0 KECCAK256 SWAP1 JUMPDEST DUP2 SLOAD DUP2 MSTORE PUSH1 0x20 ADD SWAP1 PUSH1 0x1 ADD SWAP1 DUP1 DUP4 GT PUSH3 0xAAC JUMPI JUMPDEST POP POP POP POP POP SWAP1 POP PUSH0 PUSH1 0x2 PUSH0 CALLER PUSH20 0xFFFFFFFFFFFFFFFFFFFFFFFFFFFFFFFFFFFFFFFF AND PUSH20 0xFFFFFFFFFFFFFFFFFFFFFFFFFFFFFFFFFFFFFFFF AND DUP2 MSTORE PUSH1 0x20 ADD SWAP1 DUP2 MSTORE PUSH1 0x20 ADD PUSH0 KECCAK256 DUP1 SLOAD SWAP1 POP PUSH8 0xFFFFFFFFFFFFFFFF DUP2 GT ISZERO PUSH3 0xB26 JUMPI PUSH3 0xB25 PUSH3 0x148D JUMP JUMPDEST JUMPDEST PUSH1 0x40 MLOAD SWAP1 DUP1 DUP3 MSTORE DUP1 PUSH1 0x20 MUL PUSH1 0x20 ADD DUP3 ADD PUSH1 0x40 MSTORE DUP1 ISZERO PUSH3 0xB55 JUMPI DUP2 PUSH1 0x20 ADD PUSH1 0x20 DUP3 MUL DUP1 CALLDATASIZE DUP4 CALLDATACOPY DUP1 DUP3 ADD SWAP2 POP POP SWAP1 POP JUMPDEST POP SWAP1 POP PUSH0 JUMPDEST DUP3 MLOAD DUP2 LT ISZERO PUSH3 0xC64 JUMPI PUSH0 DUP4 DUP3 DUP2 MLOAD DUP2 LT PUSH3 0xB7B JUMPI PUSH3 0xB7A PUSH3 0x1C18 JUMP JUMPDEST JUMPDEST PUSH1 0x20 MUL PUSH1 0x20 ADD ADD MLOAD DUP2 SLOAD DUP2 LT PUSH3 0xB97 JUMPI PUSH3 0xB96 PUSH3 0x1C18 JUMP JUMPDEST JUMPDEST SWAP1 PUSH0 MSTORE PUSH1 0x20 PUSH0 KECCAK256 ADD PUSH0 SWAP1 SLOAD SWAP1 PUSH2 0x100 EXP SWAP1 DIV PUSH20 0xFFFFFFFFFFFFFFFFFFFFFFFFFFFFFFFFFFFFFFFF AND PUSH20 0xFFFFFFFFFFFFFFFFFFFFFFFFFFFFFFFFFFFFFFFF AND PUSH4 0x122902A6 PUSH1 0x40 MLOAD DUP2 PUSH4 0xFFFFFFFF AND PUSH1 0xE0 SHL DUP2 MSTORE PUSH1 0x4 ADD PUSH1 0x20 PUSH1 0x40 MLOAD DUP1 DUP4 SUB DUP2 DUP7 GAS STATICCALL ISZERO DUP1 ISZERO PUSH3 0xC08 JUMPI RETURNDATASIZE PUSH0 DUP1 RETURNDATACOPY RETURNDATASIZE PUSH0 REVERT JUMPDEST POP POP POP POP PUSH1 0x40 MLOAD RETURNDATASIZE PUSH1 0x1F NOT PUSH1 0x1F DUP3 ADD AND DUP3 ADD DUP1 PUSH1 0x40 MSTORE POP DUP2 ADD SWAP1 PUSH3 0xC2E SWAP2 SWAP1 PUSH3 0x1C74 JUMP JUMPDEST DUP3 DUP3 DUP2 MLOAD DUP2 LT PUSH3 0xC44 JUMPI PUSH3 0xC43 PUSH3 0x1C18 JUMP JUMPDEST JUMPDEST PUSH1 0x20 MUL PUSH1 0x20 ADD ADD SWAP1 ISZERO ISZERO SWAP1 DUP2 ISZERO ISZERO DUP2 MSTORE POP POP DUP1 DUP1 PUSH1 0x1 ADD SWAP2 POP POP PUSH3 0xB5A JUMP JUMPDEST POP DUP2 DUP2 SWAP4 POP SWAP4 POP POP POP SWAP1 SWAP2 JUMP JUMPDEST PUSH0 PUSH1 0x60 DUP3 PUSH0 DUP1 SLOAD SWAP1 POP DUP2 LT DUP1 ISZERO PUSH3 0xC89 JUMPI POP PUSH0 DUP2 LT ISZERO JUMPDEST DUP1 ISZERO PUSH3 0xD40 JUMPI POP PUSH0 DUP2 DUP2 SLOAD DUP2 LT PUSH3 0xCA7 JUMPI PUSH3 0xCA6 PUSH3 0x1C18 JUMP JUMPDEST JUMPDEST SWAP1 PUSH0 MSTORE PUSH1 0x20 PUSH0 KECCAK256 ADD PUSH0 SWAP1 SLOAD SWAP1 PUSH2 0x100 EXP SWAP1 DIV PUSH20 0xFFFFFFFFFFFFFFFFFFFFFFFFFFFFFFFFFFFFFFFF AND PUSH20 0xFFFFFFFFFFFFFFFFFFFFFFFFFFFFFFFFFFFFFFFF AND PUSH4 0x122902A6 PUSH1 0x40 MLOAD DUP2 PUSH4 0xFFFFFFFF AND PUSH1 0xE0 SHL DUP2 MSTORE PUSH1 0x4 ADD PUSH1 0x20 PUSH1 0x40 MLOAD DUP1 DUP4 SUB DUP2 DUP7 GAS STATICCALL ISZERO DUP1 ISZERO PUSH3 0xD18 JUMPI RETURNDATASIZE PUSH0 DUP1 RETURNDATACOPY RETURNDATASIZE PUSH0 REVERT JUMPDEST POP POP POP POP PUSH1 0x40 MLOAD RETURNDATASIZE PUSH1 0x1F NOT PUSH1 0x1F DUP3 ADD AND DUP3 ADD DUP1 PUSH1 0x40 MSTORE POP DUP2 ADD SWAP1 PUSH3 0xD3E SWAP2 SWAP1 PUSH3 0x1C74 JUMP JUMPDEST ISZERO JUMPDEST PUSH3 0xD82 JUMPI PUSH1 0x40 MLOAD PUSH32 0x8C379A000000000000000000000000000000000000000000000000000000000 DUP2 MSTORE PUSH1 0x4 ADD PUSH3 0xD79 SWAP1 PUSH3 0x1D02 JUMP JUMPDEST PUSH1 0x40 MLOAD DUP1 SWAP2 SUB SWAP1 REVERT JUMPDEST PUSH0 DUP1 DUP6 DUP2 SLOAD DUP2 LT PUSH3 0xD99 JUMPI PUSH3 0xD98 PUSH3 0x1C18 JUMP JUMPDEST JUMPDEST SWAP1 PUSH0 MSTORE PUSH1 0x20 PUSH0 KECCAK256 ADD PUSH0 SWAP1 SLOAD SWAP1 PUSH2 0x100 EXP SWAP1 DIV PUSH20 0xFFFFFFFFFFFFFFFFFFFFFFFFFFFFFFFFFFFFFFFF AND SWAP1 POP DUP1 PUSH20 0xFFFFFFFFFFFFFFFFFFFFFFFFFFFFFFFFFFFFFFFF AND PUSH4 0x188EC356 PUSH1 0x40 MLOAD DUP2 PUSH4 0xFFFFFFFF AND PUSH1 0xE0 SHL DUP2 MSTORE PUSH1 0x4 ADD PUSH1 0x20 PUSH1 0x40 MLOAD DUP1 DUP4 SUB DUP2 DUP7 GAS STATICCALL ISZERO DUP1 ISZERO PUSH3 0xE0D JUMPI RETURNDATASIZE PUSH0 DUP1 RETURNDATACOPY RETURNDATASIZE PUSH0 REVERT JUMPDEST POP POP POP POP PUSH1 0x40 MLOAD RETURNDATASIZE PUSH1 0x1F NOT PUSH1 0x1F DUP3 ADD AND DUP3 ADD DUP1 PUSH1 0x40 MSTORE POP DUP2 ADD SWAP1 PUSH3 0xE33 SWAP2 SWAP1 PUSH3 0x1E4C JUMP JUMPDEST DUP2 PUSH20 0xFFFFFFFFFFFFFFFFFFFFFFFFFFFFFFFFFFFFFFFF AND PUSH4 0x6A49FCE PUSH1 0x40 MLOAD DUP2 PUSH4 0xFFFFFFFF AND PUSH1 0xE0 SHL DUP2 MSTORE PUSH1 0x4 ADD PUSH0 PUSH1 0x40 MLOAD DUP1 DUP4 SUB DUP2 DUP7 GAS STATICCALL ISZERO DUP1 ISZERO PUSH3 0xE7C JUMPI RETURNDATASIZE PUSH0 DUP1 RETURNDATACOPY RETURNDATASIZE PUSH0 REVERT JUMPDEST POP POP POP POP PUSH1 0x40 MLOAD RETURNDATASIZE PUSH0 DUP3 RETURNDATACOPY RETURNDATASIZE PUSH1 0x1F NOT PUSH1 0x1F DUP3 ADD AND DUP3 ADD DUP1 PUSH1 0x40 MSTORE POP DUP2 ADD SWAP1 PUSH3 0xEA6 SWAP2 SWAP1 PUSH3 0x1FBE JUMP JUMPDEST SWAP4 POP SWAP4 POP POP POP SWAP2 POP SWAP2 JUMP JUMPDEST PUSH1 0x60 DUP1 PUSH0 PUSH1 0x1 PUSH0 CALLER PUSH20 0xFFFFFFFFFFFFFFFFFFFFFFFFFFFFFFFFFFFFFFFF AND PUSH20 0xFFFFFFFFFFFFFFFFFFFFFFFFFFFFFFFFFFFFFFFF AND DUP2 MSTORE PUSH1 0x20 ADD SWAP1 DUP2 MSTORE PUSH1 0x20 ADD PUSH0 KECCAK256 SLOAD DUP2 SLOAD DUP2 LT PUSH3 0xF07 JUMPI PUSH3 0xF06 PUSH3 0x1C18 JUMP JUMPDEST JUMPDEST SWAP1 PUSH0 MSTORE PUSH1 0x20 PUSH0 KECCAK256 ADD PUSH0 SWAP1 SLOAD SWAP1 PUSH2 0x100 EXP SWAP1 DIV PUSH20 0xFFFFFFFFFFFFFFFFFFFFFFFFFFFFFFFFFFFFFFFF AND PUSH20 0xFFFFFFFFFFFFFFFFFFFFFFFFFFFFFFFFFFFFFFFF AND PUSH4 0xE7B3387C PUSH1 0x40 MLOAD DUP2 PUSH4 0xFFFFFFFF AND PUSH1 0xE0 SHL DUP2 MSTORE PUSH1 0x4 ADD PUSH0 PUSH1 0x40 MLOAD DUP1 DUP4 SUB DUP2 DUP7 GAS STATICCALL ISZERO DUP1 ISZERO PUSH3 0xF77 JUMPI RETURNDATASIZE PUSH0 DUP1 RETURNDATACOPY RETURNDATASIZE PUSH0 REVERT JUMPDEST POP POP POP POP PUSH1 0x40 MLOAD RETURNDATASIZE PUSH0 DUP3 RETURNDATACOPY RETURNDATASIZE PUSH1 0x1F NOT PUSH1 0x1F DUP3 ADD AND DUP3 ADD DUP1 PUSH1 0x40 MSTORE POP DUP2 ADD SWAP1 PUSH3 0xFA1 SWAP2 SWAP1 PUSH3 0x20E0 JUMP JUMPDEST SWAP2 POP SWAP2 POP SWAP1 SWAP2 JUMP JUMPDEST PUSH0 PUSH1 0x60 DUP1 PUSH0 DUP5 PUSH1 0x1 ISZERO ISZERO PUSH0 DUP3 DUP2 SLOAD DUP2 LT PUSH3 0xFC9 JUMPI PUSH3 0xFC8 PUSH3 0x1C18 JUMP JUMPDEST JUMPDEST SWAP1 PUSH0 MSTORE PUSH1 0x20 PUSH0 KECCAK256 ADD PUSH0 SWAP1 SLOAD SWAP1 PUSH2 0x100 EXP SWAP1 DIV PUSH20 0xFFFFFFFFFFFFFFFFFFFFFFFFFFFFFFFFFFFFFFFF AND PUSH20 0xFFFFFFFFFFFFFFFFFFFFFFFFFFFFFFFFFFFFFFFF AND PUSH4 0x122902A6 PUSH1 0x40 MLOAD DUP2 PUSH4 0xFFFFFFFF AND PUSH1 0xE0 SHL DUP2 MSTORE PUSH1 0x4 ADD PUSH1 0x20 PUSH1 0x40 MLOAD DUP1 DUP4 SUB DUP2 DUP7 GAS STATICCALL ISZERO DUP1 ISZERO PUSH3 0x103A JUMPI RETURNDATASIZE PUSH0 DUP1 RETURNDATACOPY RETURNDATASIZE PUSH0 REVERT JUMPDEST POP POP POP POP PUSH1 0x40 MLOAD RETURNDATASIZE PUSH1 0x1F NOT PUSH1 0x1F DUP3 ADD AND DUP3 ADD DUP1 PUSH1 0x40 MSTORE POP DUP2 ADD SWAP1 PUSH3 0x1060 SWAP2 SWAP1 PUSH3 0x1C74 JUMP JUMPDEST ISZERO ISZERO EQ PUSH3 0x10A5 JUMPI PUSH1 0x40 MLOAD PUSH32 0x8C379A000000000000000000000000000000000000000000000000000000000 DUP2 MSTORE PUSH1 0x4 ADD PUSH3 0x109C SWAP1 PUSH3 0x21B1 JUMP JUMPDEST PUSH1 0x40 MLOAD DUP1 SWAP2 SUB SWAP1 REVERT JUMPDEST PUSH0 DUP1 SLOAD SWAP1 POP DUP7 LT DUP1 ISZERO PUSH3 0x10B9 JUMPI POP PUSH0 DUP7 LT ISZERO JUMPDEST PUSH3 0x10FB JUMPI PUSH1 0x40 MLOAD PUSH32 0x8C379A000000000000000000000000000000000000000000000000000000000 DUP2 MSTORE PUSH1 0x4 ADD PUSH3 0x10F2 SWAP1 PUSH3 0x221F JUMP JUMPDEST PUSH1 0x40 MLOAD DUP1 SWAP2 SUB SWAP1 REVERT JUMPDEST PUSH0 DUP1 DUP8 DUP2 SLOAD DUP2 LT PUSH3 0x1112 JUMPI PUSH3 0x1111 PUSH3 0x1C18 JUMP JUMPDEST JUMPDEST SWAP1 PUSH0 MSTORE PUSH1 0x20 PUSH0 KECCAK256 ADD PUSH0 SWAP1 SLOAD SWAP1 PUSH2 0x100 EXP SWAP1 DIV PUSH20 0xFFFFFFFFFFFFFFFFFFFFFFFFFFFFFFFFFFFFFFFF AND SWAP1 POP PUSH0 DUP2 PUSH20 0xFFFFFFFFFFFFFFFFFFFFFFFFFFFFFFFFFFFFFFFF AND PUSH4 0x188EC356 PUSH1 0x40 MLOAD DUP2 PUSH4 0xFFFFFFFF AND PUSH1 0xE0 SHL DUP2 MSTORE PUSH1 0x4 ADD PUSH1 0x20 PUSH1 0x40 MLOAD DUP1 DUP4 SUB DUP2 DUP7 GAS STATICCALL ISZERO DUP1 ISZERO PUSH3 0x1187 JUMPI RETURNDATASIZE PUSH0 DUP1 RETURNDATACOPY RETURNDATASIZE PUSH0 REVERT JUMPDEST POP POP POP POP PUSH1 0x40 MLOAD RETURNDATASIZE PUSH1 0x1F NOT PUSH1 0x1F DUP3 ADD AND DUP3 ADD DUP1 PUSH1 0x40 MSTORE POP DUP2 ADD SWAP1 PUSH3 0x11AD SWAP2 SWAP1 PUSH3 0x1E4C JUMP JUMPDEST SWAP1 POP PUSH0 DUP3 PUSH20 0xFFFFFFFFFFFFFFFFFFFFFFFFFFFFFFFFFFFFFFFF AND PUSH4 0x122902A6 PUSH1 0x40 MLOAD DUP2 PUSH4 0xFFFFFFFF AND PUSH1 0xE0 SHL DUP2 MSTORE PUSH1 0x4 ADD PUSH1 0x20 PUSH1 0x40 MLOAD DUP1 DUP4 SUB DUP2 DUP7 GAS STATICCALL ISZERO DUP1 ISZERO PUSH3 0x11FA JUMPI RETURNDATASIZE PUSH0 DUP1 RETURNDATACOPY RETURNDATASIZE PUSH0 REVERT JUMPDEST POP POP POP POP PUSH1 0x40 MLOAD RETURNDATASIZE PUSH1 0x1F NOT PUSH1 0x1F DUP3 ADD AND DUP3 ADD DUP1 PUSH1 0x40 MSTORE POP DUP2 ADD SWAP1 PUSH3 0x1220 SWAP2 SWAP1 PUSH3 0x1C74 JUMP JUMPDEST SWAP1 POP PUSH1 0x60 DUP1 DUP5 PUSH20 0xFFFFFFFFFFFFFFFFFFFFFFFFFFFFFFFFFFFFFFFF AND PUSH4 0xE7B3387C PUSH1 0x40 MLOAD DUP2 PUSH4 0xFFFFFFFF AND PUSH1 0xE0 SHL DUP2 MSTORE PUSH1 0x4 ADD PUSH0 PUSH1 0x40 MLOAD DUP1 DUP4 SUB DUP2 DUP7 GAS STATICCALL ISZERO DUP1 ISZERO PUSH3 0x126E JUMPI RETURNDATASIZE PUSH0 DUP1 RETURNDATACOPY RETURNDATASIZE PUSH0 REVERT JUMPDEST POP POP POP POP PUSH1 0x40 MLOAD RETURNDATASIZE PUSH0 DUP3 RETURNDATACOPY RETURNDATASIZE PUSH1 0x1F NOT PUSH1 0x1F DUP3 ADD AND DUP3 ADD DUP1 PUSH1 0x40 MSTORE POP DUP2 ADD SWAP1 PUSH3 0x1298 SWAP2 SWAP1 PUSH3 0x20E0 JUMP JUMPDEST DUP1 SWAP3 POP DUP2 SWAP4 POP POP POP DUP4 DUP3 DUP3 DUP6 SWAP10 POP SWAP10 POP SWAP10 POP SWAP10 POP POP POP POP POP POP POP SWAP2 SWAP4 POP SWAP2 SWAP4 JUMP JUMPDEST PUSH0 DUP1 CALLER DUP4 PUSH1 0x40 MLOAD PUSH3 0x12CB SWAP1 PUSH3 0x1401 JUMP JUMPDEST PUSH3 0x12D8 SWAP3 SWAP2 SWAP1 PUSH3 0x223F JUMP JUMPDEST PUSH1 0x40 MLOAD DUP1 SWAP2 SUB SWAP1 PUSH0 CREATE DUP1 ISZERO DUP1 ISZERO PUSH3 0x12F2 JUMPI RETURNDATASIZE PUSH0 DUP1 RETURNDATACOPY RETURNDATASIZE PUSH0 REVERT JUMPDEST POP SWAP1 DUP1 PUSH1 0x1 DUP2 SLOAD ADD DUP1 DUP3 SSTORE DUP1 SWAP2 POP POP PUSH1 0x1 SWAP1 SUB SWAP1 PUSH0 MSTORE PUSH1 0x20 PUSH0 KECCAK256 ADD PUSH0 SWAP1 SWAP2 SWAP1 SWAP2 SWAP1 SWAP2 PUSH2 0x100 EXP DUP2 SLOAD DUP2 PUSH20 0xFFFFFFFFFFFFFFFFFFFFFFFFFFFFFFFFFFFFFFFF MUL NOT AND SWAP1 DUP4 PUSH20 0xFFFFFFFFFFFFFFFFFFFFFFFFFFFFFFFFFFFFFFFF AND MUL OR SWAP1 SSTORE POP PUSH0 PUSH1 0x1 PUSH0 DUP1 SLOAD SWAP1 POP PUSH3 0x1364 SWAP2 SWAP1 PUSH3 0x229E JUMP JUMPDEST SWAP1 POP DUP1 PUSH1 0x1 PUSH0 CALLER PUSH20 0xFFFFFFFFFFFFFFFFFFFFFFFFFFFFFFFFFFFFFFFF AND PUSH20 0xFFFFFFFFFFFFFFFFFFFFFFFFFFFFFFFFFFFFFFFF AND DUP2 MSTORE PUSH1 0x20 ADD SWAP1 DUP2 MSTORE PUSH1 0x20 ADD PUSH0 KECCAK256 DUP2 SWAP1 SSTORE POP DUP1 SWAP2 POP POP SWAP2 SWAP1 POP JUMP JUMPDEST DUP3 DUP1 SLOAD DUP3 DUP3 SSTORE SWAP1 PUSH0 MSTORE PUSH1 0x20 PUSH0 KECCAK256 SWAP1 DUP2 ADD SWAP3 DUP3 ISZERO PUSH3 0x13EE JUMPI SWAP2 PUSH1 0x20 MUL DUP3 ADD JUMPDEST DUP3 DUP2 GT ISZERO PUSH3 0x13ED JUMPI DUP3 MLOAD DUP3 SSTORE SWAP2 PUSH1 0x20 ADD SWAP2 SWAP1 PUSH1 0x1 ADD SWAP1 PUSH3 0x13D0 JUMP JUMPDEST JUMPDEST POP SWAP1 POP PUSH3 0x13FD SWAP2 SWAP1 PUSH3 0x140F JUMP JUMPDEST POP SWAP1 JUMP JUMPDEST PUSH2 0x1A92 DUP1 PUSH3 0x22D9 DUP4 CODECOPY ADD SWAP1 JUMP JUMPDEST JUMPDEST DUP1 DUP3 GT ISZERO PUSH3 0x1428 JUMPI PUSH0 DUP2 PUSH0 SWAP1 SSTORE POP PUSH1 0x1 ADD PUSH3 0x1410 JUMP JUMPDEST POP SWAP1 JUMP JUMPDEST PUSH0 PUSH1 0x40 MLOAD SWAP1 POP SWAP1 JUMP JUMPDEST PUSH0 DUP1 REVERT JUMPDEST PUSH0 DUP1 REVERT JUMPDEST PUSH0 DUP2 SWAP1 POP SWAP2 SWAP1 POP JUMP JUMPDEST PUSH3 0x1451 DUP2 PUSH3 0x143D JUMP JUMPDEST DUP2 EQ PUSH3 0x145C JUMPI PUSH0 DUP1 REVERT JUMPDEST POP JUMP JUMPDEST PUSH0 DUP2 CALLDATALOAD SWAP1 POP PUSH3 0x146F DUP2 PUSH3 0x1446 JUMP JUMPDEST SWAP3 SWAP2 POP POP JUMP JUMPDEST PUSH0 DUP1 REVERT JUMPDEST PUSH0 DUP1 REVERT JUMPDEST PUSH0 PUSH1 0x1F NOT PUSH1 0x1F DUP4 ADD AND SWAP1 POP SWAP2 SWAP1 POP JUMP JUMPDEST PUSH32 0x4E487B7100000000000000000000000000000000000000000000000000000000 PUSH0 MSTORE PUSH1 0x41 PUSH1 0x4 MSTORE PUSH1 0x24 PUSH0 REVERT JUMPDEST PUSH3 0x14C5 DUP3 PUSH3 0x147D JUMP JUMPDEST DUP2 ADD DUP2 DUP2 LT PUSH8 0xFFFFFFFFFFFFFFFF DUP3 GT OR ISZERO PUSH3 0x14E7 JUMPI PUSH3 0x14E6 PUSH3 0x148D JUMP JUMPDEST JUMPDEST DUP1 PUSH1 0x40 MSTORE POP POP POP JUMP JUMPDEST PUSH0 PUSH3 0x14FB PUSH3 0x142C JUMP JUMPDEST SWAP1 POP PUSH3 0x1509 DUP3 DUP3 PUSH3 0x14BA JUMP JUMPDEST SWAP2 SWAP1 POP JUMP JUMPDEST PUSH0 PUSH8 0xFFFFFFFFFFFFFFFF DUP3 GT ISZERO PUSH3 0x152B JUMPI PUSH3 0x152A PUSH3 0x148D JUMP JUMPDEST JUMPDEST PUSH3 0x1536 DUP3 PUSH3 0x147D JUMP JUMPDEST SWAP1 POP PUSH1 0x20 DUP2 ADD SWAP1 POP SWAP2 SWAP1 POP JUMP JUMPDEST DUP3 DUP2 DUP4 CALLDATACOPY PUSH0 DUP4 DUP4 ADD MSTORE POP POP POP JUMP JUMPDEST PUSH0 PUSH3 0x1567 PUSH3 0x1561 DUP5 PUSH3 0x150E JUMP JUMPDEST PUSH3 0x14F0 JUMP JUMPDEST SWAP1 POP DUP3 DUP2 MSTORE PUSH1 0x20 DUP2 ADD DUP5 DUP5 DUP5 ADD GT ISZERO PUSH3 0x1586 JUMPI PUSH3 0x1585 PUSH3 0x1479 JUMP JUMPDEST JUMPDEST PUSH3 0x1593 DUP5 DUP3 DUP6 PUSH3 0x1543 JUMP JUMPDEST POP SWAP4 SWAP3 POP POP POP JUMP JUMPDEST PUSH0 DUP3 PUSH1 0x1F DUP4 ADD SLT PUSH3 0x15B2 JUMPI PUSH3 0x15B1 PUSH3 0x1475 JUMP JUMPDEST JUMPDEST DUP2 CALLDATALOAD PUSH3 0x15C4 DUP5 DUP3 PUSH1 0x20 DUP7 ADD PUSH3 0x1551 JUMP JUMPDEST SWAP2 POP POP SWAP3 SWAP2 POP POP JUMP JUMPDEST PUSH0 DUP1 PUSH1 0x40 DUP4 DUP6 SUB SLT ISZERO PUSH3 0x15E6 JUMPI PUSH3 0x15E5 PUSH3 0x1435 JUMP JUMPDEST JUMPDEST PUSH0 PUSH3 0x15F5 DUP6 DUP3 DUP7 ADD PUSH3 0x145F JUMP JUMPDEST SWAP3 POP POP PUSH1 0x20 DUP4 ADD CALLDATALOAD PUSH8 0xFFFFFFFFFFFFFFFF DUP2 GT ISZERO PUSH3 0x1619 JUMPI PUSH3 0x1618 PUSH3 0x1439 JUMP JUMPDEST JUMPDEST PUSH3 0x1627 DUP6 DUP3 DUP7 ADD PUSH3 0x159B JUMP JUMPDEST SWAP2 POP POP SWAP3 POP SWAP3 SWAP1 POP JUMP JUMPDEST PUSH0 DUP2 ISZERO ISZERO SWAP1 POP SWAP2 SWAP1 POP JUMP JUMPDEST PUSH3 0x1647 DUP2 PUSH3 0x1631 JUMP JUMPDEST DUP3 MSTORE POP POP JUMP JUMPDEST PUSH0 PUSH1 0x20 DUP3 ADD SWAP1 POP PUSH3 0x1662 PUSH0 DUP4 ADD DUP5 PUSH3 0x163C JUMP JUMPDEST SWAP3 SWAP2 POP POP JUMP JUMPDEST PUSH0 DUP2 SWAP1 POP SWAP2 SWAP1 POP JUMP JUMPDEST PUSH3 0x167C DUP2 PUSH3 0x1668 JUMP JUMPDEST DUP3 MSTORE POP POP JUMP JUMPDEST PUSH0 PUSH1 0x20 DUP3 ADD SWAP1 POP PUSH3 0x1697 PUSH0 DUP4 ADD DUP5 PUSH3 0x1671 JUMP JUMPDEST SWAP3 SWAP2 POP POP JUMP JUMPDEST PUSH0 DUP2 MLOAD SWAP1 POP SWAP2 SWAP1 POP JUMP JUMPDEST PUSH0 DUP3 DUP3 MSTORE PUSH1 0x20 DUP3 ADD SWAP1 POP SWAP3 SWAP2 POP POP JUMP JUMPDEST PUSH0 DUP2 SWAP1 POP PUSH1 0x20 DUP3 ADD SWAP1 POP SWAP2 SWAP1 POP JUMP JUMPDEST PUSH3 0x16D1 DUP2 PUSH3 0x143D JUMP JUMPDEST DUP3 MSTORE POP POP JUMP JUMPDEST PUSH0 PUSH3 0x16E4 DUP4 DUP4 PUSH3 0x16C6 JUMP JUMPDEST PUSH1 0x20 DUP4 ADD SWAP1 POP SWAP3 SWAP2 POP POP JUMP JUMPDEST PUSH0 PUSH1 0x20 DUP3 ADD SWAP1 POP SWAP2 SWAP1 POP JUMP JUMPDEST PUSH0 PUSH3 0x1708 DUP3 PUSH3 0x169D JUMP JUMPDEST PUSH3 0x1714 DUP2 DUP6 PUSH3 0x16A7 JUMP JUMPDEST SWAP4 POP PUSH3 0x1721 DUP4 PUSH3 0x16B7 JUMP JUMPDEST DUP1 PUSH0 JUMPDEST DUP4 DUP2 LT ISZERO PUSH3 0x1757 JUMPI DUP2 MLOAD PUSH3 0x173B DUP9 DUP3 PUSH3 0x16D7 JUMP JUMPDEST SWAP8 POP PUSH3 0x1748 DUP4 PUSH3 0x16F0 JUMP JUMPDEST SWAP3 POP POP PUSH1 0x1 DUP2 ADD SWAP1 POP PUSH3 0x1724 JUMP JUMPDEST POP DUP6 SWAP4 POP POP POP POP SWAP3 SWAP2 POP POP JUMP JUMPDEST PUSH0 DUP2 MLOAD SWAP1 POP SWAP2 SWAP1 POP JUMP JUMPDEST PUSH0 DUP3 DUP3 MSTORE PUSH1 0x20 DUP3 ADD SWAP1 POP SWAP3 SWAP2 POP POP JUMP JUMPDEST PUSH0 DUP2 SWAP1 POP PUSH1 0x20 DUP3 ADD SWAP1 POP SWAP2 SWAP1 POP JUMP JUMPDEST PUSH3 0x1798 DUP2 PUSH3 0x1631 JUMP JUMPDEST DUP3 MSTORE POP POP JUMP JUMPDEST PUSH0 PUSH3 0x17AB DUP4 DUP4 PUSH3 0x178D JUMP JUMPDEST PUSH1 0x20 DUP4 ADD SWAP1 POP SWAP3 SWAP2 POP POP JUMP JUMPDEST PUSH0 PUSH1 0x20 DUP3 ADD SWAP1 POP SWAP2 SWAP1 POP JUMP JUMPDEST PUSH0 PUSH3 0x17CF DUP3 PUSH3 0x1764 JUMP JUMPDEST PUSH3 0x17DB DUP2 DUP6 PUSH3 0x176E JUMP JUMPDEST SWAP4 POP PUSH3 0x17E8 DUP4 PUSH3 0x177E JUMP JUMPDEST DUP1 PUSH0 JUMPDEST DUP4 DUP2 LT ISZERO PUSH3 0x181E JUMPI DUP2 MLOAD PUSH3 0x1802 DUP9 DUP3 PUSH3 0x179E JUMP JUMPDEST SWAP8 POP PUSH3 0x180F DUP4 PUSH3 0x17B7 JUMP JUMPDEST SWAP3 POP POP PUSH1 0x1 DUP2 ADD SWAP1 POP PUSH3 0x17EB JUMP JUMPDEST POP DUP6 SWAP4 POP POP POP POP SWAP3 SWAP2 POP POP JUMP JUMPDEST PUSH0 PUSH1 0x40 DUP3 ADD SWAP1 POP DUP2 DUP2 SUB PUSH0 DUP4 ADD MSTORE PUSH3 0x1845 DUP2 DUP6 PUSH3 0x16FC JUMP JUMPDEST SWAP1 POP DUP2 DUP2 SUB PUSH1 0x20 DUP4 ADD MSTORE PUSH3 0x185B DUP2 DUP5 PUSH3 0x17C3 JUMP JUMPDEST SWAP1 POP SWAP4 SWAP3 POP POP POP JUMP JUMPDEST PUSH0 PUSH1 0x20 DUP3 DUP5 SUB SLT ISZERO PUSH3 0x187C JUMPI PUSH3 0x187B PUSH3 0x1435 JUMP JUMPDEST JUMPDEST PUSH0 PUSH3 0x188B DUP5 DUP3 DUP6 ADD PUSH3 0x145F JUMP JUMPDEST SWAP2 POP POP SWAP3 SWAP2 POP POP JUMP JUMPDEST PUSH3 0x189F DUP2 PUSH3 0x143D JUMP JUMPDEST DUP3 MSTORE POP POP JUMP JUMPDEST PUSH0 DUP2 MLOAD SWAP1 POP SWAP2 SWAP1 POP JUMP JUMPDEST PUSH0 DUP3 DUP3 MSTORE PUSH1 0x20 DUP3 ADD SWAP1 POP SWAP3 SWAP2 POP POP JUMP JUMPDEST PUSH0 DUP2 SWAP1 POP PUSH1 0x20 DUP3 ADD SWAP1 POP SWAP2 SWAP1 POP JUMP JUMPDEST PUSH0 DUP2 MLOAD SWAP1 POP SWAP2 SWAP1 POP JUMP JUMPDEST PUSH0 DUP3 DUP3 MSTORE PUSH1 0x20 DUP3 ADD SWAP1 POP SWAP3 SWAP2 POP POP JUMP JUMPDEST PUSH0 JUMPDEST DUP4 DUP2 LT ISZERO PUSH3 0x1907 JUMPI DUP1 DUP3 ADD MLOAD DUP2 DUP5 ADD MSTORE PUSH1 0x20 DUP2 ADD SWAP1 POP PUSH3 0x18EA JUMP JUMPDEST PUSH0 DUP5 DUP5 ADD MSTORE POP POP POP POP JUMP JUMPDEST PUSH0 PUSH3 0x191E DUP3 PUSH3 0x18CE JUMP JUMPDEST PUSH3 0x192A DUP2 DUP6 PUSH3 0x18D8 JUMP JUMPDEST SWAP4 POP PUSH3 0x193C DUP2 DUP6 PUSH1 0x20 DUP7 ADD PUSH3 0x18E8 JUMP JUMPDEST PUSH3 0x1947 DUP2 PUSH3 0x147D JUMP JUMPDEST DUP5 ADD SWAP2 POP POP SWAP3 SWAP2 POP POP JUMP JUMPDEST PUSH0 PUSH3 0x195F DUP4 DUP4 PUSH3 0x1912 JUMP JUMPDEST SWAP1 POP SWAP3 SWAP2 POP POP JUMP JUMPDEST PUSH0 PUSH1 0x20 DUP3 ADD SWAP1 POP SWAP2 SWAP1 POP JUMP JUMPDEST PUSH0 PUSH3 0x197F DUP3 PUSH3 0x18A5 JUMP JUMPDEST PUSH3 0x198B DUP2 DUP6 PUSH3 0x18AF JUMP JUMPDEST SWAP4 POP DUP4 PUSH1 0x20 DUP3 MUL DUP6 ADD PUSH3 0x199F DUP6 PUSH3 0x18BF JUMP JUMPDEST DUP1 PUSH0 JUMPDEST DUP6 DUP2 LT ISZERO PUSH3 0x19E0 JUMPI DUP5 DUP5 SUB DUP10 MSTORE DUP2 MLOAD PUSH3 0x19BE DUP6 DUP3 PUSH3 0x1952 JUMP JUMPDEST SWAP5 POP PUSH3 0x19CB DUP4 PUSH3 0x1967 JUMP JUMPDEST SWAP3 POP PUSH1 0x20 DUP11 ADD SWAP10 POP POP PUSH1 0x1 DUP2 ADD SWAP1 POP PUSH3 0x19A2 JUMP JUMPDEST POP DUP3 SWAP8 POP DUP8 SWAP6 POP POP POP POP POP POP SWAP3 SWAP2 POP POP JUMP JUMPDEST PUSH0 PUSH1 0x40 DUP3 ADD SWAP1 POP PUSH3 0x1A07 PUSH0 DUP4 ADD DUP6 PUSH3 0x1894 JUMP JUMPDEST DUP2 DUP2 SUB PUSH1 0x20 DUP4 ADD MSTORE PUSH3 0x1A1B DUP2 DUP5 PUSH3 0x1973 JUMP JUMPDEST SWAP1 POP SWAP4 SWAP3 POP POP POP JUMP JUMPDEST PUSH0 PUSH1 0x40 DUP3 ADD SWAP1 POP DUP2 DUP2 SUB PUSH0 DUP4 ADD MSTORE PUSH3 0x1A3E DUP2 DUP6 PUSH3 0x1973 JUMP JUMPDEST SWAP1 POP DUP2 DUP2 SUB PUSH1 0x20 DUP4 ADD MSTORE PUSH3 0x1A54 DUP2 DUP5 PUSH3 0x16FC JUMP JUMPDEST SWAP1 POP SWAP4 SWAP3 POP POP POP JUMP JUMPDEST PUSH0 PUSH1 0x80 DUP3 ADD SWAP1 POP PUSH3 0x1A72 PUSH0 DUP4 ADD DUP8 PUSH3 0x1894 JUMP JUMPDEST DUP2 DUP2 SUB PUSH1 0x20 DUP4 ADD MSTORE PUSH3 0x1A86 DUP2 DUP7 PUSH3 0x1973 JUMP JUMPDEST SWAP1 POP DUP2 DUP2 SUB PUSH1 0x40 DUP4 ADD MSTORE PUSH3 0x1A9C DUP2 DUP6 PUSH3 0x16FC JUMP JUMPDEST SWAP1 POP PUSH3 0x1AAD PUSH1 0x60 DUP4 ADD DUP5 PUSH3 0x163C JUMP JUMPDEST SWAP6 SWAP5 POP POP POP POP POP JUMP JUMPDEST PUSH0 PUSH8 0xFFFFFFFFFFFFFFFF DUP3 GT ISZERO PUSH3 0x1AD3 JUMPI PUSH3 0x1AD2 PUSH3 0x148D JUMP JUMPDEST JUMPDEST PUSH1 0x20 DUP3 MUL SWAP1 POP PUSH1 0x20 DUP2 ADD SWAP1 POP SWAP2 SWAP1 POP JUMP JUMPDEST PUSH0 DUP1 REVERT JUMPDEST PUSH0 PUSH3 0x1AFE PUSH3 0x1AF8 DUP5 PUSH3 0x1AB6 JUMP JUMPDEST PUSH3 0x14F0 JUMP JUMPDEST SWAP1 POP DUP1 DUP4 DUP3 MSTORE PUSH1 0x20 DUP3 ADD SWAP1 POP PUSH1 0x20 DUP5 MUL DUP4 ADD DUP6 DUP2 GT ISZERO PUSH3 0x1B24 JUMPI PUSH3 0x1B23 PUSH3 0x1AE4 JUMP JUMPDEST JUMPDEST DUP4 JUMPDEST DUP2 DUP2 LT ISZERO PUSH3 0x1B72 JUMPI DUP1 CALLDATALOAD PUSH8 0xFFFFFFFFFFFFFFFF DUP2 GT ISZERO PUSH3 0x1B4D JUMPI PUSH3 0x1B4C PUSH3 0x1475 JUMP JUMPDEST JUMPDEST DUP1 DUP7 ADD PUSH3 0x1B5C DUP10 DUP3 PUSH3 0x159B JUMP JUMPDEST DUP6 MSTORE PUSH1 0x20 DUP6 ADD SWAP5 POP POP POP PUSH1 0x20 DUP2 ADD SWAP1 POP PUSH3 0x1B26 JUMP JUMPDEST POP POP POP SWAP4 SWAP3 POP POP POP JUMP JUMPDEST PUSH0 DUP3 PUSH1 0x1F DUP4 ADD SLT PUSH3 0x1B93 JUMPI PUSH3 0x1B92 PUSH3 0x1475 JUMP JUMPDEST JUMPDEST DUP2 CALLDATALOAD PUSH3 0x1BA5 DUP5 DUP3 PUSH1 0x20 DUP7 ADD PUSH3 0x1AE8 JUMP JUMPDEST SWAP2 POP POP SWAP3 SWAP2 POP POP JUMP JUMPDEST PUSH0 PUSH1 0x20 DUP3 DUP5 SUB SLT ISZERO PUSH3 0x1BC6 JUMPI PUSH3 0x1BC5 PUSH3 0x1435 JUMP JUMPDEST JUMPDEST PUSH0 DUP3 ADD CALLDATALOAD PUSH8 0xFFFFFFFFFFFFFFFF DUP2 GT ISZERO PUSH3 0x1BE6 JUMPI PUSH3 0x1BE5 PUSH3 0x1439 JUMP JUMPDEST JUMPDEST PUSH3 0x1BF4 DUP5 DUP3 DUP6 ADD PUSH3 0x1B7C JUMP JUMPDEST SWAP2 POP POP SWAP3 SWAP2 POP POP JUMP JUMPDEST PUSH0 PUSH1 0x20 DUP3 ADD SWAP1 POP PUSH3 0x1C12 PUSH0 DUP4 ADD DUP5 PUSH3 0x1894 JUMP JUMPDEST SWAP3 SWAP2 POP POP JUMP JUMPDEST PUSH32 0x4E487B7100000000000000000000000000000000000000000000000000000000 PUSH0 MSTORE PUSH1 0x32 PUSH1 0x4 MSTORE PUSH1 0x24 PUSH0 REVERT JUMPDEST PUSH3 0x1C50 DUP2 PUSH3 0x1631 JUMP JUMPDEST DUP2 EQ PUSH3 0x1C5B JUMPI PUSH0 DUP1 REVERT JUMPDEST POP JUMP JUMPDEST PUSH0 DUP2 MLOAD SWAP1 POP PUSH3 0x1C6E DUP2 PUSH3 0x1C45 JUMP JUMPDEST SWAP3 SWAP2 POP POP JUMP JUMPDEST PUSH0 PUSH1 0x20 DUP3 DUP5 SUB SLT ISZERO PUSH3 0x1C8C JUMPI PUSH3 0x1C8B PUSH3 0x1435 JUMP JUMPDEST JUMPDEST PUSH0 PUSH3 0x1C9B DUP5 DUP3 DUP6 ADD PUSH3 0x1C5E JUMP JUMPDEST SWAP2 POP POP SWAP3 SWAP2 POP POP JUMP JUMPDEST PUSH0 DUP3 DUP3 MSTORE PUSH1 0x20 DUP3 ADD SWAP1 POP SWAP3 SWAP2 POP POP JUMP JUMPDEST PUSH32 0x656C656374696F6E206973206E6F742076616C69640000000000000000000000 PUSH0 DUP3 ADD MSTORE POP JUMP JUMPDEST PUSH0 PUSH3 0x1CEA PUSH1 0x15 DUP4 PUSH3 0x1CA4 JUMP JUMPDEST SWAP2 POP PUSH3 0x1CF7 DUP3 PUSH3 0x1CB4 JUMP JUMPDEST PUSH1 0x20 DUP3 ADD SWAP1 POP SWAP2 SWAP1 POP JUMP JUMPDEST PUSH0 PUSH1 0x20 DUP3 ADD SWAP1 POP DUP2 DUP2 SUB PUSH0 DUP4 ADD MSTORE PUSH3 0x1D1B DUP2 PUSH3 0x1CDC JUMP JUMPDEST SWAP1 POP SWAP2 SWAP1 POP JUMP JUMPDEST PUSH0 PUSH20 0xFFFFFFFFFFFFFFFFFFFFFFFFFFFFFFFFFFFFFFFF DUP3 AND SWAP1 POP SWAP2 SWAP1 POP JUMP JUMPDEST PUSH0 PUSH3 0x1D4D DUP3 PUSH3 0x1D22 JUMP JUMPDEST SWAP1 POP SWAP2 SWAP1 POP JUMP JUMPDEST PUSH3 0x1D5F DUP2 PUSH3 0x1D41 JUMP JUMPDEST DUP3 MSTORE POP POP JUMP JUMPDEST PUSH0 PUSH3 0x1D71 DUP3 PUSH3 0x18CE JUMP JUMPDEST PUSH3 0x1D7D DUP2 DUP6 PUSH3 0x1CA4 JUMP JUMPDEST SWAP4 POP PUSH3 0x1D8F DUP2 DUP6 PUSH1 0x20 DUP7 ADD PUSH3 0x18E8 JUMP JUMPDEST PUSH3 0x1D9A DUP2 PUSH3 0x147D JUMP JUMPDEST DUP5 ADD SWAP2 POP POP SWAP3 SWAP2 POP POP JUMP JUMPDEST PUSH0 PUSH1 0x40 DUP3 ADD SWAP1 POP PUSH3 0x1DBA PUSH0 DUP4 ADD DUP6 PUSH3 0x1D54 JUMP JUMPDEST DUP2 DUP2 SUB PUSH1 0x20 DUP4 ADD MSTORE PUSH3 0x1DCE DUP2 DUP5 PUSH3 0x1D65 JUMP JUMPDEST SWAP1 POP SWAP4 SWAP3 POP POP POP JUMP JUMPDEST PUSH3 0x1DE2 DUP2 PUSH3 0x1D41 JUMP JUMPDEST DUP2 EQ PUSH3 0x1DED JUMPI PUSH0 DUP1 REVERT JUMPDEST POP JUMP JUMPDEST PUSH0 DUP2 MLOAD SWAP1 POP PUSH3 0x1E00 DUP2 PUSH3 0x1DD7 JUMP JUMPDEST SWAP3 SWAP2 POP POP JUMP JUMPDEST PUSH0 PUSH1 0x20 DUP3 DUP5 SUB SLT ISZERO PUSH3 0x1E1E JUMPI PUSH3 0x1E1D PUSH3 0x1435 JUMP JUMPDEST JUMPDEST PUSH0 PUSH3 0x1E2D DUP5 DUP3 DUP6 ADD PUSH3 0x1DF0 JUMP JUMPDEST SWAP2 POP POP SWAP3 SWAP2 POP POP JUMP JUMPDEST PUSH0 DUP2 MLOAD SWAP1 POP PUSH3 0x1E46 DUP2 PUSH3 0x1446 JUMP JUMPDEST SWAP3 SWAP2 POP POP JUMP JUMPDEST PUSH0 PUSH1 0x20 DUP3 DUP5 SUB SLT ISZERO PUSH3 0x1E64 JUMPI PUSH3 0x1E63 PUSH3 0x1435 JUMP JUMPDEST JUMPDEST PUSH0 PUSH3 0x1E73 DUP5 DUP3 DUP6 ADD PUSH3 0x1E36 JUMP JUMPDEST SWAP2 POP POP SWAP3 SWAP2 POP POP JUMP JUMPDEST PUSH0 PUSH3 0x1E92 PUSH3 0x1E8C DUP5 PUSH3 0x150E JUMP JUMPDEST PUSH3 0x14F0 JUMP JUMPDEST SWAP1 POP DUP3 DUP2 MSTORE PUSH1 0x20 DUP2 ADD DUP5 DUP5 DUP5 ADD GT ISZERO PUSH3 0x1EB1 JUMPI PUSH3 0x1EB0 PUSH3 0x1479 JUMP JUMPDEST JUMPDEST PUSH3 0x1EBE DUP5 DUP3 DUP6 PUSH3 0x18E8 JUMP JUMPDEST POP SWAP4 SWAP3 POP POP POP JUMP JUMPDEST PUSH0 DUP3 PUSH1 0x1F DUP4 ADD SLT PUSH3 0x1EDD JUMPI PUSH3 0x1EDC PUSH3 0x1475 JUMP JUMPDEST JUMPDEST DUP2 MLOAD PUSH3 0x1EEF DUP5 DUP3 PUSH1 0x20 DUP7 ADD PUSH3 0x1E7C JUMP JUMPDEST SWAP2 POP POP SWAP3 SWAP2 POP POP JUMP JUMPDEST PUSH0 PUSH3 0x1F0E PUSH3 0x1F08 DUP5 PUSH3 0x1AB6 JUMP JUMPDEST PUSH3 0x14F0 JUMP JUMPDEST SWAP1 POP DUP1 DUP4 DUP3 MSTORE PUSH1 0x20 DUP3 ADD SWAP1 POP PUSH1 0x20 DUP5 MUL DUP4 ADD DUP6 DUP2 GT ISZERO PUSH3 0x1F34 JUMPI PUSH3 0x1F33 PUSH3 0x1AE4 JUMP JUMPDEST JUMPDEST DUP4 JUMPDEST DUP2 DUP2 LT ISZERO PUSH3 0x1F82 JUMPI DUP1 MLOAD PUSH8 0xFFFFFFFFFFFFFFFF DUP2 GT ISZERO PUSH3 0x1F5D JUMPI PUSH3 0x1F5C PUSH3 0x1475 JUMP JUMPDEST JUMPDEST DUP1 DUP7 ADD PUSH3 0x1F6C DUP10 DUP3 PUSH3 0x1EC6 JUMP JUMPDEST DUP6 MSTORE PUSH1 0x20 DUP6 ADD SWAP5 POP POP POP PUSH1 0x20 DUP2 ADD SWAP1 POP PUSH3 0x1F36 JUMP JUMPDEST POP POP POP SWAP4 SWAP3 POP POP POP JUMP JUMPDEST PUSH0 DUP3 PUSH1 0x1F DUP4 ADD SLT PUSH3 0x1FA3 JUMPI PUSH3 0x1FA2 PUSH3 0x1475 JUMP JUMPDEST JUMPDEST DUP2 MLOAD PUSH3 0x1FB5 DUP5 DUP3 PUSH1 0x20 DUP7 ADD PUSH3 0x1EF8 JUMP JUMPDEST SWAP2 POP POP SWAP3 SWAP2 POP POP JUMP JUMPDEST PUSH0 PUSH1 0x20 DUP3 DUP5 SUB SLT ISZERO PUSH3 0x1FD6 JUMPI PUSH3 0x1FD5 PUSH3 0x1435 JUMP JUMPDEST JUMPDEST PUSH0 DUP3 ADD MLOAD PUSH8 0xFFFFFFFFFFFFFFFF DUP2 GT ISZERO PUSH3 0x1FF6 JUMPI PUSH3 0x1FF5 PUSH3 0x1439 JUMP JUMPDEST JUMPDEST PUSH3 0x2004 DUP5 DUP3 DUP6 ADD PUSH3 0x1F8C JUMP JUMPDEST SWAP2 POP POP SWAP3 SWAP2 POP POP JUMP JUMPDEST PUSH0 PUSH8 0xFFFFFFFFFFFFFFFF DUP3 GT ISZERO PUSH3 0x202A JUMPI PUSH3 0x2029 PUSH3 0x148D JUMP JUMPDEST JUMPDEST PUSH1 0x20 DUP3 MUL SWAP1 POP PUSH1 0x20 DUP2 ADD SWAP1 POP SWAP2 SWAP1 POP JUMP JUMPDEST PUSH0 PUSH3 0x2051 PUSH3 0x204B DUP5 PUSH3 0x200D JUMP JUMPDEST PUSH3 0x14F0 JUMP JUMPDEST SWAP1 POP DUP1 DUP4 DUP3 MSTORE PUSH1 0x20 DUP3 ADD SWAP1 POP PUSH1 0x20 DUP5 MUL DUP4 ADD DUP6 DUP2 GT ISZERO PUSH3 0x2077 JUMPI PUSH3 0x2076 PUSH3 0x1AE4 JUMP JUMPDEST JUMPDEST DUP4 JUMPDEST DUP2 DUP2 LT ISZERO PUSH3 0x20A4 JUMPI DUP1 PUSH3 0x208F DUP9 DUP3 PUSH3 0x1E36 JUMP JUMPDEST DUP5 MSTORE PUSH1 0x20 DUP5 ADD SWAP4 POP POP PUSH1 0x20 DUP2 ADD SWAP1 POP PUSH3 0x2079 JUMP JUMPDEST POP POP POP SWAP4 SWAP3 POP POP POP JUMP JUMPDEST PUSH0 DUP3 PUSH1 0x1F DUP4 ADD SLT PUSH3 0x20C5 JUMPI PUSH3 0x20C4 PUSH3 0x1475 JUMP JUMPDEST JUMPDEST DUP2 MLOAD PUSH3 0x20D7 DUP5 DUP3 PUSH1 0x20 DUP7 ADD PUSH3 0x203B JUMP JUMPDEST SWAP2 POP POP SWAP3 SWAP2 POP POP JUMP JUMPDEST PUSH0 DUP1 PUSH1 0x40 DUP4 DUP6 SUB SLT ISZERO PUSH3 0x20F9 JUMPI PUSH3 0x20F8 PUSH3 0x1435 JUMP JUMPDEST JUMPDEST PUSH0 DUP4 ADD MLOAD PUSH8 0xFFFFFFFFFFFFFFFF DUP2 GT ISZERO PUSH3 0x2119 JUMPI PUSH3 0x2118 PUSH3 0x1439 JUMP JUMPDEST JUMPDEST PUSH3 0x2127 DUP6 DUP3 DUP7 ADD PUSH3 0x1F8C JUMP JUMPDEST SWAP3 POP POP PUSH1 0x20 DUP4 ADD MLOAD PUSH8 0xFFFFFFFFFFFFFFFF DUP2 GT ISZERO PUSH3 0x214B JUMPI PUSH3 0x214A PUSH3 0x1439 JUMP JUMPDEST JUMPDEST PUSH3 0x2159 DUP6 DUP3 DUP7 ADD PUSH3 0x20AE JUMP JUMPDEST SWAP2 POP POP SWAP3 POP SWAP3 SWAP1 POP JUMP JUMPDEST PUSH32 0x456C656374696F6E206973207374696C6C206F6E676F696E6700000000000000 PUSH0 DUP3 ADD MSTORE POP JUMP JUMPDEST PUSH0 PUSH3 0x2199 PUSH1 0x19 DUP4 PUSH3 0x1CA4 JUMP JUMPDEST SWAP2 POP PUSH3 0x21A6 DUP3 PUSH3 0x2163 JUMP JUMPDEST PUSH1 0x20 DUP3 ADD SWAP1 POP SWAP2 SWAP1 POP JUMP JUMPDEST PUSH0 PUSH1 0x20 DUP3 ADD SWAP1 POP DUP2 DUP2 SUB PUSH0 DUP4 ADD MSTORE PUSH3 0x21CA DUP2 PUSH3 0x218B JUMP JUMPDEST SWAP1 POP SWAP2 SWAP1 POP JUMP JUMPDEST PUSH32 0x456C656374696F6E20646F6573206E6F74206578697374000000000000000000 PUSH0 DUP3 ADD MSTORE POP JUMP JUMPDEST PUSH0 PUSH3 0x2207 PUSH1 0x17 DUP4 PUSH3 0x1CA4 JUMP JUMPDEST SWAP2 POP PUSH3 0x2214 DUP3 PUSH3 0x21D1 JUMP JUMPDEST PUSH1 0x20 DUP3 ADD SWAP1 POP SWAP2 SWAP1 POP JUMP JUMPDEST PUSH0 PUSH1 0x20 DUP3 ADD SWAP1 POP DUP2 DUP2 SUB PUSH0 DUP4 ADD MSTORE PUSH3 0x2238 DUP2 PUSH3 0x21F9 JUMP JUMPDEST SWAP1 POP SWAP2 SWAP1 POP JUMP JUMPDEST PUSH0 PUSH1 0x40 DUP3 ADD SWAP1 POP PUSH3 0x2254 PUSH0 DUP4 ADD DUP6 PUSH3 0x1D54 JUMP JUMPDEST DUP2 DUP2 SUB PUSH1 0x20 DUP4 ADD MSTORE PUSH3 0x2268 DUP2 DUP5 PUSH3 0x1973 JUMP JUMPDEST SWAP1 POP SWAP4 SWAP3 POP POP POP JUMP JUMPDEST PUSH32 0x4E487B7100000000000000000000000000000000000000000000000000000000 PUSH0 MSTORE PUSH1 0x11 PUSH1 0x4 MSTORE PUSH1 0x24 PUSH0 REVERT JUMPDEST PUSH0 PUSH3 0x22AA DUP3 PUSH3 0x143D JUMP JUMPDEST SWAP2 POP PUSH3 0x22B7 DUP4 PUSH3 0x143D JUMP JUMPDEST SWAP3 POP DUP3 DUP3 SUB SWAP1 POP DUP2 DUP2 GT ISZERO PUSH3 0x22D2 JUMPI PUSH3 0x22D1 PUSH3 0x2271 JUMP JUMPDEST JUMPDEST SWAP3 SWAP2 POP POP JUMP INVALID PUSH1 0x80 PUSH1 0x40 MSTORE CALLVALUE DUP1 ISZERO PUSH3 0x10 JUMPI PUSH0 DUP1 REVERT JUMPDEST POP PUSH1 0x40 MLOAD PUSH3 0x1A92 CODESIZE SUB DUP1 PUSH3 0x1A92 DUP4 CODECOPY DUP2 DUP2 ADD PUSH1 0x40 MSTORE DUP2 ADD SWAP1 PUSH3 0x36 SWAP2 SWAP1 PUSH3 0x531 JUMP JUMPDEST DUP2 PUSH0 DUP1 PUSH2 0x100 EXP DUP2 SLOAD DUP2 PUSH20 0xFFFFFFFFFFFFFFFFFFFFFFFFFFFFFFFFFFFFFFFF MUL NOT AND SWAP1 DUP4 PUSH20 0xFFFFFFFFFFFFFFFFFFFFFFFFFFFFFFFFFFFFFFFF AND MUL OR SWAP1 SSTORE POP TIMESTAMP PUSH1 0x1 DUP2 SWAP1 SSTORE POP DUP1 PUSH1 0x2 SWAP1 DUP1 MLOAD SWAP1 PUSH1 0x20 ADD SWAP1 PUSH3 0x94 SWAP3 SWAP2 SWAP1 PUSH3 0x16E JUMP JUMPDEST POP PUSH0 PUSH1 0x8 PUSH0 PUSH2 0x100 EXP DUP2 SLOAD DUP2 PUSH1 0xFF MUL NOT AND SWAP1 DUP4 ISZERO ISZERO MUL OR SWAP1 SSTORE POP PUSH0 JUMPDEST PUSH1 0x2 DUP1 SLOAD SWAP1 POP DUP2 LT ISZERO PUSH3 0x165 JUMPI PUSH0 PUSH1 0x4 PUSH1 0x2 DUP4 DUP2 SLOAD DUP2 LT PUSH3 0xD8 JUMPI PUSH3 0xD7 PUSH3 0x595 JUMP JUMPDEST JUMPDEST SWAP1 PUSH0 MSTORE PUSH1 0x20 PUSH0 KECCAK256 ADD PUSH1 0x40 MLOAD PUSH3 0xEF SWAP2 SWAP1 PUSH3 0x6CB JUMP JUMPDEST SWAP1 DUP2 MSTORE PUSH1 0x20 ADD PUSH1 0x40 MLOAD DUP1 SWAP2 SUB SWAP1 KECCAK256 DUP2 SWAP1 SSTORE POP PUSH1 0x1 PUSH1 0x6 PUSH1 0x2 DUP4 DUP2 SLOAD DUP2 LT PUSH3 0x11C JUMPI PUSH3 0x11B PUSH3 0x595 JUMP JUMPDEST JUMPDEST SWAP1 PUSH0 MSTORE PUSH1 0x20 PUSH0 KECCAK256 ADD PUSH1 0x40 MLOAD PUSH3 0x133 SWAP2 SWAP1 PUSH3 0x6CB JUMP JUMPDEST SWAP1 DUP2 MSTORE PUSH1 0x20 ADD PUSH1 0x40 MLOAD DUP1 SWAP2 SUB SWAP1 KECCAK256 PUSH0 PUSH2 0x100 EXP DUP2 SLOAD DUP2 PUSH1 0xFF MUL NOT AND SWAP1 DUP4 ISZERO ISZERO MUL OR SWAP1 SSTORE POP DUP1 DUP1 PUSH1 0x1 ADD SWAP2 POP POP PUSH3 0xB0 JUMP JUMPDEST POP POP POP PUSH3 0x98B JUMP JUMPDEST DUP3 DUP1 SLOAD DUP3 DUP3 SSTORE SWAP1 PUSH0 MSTORE PUSH1 0x20 PUSH0 KECCAK256 SWAP1 DUP2 ADD SWAP3 DUP3 ISZERO PUSH3 0x1B9 JUMPI SWAP2 PUSH1 0x20 MUL DUP3 ADD JUMPDEST DUP3 DUP2 GT ISZERO PUSH3 0x1B8 JUMPI DUP3 MLOAD DUP3 SWAP1 DUP2 PUSH3 0x1A7 SWAP2 SWAP1 PUSH3 0x8A7 JUMP JUMPDEST POP SWAP2 PUSH1 0x20 ADD SWAP2 SWAP1 PUSH1 0x1 ADD SWAP1 PUSH3 0x18D JUMP JUMPDEST JUMPDEST POP SWAP1 POP PUSH3 0x1C8 SWAP2 SWAP1 PUSH3 0x1CC JUMP JUMPDEST POP SWAP1 JUMP JUMPDEST JUMPDEST DUP1 DUP3 GT ISZERO PUSH3 0x1EF JUMPI PUSH0 DUP2 DUP2 PUSH3 0x1E5 SWAP2 SWAP1 PUSH3 0x1F3 JUMP JUMPDEST POP PUSH1 0x1 ADD PUSH3 0x1CD JUMP JUMPDEST POP SWAP1 JUMP JUMPDEST POP DUP1 SLOAD PUSH3 0x201 SWAP1 PUSH3 0x5EF JUMP JUMPDEST PUSH0 DUP3 SSTORE DUP1 PUSH1 0x1F LT PUSH3 0x214 JUMPI POP PUSH3 0x233 JUMP JUMPDEST PUSH1 0x1F ADD PUSH1 0x20 SWAP1 DIV SWAP1 PUSH0 MSTORE PUSH1 0x20 PUSH0 KECCAK256 SWAP1 DUP2 ADD SWAP1 PUSH3 0x232 SWAP2 SWAP1 PUSH3 0x236 JUMP JUMPDEST JUMPDEST POP JUMP JUMPDEST JUMPDEST DUP1 DUP3 GT ISZERO PUSH3 0x24F JUMPI PUSH0 DUP2 PUSH0 SWAP1 SSTORE POP PUSH1 0x1 ADD PUSH3 0x237 JUMP JUMPDEST POP SWAP1 JUMP JUMPDEST PUSH0 PUSH1 0x40 MLOAD SWAP1 POP SWAP1 JUMP JUMPDEST PUSH0 DUP1 REVERT JUMPDEST PUSH0 DUP1 REVERT JUMPDEST PUSH0 PUSH20 0xFFFFFFFFFFFFFFFFFFFFFFFFFFFFFFFFFFFFFFFF DUP3 AND SWAP1 POP SWAP2 SWAP1 POP JUMP JUMPDEST PUSH0 PUSH3 0x28F DUP3 PUSH3 0x264 JUMP JUMPDEST SWAP1 POP SWAP2 SWAP1 POP JUMP JUMPDEST PUSH3 0x2A1 DUP2 PUSH3 0x283 JUMP JUMPDEST DUP2 EQ PUSH3 0x2AC JUMPI PUSH0 DUP1 REVERT JUMPDEST POP JUMP JUMPDEST PUSH0 DUP2 MLOAD SWAP1 POP PUSH3 0x2BF DUP2 PUSH3 0x296 JUMP JUMPDEST SWAP3 SWAP2 POP POP JUMP JUMPDEST PUSH0 DUP1 REVERT JUMPDEST PUSH0 PUSH1 0x1F NOT PUSH1 0x1F DUP4 ADD AND SWAP1 POP SWAP2 SWAP1 POP JUMP JUMPDEST PUSH32 0x4E487B7100000000000000000000000000000000000000000000000000000000 PUSH0 MSTORE PUSH1 0x41 PUSH1 0x4 MSTORE PUSH1 0x24 PUSH0 REVERT JUMPDEST PUSH3 0x311 DUP3 PUSH3 0x2C9 JUMP JUMPDEST DUP2 ADD DUP2 DUP2 LT PUSH8 0xFFFFFFFFFFFFFFFF DUP3 GT OR ISZERO PUSH3 0x333 JUMPI PUSH3 0x332 PUSH3 0x2D9 JUMP JUMPDEST JUMPDEST DUP1 PUSH1 0x40 MSTORE POP POP POP JUMP JUMPDEST PUSH0 PUSH3 0x347 PUSH3 0x253 JUMP JUMPDEST SWAP1 POP PUSH3 0x355 DUP3 DUP3 PUSH3 0x306 JUMP JUMPDEST SWAP2 SWAP1 POP JUMP JUMPDEST PUSH0 PUSH8 0xFFFFFFFFFFFFFFFF DUP3 GT ISZERO PUSH3 0x377 JUMPI PUSH3 0x376 PUSH3 0x2D9 JUMP JUMPDEST JUMPDEST PUSH1 0x20 DUP3 MUL SWAP1 POP PUSH1 0x20 DUP2 ADD SWAP1 POP SWAP2 SWAP1 POP JUMP JUMPDEST PUSH0 DUP1 REVERT JUMPDEST PUSH0 DUP1 REVERT JUMPDEST PUSH0 PUSH8 0xFFFFFFFFFFFFFFFF DUP3 GT ISZERO PUSH3 0x3AD JUMPI PUSH3 0x3AC PUSH3 0x2D9 JUMP JUMPDEST JUMPDEST PUSH3 0x3B8 DUP3 PUSH3 0x2C9 JUMP JUMPDEST SWAP1 POP PUSH1 0x20 DUP2 ADD SWAP1 POP SWAP2 SWAP1 POP JUMP JUMPDEST PUSH0 JUMPDEST DUP4 DUP2 LT ISZERO PUSH3 0x3E4 JUMPI DUP1 DUP3 ADD MLOAD DUP2 DUP5 ADD MSTORE PUSH1 0x20 DUP2 ADD SWAP1 POP PUSH3 0x3C7 JUMP JUMPDEST PUSH0 DUP5 DUP5 ADD MSTORE POP POP POP POP JUMP JUMPDEST PUSH0 PUSH3 0x405 PUSH3 0x3FF DUP5 PUSH3 0x390 JUMP JUMPDEST PUSH3 0x33C JUMP JUMPDEST SWAP1 POP DUP3 DUP2 MSTORE PUSH1 0x20 DUP2 ADD DUP5 DUP5 DUP5 ADD GT ISZERO PUSH3 0x424 JUMPI PUSH3 0x423 PUSH3 0x38C JUMP JUMPDEST JUMPDEST PUSH3 0x431 DUP5 DUP3 DUP6 PUSH3 0x3C5 JUMP JUMPDEST POP SWAP4 SWAP3 POP POP POP JUMP JUMPDEST PUSH0 DUP3 PUSH1 0x1F DUP4 ADD SLT PUSH3 0x450 JUMPI PUSH3 0x44F PUSH3 0x2C5 JUMP JUMPDEST JUMPDEST DUP2 MLOAD PUSH3 0x462 DUP5 DUP3 PUSH1 0x20 DUP7 ADD PUSH3 0x3EF JUMP JUMPDEST SWAP2 POP POP SWAP3 SWAP2 POP POP JUMP JUMPDEST PUSH0 PUSH3 0x481 PUSH3 0x47B DUP5 PUSH3 0x35A JUMP JUMPDEST PUSH3 0x33C JUMP JUMPDEST SWAP1 POP DUP1 DUP4 DUP3 MSTORE PUSH1 0x20 DUP3 ADD SWAP1 POP PUSH1 0x20 DUP5 MUL DUP4 ADD DUP6 DUP2 GT ISZERO PUSH3 0x4A7 JUMPI PUSH3 0x4A6 PUSH3 0x388 JUMP JUMPDEST JUMPDEST DUP4 JUMPDEST DUP2 DUP2 LT ISZERO PUSH3 0x4F5 JUMPI DUP1 MLOAD PUSH8 0xFFFFFFFFFFFFFFFF DUP2 GT ISZERO PUSH3 0x4D0 JUMPI PUSH3 0x4CF PUSH3 0x2C5 JUMP JUMPDEST JUMPDEST DUP1 DUP7 ADD PUSH3 0x4DF DUP10 DUP3 PUSH3 0x439 JUMP JUMPDEST DUP6 MSTORE PUSH1 0x20 DUP6 ADD SWAP5 POP POP POP PUSH1 0x20 DUP2 ADD SWAP1 POP PUSH3 0x4A9 JUMP JUMPDEST POP POP POP SWAP4 SWAP3 POP POP POP JUMP JUMPDEST PUSH0 DUP3 PUSH1 0x1F DUP4 ADD SLT PUSH3 0x516 JUMPI PUSH3 0x515 PUSH3 0x2C5 JUMP JUMPDEST JUMPDEST DUP2 MLOAD PUSH3 0x528 DUP5 DUP3 PUSH1 0x20 DUP7 ADD PUSH3 0x46B JUMP JUMPDEST SWAP2 POP POP SWAP3 SWAP2 POP POP JUMP JUMPDEST PUSH0 DUP1 PUSH1 0x40 DUP4 DUP6 SUB SLT ISZERO PUSH3 0x54A JUMPI PUSH3 0x549 PUSH3 0x25C JUMP JUMPDEST JUMPDEST PUSH0 PUSH3 0x559 DUP6 DUP3 DUP7 ADD PUSH3 0x2AF JUMP JUMPDEST SWAP3 POP POP PUSH1 0x20 DUP4 ADD MLOAD PUSH8 0xFFFFFFFFFFFFFFFF DUP2 GT ISZERO PUSH3 0x57D JUMPI PUSH3 0x57C PUSH3 0x260 JUMP JUMPDEST JUMPDEST PUSH3 0x58B DUP6 DUP3 DUP7 ADD PUSH3 0x4FF JUMP JUMPDEST SWAP2 POP POP SWAP3 POP SWAP3 SWAP1 POP JUMP JUMPDEST PUSH32 0x4E487B7100000000000000000000000000000000000000000000000000000000 PUSH0 MSTORE PUSH1 0x32 PUSH1 0x4 MSTORE PUSH1 0x24 PUSH0 REVERT JUMPDEST PUSH32 0x4E487B7100000000000000000000000000000000000000000000000000000000 PUSH0 MSTORE PUSH1 0x22 PUSH1 0x4 MSTORE PUSH1 0x24 PUSH0 REVERT JUMPDEST PUSH0 PUSH1 0x2 DUP3 DIV SWAP1 POP PUSH1 0x1 DUP3 AND DUP1 PUSH3 0x607 JUMPI PUSH1 0x7F DUP3 AND SWAP2 POP JUMPDEST PUSH1 0x20 DUP3 LT DUP2 SUB PUSH3 0x61D JUMPI PUSH3 0x61C PUSH3 0x5C2 JUMP JUMPDEST JUMPDEST POP SWAP2 SWAP1 POP JUMP JUMPDEST PUSH0 DUP2 SWAP1 POP SWAP3 SWAP2 POP POP JUMP JUMPDEST PUSH0 DUP2 SWAP1 POP DUP2 PUSH0 MSTORE PUSH1 0x20 PUSH0 KECCAK256 SWAP1 POP SWAP2 SWAP1 POP JUMP JUMPDEST PUSH0 DUP2 SLOAD PUSH3 0x64D DUP2 PUSH3 0x5EF JUMP JUMPDEST PUSH3 0x659 DUP2 DUP7 PUSH3 0x623 JUMP JUMPDEST SWAP5 POP PUSH1 0x1 DUP3 AND PUSH0 DUP2 EQ PUSH3 0x676 JUMPI PUSH1 0x1 DUP2 EQ PUSH3 0x68C JUMPI PUSH3 0x6C2 JUMP JUMPDEST PUSH1 0xFF NOT DUP4 AND DUP7 MSTORE DUP2 ISZERO ISZERO DUP3 MUL DUP7 ADD SWAP4 POP PUSH3 0x6C2 JUMP JUMPDEST PUSH3 0x697 DUP6 PUSH3 0x62D JUMP JUMPDEST PUSH0 JUMPDEST DUP4 DUP2 LT ISZERO PUSH3 0x6BA JUMPI DUP2 SLOAD DUP2 DUP10 ADD MSTORE PUSH1 0x1 DUP3 ADD SWAP2 POP PUSH1 0x20 DUP2 ADD SWAP1 POP PUSH3 0x699 JUMP JUMPDEST DUP4 DUP9 ADD SWAP6 POP POP POP JUMPDEST POP POP POP SWAP3 SWAP2 POP POP JUMP JUMPDEST PUSH0 PUSH3 0x6D8 DUP3 DUP5 PUSH3 0x63F JUMP JUMPDEST SWAP2 POP DUP2 SWAP1 POP SWAP3 SWAP2 POP POP JUMP JUMPDEST PUSH0 DUP2 MLOAD SWAP1 POP SWAP2 SWAP1 POP JUMP JUMPDEST PUSH0 PUSH1 0x20 PUSH1 0x1F DUP4 ADD DIV SWAP1 POP SWAP2 SWAP1 POP JUMP JUMPDEST PUSH0 DUP3 DUP3 SHL SWAP1 POP SWAP3 SWAP2 POP POP JUMP JUMPDEST PUSH0 PUSH1 0x8 DUP4 MUL PUSH3 0x739 PUSH32 0xFFFFFFFFFFFFFFFFFFFFFFFFFFFFFFFFFFFFFFFFFFFFFFFFFFFFFFFFFFFFFFFF DUP3 PUSH3 0x6FC JUMP JUMPDEST PUSH3 0x745 DUP7 DUP4 PUSH3 0x6FC JUMP JUMPDEST SWAP6 POP DUP1 NOT DUP5 AND SWAP4 POP DUP1 DUP7 AND DUP5 OR SWAP3 POP POP POP SWAP4 SWAP3 POP POP POP JUMP JUMPDEST PUSH0 DUP2 SWAP1 POP SWAP2 SWAP1 POP JUMP JUMPDEST PUSH0 DUP2 SWAP1 POP SWAP2 SWAP1 POP JUMP JUMPDEST PUSH0 PUSH3 0x78F PUSH3 0x789 PUSH3 0x783 DUP5 PUSH3 0x75D JUMP JUMPDEST PUSH3 0x766 JUMP JUMPDEST PUSH3 0x75D JUMP JUMPDEST SWAP1 POP SWAP2 SWAP1 POP JUMP JUMPDEST PUSH0 DUP2 SWAP1 POP SWAP2 SWAP1 POP JUMP JUMPDEST PUSH3 0x7AA DUP4 PUSH3 0x76F JUMP JUMPDEST PUSH3 0x7C2 PUSH3 0x7B9 DUP3 PUSH3 0x796 JUMP JUMPDEST DUP5 DUP5 SLOAD PUSH3 0x708 JUMP JUMPDEST DUP3 SSTORE POP POP POP POP JUMP JUMPDEST PUSH0 SWAP1 JUMP JUMPDEST PUSH3 0x7D8 PUSH3 0x7CA JUMP JUMPDEST PUSH3 0x7E5 DUP2 DUP5 DUP5 PUSH3 0x79F JUMP JUMPDEST POP POP POP JUMP JUMPDEST JUMPDEST DUP2 DUP2 LT ISZERO PUSH3 0x80C JUMPI PUSH3 0x800 PUSH0 DUP3 PUSH3 0x7CE JUMP JUMPDEST PUSH1 0x1 DUP2 ADD SWAP1 POP PUSH3 0x7EB JUMP JUMPDEST POP POP JUMP JUMPDEST PUSH1 0x1F DUP3 GT ISZERO PUSH3 0x85B JUMPI PUSH3 0x825 DUP2 PUSH3 0x62D JUMP JUMPDEST PUSH3 0x830 DUP5 PUSH3 0x6ED JUMP JUMPDEST DUP2 ADD PUSH1 0x20 DUP6 LT ISZERO PUSH3 0x840 JUMPI DUP2 SWAP1 POP JUMPDEST PUSH3 0x858 PUSH3 0x84F DUP6 PUSH3 0x6ED JUMP JUMPDEST DUP4 ADD DUP3 PUSH3 0x7EA JUMP JUMPDEST POP POP JUMPDEST POP POP POP JUMP JUMPDEST PUSH0 DUP3 DUP3 SHR SWAP1 POP SWAP3 SWAP2 POP POP JUMP JUMPDEST PUSH0 PUSH3 0x87D PUSH0 NOT DUP5 PUSH1 0x8 MUL PUSH3 0x860 JUMP JUMPDEST NOT DUP1 DUP4 AND SWAP2 POP POP SWAP3 SWAP2 POP POP JUMP JUMPDEST PUSH0 PUSH3 0x897 DUP4 DUP4 PUSH3 0x86C JUMP JUMPDEST SWAP2 POP DUP3 PUSH1 0x2 MUL DUP3 OR SWAP1 POP SWAP3 SWAP2 POP POP JUMP JUMPDEST PUSH3 0x8B2 DUP3 PUSH3 0x6E3 JUMP JUMPDEST PUSH8 0xFFFFFFFFFFFFFFFF DUP2 GT ISZERO PUSH3 0x8CE JUMPI PUSH3 0x8CD PUSH3 0x2D9 JUMP JUMPDEST JUMPDEST PUSH3 0x8DA DUP3 SLOAD PUSH3 0x5EF JUMP JUMPDEST PUSH3 0x8E7 DUP3 DUP3 DUP6 PUSH3 0x810 JUMP JUMPDEST PUSH0 PUSH1 0x20 SWAP1 POP PUSH1 0x1F DUP4 GT PUSH1 0x1 DUP2 EQ PUSH3 0x91D JUMPI PUSH0 DUP5 ISZERO PUSH3 0x908 JUMPI DUP3 DUP8 ADD MLOAD SWAP1 POP JUMPDEST PUSH3 0x914 DUP6 DUP3 PUSH3 0x88A JUMP JUMPDEST DUP7 SSTORE POP PUSH3 0x983 JUMP JUMPDEST PUSH1 0x1F NOT DUP5 AND PUSH3 0x92D DUP7 PUSH3 0x62D JUMP JUMPDEST PUSH0 JUMPDEST DUP3 DUP2 LT ISZERO PUSH3 0x956 JUMPI DUP5 DUP10 ADD MLOAD DUP3 SSTORE PUSH1 0x1 DUP3 ADD SWAP2 POP PUSH1 0x20 DUP6 ADD SWAP5 POP PUSH1 0x20 DUP2 ADD SWAP1 POP PUSH3 0x92F JUMP JUMPDEST DUP7 DUP4 LT ISZERO PUSH3 0x976 JUMPI DUP5 DUP10 ADD MLOAD PUSH3 0x972 PUSH1 0x1F DUP10 AND DUP3 PUSH3 0x86C JUMP JUMPDEST DUP4 SSTORE POP JUMPDEST PUSH1 0x1 PUSH1 0x2 DUP9 MUL ADD DUP9 SSTORE POP POP POP JUMPDEST POP POP POP POP POP POP JUMP JUMPDEST PUSH2 0x10F9 DUP1 PUSH3 0x999 PUSH0 CODECOPY PUSH0 RETURN INVALID PUSH1 0x80 PUSH1 0x40 MSTORE CALLVALUE DUP1 ISZERO PUSH2 0xF JUMPI PUSH0 DUP1 REVERT JUMPDEST POP PUSH1 0x4 CALLDATASIZE LT PUSH2 0x7B JUMPI PUSH0 CALLDATALOAD PUSH1 0xE0 SHR DUP1 PUSH4 0x59F78468 GT PUSH2 0x59 JUMPI DUP1 PUSH4 0x59F78468 EQ PUSH2 0xD9 JUMPI DUP1 PUSH4 0x893D20E8 EQ PUSH2 0xE3 JUMPI DUP1 PUSH4 0xE00939A6 EQ PUSH2 0x101 JUMPI DUP1 PUSH4 0xE7B3387C EQ PUSH2 0x11D JUMPI PUSH2 0x7B JUMP JUMPDEST DUP1 PUSH4 0x6A49FCE EQ PUSH2 0x7F JUMPI DUP1 PUSH4 0x122902A6 EQ PUSH2 0x9D JUMPI DUP1 PUSH4 0x188EC356 EQ PUSH2 0xBB JUMPI JUMPDEST PUSH0 DUP1 REVERT JUMPDEST PUSH2 0x87 PUSH2 0x13C JUMP JUMPDEST PUSH1 0x40 MLOAD PUSH2 0x94 SWAP2 SWAP1 PUSH2 0x84B JUMP JUMPDEST PUSH1 0x40 MLOAD DUP1 SWAP2 SUB SWAP1 RETURN JUMPDEST PUSH2 0xA5 PUSH2 0x210 JUMP JUMPDEST PUSH1 0x40 MLOAD PUSH2 0xB2 SWAP2 SWAP1 PUSH2 0x885 JUMP JUMPDEST PUSH1 0x40 MLOAD DUP1 SWAP2 SUB SWAP1 RETURN JUMPDEST PUSH2 0xC3 PUSH2 0x225 JUMP JUMPDEST PUSH1 0x40 MLOAD PUSH2 0xD0 SWAP2 SWAP1 PUSH2 0x8B6 JUMP JUMPDEST PUSH1 0x40 MLOAD DUP1 SWAP2 SUB SWAP1 RETURN JUMPDEST PUSH2 0xE1 PUSH2 0x22E JUMP JUMPDEST STOP JUMPDEST PUSH2 0xEB PUSH2 0x24A JUMP JUMPDEST PUSH1 0x40 MLOAD PUSH2 0xF8 SWAP2 SWAP1 PUSH2 0x90E JUMP JUMPDEST PUSH1 0x40 MLOAD DUP1 SWAP2 SUB SWAP1 RETURN JUMPDEST PUSH2 0x11B PUSH1 0x4 DUP1 CALLDATASIZE SUB DUP2 ADD SWAP1 PUSH2 0x116 SWAP2 SWAP1 PUSH2 0xA8E JUMP JUMPDEST PUSH2 0x271 JUMP JUMPDEST STOP JUMPDEST PUSH2 0x125 PUSH2 0x562 JUMP JUMPDEST PUSH1 0x40 MLOAD PUSH2 0x133 SWAP3 SWAP2 SWAP1 PUSH2 0xB9F JUMP JUMPDEST PUSH1 0x40 MLOAD DUP1 SWAP2 SUB SWAP1 RETURN JUMPDEST PUSH1 0x60 PUSH1 0x2 DUP1 SLOAD DUP1 PUSH1 0x20 MUL PUSH1 0x20 ADD PUSH1 0x40 MLOAD SWAP1 DUP2 ADD PUSH1 0x40 MSTORE DUP1 SWAP3 SWAP2 SWAP1 DUP2 DUP2 MSTORE PUSH1 0x20 ADD PUSH0 SWAP1 JUMPDEST DUP3 DUP3 LT ISZERO PUSH2 0x207 JUMPI DUP4 DUP3 SWAP1 PUSH0 MSTORE PUSH1 0x20 PUSH0 KECCAK256 ADD DUP1 SLOAD PUSH2 0x17C SWAP1 PUSH2 0xC01 JUMP JUMPDEST DUP1 PUSH1 0x1F ADD PUSH1 0x20 DUP1 SWAP2 DIV MUL PUSH1 0x20 ADD PUSH1 0x40 MLOAD SWAP1 DUP2 ADD PUSH1 0x40 MSTORE DUP1 SWAP3 SWAP2 SWAP1 DUP2 DUP2 MSTORE PUSH1 0x20 ADD DUP3 DUP1 SLOAD PUSH2 0x1A8 SWAP1 PUSH2 0xC01 JUMP JUMPDEST DUP1 ISZERO PUSH2 0x1F3 JUMPI DUP1 PUSH1 0x1F LT PUSH2 0x1CA JUMPI PUSH2 0x100 DUP1 DUP4 SLOAD DIV MUL DUP4 MSTORE SWAP2 PUSH1 0x20 ADD SWAP2 PUSH2 0x1F3 JUMP JUMPDEST DUP3 ADD SWAP2 SWAP1 PUSH0 MSTORE PUSH1 0x20 PUSH0 KECCAK256 SWAP1 JUMPDEST DUP2 SLOAD DUP2 MSTORE SWAP1 PUSH1 0x1 ADD SWAP1 PUSH1 0x20 ADD DUP1 DUP4 GT PUSH2 0x1D6 JUMPI DUP3 SWAP1 SUB PUSH1 0x1F AND DUP3 ADD SWAP2 JUMPDEST POP POP POP POP POP DUP2 MSTORE PUSH1 0x20 ADD SWAP1 PUSH1 0x1 ADD SWAP1 PUSH2 0x15F JUMP JUMPDEST POP POP POP POP SWAP1 POP SWAP1 JUMP JUMPDEST PUSH0 PUSH1 0x8 PUSH0 SWAP1 SLOAD SWAP1 PUSH2 0x100 EXP SWAP1 DIV PUSH1 0xFF AND SWAP1 POP SWAP1 JUMP JUMPDEST PUSH0 PUSH1 0x1 SLOAD SWAP1 POP SWAP1 JUMP JUMPDEST PUSH1 0x1 PUSH1 0x8 PUSH0 PUSH2 0x100 EXP DUP2 SLOAD DUP2 PUSH1 0xFF MUL NOT AND SWAP1 DUP4 ISZERO ISZERO MUL OR SWAP1 SSTORE POP JUMP JUMPDEST PUSH0 DUP1 PUSH0 SWAP1 SLOAD SWAP1 PUSH2 0x100 EXP SWAP1 DIV PUSH20 0xFFFFFFFFFFFFFFFFFFFFFFFFFFFFFFFFFFFFFFFF AND SWAP1 POP SWAP1 JUMP JUMPDEST PUSH1 0x6 DUP2 PUSH1 0x40 MLOAD PUSH2 0x281 SWAP2 SWAP1 PUSH2 0xC6B JUMP JUMPDEST SWAP1 DUP2 MSTORE PUSH1 0x20 ADD PUSH1 0x40 MLOAD DUP1 SWAP2 SUB SWAP1 KECCAK256 PUSH0 SWAP1 SLOAD SWAP1 PUSH2 0x100 EXP SWAP1 DIV PUSH1 0xFF AND PUSH2 0x2DB JUMPI PUSH1 0x40 MLOAD PUSH32 0x8C379A000000000000000000000000000000000000000000000000000000000 DUP2 MSTORE PUSH1 0x4 ADD PUSH2 0x2D2 SWAP1 PUSH2 0xCDB JUMP JUMPDEST PUSH1 0x40 MLOAD DUP1 SWAP2 SUB SWAP1 REVERT JUMPDEST PUSH1 0x7 PUSH0 DUP4 PUSH20 0xFFFFFFFFFFFFFFFFFFFFFFFFFFFFFFFFFFFFFFFF AND PUSH20 0xFFFFFFFFFFFFFFFFFFFFFFFFFFFFFFFFFFFFFFFF AND DUP2 MSTORE PUSH1 0x20 ADD SWAP1 DUP2 MSTORE PUSH1 0x20 ADD PUSH0 KECCAK256 PUSH0 SWAP1 SLOAD SWAP1 PUSH2 0x100 EXP SWAP1 DIV PUSH1 0xFF AND ISZERO PUSH2 0x42A JUMPI PUSH0 PUSH1 0x5 PUSH0 DUP5 PUSH20 0xFFFFFFFFFFFFFFFFFFFFFFFFFFFFFFFFFFFFFFFF AND PUSH20 0xFFFFFFFFFFFFFFFFFFFFFFFFFFFFFFFFFFFFFFFF AND DUP2 MSTORE PUSH1 0x20 ADD SWAP1 DUP2 MSTORE PUSH1 0x20 ADD PUSH0 KECCAK256 DUP1 SLOAD PUSH2 0x373 SWAP1 PUSH2 0xC01 JUMP JUMPDEST DUP1 PUSH1 0x1F ADD PUSH1 0x20 DUP1 SWAP2 DIV MUL PUSH1 0x20 ADD PUSH1 0x40 MLOAD SWAP1 DUP2 ADD PUSH1 0x40 MSTORE DUP1 SWAP3 SWAP2 SWAP1 DUP2 DUP2 MSTORE PUSH1 0x20 ADD DUP3 DUP1 SLOAD PUSH2 0x39F SWAP1 PUSH2 0xC01 JUMP JUMPDEST DUP1 ISZERO PUSH2 0x3EA JUMPI DUP1 PUSH1 0x1F LT PUSH2 0x3C1 JUMPI PUSH2 0x100 DUP1 DUP4 SLOAD DIV MUL DUP4 MSTORE SWAP2 PUSH1 0x20 ADD SWAP2 PUSH2 0x3EA JUMP JUMPDEST DUP3 ADD SWAP2 SWAP1 PUSH0 MSTORE PUSH1 0x20 PUSH0 KECCAK256 SWAP1 JUMPDEST DUP2 SLOAD DUP2 MSTORE SWAP1 PUSH1 0x1 ADD SWAP1 PUSH1 0x20 ADD DUP1 DUP4 GT PUSH2 0x3CD JUMPI DUP3 SWAP1 SUB PUSH1 0x1F AND DUP3 ADD SWAP2 JUMPDEST POP POP POP POP POP SWAP1 POP PUSH1 0x4 DUP2 PUSH1 0x40 MLOAD PUSH2 0x401 SWAP2 SWAP1 PUSH2 0xC6B JUMP JUMPDEST SWAP1 DUP2 MSTORE PUSH1 0x20 ADD PUSH1 0x40 MLOAD DUP1 SWAP2 SUB SWAP1 KECCAK256 PUSH0 DUP2 SLOAD DUP1 SWAP3 SWAP2 SWAP1 PUSH2 0x41F SWAP1 PUSH2 0xD26 JUMP JUMPDEST SWAP2 SWAP1 POP SSTORE POP POP PUSH2 0x4E0 JUMP JUMPDEST PUSH1 0x3 DUP3 SWAP1 DUP1 PUSH1 0x1 DUP2 SLOAD ADD DUP1 DUP3 SSTORE DUP1 SWAP2 POP POP PUSH1 0x1 SWAP1 SUB SWAP1 PUSH0 MSTORE PUSH1 0x20 PUSH0 KECCAK256 ADD PUSH0 SWAP1 SWAP2 SWAP1 SWAP2 SWAP1 SWAP2 PUSH2 0x100 EXP DUP2 SLOAD DUP2 PUSH20 0xFFFFFFFFFFFFFFFFFFFFFFFFFFFFFFFFFFFFFFFF MUL NOT AND SWAP1 DUP4 PUSH20 0xFFFFFFFFFFFFFFFFFFFFFFFFFFFFFFFFFFFFFFFF AND MUL OR SWAP1 SSTORE POP PUSH1 0x1 PUSH1 0x7 PUSH0 DUP5 PUSH20 0xFFFFFFFFFFFFFFFFFFFFFFFFFFFFFFFFFFFFFFFF AND PUSH20 0xFFFFFFFFFFFFFFFFFFFFFFFFFFFFFFFFFFFFFFFF AND DUP2 MSTORE PUSH1 0x20 ADD SWAP1 DUP2 MSTORE PUSH1 0x20 ADD PUSH0 KECCAK256 PUSH0 PUSH2 0x100 EXP DUP2 SLOAD DUP2 PUSH1 0xFF MUL NOT AND SWAP1 DUP4 ISZERO ISZERO MUL OR SWAP1 SSTORE POP JUMPDEST PUSH1 0x4 DUP2 PUSH1 0x40 MLOAD PUSH2 0x4F0 SWAP2 SWAP1 PUSH2 0xC6B JUMP JUMPDEST SWAP1 DUP2 MSTORE PUSH1 0x20 ADD PUSH1 0x40 MLOAD DUP1 SWAP2 SUB SWAP1 KECCAK256 PUSH0 DUP2 SLOAD DUP1 SWAP3 SWAP2 SWAP1 PUSH2 0x50E SWAP1 PUSH2 0xD4D JUMP JUMPDEST SWAP2 SWAP1 POP SSTORE POP DUP1 PUSH1 0x5 PUSH0 DUP5 PUSH20 0xFFFFFFFFFFFFFFFFFFFFFFFFFFFFFFFFFFFFFFFF AND PUSH20 0xFFFFFFFFFFFFFFFFFFFFFFFFFFFFFFFFFFFFFFFF AND DUP2 MSTORE PUSH1 0x20 ADD SWAP1 DUP2 MSTORE PUSH1 0x20 ADD PUSH0 KECCAK256 SWAP1 DUP2 PUSH2 0x55D SWAP2 SWAP1 PUSH2 0xF31 JUMP JUMPDEST POP POP POP JUMP JUMPDEST PUSH1 0x60 DUP1 PUSH0 PUSH1 0x2 DUP1 SLOAD SWAP1 POP PUSH8 0xFFFFFFFFFFFFFFFF DUP2 GT ISZERO PUSH2 0x585 JUMPI PUSH2 0x584 PUSH2 0x96A JUMP JUMPDEST JUMPDEST PUSH1 0x40 MLOAD SWAP1 DUP1 DUP3 MSTORE DUP1 PUSH1 0x20 MUL PUSH1 0x20 ADD DUP3 ADD PUSH1 0x40 MSTORE DUP1 ISZERO PUSH2 0x5B3 JUMPI DUP2 PUSH1 0x20 ADD PUSH1 0x20 DUP3 MUL DUP1 CALLDATASIZE DUP4 CALLDATACOPY DUP1 DUP3 ADD SWAP2 POP POP SWAP1 POP JUMPDEST POP SWAP1 POP PUSH0 JUMPDEST PUSH1 0x2 DUP1 SLOAD SWAP1 POP DUP2 LT ISZERO PUSH2 0x62B JUMPI PUSH1 0x4 PUSH1 0x2 DUP3 DUP2 SLOAD DUP2 LT PUSH2 0x5DB JUMPI PUSH2 0x5DA PUSH2 0x1000 JUMP JUMPDEST JUMPDEST SWAP1 PUSH0 MSTORE PUSH1 0x20 PUSH0 KECCAK256 ADD PUSH1 0x40 MLOAD PUSH2 0x5F0 SWAP2 SWAP1 PUSH2 0x10AD JUMP JUMPDEST SWAP1 DUP2 MSTORE PUSH1 0x20 ADD PUSH1 0x40 MLOAD DUP1 SWAP2 SUB SWAP1 KECCAK256 SLOAD DUP3 DUP3 DUP2 MLOAD DUP2 LT PUSH2 0x612 JUMPI PUSH2 0x611 PUSH2 0x1000 JUMP JUMPDEST JUMPDEST PUSH1 0x20 MUL PUSH1 0x20 ADD ADD DUP2 DUP2 MSTORE POP POP DUP1 DUP1 PUSH1 0x1 ADD SWAP2 POP POP PUSH2 0x5B8 JUMP JUMPDEST POP PUSH1 0x2 DUP2 DUP2 DUP1 SLOAD DUP1 PUSH1 0x20 MUL PUSH1 0x20 ADD PUSH1 0x40 MLOAD SWAP1 DUP2 ADD PUSH1 0x40 MSTORE DUP1 SWAP3 SWAP2 SWAP1 DUP2 DUP2 MSTORE PUSH1 0x20 ADD PUSH0 SWAP1 JUMPDEST DUP3 DUP3 LT ISZERO PUSH2 0x6F7 JUMPI DUP4 DUP3 SWAP1 PUSH0 MSTORE PUSH1 0x20 PUSH0 KECCAK256 ADD DUP1 SLOAD PUSH2 0x66C SWAP1 PUSH2 0xC01 JUMP JUMPDEST DUP1 PUSH1 0x1F ADD PUSH1 0x20 DUP1 SWAP2 DIV MUL PUSH1 0x20 ADD PUSH1 0x40 MLOAD SWAP1 DUP2 ADD PUSH1 0x40 MSTORE DUP1 SWAP3 SWAP2 SWAP1 DUP2 DUP2 MSTORE PUSH1 0x20 ADD DUP3 DUP1 SLOAD PUSH2 0x698 SWAP1 PUSH2 0xC01 JUMP JUMPDEST DUP1 ISZERO PUSH2 0x6E3 JUMPI DUP1 PUSH1 0x1F LT PUSH2 0x6BA JUMPI PUSH2 0x100 DUP1 DUP4 SLOAD DIV MUL DUP4 MSTORE SWAP2 PUSH1 0x20 ADD SWAP2 PUSH2 0x6E3 JUMP JUMPDEST DUP3 ADD SWAP2 SWAP1 PUSH0 MSTORE PUSH1 0x20 PUSH0 KECCAK256 SWAP1 JUMPDEST DUP2 SLOAD DUP2 MSTORE SWAP1 PUSH1 0x1 ADD SWAP1 PUSH1 0x20 ADD DUP1 DUP4 GT PUSH2 0x6C6 JUMPI DUP3 SWAP1 SUB PUSH1 0x1F AND DUP3 ADD SWAP2 JUMPDEST POP POP POP POP POP DUP2 MSTORE PUSH1 0x20 ADD SWAP1 PUSH1 0x1 ADD SWAP1 PUSH2 0x64F JUMP JUMPDEST POP POP POP POP SWAP2 POP SWAP3 POP SWAP3 POP POP SWAP1 SWAP2 JUMP JUMPDEST PUSH0 DUP2 MLOAD SWAP1 POP SWAP2 SWAP1 POP JUMP JUMPDEST PUSH0 DUP3 DUP3 MSTORE PUSH1 0x20 DUP3 ADD SWAP1 POP SWAP3 SWAP2 POP POP JUMP JUMPDEST PUSH0 DUP2 SWAP1 POP PUSH1 0x20 DUP3 ADD SWAP1 POP SWAP2 SWAP1 POP JUMP JUMPDEST PUSH0 DUP2 MLOAD SWAP1 POP SWAP2 SWAP1 POP JUMP JUMPDEST PUSH0 DUP3 DUP3 MSTORE PUSH1 0x20 DUP3 ADD SWAP1 POP SWAP3 SWAP2 POP POP JUMP JUMPDEST PUSH0 JUMPDEST DUP4 DUP2 LT ISZERO PUSH2 0x766 JUMPI DUP1 DUP3 ADD MLOAD DUP2 DUP5 ADD MSTORE PUSH1 0x20 DUP2 ADD SWAP1 POP PUSH2 0x74B JUMP JUMPDEST PUSH0 DUP5 DUP5 ADD MSTORE POP POP POP POP JUMP JUMPDEST PUSH0 PUSH1 0x1F NOT PUSH1 0x1F DUP4 ADD AND SWAP1 POP SWAP2 SWAP1 POP JUMP JUMPDEST PUSH0 PUSH2 0x78B DUP3 PUSH2 0x72F JUMP JUMPDEST PUSH2 0x795 DUP2 DUP6 PUSH2 0x739 JUMP JUMPDEST SWAP4 POP PUSH2 0x7A5 DUP2 DUP6 PUSH1 0x20 DUP7 ADD PUSH2 0x749 JUMP JUMPDEST PUSH2 0x7AE DUP2 PUSH2 0x771 JUMP JUMPDEST DUP5 ADD SWAP2 POP POP SWAP3 SWAP2 POP POP JUMP JUMPDEST PUSH0 PUSH2 0x7C4 DUP4 DUP4 PUSH2 0x781 JUMP JUMPDEST SWAP1 POP SWAP3 SWAP2 POP POP JUMP JUMPDEST PUSH0 PUSH1 0x20 DUP3 ADD SWAP1 POP SWAP2 SWAP1 POP JUMP JUMPDEST PUSH0 PUSH2 0x7E2 DUP3 PUSH2 0x706 JUMP JUMPDEST PUSH2 0x7EC DUP2 DUP6 PUSH2 0x710 JUMP JUMPDEST SWAP4 POP DUP4 PUSH1 0x20 DUP3 MUL DUP6 ADD PUSH2 0x7FE DUP6 PUSH2 0x720 JUMP JUMPDEST DUP1 PUSH0 JUMPDEST DUP6 DUP2 LT ISZERO PUSH2 0x839 JUMPI DUP5 DUP5 SUB DUP10 MSTORE DUP2 MLOAD PUSH2 0x81A DUP6 DUP3 PUSH2 0x7B9 JUMP JUMPDEST SWAP5 POP PUSH2 0x825 DUP4 PUSH2 0x7CC JUMP JUMPDEST SWAP3 POP PUSH1 0x20 DUP11 ADD SWAP10 POP POP PUSH1 0x1 DUP2 ADD SWAP1 POP PUSH2 0x801 JUMP JUMPDEST POP DUP3 SWAP8 POP DUP8 SWAP6 POP POP POP POP POP POP SWAP3 SWAP2 POP POP JUMP JUMPDEST PUSH0 PUSH1 0x20 DUP3 ADD SWAP1 POP DUP2 DUP2 SUB PUSH0 DUP4 ADD MSTORE PUSH2 0x863 DUP2 DUP5 PUSH2 0x7D8 JUMP JUMPDEST SWAP1 POP SWAP3 SWAP2 POP POP JUMP JUMPDEST PUSH0 DUP2 ISZERO ISZERO SWAP1 POP SWAP2 SWAP1 POP JUMP JUMPDEST PUSH2 0x87F DUP2 PUSH2 0x86B JUMP JUMPDEST DUP3 MSTORE POP POP JUMP JUMPDEST PUSH0 PUSH1 0x20 DUP3 ADD SWAP1 POP PUSH2 0x898 PUSH0 DUP4 ADD DUP5 PUSH2 0x876 JUMP JUMPDEST SWAP3 SWAP2 POP POP JUMP JUMPDEST PUSH0 DUP2 SWAP1 POP SWAP2 SWAP1 POP JUMP JUMPDEST PUSH2 0x8B0 DUP2 PUSH2 0x89E JUMP JUMPDEST DUP3 MSTORE POP POP JUMP JUMPDEST PUSH0 PUSH1 0x20 DUP3 ADD SWAP1 POP PUSH2 0x8C9 PUSH0 DUP4 ADD DUP5 PUSH2 0x8A7 JUMP JUMPDEST SWAP3 SWAP2 POP POP JUMP JUMPDEST PUSH0 PUSH20 0xFFFFFFFFFFFFFFFFFFFFFFFFFFFFFFFFFFFFFFFF DUP3 AND SWAP1 POP SWAP2 SWAP1 POP JUMP JUMPDEST PUSH0 PUSH2 0x8F8 DUP3 PUSH2 0x8CF JUMP JUMPDEST SWAP1 POP SWAP2 SWAP1 POP JUMP JUMPDEST PUSH2 0x908 DUP2 PUSH2 0x8EE JUMP JUMPDEST DUP3 MSTORE POP POP JUMP JUMPDEST PUSH0 PUSH1 0x20 DUP3 ADD SWAP1 POP PUSH2 0x921 PUSH0 DUP4 ADD DUP5 PUSH2 0x8FF JUMP JUMPDEST SWAP3 SWAP2 POP POP JUMP JUMPDEST PUSH0 PUSH1 0x40 MLOAD SWAP1 POP SWAP1 JUMP JUMPDEST PUSH0 DUP1 REVERT JUMPDEST PUSH0 DUP1 REVERT JUMPDEST PUSH2 0x941 DUP2 PUSH2 0x8EE JUMP JUMPDEST DUP2 EQ PUSH2 0x94B JUMPI PUSH0 DUP1 REVERT JUMPDEST POP JUMP JUMPDEST PUSH0 DUP2 CALLDATALOAD SWAP1 POP PUSH2 0x95C DUP2 PUSH2 0x938 JUMP JUMPDEST SWAP3 SWAP2 POP POP JUMP JUMPDEST PUSH0 DUP1 REVERT JUMPDEST PUSH0 DUP1 REVERT JUMPDEST PUSH32 0x4E487B7100000000000000000000000000000000000000000000000000000000 PUSH0 MSTORE PUSH1 0x41 PUSH1 0x4 MSTORE PUSH1 0x24 PUSH0 REVERT JUMPDEST PUSH2 0x9A0 DUP3 PUSH2 0x771 JUMP JUMPDEST DUP2 ADD DUP2 DUP2 LT PUSH8 0xFFFFFFFFFFFFFFFF DUP3 GT OR ISZERO PUSH2 0x9BF JUMPI PUSH2 0x9BE PUSH2 0x96A JUMP JUMPDEST JUMPDEST DUP1 PUSH1 0x40 MSTORE POP POP POP JUMP JUMPDEST PUSH0 PUSH2 0x9D1 PUSH2 0x927 JUMP JUMPDEST SWAP1 POP PUSH2 0x9DD DUP3 DUP3 PUSH2 0x997 JUMP JUMPDEST SWAP2 SWAP1 POP JUMP JUMPDEST PUSH0 PUSH8 0xFFFFFFFFFFFFFFFF DUP3 GT ISZERO PUSH2 0x9FC JUMPI PUSH2 0x9FB PUSH2 0x96A JUMP JUMPDEST JUMPDEST PUSH2 0xA05 DUP3 PUSH2 0x771 JUMP JUMPDEST SWAP1 POP PUSH1 0x20 DUP2 ADD SWAP1 POP SWAP2 SWAP1 POP JUMP JUMPDEST DUP3 DUP2 DUP4 CALLDATACOPY PUSH0 DUP4 DUP4 ADD MSTORE POP POP POP JUMP JUMPDEST PUSH0 PUSH2 0xA32 PUSH2 0xA2D DUP5 PUSH2 0x9E2 JUMP JUMPDEST PUSH2 0x9C8 JUMP JUMPDEST SWAP1 POP DUP3 DUP2 MSTORE PUSH1 0x20 DUP2 ADD DUP5 DUP5 DUP5 ADD GT ISZERO PUSH2 0xA4E JUMPI PUSH2 0xA4D PUSH2 0x966 JUMP JUMPDEST JUMPDEST PUSH2 0xA59 DUP5 DUP3 DUP6 PUSH2 0xA12 JUMP JUMPDEST POP SWAP4 SWAP3 POP POP POP JUMP JUMPDEST PUSH0 DUP3 PUSH1 0x1F DUP4 ADD SLT PUSH2 0xA75 JUMPI PUSH2 0xA74 PUSH2 0x962 JUMP JUMPDEST JUMPDEST DUP2 CALLDATALOAD PUSH2 0xA85 DUP5 DUP3 PUSH1 0x20 DUP7 ADD PUSH2 0xA20 JUMP JUMPDEST SWAP2 POP POP SWAP3 SWAP2 POP POP JUMP JUMPDEST PUSH0 DUP1 PUSH1 0x40 DUP4 DUP6 SUB SLT ISZERO PUSH2 0xAA4 JUMPI PUSH2 0xAA3 PUSH2 0x930 JUMP JUMPDEST JUMPDEST PUSH0 PUSH2 0xAB1 DUP6 DUP3 DUP7 ADD PUSH2 0x94E JUMP JUMPDEST SWAP3 POP POP PUSH1 0x20 DUP4 ADD CALLDATALOAD PUSH8 0xFFFFFFFFFFFFFFFF DUP2 GT ISZERO PUSH2 0xAD2 JUMPI PUSH2 0xAD1 PUSH2 0x934 JUMP JUMPDEST JUMPDEST PUSH2 0xADE DUP6 DUP3 DUP7 ADD PUSH2 0xA61 JUMP JUMPDEST SWAP2 POP POP SWAP3 POP SWAP3 SWAP1 POP JUMP JUMPDEST PUSH0 DUP2 MLOAD SWAP1 POP SWAP2 SWAP1 POP JUMP JUMPDEST PUSH0 DUP3 DUP3 MSTORE PUSH1 0x20 DUP3 ADD SWAP1 POP SWAP3 SWAP2 POP POP JUMP JUMPDEST PUSH0 DUP2 SWAP1 POP PUSH1 0x20 DUP3 ADD SWAP1 POP SWAP2 SWAP1 POP JUMP JUMPDEST PUSH2 0xB1A DUP2 PUSH2 0x89E JUMP JUMPDEST DUP3 MSTORE POP POP JUMP JUMPDEST PUSH0 PUSH2 0xB2B DUP4 DUP4 PUSH2 0xB11 JUMP JUMPDEST PUSH1 0x20 DUP4 ADD SWAP1 POP SWAP3 SWAP2 POP POP JUMP JUMPDEST PUSH0 PUSH1 0x20 DUP3 ADD SWAP1 POP SWAP2 SWAP1 POP JUMP JUMPDEST PUSH0 PUSH2 0xB4D DUP3 PUSH2 0xAE8 JUMP JUMPDEST PUSH2 0xB57 DUP2 DUP6 PUSH2 0xAF2 JUMP JUMPDEST SWAP4 POP PUSH2 0xB62 DUP4 PUSH2 0xB02 JUMP JUMPDEST DUP1 PUSH0 JUMPDEST DUP4 DUP2 LT ISZERO PUSH2 0xB92 JUMPI DUP2 MLOAD PUSH2 0xB79 DUP9 DUP3 PUSH2 0xB20 JUMP JUMPDEST SWAP8 POP PUSH2 0xB84 DUP4 PUSH2 0xB37 JUMP JUMPDEST SWAP3 POP POP PUSH1 0x1 DUP2 ADD SWAP1 POP PUSH2 0xB65 JUMP JUMPDEST POP DUP6 SWAP4 POP POP POP POP SWAP3 SWAP2 POP POP JUMP JUMPDEST PUSH0 PUSH1 0x40 DUP3 ADD SWAP1 POP DUP2 DUP2 SUB PUSH0 DUP4 ADD MSTORE PUSH2 0xBB7 DUP2 DUP6 PUSH2 0x7D8 JUMP JUMPDEST SWAP1 POP DUP2 DUP2 SUB PUSH1 0x20 DUP4 ADD MSTORE PUSH2 0xBCB DUP2 DUP5 PUSH2 0xB43 JUMP JUMPDEST SWAP1 POP SWAP4 SWAP3 POP POP POP JUMP JUMPDEST PUSH32 0x4E487B7100000000000000000000000000000000000000000000000000000000 PUSH0 MSTORE PUSH1 0x22 PUSH1 0x4 MSTORE PUSH1 0x24 PUSH0 REVERT JUMPDEST PUSH0 PUSH1 0x2 DUP3 DIV SWAP1 POP PUSH1 0x1 DUP3 AND DUP1 PUSH2 0xC18 JUMPI PUSH1 0x7F DUP3 AND SWAP2 POP JUMPDEST PUSH1 0x20 DUP3 LT DUP2 SUB PUSH2 0xC2B JUMPI PUSH2 0xC2A PUSH2 0xBD4 JUMP JUMPDEST JUMPDEST POP SWAP2 SWAP1 POP JUMP JUMPDEST PUSH0 DUP2 SWAP1 POP SWAP3 SWAP2 POP POP JUMP JUMPDEST PUSH0 PUSH2 0xC45 DUP3 PUSH2 0x72F JUMP JUMPDEST PUSH2 0xC4F DUP2 DUP6 PUSH2 0xC31 JUMP JUMPDEST SWAP4 POP PUSH2 0xC5F DUP2 DUP6 PUSH1 0x20 DUP7 ADD PUSH2 0x749 JUMP JUMPDEST DUP1 DUP5 ADD SWAP2 POP POP SWAP3 SWAP2 POP POP JUMP JUMPDEST PUSH0 PUSH2 0xC76 DUP3 DUP5 PUSH2 0xC3B JUMP JUMPDEST SWAP2 POP DUP2 SWAP1 POP SWAP3 SWAP2 POP POP JUMP JUMPDEST PUSH0 DUP3 DUP3 MSTORE PUSH1 0x20 DUP3 ADD SWAP1 POP SWAP3 SWAP2 POP POP JUMP JUMPDEST PUSH32 0x63616E64696461746520646F65736E2774206578697374000000000000000000 PUSH0 DUP3 ADD MSTORE POP JUMP JUMPDEST PUSH0 PUSH2 0xCC5 PUSH1 0x17 DUP4 PUSH2 0xC81 JUMP JUMPDEST SWAP2 POP PUSH2 0xCD0 DUP3 PUSH2 0xC91 JUMP JUMPDEST PUSH1 0x20 DUP3 ADD SWAP1 POP SWAP2 SWAP1 POP JUMP JUMPDEST PUSH0 PUSH1 0x20 DUP3 ADD SWAP1 POP DUP2 DUP2 SUB PUSH0 DUP4 ADD MSTORE PUSH2 0xCF2 DUP2 PUSH2 0xCB9 JUMP JUMPDEST SWAP1 POP SWAP2 SWAP1 POP JUMP JUMPDEST PUSH32 0x4E487B7100000000000000000000000000000000000000000000000000000000 PUSH0 MSTORE PUSH1 0x11 PUSH1 0x4 MSTORE PUSH1 0x24 PUSH0 REVERT JUMPDEST PUSH0 PUSH2 0xD30 DUP3 PUSH2 0x89E JUMP JUMPDEST SWAP2 POP PUSH0 DUP3 SUB PUSH2 0xD42 JUMPI PUSH2 0xD41 PUSH2 0xCF9 JUMP JUMPDEST JUMPDEST PUSH1 0x1 DUP3 SUB SWAP1 POP SWAP2 SWAP1 POP JUMP JUMPDEST PUSH0 PUSH2 0xD57 DUP3 PUSH2 0x89E JUMP JUMPDEST SWAP2 POP PUSH32 0xFFFFFFFFFFFFFFFFFFFFFFFFFFFFFFFFFFFFFFFFFFFFFFFFFFFFFFFFFFFFFFFF DUP3 SUB PUSH2 0xD89 JUMPI PUSH2 0xD88 PUSH2 0xCF9 JUMP JUMPDEST JUMPDEST PUSH1 0x1 DUP3 ADD SWAP1 POP SWAP2 SWAP1 POP JUMP JUMPDEST PUSH0 DUP2 SWAP1 POP DUP2 PUSH0 MSTORE PUSH1 0x20 PUSH0 KECCAK256 SWAP1 POP SWAP2 SWAP1 POP JUMP JUMPDEST PUSH0 PUSH1 0x20 PUSH1 0x1F DUP4 ADD DIV SWAP1 POP SWAP2 SWAP1 POP JUMP JUMPDEST PUSH0 DUP3 DUP3 SHL SWAP1 POP SWAP3 SWAP2 POP POP JUMP JUMPDEST PUSH0 PUSH1 0x8 DUP4 MUL PUSH2 0xDF0 PUSH32 0xFFFFFFFFFFFFFFFFFFFFFFFFFFFFFFFFFFFFFFFFFFFFFFFFFFFFFFFFFFFFFFFF DUP3 PUSH2 0xDB5 JUMP JUMPDEST PUSH2 0xDFA DUP7 DUP4 PUSH2 0xDB5 JUMP JUMPDEST SWAP6 POP DUP1 NOT DUP5 AND SWAP4 POP DUP1 DUP7 AND DUP5 OR SWAP3 POP POP POP SWAP4 SWAP3 POP POP POP JUMP JUMPDEST PUSH0 DUP2 SWAP1 POP SWAP2 SWAP1 POP JUMP JUMPDEST PUSH0 PUSH2 0xE35 PUSH2 0xE30 PUSH2 0xE2B DUP5 PUSH2 0x89E JUMP JUMPDEST PUSH2 0xE12 JUMP JUMPDEST PUSH2 0x89E JUMP JUMPDEST SWAP1 POP SWAP2 SWAP1 POP JUMP JUMPDEST PUSH0 DUP2 SWAP1 POP SWAP2 SWAP1 POP JUMP JUMPDEST PUSH2 0xE4E DUP4 PUSH2 0xE1B JUMP JUMPDEST PUSH2 0xE62 PUSH2 0xE5A DUP3 PUSH2 0xE3C JUMP JUMPDEST DUP5 DUP5 SLOAD PUSH2 0xDC1 JUMP JUMPDEST DUP3 SSTORE POP POP POP POP JUMP JUMPDEST PUSH0 SWAP1 JUMP JUMPDEST PUSH2 0xE76 PUSH2 0xE6A JUMP JUMPDEST PUSH2 0xE81 DUP2 DUP5 DUP5 PUSH2 0xE45 JUMP JUMPDEST POP POP POP JUMP JUMPDEST JUMPDEST DUP2 DUP2 LT ISZERO PUSH2 0xEA4 JUMPI PUSH2 0xE99 PUSH0 DUP3 PUSH2 0xE6E JUMP JUMPDEST PUSH1 0x1 DUP2 ADD SWAP1 POP PUSH2 0xE87 JUMP JUMPDEST POP POP JUMP JUMPDEST PUSH1 0x1F DUP3 GT ISZERO PUSH2 0xEE9 JUMPI PUSH2 0xEBA DUP2 PUSH2 0xD94 JUMP JUMPDEST PUSH2 0xEC3 DUP5 PUSH2 0xDA6 JUMP JUMPDEST DUP2 ADD PUSH1 0x20 DUP6 LT ISZERO PUSH2 0xED2 JUMPI DUP2 SWAP1 POP JUMPDEST PUSH2 0xEE6 PUSH2 0xEDE DUP6 PUSH2 0xDA6 JUMP JUMPDEST DUP4 ADD DUP3 PUSH2 0xE86 JUMP JUMPDEST POP POP JUMPDEST POP POP POP JUMP JUMPDEST PUSH0 DUP3 DUP3 SHR SWAP1 POP SWAP3 SWAP2 POP POP JUMP JUMPDEST PUSH0 PUSH2 0xF09 PUSH0 NOT DUP5 PUSH1 0x8 MUL PUSH2 0xEEE JUMP JUMPDEST NOT DUP1 DUP4 AND SWAP2 POP POP SWAP3 SWAP2 POP POP JUMP JUMPDEST PUSH0 PUSH2 0xF21 DUP4 DUP4 PUSH2 0xEFA JUMP JUMPDEST SWAP2 POP DUP3 PUSH1 0x2 MUL DUP3 OR SWAP1 POP SWAP3 SWAP2 POP POP JUMP JUMPDEST PUSH2 0xF3A DUP3 PUSH2 0x72F JUMP JUMPDEST PUSH8 0xFFFFFFFFFFFFFFFF DUP2 GT ISZERO PUSH2 0xF53 JUMPI PUSH2 0xF52 PUSH2 0x96A JUMP JUMPDEST JUMPDEST PUSH2 0xF5D DUP3 SLOAD PUSH2 0xC01 JUMP JUMPDEST PUSH2 0xF68 DUP3 DUP3 DUP6 PUSH2 0xEA8 JUMP JUMPDEST PUSH0 PUSH1 0x20 SWAP1 POP PUSH1 0x1F DUP4 GT PUSH1 0x1 DUP2 EQ PUSH2 0xF99 JUMPI PUSH0 DUP5 ISZERO PUSH2 0xF87 JUMPI DUP3 DUP8 ADD MLOAD SWAP1 POP JUMPDEST PUSH2 0xF91 DUP6 DUP3 PUSH2 0xF16 JUMP JUMPDEST DUP7 SSTORE POP PUSH2 0xFF8 JUMP JUMPDEST PUSH1 0x1F NOT DUP5 AND PUSH2 0xFA7 DUP7 PUSH2 0xD94 JUMP JUMPDEST PUSH0 JUMPDEST DUP3 DUP2 LT ISZERO PUSH2 0xFCE JUMPI DUP5 DUP10 ADD MLOAD DUP3 SSTORE PUSH1 0x1 DUP3 ADD SWAP2 POP PUSH1 0x20 DUP6 ADD SWAP5 POP PUSH1 0x20 DUP2 ADD SWAP1 POP PUSH2 0xFA9 JUMP JUMPDEST DUP7 DUP4 LT ISZERO PUSH2 0xFEB JUMPI DUP5 DUP10 ADD MLOAD PUSH2 0xFE7 PUSH1 0x1F DUP10 AND DUP3 PUSH2 0xEFA JUMP JUMPDEST DUP4 SSTORE POP JUMPDEST PUSH1 0x1 PUSH1 0x2 DUP9 MUL ADD DUP9 SSTORE POP POP POP JUMPDEST POP POP POP POP POP POP JUMP JUMPDEST PUSH32 0x4E487B7100000000000000000000000000000000000000000000000000000000 PUSH0 MSTORE PUSH1 0x32 PUSH1 0x4 MSTORE PUSH1 0x24 PUSH0 REVERT JUMPDEST PUSH0 DUP2 SLOAD PUSH2 0x1039 DUP2 PUSH2 0xC01 JUMP JUMPDEST PUSH2 0x1043 DUP2 DUP7 PUSH2 0xC31 JUMP JUMPDEST SWAP5 POP PUSH1 0x1 DUP3 AND PUSH0 DUP2 EQ PUSH2 0x105D JUMPI PUSH1 0x1 DUP2 EQ PUSH2 0x1072 JUMPI PUSH2 0x10A4 JUMP JUMPDEST PUSH1 0xFF NOT DUP4 AND DUP7 MSTORE DUP2 ISZERO ISZERO DUP3 MUL DUP7 ADD SWAP4 POP PUSH2 0x10A4 JUMP JUMPDEST PUSH2 0x107B DUP6 PUSH2 0xD94 JUMP JUMPDEST PUSH0 JUMPDEST DUP4 DUP2 LT ISZERO PUSH2 0x109C JUMPI DUP2 SLOAD DUP2 DUP10 ADD MSTORE PUSH1 0x1 DUP3 ADD SWAP2 POP PUSH1 0x20 DUP2 ADD SWAP1 POP PUSH2 0x107D JUMP JUMPDEST DUP4 DUP9 ADD SWAP6 POP POP POP JUMPDEST POP POP POP SWAP3 SWAP2 POP POP JUMP JUMPDEST PUSH0 PUSH2 0x10B8 DUP3 DUP5 PUSH2 0x102D JUMP JUMPDEST SWAP2 POP DUP2 SWAP1 POP SWAP3 SWAP2 POP POP JUMP INVALID LOG2 PUSH5 0x6970667358 0x22 SLT KECCAK256 0xCA CALL SWAP12 PUSH3 0x3C161A CREATE 0xD3 0x4F EQ 0xB2 0x4D PUSH6 0x7EC9B6C69D2C 0xC SWAP16 0x22 0xD1 0x21 STOP 0x1E PUSH16 0x12660CAE64736F6C63430008160033A2 PUSH5 0x6970667358 0x22 SLT KECCAK256 SWAP12 SWAP4 0xC4 SWAP7 SWAP4 ADDMOD 0xEF ISZERO SWAP13 DUP1 BYTE 0xEC SWAP6 0x24 DUP7 SWAP15 0xEE SWAP6 0xEE 0xDB 0x21 RETURN MULMOD SWAP16 GASLIMIT 0xCA 0xAE SHR MSTORE8 0xF9 0xC1 0xF7 PUSH5 0x736F6C6343 STOP ADDMOD AND STOP CALLER "
		},
		"gasEstimates": {
			"creation": {
				"codeDepositCost": "3155200",
				"executionCost": "infinite",
				"totalCost": "infinite"
			},
			"external": {
				"castVoteOnElection(uint256,string)": "infinite",
				"createElection(string[])": "infinite",
				"endElection()": "infinite",
				"getElection(uint256)": "infinite",
				"getElectionResults(uint256)": "infinite",
				"getElections()": "infinite",
				"getElectionsForUser()": "infinite",
				"getOngoingElectionID()": "infinite"
			}
		},
		"methodIdentifiers": {
			"castVoteOnElection(uint256,string)": "51df5cfc",
			"createElection(string[])": "f8c5d5e6",
			"endElection()": "59f78468",
			"getElection(uint256)": "9d710777",
			"getElectionResults(uint256)": "e8ededa6",
			"getElections()": "9f3a7f52",
			"getElectionsForUser()": "92f83469",
			"getOngoingElectionID()": "84d16bf6"
		}
	},
	"abi": [
		{
			"inputs": [
				{
					"internalType": "uint256",
					"name": "id",
					"type": "uint256"
				},
				{
					"internalType": "string",
					"name": "_vote",
					"type": "string"
				}
			],
			"name": "castVoteOnElection",
			"outputs": [],
			"stateMutability": "nonpayable",
			"type": "function"
		},
		{
			"inputs": [
				{
					"internalType": "string[]",
					"name": "candidates",
					"type": "string[]"
				}
			],
			"name": "createElection",
			"outputs": [
				{
					"internalType": "uint256",
					"name": "",
					"type": "uint256"
				}
			],
			"stateMutability": "nonpayable",
			"type": "function"
		},
		{
			"inputs": [],
			"name": "endElection",
			"outputs": [
				{
					"internalType": "bool",
					"name": "",
					"type": "bool"
				}
			],
			"stateMutability": "nonpayable",
			"type": "function"
		},
		{
			"inputs": [
				{
					"internalType": "uint256",
					"name": "id",
					"type": "uint256"
				}
			],
			"name": "getElection",
			"outputs": [
				{
					"internalType": "uint256",
					"name": "",
					"type": "uint256"
				},
				{
					"internalType": "string[]",
					"name": "",
					"type": "string[]"
				}
			],
			"stateMutability": "view",
			"type": "function"
		},
		{
			"inputs": [
				{
					"internalType": "uint256",
					"name": "id",
					"type": "uint256"
				}
			],
			"name": "getElectionResults",
			"outputs": [
				{
					"internalType": "uint256",
					"name": "timestamp",
					"type": "uint256"
				},
				{
					"internalType": "string[]",
					"name": "candidates",
					"type": "string[]"
				},
				{
					"internalType": "uint256[]",
					"name": "candidateVotes",
					"type": "uint256[]"
				},
				{
					"internalType": "bool",
					"name": "hasEnded",
					"type": "bool"
				}
			],
			"stateMutability": "view",
			"type": "function"
		},
		{
			"inputs": [],
			"name": "getElections",
			"outputs": [
				{
					"internalType": "string[]",
					"name": "",
					"type": "string[]"
				},
				{
					"internalType": "uint256[]",
					"name": "",
					"type": "uint256[]"
				}
			],
			"stateMutability": "view",
			"type": "function"
		},
		{
			"inputs": [],
			"name": "getElectionsForUser",
			"outputs": [
				{
					"internalType": "uint256[]",
					"name": "electionIDs",
					"type": "uint256[]"
				},
				{
					"internalType": "bool[]",
					"name": "electionStatuses",
					"type": "bool[]"
				}
			],
			"stateMutability": "view",
			"type": "function"
		},
		{
			"inputs": [],
			"name": "getOngoingElectionID",
			"outputs": [
				{
					"internalType": "int256",
					"name": "",
					"type": "int256"
				}
			],
			"stateMutability": "view",
			"type": "function"
		}
	]
}