{
	"data": {
		"bytecode": {
			"linkReferences": {},
			"object": "608060405234801561000f575f80fd5b506105aa8061001d5f395ff3fe608060405234801561000f575f80fd5b5060043610610029575f3560e01c8063f63ec0981461002d575b5f80fd5b6100476004803603810190610042919061023e565b610049565b005b805f808473ffffffffffffffffffffffffffffffffffffffff1673ffffffffffffffffffffffffffffffffffffffff1681526020019081526020015f20908161009291906104a5565b505050565b5f604051905090565b5f80fd5b5f80fd5b5f73ffffffffffffffffffffffffffffffffffffffff82169050919050565b5f6100d1826100a8565b9050919050565b6100e1816100c7565b81146100eb575f80fd5b50565b5f813590506100fc816100d8565b92915050565b5f80fd5b5f80fd5b5f601f19601f8301169050919050565b7f4e487b71000000000000000000000000000000000000000000000000000000005f52604160045260245ffd5b6101508261010a565b810181811067ffffffffffffffff8211171561016f5761016e61011a565b5b80604052505050565b5f610181610097565b905061018d8282610147565b919050565b5f67ffffffffffffffff8211156101ac576101ab61011a565b5b6101b58261010a565b9050602081019050919050565b828183375f83830152505050565b5f6101e26101dd84610192565b610178565b9050828152602081018484840111156101fe576101fd610106565b5b6102098482856101c2565b509392505050565b5f82601f83011261022557610224610102565b5b81356102358482602086016101d0565b91505092915050565b5f8060408385031215610254576102536100a0565b5b5f610261858286016100ee565b925050602083013567ffffffffffffffff811115610282576102816100a4565b5b61028e85828601610211565b9150509250929050565b5f81519050919050565b7f4e487b71000000000000000000000000000000000000000000000000000000005f52602260045260245ffd5b5f60028204905060018216806102e657607f821691505b6020821081036102f9576102f86102a2565b5b50919050565b5f819050815f5260205f209050919050565b5f6020601f8301049050919050565b5f82821b905092915050565b5f6008830261035b7fffffffffffffffffffffffffffffffffffffffffffffffffffffffffffffffff82610320565b6103658683610320565b95508019841693508086168417925050509392505050565b5f819050919050565b5f819050919050565b5f6103a96103a461039f8461037d565b610386565b61037d565b9050919050565b5f819050919050565b6103c28361038f565b6103d66103ce826103b0565b84845461032c565b825550505050565b5f90565b6103ea6103de565b6103f58184846103b9565b505050565b5b818110156104185761040d5f826103e2565b6001810190506103fb565b5050565b601f82111561045d5761042e816102ff565b61043784610311565b81016020851015610446578190505b61045a61045285610311565b8301826103fa565b50505b505050565b5f82821c905092915050565b5f61047d5f1984600802610462565b1980831691505092915050565b5f610495838361046e565b9150826002028217905092915050565b6104ae82610298565b67ffffffffffffffff8111156104c7576104c661011a565b5b6104d182546102cf565b6104dc82828561041c565b5f60209050601f83116001811461050d575f84156104fb578287015190505b610505858261048a565b86555061056c565b601f19841661051b866102ff565b5f5b828110156105425784890151825560018201915060208501945060208101905061051d565b8683101561055f578489015161055b601f89168261046e565b8355505b6001600288020188555050505b50505050505056fea26469706673582212204048163b8b014cbe679cb5ce506f42228f16cbed19eac9e7ed62deece403e96d64736f6c63430008160033",
			"opcodes": "PUSH1 0x80 PUSH1 0x40 MSTORE CALLVALUE DUP1 ISZERO PUSH2 0xF JUMPI PUSH0 DUP1 REVERT JUMPDEST POP PUSH2 0x5AA DUP1 PUSH2 0x1D PUSH0 CODECOPY PUSH0 RETURN INVALID PUSH1 0x80 PUSH1 0x40 MSTORE CALLVALUE DUP1 ISZERO PUSH2 0xF JUMPI PUSH0 DUP1 REVERT JUMPDEST POP PUSH1 0x4 CALLDATASIZE LT PUSH2 0x29 JUMPI PUSH0 CALLDATALOAD PUSH1 0xE0 SHR DUP1 PUSH4 0xF63EC098 EQ PUSH2 0x2D JUMPI JUMPDEST PUSH0 DUP1 REVERT JUMPDEST PUSH2 0x47 PUSH1 0x4 DUP1 CALLDATASIZE SUB DUP2 ADD SWAP1 PUSH2 0x42 SWAP2 SWAP1 PUSH2 0x23E JUMP JUMPDEST PUSH2 0x49 JUMP JUMPDEST STOP JUMPDEST DUP1 PUSH0 DUP1 DUP5 PUSH20 0xFFFFFFFFFFFFFFFFFFFFFFFFFFFFFFFFFFFFFFFF AND PUSH20 0xFFFFFFFFFFFFFFFFFFFFFFFFFFFFFFFFFFFFFFFF AND DUP2 MSTORE PUSH1 0x20 ADD SWAP1 DUP2 MSTORE PUSH1 0x20 ADD PUSH0 KECCAK256 SWAP1 DUP2 PUSH2 0x92 SWAP2 SWAP1 PUSH2 0x4A5 JUMP JUMPDEST POP POP POP JUMP JUMPDEST PUSH0 PUSH1 0x40 MLOAD SWAP1 POP SWAP1 JUMP JUMPDEST PUSH0 DUP1 REVERT JUMPDEST PUSH0 DUP1 REVERT JUMPDEST PUSH0 PUSH20 0xFFFFFFFFFFFFFFFFFFFFFFFFFFFFFFFFFFFFFFFF DUP3 AND SWAP1 POP SWAP2 SWAP1 POP JUMP JUMPDEST PUSH0 PUSH2 0xD1 DUP3 PUSH2 0xA8 JUMP JUMPDEST SWAP1 POP SWAP2 SWAP1 POP JUMP JUMPDEST PUSH2 0xE1 DUP2 PUSH2 0xC7 JUMP JUMPDEST DUP2 EQ PUSH2 0xEB JUMPI PUSH0 DUP1 REVERT JUMPDEST POP JUMP JUMPDEST PUSH0 DUP2 CALLDATALOAD SWAP1 POP PUSH2 0xFC DUP2 PUSH2 0xD8 JUMP JUMPDEST SWAP3 SWAP2 POP POP JUMP JUMPDEST PUSH0 DUP1 REVERT JUMPDEST PUSH0 DUP1 REVERT JUMPDEST PUSH0 PUSH1 0x1F NOT PUSH1 0x1F DUP4 ADD AND SWAP1 POP SWAP2 SWAP1 POP JUMP JUMPDEST PUSH32 0x4E487B7100000000000000000000000000000000000000000000000000000000 PUSH0 MSTORE PUSH1 0x41 PUSH1 0x4 MSTORE PUSH1 0x24 PUSH0 REVERT JUMPDEST PUSH2 0x150 DUP3 PUSH2 0x10A JUMP JUMPDEST DUP2 ADD DUP2 DUP2 LT PUSH8 0xFFFFFFFFFFFFFFFF DUP3 GT OR ISZERO PUSH2 0x16F JUMPI PUSH2 0x16E PUSH2 0x11A JUMP JUMPDEST JUMPDEST DUP1 PUSH1 0x40 MSTORE POP POP POP JUMP JUMPDEST PUSH0 PUSH2 0x181 PUSH2 0x97 JUMP JUMPDEST SWAP1 POP PUSH2 0x18D DUP3 DUP3 PUSH2 0x147 JUMP JUMPDEST SWAP2 SWAP1 POP JUMP JUMPDEST PUSH0 PUSH8 0xFFFFFFFFFFFFFFFF DUP3 GT ISZERO PUSH2 0x1AC JUMPI PUSH2 0x1AB PUSH2 0x11A JUMP JUMPDEST JUMPDEST PUSH2 0x1B5 DUP3 PUSH2 0x10A JUMP JUMPDEST SWAP1 POP PUSH1 0x20 DUP2 ADD SWAP1 POP SWAP2 SWAP1 POP JUMP JUMPDEST DUP3 DUP2 DUP4 CALLDATACOPY PUSH0 DUP4 DUP4 ADD MSTORE POP POP POP JUMP JUMPDEST PUSH0 PUSH2 0x1E2 PUSH2 0x1DD DUP5 PUSH2 0x192 JUMP JUMPDEST PUSH2 0x178 JUMP JUMPDEST SWAP1 POP DUP3 DUP2 MSTORE PUSH1 0x20 DUP2 ADD DUP5 DUP5 DUP5 ADD GT ISZERO PUSH2 0x1FE JUMPI PUSH2 0x1FD PUSH2 0x106 JUMP JUMPDEST JUMPDEST PUSH2 0x209 DUP5 DUP3 DUP6 PUSH2 0x1C2 JUMP JUMPDEST POP SWAP4 SWAP3 POP POP POP JUMP JUMPDEST PUSH0 DUP3 PUSH1 0x1F DUP4 ADD SLT PUSH2 0x225 JUMPI PUSH2 0x224 PUSH2 0x102 JUMP JUMPDEST JUMPDEST DUP2 CALLDATALOAD PUSH2 0x235 DUP5 DUP3 PUSH1 0x20 DUP7 ADD PUSH2 0x1D0 JUMP JUMPDEST SWAP2 POP POP SWAP3 SWAP2 POP POP JUMP JUMPDEST PUSH0 DUP1 PUSH1 0x40 DUP4 DUP6 SUB SLT ISZERO PUSH2 0x254 JUMPI PUSH2 0x253 PUSH2 0xA0 JUMP JUMPDEST JUMPDEST PUSH0 PUSH2 0x261 DUP6 DUP3 DUP7 ADD PUSH2 0xEE JUMP JUMPDEST SWAP3 POP POP PUSH1 0x20 DUP4 ADD CALLDATALOAD PUSH8 0xFFFFFFFFFFFFFFFF DUP2 GT ISZERO PUSH2 0x282 JUMPI PUSH2 0x281 PUSH2 0xA4 JUMP JUMPDEST JUMPDEST PUSH2 0x28E DUP6 DUP3 DUP7 ADD PUSH2 0x211 JUMP JUMPDEST SWAP2 POP POP SWAP3 POP SWAP3 SWAP1 POP JUMP JUMPDEST PUSH0 DUP2 MLOAD SWAP1 POP SWAP2 SWAP1 POP JUMP JUMPDEST PUSH32 0x4E487B7100000000000000000000000000000000000000000000000000000000 PUSH0 MSTORE PUSH1 0x22 PUSH1 0x4 MSTORE PUSH1 0x24 PUSH0 REVERT JUMPDEST PUSH0 PUSH1 0x2 DUP3 DIV SWAP1 POP PUSH1 0x1 DUP3 AND DUP1 PUSH2 0x2E6 JUMPI PUSH1 0x7F DUP3 AND SWAP2 POP JUMPDEST PUSH1 0x20 DUP3 LT DUP2 SUB PUSH2 0x2F9 JUMPI PUSH2 0x2F8 PUSH2 0x2A2 JUMP JUMPDEST JUMPDEST POP SWAP2 SWAP1 POP JUMP JUMPDEST PUSH0 DUP2 SWAP1 POP DUP2 PUSH0 MSTORE PUSH1 0x20 PUSH0 KECCAK256 SWAP1 POP SWAP2 SWAP1 POP JUMP JUMPDEST PUSH0 PUSH1 0x20 PUSH1 0x1F DUP4 ADD DIV SWAP1 POP SWAP2 SWAP1 POP JUMP JUMPDEST PUSH0 DUP3 DUP3 SHL SWAP1 POP SWAP3 SWAP2 POP POP JUMP JUMPDEST PUSH0 PUSH1 0x8 DUP4 MUL PUSH2 0x35B PUSH32 0xFFFFFFFFFFFFFFFFFFFFFFFFFFFFFFFFFFFFFFFFFFFFFFFFFFFFFFFFFFFFFFFF DUP3 PUSH2 0x320 JUMP JUMPDEST PUSH2 0x365 DUP7 DUP4 PUSH2 0x320 JUMP JUMPDEST SWAP6 POP DUP1 NOT DUP5 AND SWAP4 POP DUP1 DUP7 AND DUP5 OR SWAP3 POP POP POP SWAP4 SWAP3 POP POP POP JUMP JUMPDEST PUSH0 DUP2 SWAP1 POP SWAP2 SWAP1 POP JUMP JUMPDEST PUSH0 DUP2 SWAP1 POP SWAP2 SWAP1 POP JUMP JUMPDEST PUSH0 PUSH2 0x3A9 PUSH2 0x3A4 PUSH2 0x39F DUP5 PUSH2 0x37D JUMP JUMPDEST PUSH2 0x386 JUMP JUMPDEST PUSH2 0x37D JUMP JUMPDEST SWAP1 POP SWAP2 SWAP1 POP JUMP JUMPDEST PUSH0 DUP2 SWAP1 POP SWAP2 SWAP1 POP JUMP JUMPDEST PUSH2 0x3C2 DUP4 PUSH2 0x38F JUMP JUMPDEST PUSH2 0x3D6 PUSH2 0x3CE DUP3 PUSH2 0x3B0 JUMP JUMPDEST DUP5 DUP5 SLOAD PUSH2 0x32C JUMP JUMPDEST DUP3 SSTORE POP POP POP POP JUMP JUMPDEST PUSH0 SWAP1 JUMP JUMPDEST PUSH2 0x3EA PUSH2 0x3DE JUMP JUMPDEST PUSH2 0x3F5 DUP2 DUP5 DUP5 PUSH2 0x3B9 JUMP JUMPDEST POP POP POP JUMP JUMPDEST JUMPDEST DUP2 DUP2 LT ISZERO PUSH2 0x418 JUMPI PUSH2 0x40D PUSH0 DUP3 PUSH2 0x3E2 JUMP JUMPDEST PUSH1 0x1 DUP2 ADD SWAP1 POP PUSH2 0x3FB JUMP JUMPDEST POP POP JUMP JUMPDEST PUSH1 0x1F DUP3 GT ISZERO PUSH2 0x45D JUMPI PUSH2 0x42E DUP2 PUSH2 0x2FF JUMP JUMPDEST PUSH2 0x437 DUP5 PUSH2 0x311 JUMP JUMPDEST DUP2 ADD PUSH1 0x20 DUP6 LT ISZERO PUSH2 0x446 JUMPI DUP2 SWAP1 POP JUMPDEST PUSH2 0x45A PUSH2 0x452 DUP6 PUSH2 0x311 JUMP JUMPDEST DUP4 ADD DUP3 PUSH2 0x3FA JUMP JUMPDEST POP POP JUMPDEST POP POP POP JUMP JUMPDEST PUSH0 DUP3 DUP3 SHR SWAP1 POP SWAP3 SWAP2 POP POP JUMP JUMPDEST PUSH0 PUSH2 0x47D PUSH0 NOT DUP5 PUSH1 0x8 MUL PUSH2 0x462 JUMP JUMPDEST NOT DUP1 DUP4 AND SWAP2 POP POP SWAP3 SWAP2 POP POP JUMP JUMPDEST PUSH0 PUSH2 0x495 DUP4 DUP4 PUSH2 0x46E JUMP JUMPDEST SWAP2 POP DUP3 PUSH1 0x2 MUL DUP3 OR SWAP1 POP SWAP3 SWAP2 POP POP JUMP JUMPDEST PUSH2 0x4AE DUP3 PUSH2 0x298 JUMP JUMPDEST PUSH8 0xFFFFFFFFFFFFFFFF DUP2 GT ISZERO PUSH2 0x4C7 JUMPI PUSH2 0x4C6 PUSH2 0x11A JUMP JUMPDEST JUMPDEST PUSH2 0x4D1 DUP3 SLOAD PUSH2 0x2CF JUMP JUMPDEST PUSH2 0x4DC DUP3 DUP3 DUP6 PUSH2 0x41C JUMP JUMPDEST PUSH0 PUSH1 0x20 SWAP1 POP PUSH1 0x1F DUP4 GT PUSH1 0x1 DUP2 EQ PUSH2 0x50D JUMPI PUSH0 DUP5 ISZERO PUSH2 0x4FB JUMPI DUP3 DUP8 ADD MLOAD SWAP1 POP JUMPDEST PUSH2 0x505 DUP6 DUP3 PUSH2 0x48A JUMP JUMPDEST DUP7 SSTORE POP PUSH2 0x56C JUMP JUMPDEST PUSH1 0x1F NOT DUP5 AND PUSH2 0x51B DUP7 PUSH2 0x2FF JUMP JUMPDEST PUSH0 JUMPDEST DUP3 DUP2 LT ISZERO PUSH2 0x542 JUMPI DUP5 DUP10 ADD MLOAD DUP3 SSTORE PUSH1 0x1 DUP3 ADD SWAP2 POP PUSH1 0x20 DUP6 ADD SWAP5 POP PUSH1 0x20 DUP2 ADD SWAP1 POP PUSH2 0x51D JUMP JUMPDEST DUP7 DUP4 LT ISZERO PUSH2 0x55F JUMPI DUP5 DUP10 ADD MLOAD PUSH2 0x55B PUSH1 0x1F DUP10 AND DUP3 PUSH2 0x46E JUMP JUMPDEST DUP4 SSTORE POP JUMPDEST PUSH1 0x1 PUSH1 0x2 DUP9 MUL ADD DUP9 SSTORE POP POP POP JUMPDEST POP POP POP POP POP POP JUMP INVALID LOG2 PUSH5 0x6970667358 0x22 SLT KECCAK256 BLOCKHASH BASEFEE AND EXTCODESIZE DUP12 ADD 0x4C 0xBE PUSH8 0x9CB5CE506F42228F AND 0xCB 0xED NOT 0xEA 0xC9 0xE7 0xED PUSH3 0xDEECE4 SUB 0xE9 PUSH14 0x64736F6C63430008160033000000 "
		},
		"gasEstimates": {
			"creation": {
				"codeDepositCost": "290000",
				"executionCost": "329",
				"totalCost": "290329"
			},
			"external": {
				"updateAddressVotesMap(address,string)": "infinite"
			}
		},
		"methodIdentifiers": {
			"updateAddressVotesMap(address,string)": "f63ec098"
		}
	},
	"abi": [
		{
			"inputs": [
				{
					"internalType": "address",
					"name": "voter",
					"type": "address"
				},
				{
					"internalType": "string",
					"name": "candidate",
					"type": "string"
				}
			],
			"name": "updateAddressVotesMap",
			"outputs": [],
			"stateMutability": "nonpayable",
			"type": "function"
		}
	]
}